{
  "_format": "hh-sol-artifact-1",
  "contractName": "Collectible721",
  "sourceName": "contracts/Collectible721.sol",
  "abi": [
    {
      "inputs": [
        {
          "internalType": "string",
          "name": "name",
          "type": "string"
        },
        {
          "internalType": "string",
          "name": "symbol",
          "type": "string"
        },
        {
          "internalType": "address",
          "name": "admin",
          "type": "address"
        },
        {
          "internalType": "address",
          "name": "minter",
          "type": "address"
        }
      ],
      "stateMutability": "nonpayable",
      "type": "constructor"
    },
    {
      "inputs": [],
      "name": "AccessControlBadConfirmation",
      "type": "error"
    },
    {
      "inputs": [
        {
          "internalType": "address",
          "name": "account",
          "type": "address"
        },
        {
          "internalType": "bytes32",
          "name": "neededRole",
          "type": "bytes32"
        }
      ],
      "name": "AccessControlUnauthorizedAccount",
      "type": "error"
    },
    {
      "inputs": [],
      "name": "ECDSAInvalidSignature",
      "type": "error"
    },
    {
      "inputs": [
        {
          "internalType": "uint256",
          "name": "length",
          "type": "uint256"
        }
      ],
      "name": "ECDSAInvalidSignatureLength",
      "type": "error"
    },
    {
      "inputs": [
        {
          "internalType": "bytes32",
          "name": "s",
          "type": "bytes32"
        }
      ],
      "name": "ECDSAInvalidSignatureS",
      "type": "error"
    },
    {
      "inputs": [
        {
          "internalType": "address",
          "name": "sender",
          "type": "address"
        },
        {
          "internalType": "uint256",
          "name": "tokenId",
          "type": "uint256"
        },
        {
          "internalType": "address",
          "name": "owner",
          "type": "address"
        }
      ],
      "name": "ERC721IncorrectOwner",
      "type": "error"
    },
    {
      "inputs": [
        {
          "internalType": "address",
          "name": "operator",
          "type": "address"
        },
        {
          "internalType": "uint256",
          "name": "tokenId",
          "type": "uint256"
        }
      ],
      "name": "ERC721InsufficientApproval",
      "type": "error"
    },
    {
      "inputs": [
        {
          "internalType": "address",
          "name": "approver",
          "type": "address"
        }
      ],
      "name": "ERC721InvalidApprover",
      "type": "error"
    },
    {
      "inputs": [
        {
          "internalType": "address",
          "name": "operator",
          "type": "address"
        }
      ],
      "name": "ERC721InvalidOperator",
      "type": "error"
    },
    {
      "inputs": [
        {
          "internalType": "address",
          "name": "owner",
          "type": "address"
        }
      ],
      "name": "ERC721InvalidOwner",
      "type": "error"
    },
    {
      "inputs": [
        {
          "internalType": "address",
          "name": "receiver",
          "type": "address"
        }
      ],
      "name": "ERC721InvalidReceiver",
      "type": "error"
    },
    {
      "inputs": [
        {
          "internalType": "address",
          "name": "sender",
          "type": "address"
        }
      ],
      "name": "ERC721InvalidSender",
      "type": "error"
    },
    {
      "inputs": [
        {
          "internalType": "uint256",
          "name": "tokenId",
          "type": "uint256"
        }
      ],
      "name": "ERC721NonexistentToken",
      "type": "error"
    },
    {
      "inputs": [],
      "name": "EnforcedPause",
      "type": "error"
    },
    {
      "inputs": [],
      "name": "ExpectedPause",
      "type": "error"
    },
    {
      "inputs": [],
      "name": "InvalidShortString",
      "type": "error"
    },
    {
      "inputs": [],
      "name": "ReentrancyGuardReentrantCall",
      "type": "error"
    },
    {
      "inputs": [
        {
          "internalType": "string",
          "name": "str",
          "type": "string"
        }
      ],
      "name": "StringTooLong",
      "type": "error"
    },
    {
      "anonymous": false,
      "inputs": [
        {
          "indexed": true,
          "internalType": "address",
          "name": "owner",
          "type": "address"
        },
        {
          "indexed": true,
          "internalType": "address",
          "name": "approved",
          "type": "address"
        },
        {
          "indexed": true,
          "internalType": "uint256",
          "name": "tokenId",
          "type": "uint256"
        }
      ],
      "name": "Approval",
      "type": "event"
    },
    {
      "anonymous": false,
      "inputs": [
        {
          "indexed": true,
          "internalType": "address",
          "name": "owner",
          "type": "address"
        },
        {
          "indexed": true,
          "internalType": "address",
          "name": "operator",
          "type": "address"
        },
        {
          "indexed": false,
          "internalType": "bool",
          "name": "approved",
          "type": "bool"
        }
      ],
      "name": "ApprovalForAll",
      "type": "event"
    },
    {
      "anonymous": false,
      "inputs": [
        {
          "indexed": false,
          "internalType": "uint256",
          "name": "_fromTokenId",
          "type": "uint256"
        },
        {
          "indexed": false,
          "internalType": "uint256",
          "name": "_toTokenId",
          "type": "uint256"
        }
      ],
      "name": "BatchMetadataUpdate",
      "type": "event"
    },
    {
      "anonymous": false,
      "inputs": [
        {
          "indexed": true,
          "internalType": "uint256",
          "name": "tokenId",
          "type": "uint256"
        },
        {
          "indexed": true,
          "internalType": "address",
          "name": "recipient",
          "type": "address"
        },
        {
          "indexed": true,
          "internalType": "bytes32",
          "name": "collectibleType",
          "type": "bytes32"
        },
        {
          "indexed": false,
          "internalType": "string",
          "name": "metadataURI",
          "type": "string"
        },
        {
          "indexed": false,
          "internalType": "uint256",
          "name": "series",
          "type": "uint256"
        },
        {
          "indexed": false,
          "internalType": "uint256",
          "name": "serialNumber",
          "type": "uint256"
        },
        {
          "indexed": false,
          "internalType": "uint256",
          "name": "timestamp",
          "type": "uint256"
        }
      ],
      "name": "CollectibleMinted",
      "type": "event"
    },
    {
      "anonymous": false,
      "inputs": [],
      "name": "EIP712DomainChanged",
      "type": "event"
    },
    {
      "anonymous": false,
      "inputs": [
        {
          "indexed": true,
          "internalType": "bytes32",
          "name": "collectibleType",
          "type": "bytes32"
        },
        {
          "indexed": false,
          "internalType": "uint256",
          "name": "maxSupply",
          "type": "uint256"
        }
      ],
      "name": "MaxSupplySet",
      "type": "event"
    },
    {
      "anonymous": false,
      "inputs": [
        {
          "indexed": false,
          "internalType": "uint256",
          "name": "_tokenId",
          "type": "uint256"
        }
      ],
      "name": "MetadataUpdate",
      "type": "event"
    },
    {
      "anonymous": false,
      "inputs": [
        {
          "indexed": false,
          "internalType": "address",
          "name": "account",
          "type": "address"
        }
      ],
      "name": "Paused",
      "type": "event"
    },
    {
      "anonymous": false,
      "inputs": [
        {
          "indexed": true,
          "internalType": "bytes32",
          "name": "role",
          "type": "bytes32"
        },
        {
          "indexed": true,
          "internalType": "bytes32",
          "name": "previousAdminRole",
          "type": "bytes32"
        },
        {
          "indexed": true,
          "internalType": "bytes32",
          "name": "newAdminRole",
          "type": "bytes32"
        }
      ],
      "name": "RoleAdminChanged",
      "type": "event"
    },
    {
      "anonymous": false,
      "inputs": [
        {
          "indexed": true,
          "internalType": "bytes32",
          "name": "role",
          "type": "bytes32"
        },
        {
          "indexed": true,
          "internalType": "address",
          "name": "account",
          "type": "address"
        },
        {
          "indexed": true,
          "internalType": "address",
          "name": "sender",
          "type": "address"
        }
      ],
      "name": "RoleGranted",
      "type": "event"
    },
    {
      "anonymous": false,
      "inputs": [
        {
          "indexed": true,
          "internalType": "bytes32",
          "name": "role",
          "type": "bytes32"
        },
        {
          "indexed": true,
          "internalType": "address",
          "name": "account",
          "type": "address"
        },
        {
          "indexed": true,
          "internalType": "address",
          "name": "sender",
          "type": "address"
        }
      ],
      "name": "RoleRevoked",
      "type": "event"
    },
    {
      "anonymous": false,
      "inputs": [
        {
          "indexed": true,
          "internalType": "address",
          "name": "from",
          "type": "address"
        },
        {
          "indexed": true,
          "internalType": "address",
          "name": "to",
          "type": "address"
        },
        {
          "indexed": true,
          "internalType": "uint256",
          "name": "tokenId",
          "type": "uint256"
        }
      ],
      "name": "Transfer",
      "type": "event"
    },
    {
      "anonymous": false,
      "inputs": [
        {
          "indexed": false,
          "internalType": "address",
          "name": "account",
          "type": "address"
        }
      ],
      "name": "Unpaused",
      "type": "event"
    },
    {
      "inputs": [],
      "name": "DEFAULT_ADMIN_ROLE",
      "outputs": [
        {
          "internalType": "bytes32",
          "name": "",
          "type": "bytes32"
        }
      ],
      "stateMutability": "view",
      "type": "function"
    },
    {
      "inputs": [],
      "name": "MINTER_ROLE",
      "outputs": [
        {
          "internalType": "bytes32",
          "name": "",
          "type": "bytes32"
        }
      ],
      "stateMutability": "view",
      "type": "function"
    },
    {
      "inputs": [],
      "name": "MINT_PERMIT_TYPEHASH",
      "outputs": [
        {
          "internalType": "bytes32",
          "name": "",
          "type": "bytes32"
        }
      ],
      "stateMutability": "view",
      "type": "function"
    },
    {
      "inputs": [],
      "name": "PAUSER_ROLE",
      "outputs": [
        {
          "internalType": "bytes32",
          "name": "",
          "type": "bytes32"
        }
      ],
      "stateMutability": "view",
      "type": "function"
    },
    {
      "inputs": [
        {
          "internalType": "address",
          "name": "to",
          "type": "address"
        },
        {
          "internalType": "uint256",
          "name": "tokenId",
          "type": "uint256"
        }
      ],
      "name": "approve",
      "outputs": [],
      "stateMutability": "nonpayable",
      "type": "function"
    },
    {
      "inputs": [
        {
          "internalType": "address",
          "name": "owner",
          "type": "address"
        }
      ],
      "name": "balanceOf",
      "outputs": [
        {
          "internalType": "uint256",
          "name": "",
          "type": "uint256"
        }
      ],
      "stateMutability": "view",
      "type": "function"
    },
    {
      "inputs": [
        {
          "internalType": "address[]",
          "name": "recipients",
          "type": "address[]"
        },
        {
          "internalType": "bytes32[]",
          "name": "collectibleTypes",
          "type": "bytes32[]"
        },
        {
          "internalType": "string[]",
          "name": "metadataURIs",
          "type": "string[]"
        },
        {
          "internalType": "uint256",
          "name": "_series",
          "type": "uint256"
        }
      ],
      "name": "batchMint",
      "outputs": [],
      "stateMutability": "nonpayable",
      "type": "function"
    },
    {
      "inputs": [
        {
          "internalType": "uint256",
          "name": "",
          "type": "uint256"
        }
      ],
      "name": "collectibleType",
      "outputs": [
        {
          "internalType": "bytes32",
          "name": "",
          "type": "bytes32"
        }
      ],
      "stateMutability": "view",
      "type": "function"
    },
    {
      "inputs": [
        {
          "internalType": "bytes32",
          "name": "",
          "type": "bytes32"
        }
      ],
      "name": "currentSupply",
      "outputs": [
        {
          "internalType": "uint256",
          "name": "",
          "type": "uint256"
        }
      ],
      "stateMutability": "view",
      "type": "function"
    },
    {
      "inputs": [],
      "name": "eip712Domain",
      "outputs": [
        {
          "internalType": "bytes1",
          "name": "fields",
          "type": "bytes1"
        },
        {
          "internalType": "string",
          "name": "name",
          "type": "string"
        },
        {
          "internalType": "string",
          "name": "version",
          "type": "string"
        },
        {
          "internalType": "uint256",
          "name": "chainId",
          "type": "uint256"
        },
        {
          "internalType": "address",
          "name": "verifyingContract",
          "type": "address"
        },
        {
          "internalType": "bytes32",
          "name": "salt",
          "type": "bytes32"
        },
        {
          "internalType": "uint256[]",
          "name": "extensions",
          "type": "uint256[]"
        }
      ],
      "stateMutability": "view",
      "type": "function"
    },
    {
      "inputs": [
        {
          "internalType": "uint256",
          "name": "tokenId",
          "type": "uint256"
        }
      ],
      "name": "getApproved",
      "outputs": [
        {
          "internalType": "address",
          "name": "",
          "type": "address"
        }
      ],
      "stateMutability": "view",
      "type": "function"
    },
    {
      "inputs": [
        {
          "internalType": "bytes32",
          "name": "role",
          "type": "bytes32"
        }
      ],
      "name": "getRoleAdmin",
      "outputs": [
        {
          "internalType": "bytes32",
          "name": "",
          "type": "bytes32"
        }
      ],
      "stateMutability": "view",
      "type": "function"
    },
    {
      "inputs": [
        {
          "internalType": "uint256",
          "name": "tokenId",
          "type": "uint256"
        }
      ],
      "name": "getTokenMetadata",
      "outputs": [
        {
          "internalType": "bytes32",
          "name": "_collectibleType",
          "type": "bytes32"
        },
        {
          "internalType": "uint256",
          "name": "_issuedAt",
          "type": "uint256"
        },
        {
          "internalType": "uint256",
          "name": "_series",
          "type": "uint256"
        },
        {
          "internalType": "uint256",
          "name": "_serialNumber",
          "type": "uint256"
        },
        {
          "internalType": "uint256",
          "name": "_maxSupply",
          "type": "uint256"
        },
        {
          "internalType": "uint256",
          "name": "_currentSupply",
          "type": "uint256"
        }
      ],
      "stateMutability": "view",
      "type": "function"
    },
    {
      "inputs": [
        {
          "internalType": "bytes32",
          "name": "role",
          "type": "bytes32"
        },
        {
          "internalType": "address",
          "name": "account",
          "type": "address"
        }
      ],
      "name": "grantRole",
      "outputs": [],
      "stateMutability": "nonpayable",
      "type": "function"
    },
    {
      "inputs": [
        {
          "internalType": "bytes32",
          "name": "role",
          "type": "bytes32"
        },
        {
          "internalType": "address",
          "name": "account",
          "type": "address"
        }
      ],
      "name": "hasRole",
      "outputs": [
        {
          "internalType": "bool",
          "name": "",
          "type": "bool"
        }
      ],
      "stateMutability": "view",
      "type": "function"
    },
    {
      "inputs": [
        {
          "internalType": "address",
          "name": "owner",
          "type": "address"
        },
        {
          "internalType": "address",
          "name": "operator",
          "type": "address"
        }
      ],
      "name": "isApprovedForAll",
      "outputs": [
        {
          "internalType": "bool",
          "name": "",
          "type": "bool"
        }
      ],
      "stateMutability": "view",
      "type": "function"
    },
    {
      "inputs": [
        {
          "internalType": "uint256",
          "name": "",
          "type": "uint256"
        }
      ],
      "name": "issuedAt",
      "outputs": [
        {
          "internalType": "uint256",
          "name": "",
          "type": "uint256"
        }
      ],
      "stateMutability": "view",
      "type": "function"
    },
    {
      "inputs": [
        {
          "internalType": "bytes32",
          "name": "",
          "type": "bytes32"
        }
      ],
      "name": "maxSupply",
      "outputs": [
        {
          "internalType": "uint256",
          "name": "",
          "type": "uint256"
        }
      ],
      "stateMutability": "view",
      "type": "function"
    },
    {
      "inputs": [
        {
          "internalType": "address",
          "name": "to",
          "type": "address"
        },
        {
          "internalType": "bytes32",
          "name": "_collectibleType",
          "type": "bytes32"
        },
        {
          "internalType": "string",
          "name": "metadataURI",
          "type": "string"
        },
        {
          "internalType": "uint256",
          "name": "_series",
          "type": "uint256"
        }
      ],
      "name": "mint",
      "outputs": [
        {
          "internalType": "uint256",
          "name": "",
          "type": "uint256"
        }
      ],
      "stateMutability": "nonpayable",
      "type": "function"
    },
    {
      "inputs": [
        {
          "internalType": "address",
          "name": "to",
          "type": "address"
        },
        {
          "internalType": "bytes32",
          "name": "_collectibleType",
          "type": "bytes32"
        },
        {
          "internalType": "string",
          "name": "metadataURI",
          "type": "string"
        },
        {
          "internalType": "uint256",
          "name": "_series",
          "type": "uint256"
        },
        {
          "internalType": "uint256",
          "name": "deadline",
          "type": "uint256"
        },
        {
          "internalType": "bytes",
          "name": "signature",
          "type": "bytes"
        }
      ],
      "name": "mintWithPermit",
      "outputs": [
        {
          "internalType": "uint256",
          "name": "",
          "type": "uint256"
        }
      ],
      "stateMutability": "nonpayable",
      "type": "function"
    },
    {
      "inputs": [],
      "name": "name",
      "outputs": [
        {
          "internalType": "string",
          "name": "",
          "type": "string"
        }
      ],
      "stateMutability": "view",
      "type": "function"
    },
    {
      "inputs": [
        {
          "internalType": "address",
          "name": "",
          "type": "address"
        }
      ],
      "name": "nonces",
      "outputs": [
        {
          "internalType": "uint256",
          "name": "",
          "type": "uint256"
        }
      ],
      "stateMutability": "view",
      "type": "function"
    },
    {
      "inputs": [
        {
          "internalType": "uint256",
          "name": "tokenId",
          "type": "uint256"
        }
      ],
      "name": "ownerOf",
      "outputs": [
        {
          "internalType": "address",
          "name": "",
          "type": "address"
        }
      ],
      "stateMutability": "view",
      "type": "function"
    },
    {
      "inputs": [],
      "name": "pause",
      "outputs": [],
      "stateMutability": "nonpayable",
      "type": "function"
    },
    {
      "inputs": [],
      "name": "paused",
      "outputs": [
        {
          "internalType": "bool",
          "name": "",
          "type": "bool"
        }
      ],
      "stateMutability": "view",
      "type": "function"
    },
    {
      "inputs": [
        {
          "internalType": "bytes32",
          "name": "role",
          "type": "bytes32"
        },
        {
          "internalType": "address",
          "name": "callerConfirmation",
          "type": "address"
        }
      ],
      "name": "renounceRole",
      "outputs": [],
      "stateMutability": "nonpayable",
      "type": "function"
    },
    {
      "inputs": [
        {
          "internalType": "bytes32",
          "name": "role",
          "type": "bytes32"
        },
        {
          "internalType": "address",
          "name": "account",
          "type": "address"
        }
      ],
      "name": "revokeRole",
      "outputs": [],
      "stateMutability": "nonpayable",
      "type": "function"
    },
    {
      "inputs": [
        {
          "internalType": "address",
          "name": "from",
          "type": "address"
        },
        {
          "internalType": "address",
          "name": "to",
          "type": "address"
        },
        {
          "internalType": "uint256",
          "name": "tokenId",
          "type": "uint256"
        }
      ],
      "name": "safeTransferFrom",
      "outputs": [],
      "stateMutability": "nonpayable",
      "type": "function"
    },
    {
      "inputs": [
        {
          "internalType": "address",
          "name": "from",
          "type": "address"
        },
        {
          "internalType": "address",
          "name": "to",
          "type": "address"
        },
        {
          "internalType": "uint256",
          "name": "tokenId",
          "type": "uint256"
        },
        {
          "internalType": "bytes",
          "name": "data",
          "type": "bytes"
        }
      ],
      "name": "safeTransferFrom",
      "outputs": [],
      "stateMutability": "nonpayable",
      "type": "function"
    },
    {
      "inputs": [
        {
          "internalType": "uint256",
          "name": "",
          "type": "uint256"
        }
      ],
      "name": "serialNumber",
      "outputs": [
        {
          "internalType": "uint256",
          "name": "",
          "type": "uint256"
        }
      ],
      "stateMutability": "view",
      "type": "function"
    },
    {
      "inputs": [
        {
          "internalType": "uint256",
          "name": "",
          "type": "uint256"
        }
      ],
      "name": "series",
      "outputs": [
        {
          "internalType": "uint256",
          "name": "",
          "type": "uint256"
        }
      ],
      "stateMutability": "view",
      "type": "function"
    },
    {
      "inputs": [
        {
          "internalType": "address",
          "name": "operator",
          "type": "address"
        },
        {
          "internalType": "bool",
          "name": "approved",
          "type": "bool"
        }
      ],
      "name": "setApprovalForAll",
      "outputs": [],
      "stateMutability": "nonpayable",
      "type": "function"
    },
    {
      "inputs": [
        {
          "internalType": "bytes32",
          "name": "_collectibleType",
          "type": "bytes32"
        },
        {
          "internalType": "uint256",
          "name": "_maxSupply",
          "type": "uint256"
        }
      ],
      "name": "setMaxSupply",
      "outputs": [],
      "stateMutability": "nonpayable",
      "type": "function"
    },
    {
      "inputs": [
        {
          "internalType": "bytes4",
          "name": "interfaceId",
          "type": "bytes4"
        }
      ],
      "name": "supportsInterface",
      "outputs": [
        {
          "internalType": "bool",
          "name": "",
          "type": "bool"
        }
      ],
      "stateMutability": "view",
      "type": "function"
    },
    {
      "inputs": [],
      "name": "symbol",
      "outputs": [
        {
          "internalType": "string",
          "name": "",
          "type": "string"
        }
      ],
      "stateMutability": "view",
      "type": "function"
    },
    {
      "inputs": [
        {
          "internalType": "uint256",
          "name": "tokenId",
          "type": "uint256"
        }
      ],
      "name": "tokenURI",
      "outputs": [
        {
          "internalType": "string",
          "name": "",
          "type": "string"
        }
      ],
      "stateMutability": "view",
      "type": "function"
    },
    {
      "inputs": [
        {
          "internalType": "address",
          "name": "from",
          "type": "address"
        },
        {
          "internalType": "address",
          "name": "to",
          "type": "address"
        },
        {
          "internalType": "uint256",
          "name": "tokenId",
          "type": "uint256"
        }
      ],
      "name": "transferFrom",
      "outputs": [],
      "stateMutability": "nonpayable",
      "type": "function"
    },
    {
      "inputs": [],
      "name": "unpause",
      "outputs": [],
      "stateMutability": "nonpayable",
      "type": "function"
    }
  ],
  "bytecode": "0x6101606040523480156200001257600080fd5b50604051620031f1380380620031f18339810160408190526200003591620003be565b6040805180820190915260018152603160f81b60208201528490818560006200005f8382620004dc565b5060016200006e8282620004dc565b50506001600955506200008382600a6200019d565b610120526200009481600b6200019d565b61014052815160208084019190912060e052815190820120610100524660a0526200012260e05161010051604080517f8b73c3c69bb8fe3d512ecc4cf759cc79239f7b179b0ffacaa9a75d522b39400f60208201529081019290925260608201524660808201523060a082015260009060c00160405160208183030381529060405280519060200120905090565b60805250503060c05262000138600083620001d6565b50620001657f9f2df0fed2c77648de5860a4cc508cd0818c85b8b8a1ab4ceeef8d981c8956a682620001d6565b50620001927f65d7a28e3265b37a6474929f336521b332c1681b933f6cb9f3376673440d862a83620001d6565b505050505062000602565b6000602083511015620001bd57620001b58362000288565b9050620001d0565b81620001ca8482620004dc565b5060ff90505b92915050565b60008281526007602090815260408083206001600160a01b038516845290915281205460ff166200027f5760008381526007602090815260408083206001600160a01b03861684529091529020805460ff19166001179055620002363390565b6001600160a01b0316826001600160a01b0316847f2f8788117e7eff1d82e926ec794901d17c78024a50270940304540a733656f0d60405160405180910390a4506001620001d0565b506000620001d0565b600080829050601f81511115620002bf578260405163305a27a960e01b8152600401620002b69190620005a8565b60405180910390fd5b8051620002cc82620005dd565b179392505050565b634e487b7160e01b600052604160045260246000fd5b60005b8381101562000307578181015183820152602001620002ed565b50506000910152565b600082601f8301126200032257600080fd5b81516001600160401b03808211156200033f576200033f620002d4565b604051601f8301601f19908116603f011681019082821181831017156200036a576200036a620002d4565b816040528381528660208588010111156200038457600080fd5b62000397846020830160208901620002ea565b9695505050505050565b80516001600160a01b0381168114620003b957600080fd5b919050565b60008060008060808587031215620003d557600080fd5b84516001600160401b0380821115620003ed57600080fd5b620003fb8883890162000310565b955060208701519150808211156200041257600080fd5b50620004218782880162000310565b9350506200043260408601620003a1565b91506200044260608601620003a1565b905092959194509250565b600181811c908216806200046257607f821691505b6020821081036200048357634e487b7160e01b600052602260045260246000fd5b50919050565b601f821115620004d757600081815260208120601f850160051c81016020861015620004b25750805b601f850160051c820191505b81811015620004d357828155600101620004be565b5050505b505050565b81516001600160401b03811115620004f857620004f8620002d4565b62000510816200050984546200044d565b8462000489565b602080601f8311600181146200054857600084156200052f5750858301515b600019600386901b1c1916600185901b178555620004d3565b600085815260208120601f198616915b82811015620005795788860151825594840194600190910190840162000558565b5085821015620005985787850151600019600388901b60f8161c191681555b5050505050600190811b01905550565b6020815260008251806020840152620005c9816040850160208701620002ea565b601f01601f19169190910160400192915050565b80516020808301519190811015620004835760001960209190910360031b1b16919050565b60805160a05160c05160e051610100516101205161014051612b946200065d600039600061165f0152600061162d01526000611db401526000611d8c01526000611ce701526000611d1101526000611d3b0152612b946000f3fe608060405234801561001057600080fd5b50600436106102325760003560e01c806391d1485411610130578063c37a044c116100b8578063db7641041161007c578063db76410414610551578063dc22cb6a14610571578063e63ab1e914610591578063e8613de3146105b8578063e985e9c5146105cb57600080fd5b8063c37a044c146104e3578063c87b56dd14610503578063d539139314610516578063d547741f1461052b578063d88ef6b91461053e57600080fd5b8063a22cb465116100ff578063a22cb4651461046a578063b83007811461047d578063b85988f014610490578063b88d4fde146104b0578063befb69d0146104c357600080fd5b806391d148541461042757806395d89b411461043a5780639f37e2fd14610442578063a217fddf1461046257600080fd5b806342842e0e116101be57806370a082311161018257806370a08231146103aa5780637ecebe00146103bd5780638456cb59146103dd57806384b0196e146103e55780638cfcae211461040057600080fd5b806342842e0e1461032657806345b510b6146103395780635c975abb1461034c57806360316801146103575780636352211e1461039757600080fd5b806323b872dd1161020557806323b872dd146102b4578063248a9ca3146102c75780632f2ff15d146102f857806336568abe1461030b5780633f4ba83a1461031e57600080fd5b806301ffc9a71461023757806306fdde031461025f578063081812fc14610274578063095ea7b31461029f575b600080fd5b61024a6102453660046122da565b6105de565b60405190151581526020015b60405180910390f35b6102676105ef565b6040516102569190612347565b61028761028236600461235a565b610681565b6040516001600160a01b039091168152602001610256565b6102b26102ad36600461238f565b6106aa565b005b6102b26102c23660046123b9565b6106b9565b6102ea6102d536600461235a565b60009081526007602052604090206001015490565b604051908152602001610256565b6102b26103063660046123f5565b610749565b6102b26103193660046123f5565b61076e565b6102b26107a6565b6102b26103343660046123b9565b6107db565b6102ea6103473660046124c4565b6107f6565b60085460ff1661024a565b61036a61036536600461235a565b610992565b604080519687526020870195909552938501929092526060840152608083015260a082015260c001610256565b6102876103a536600461235a565b610a55565b6102ea6103b8366004612523565b610a60565b6102ea6103cb366004612523565b60136020526000908152604090205481565b6102b2610aa8565b6103ed610ada565b604051610256979695949392919061253e565b6102ea7fa4175c07f69012e2588e1369a48fa97095cc811a72e1a6712c43ec8a43cb3d1881565b61024a6104353660046123f5565b610b20565b610267610b4b565b6102ea61045036600461235a565b600e6020526000908152604090205481565b6102ea600081565b6102b26104783660046125d4565b610b5a565b6102b261048b36600461265c565b610b65565b6102ea61049e36600461235a565b600d6020526000908152604090205481565b6102b26104be3660046126ff565b610e0d565b6102ea6104d136600461235a565b60106020526000908152604090205481565b6102ea6104f136600461235a565b60126020526000908152604090205481565b61026761051136600461235a565b610e25565b6102ea600080516020612b3f83398151915281565b6102b26105393660046123f5565b610e30565b6102b261054c366004612767565b610e55565b6102ea61055f36600461235a565b60116020526000908152604090205481565b6102ea61057f36600461235a565b600f6020526000908152604090205481565b6102ea7f65d7a28e3265b37a6474929f336521b332c1681b933f6cb9f3376673440d862a81565b6102ea6105c6366004612789565b610f2f565b61024a6105d9366004612819565b611240565b60006105e98261126e565b92915050565b6060600080546105fe90612843565b80601f016020809104026020016040519081016040528092919081815260200182805461062a90612843565b80156106775780601f1061064c57610100808354040283529160200191610677565b820191906000526020600020905b81548152906001019060200180831161065a57829003601f168201915b5050505050905090565b600061068c82611293565b506000828152600460205260409020546001600160a01b03166105e9565b6106b58282336112cc565b5050565b6001600160a01b0382166106e857604051633250574960e11b8152600060048201526024015b60405180910390fd5b60006106f58383336112d9565b9050836001600160a01b0316816001600160a01b031614610743576040516364283d7b60e01b81526001600160a01b03808616600483015260248201849052821660448201526064016106df565b50505050565b600082815260076020526040902060010154610764816113d2565b61074383836113dc565b6001600160a01b03811633146107975760405163334bd91960e11b815260040160405180910390fd5b6107a18282611470565b505050565b7f65d7a28e3265b37a6474929f336521b332c1681b933f6cb9f3376673440d862a6107d0816113d2565b6107d86114dd565b50565b6107a183838360405180602001604052806000815250610e0d565b6000600080516020612b3f833981519152610810816113d2565b61081861152f565b610820611559565b6001600160a01b03861661086a5760405162461bcd60e51b8152602060048201526011602482015270125b9d985b1a59081c9958da5c1a595b9d607a1b60448201526064016106df565b60008581526011602052604090205480156108ac5760008681526012602052604090205481116108ac5760405162461bcd60e51b81526004016106df9061287d565b600c8054600091826108bd836128a9565b9091555060008881526012602052604081208054929350909190826108e1836128a9565b9190505590506108f1898361157f565b6108fb8288611599565b6000828152600d602090815260408083208b9055600e82528083204290819055600f83528184208a9055601090925291829020839055905189916001600160a01b038c169185917ff9d678de804214bba9506f99b65abeaf315f6d45442add5d95c49451654cd0ba91610973918d918d9189916128d0565b60405180910390a4509250506109896001600955565b50949350505050565b60008080808080806109b9886000908152600260205260409020546001600160a01b031690565b6001600160a01b031603610a065760405162461bcd60e51b8152602060048201526014602482015273151bdad95b88191bd95cc81b9bdd08195e1a5cdd60621b60448201526064016106df565b50505060009384525050600d6020908152604080842054600e835281852054600f8452828620546010855283872054838852601186528488205460129096529390962054919690959450919291565b60006105e982611293565b60006001600160a01b038216610a8c576040516322718ad960e21b8152600060048201526024016106df565b506001600160a01b031660009081526003602052604090205490565b7f65d7a28e3265b37a6474929f336521b332c1681b933f6cb9f3376673440d862a610ad2816113d2565b6107d86115e9565b600060608060008060006060610aee611626565b610af6611658565b60408051600080825260208201909252600f60f81b9b939a50919850469750309650945092509050565b60009182526007602090815260408084206001600160a01b0393909316845291905290205460ff1690565b6060600180546105fe90612843565b6106b5338383611685565b600080516020612b3f833981519152610b7d816113d2565b610b8561152f565b610b8d611559565b8685148015610b9b57508483145b610bdf5760405162461bcd60e51b8152602060048201526015602482015274082e4e4c2f240d8cadccee8d040dad2e6dac2e8c6d605b1b60448201526064016106df565b60005b87811015610df8576000878783818110610bfe57610bfe6128ff565b6020908102929092013560008181526011909352604090922054919250508015610c4f576000828152601260205260409020548111610c4f5760405162461bcd60e51b81526004016106df9061287d565b600c805460009182610c60836128a9565b909155506000848152601260205260408120805492935090919082610c84836128a9565b919050559050610cba8d8d87818110610c9f57610c9f6128ff565b9050602002016020810190610cb49190612523565b8361157f565b610d1c828a8a88818110610cd057610cd06128ff565b9050602002810190610ce29190612915565b8080601f01602080910402602001604051908101604052809392919081815260200183838082843760009201919091525061159992505050565b6000828152600d60209081526040808320879055600e8252808320429055600f82528083208a905560109091529020819055838d8d87818110610d6157610d616128ff565b9050602002016020810190610d769190612523565b6001600160a01b0316837ff9d678de804214bba9506f99b65abeaf315f6d45442add5d95c49451654cd0ba8c8c8a818110610db357610db36128ff565b9050602002810190610dc59190612915565b8c8742604051610dd995949392919061295c565b60405180910390a4505050508080610df0906128a9565b915050610be2565b50610e036001600955565b5050505050505050565b610e188484846106b9565b6107433385858585611724565b60606105e98261184f565b600082815260076020526040902060010154610e4b816113d2565b6107438383611470565b6000610e60816113d2565b811580610e7b57506000838152601260205260409020548210155b610edd5760405162461bcd60e51b815260206004820152602d60248201527f4d617820737570706c792063616e6e6f74206265206c657373207468616e206360448201526c757272656e7420737570706c7960981b60648201526084016106df565b600083815260116020526040908190208390555183907f86b12292e1344bb1f625c1e4d00f6ec6c3e2dac25c12b3c6b12fa87d86e6393f90610f229085815260200190565b60405180910390a2505050565b6000610f3961152f565b610f41611559565b82421115610f825760405162461bcd60e51b815260206004820152600e60248201526d14195c9b5a5d08195e1c1a5c995960921b60448201526064016106df565b6001600160a01b038716610fcc5760405162461bcd60e51b8152602060048201526011602482015270125b9d985b1a59081c9958da5c1a595b9d607a1b60448201526064016106df565b600086815260116020526040902054801561100e57600087815260126020526040902054811161100e5760405162461bcd60e51b81526004016106df9061287d565b85516020808801919091206001600160a01b038a16600090815260139092526040822080547fa4175c07f69012e2588e1369a48fa97095cc811a72e1a6712c43ec8a43cb3d18928c928c929086611064836128a9565b909155506040805160208101969096526001600160a01b03909416938501939093526060840191909152608083015260a082015260c0810186905260e00160405160208183030381529060405280519060200120905060006110c582611960565b905060006110d3828761198d565b90506110ed600080516020612b3f83398151915282610b20565b61112d5760405162461bcd60e51b8152602060048201526011602482015270496e76616c6964207369676e617475726560781b60448201526064016106df565b600c80546000918261113e836128a9565b9091555060008c8152601260205260408120805492935090919082611162836128a9565b9190505590506111728d8361157f565b61117c828c611599565b8b600d60008481526020019081526020016000208190555042600e60008481526020019081526020016000208190555089600f6000848152602001908152602001600020819055508060106000848152602001908152602001600020819055508b8d6001600160a01b0316837ff9d678de804214bba9506f99b65abeaf315f6d45442add5d95c49451654cd0ba8e8e864260405161121d94939291906128d0565b60405180910390a4509450505050506112366001600955565b9695505050505050565b6001600160a01b03918216600090815260056020908152604080832093909416825291909152205460ff1690565b60006001600160e01b03198216637965db0b60e01b14806105e957506105e9826119b7565b6000818152600260205260408120546001600160a01b0316806105e957604051637e27328960e01b8152600481018490526024016106df565b6107a183838360016119dc565b6000828152600260205260408120546001600160a01b039081169083161561130657611306818486611ae2565b6001600160a01b03811615611344576113236000856000806119dc565b6001600160a01b038116600090815260036020526040902080546000190190555b6001600160a01b03851615611373576001600160a01b0385166000908152600360205260409020805460010190555b60008481526002602052604080822080546001600160a01b0319166001600160a01b0389811691821790925591518793918516917fddf252ad1be2c89b69c2b068fc378daa952ba7f163c4a11628f55a4df523b3ef91a4949350505050565b6107d88133611b46565b60006113e88383610b20565b6114685760008381526007602090815260408083206001600160a01b03861684529091529020805460ff191660011790556114203390565b6001600160a01b0316826001600160a01b0316847f2f8788117e7eff1d82e926ec794901d17c78024a50270940304540a733656f0d60405160405180910390a45060016105e9565b5060006105e9565b600061147c8383610b20565b156114685760008381526007602090815260408083206001600160a01b0386168085529252808320805460ff1916905551339286917ff6391f5c32d9c69d2a47ea670b442974b53935d1edc7fd64eb21e047a839171b9190a45060016105e9565b6114e5611b7f565b6008805460ff191690557f5db9ee0a495bf2e6ff9c91a7834c1ba4fdd244a5e8aa4e537bd38aeae4b073aa335b6040516001600160a01b03909116815260200160405180910390a1565b60026009540361155257604051633ee5aeb560e01b815260040160405180910390fd5b6002600955565b60085460ff161561157d5760405163d93c066560e01b815260040160405180910390fd5b565b6106b5828260405180602001604052806000815250611ba2565b60008281526006602052604090206115b182826129e9565b506040518281527ff8e1a15aba9398e019f0b49df1a4fde98ee17ae345cb5f6b5e2c27f5033e8ce79060200160405180910390a15050565b6115f1611559565b6008805460ff191660011790557f62e78cea01bee320cd4e420270b5ea74000d11b0c9f74754ebdbfc544b05a2586115123390565b60606116537f0000000000000000000000000000000000000000000000000000000000000000600a611bba565b905090565b60606116537f0000000000000000000000000000000000000000000000000000000000000000600b611bba565b6001600160a01b0382166116b757604051630b61174360e31b81526001600160a01b03831660048201526024016106df565b6001600160a01b03838116600081815260056020908152604080832094871680845294825291829020805460ff191686151590811790915591519182527f17307eab39ab6107e8899845ad3d59bd9653f200f220920489ca2b5937696c31910160405180910390a3505050565b6001600160a01b0383163b1561184857604051630a85bd0160e11b81526001600160a01b0384169063150b7a0290611766908890889087908790600401612aa9565b6020604051808303816000875af19250505080156117a1575060408051601f3d908101601f1916820190925261179e91810190612adc565b60015b61180a573d8080156117cf576040519150601f19603f3d011682016040523d82523d6000602084013e6117d4565b606091505b50805160000361180257604051633250574960e11b81526001600160a01b03851660048201526024016106df565b805160208201fd5b6001600160e01b03198116630a85bd0160e11b1461184657604051633250574960e11b81526001600160a01b03851660048201526024016106df565b505b5050505050565b606061185a82611293565b506000828152600660205260408120805461187490612843565b80601f01602080910402602001604051908101604052809291908181526020018280546118a090612843565b80156118ed5780601f106118c2576101008083540402835291602001916118ed565b820191906000526020600020905b8154815290600101906020018083116118d057829003601f168201915b50505050509050600061190b60408051602081019091526000815290565b9050805160000361191d575092915050565b81511561194f578082604051602001611937929190612af9565b60405160208183030381529060405292505050919050565b61195884611c65565b949350505050565b60006105e961196d611cda565b8360405161190160f01b8152600281019290925260228201526042902090565b60008060008061199d8686611e05565b9250925092506119ad8282611e52565b5090949350505050565b60006001600160e01b03198216632483248360e11b14806105e957506105e982611f0b565b80806119f057506001600160a01b03821615155b15611ab2576000611a0084611293565b90506001600160a01b03831615801590611a2c5750826001600160a01b0316816001600160a01b031614155b8015611a3f5750611a3d8184611240565b155b15611a685760405163a9fbf51f60e01b81526001600160a01b03841660048201526024016106df565b8115611ab05783856001600160a01b0316826001600160a01b03167f8c5be1e5ebec7d5bd14f71427d1e84f3dd0314c0f7b2291e5b200ac8c7c3b92560405160405180910390a45b505b5050600090815260046020526040902080546001600160a01b0319166001600160a01b0392909216919091179055565b611aed838383611f5b565b6107a1576001600160a01b038316611b1b57604051637e27328960e01b8152600481018290526024016106df565b60405163177e802f60e01b81526001600160a01b0383166004820152602481018290526044016106df565b611b508282610b20565b6106b55760405163e2517d3f60e01b81526001600160a01b0382166004820152602481018390526044016106df565b60085460ff1661157d57604051638dfc202b60e01b815260040160405180910390fd5b611bac8383611fbe565b6107a1336000858585611724565b606060ff8314611bd457611bcd83612023565b90506105e9565b818054611be090612843565b80601f0160208091040260200160405190810160405280929190818152602001828054611c0c90612843565b8015611c595780601f10611c2e57610100808354040283529160200191611c59565b820191906000526020600020905b815481529060010190602001808311611c3c57829003601f168201915b505050505090506105e9565b6060611c7082611293565b506000611c8860408051602081019091526000815290565b90506000815111611ca85760405180602001604052806000815250611cd3565b80611cb284612062565b604051602001611cc3929190612af9565b6040516020818303038152906040525b9392505050565b6000306001600160a01b037f000000000000000000000000000000000000000000000000000000000000000016148015611d3357507f000000000000000000000000000000000000000000000000000000000000000046145b15611d5d57507f000000000000000000000000000000000000000000000000000000000000000090565b611653604080517f8b73c3c69bb8fe3d512ecc4cf759cc79239f7b179b0ffacaa9a75d522b39400f60208201527f0000000000000000000000000000000000000000000000000000000000000000918101919091527f000000000000000000000000000000000000000000000000000000000000000060608201524660808201523060a082015260009060c00160405160208183030381529060405280519060200120905090565b60008060008351604103611e3f5760208401516040850151606086015160001a611e31888285856120f5565b955095509550505050611e4b565b50508151600091506002905b9250925092565b6000826003811115611e6657611e66612b28565b03611e6f575050565b6001826003811115611e8357611e83612b28565b03611ea15760405163f645eedf60e01b815260040160405180910390fd5b6002826003811115611eb557611eb5612b28565b03611ed65760405163fce698f760e01b8152600481018290526024016106df565b6003826003811115611eea57611eea612b28565b036106b5576040516335e2f38360e21b8152600481018290526024016106df565b60006001600160e01b031982166380ac58cd60e01b1480611f3c57506001600160e01b03198216635b5e139f60e01b145b806105e957506301ffc9a760e01b6001600160e01b03198316146105e9565b60006001600160a01b038316158015906119585750826001600160a01b0316846001600160a01b03161480611f955750611f958484611240565b806119585750506000908152600460205260409020546001600160a01b03908116911614919050565b6001600160a01b038216611fe857604051633250574960e11b8152600060048201526024016106df565b6000611ff6838360006112d9565b90506001600160a01b038116156107a1576040516339e3563760e11b8152600060048201526024016106df565b60606000612030836121c4565b604080516020808252818301909252919250600091906020820181803683375050509182525060208101929092525090565b6060600061206f836121ec565b600101905060008167ffffffffffffffff81111561208f5761208f612421565b6040519080825280601f01601f1916602001820160405280156120b9576020820181803683370190505b5090508181016020015b600019016f181899199a1a9b1b9c1cb0b131b232b360811b600a86061a8153600a85049450846120c357509392505050565b600080807f7fffffffffffffffffffffffffffffff5d576e7357a4501ddfe92f46681b20a084111561213057506000915060039050826121ba565b604080516000808252602082018084528a905260ff891692820192909252606081018790526080810186905260019060a0016020604051602081039080840390855afa158015612184573d6000803e3d6000fd5b5050604051601f1901519150506001600160a01b0381166121b0575060009250600191508290506121ba565b9250600091508190505b9450945094915050565b600060ff8216601f8111156105e957604051632cd44ac360e21b815260040160405180910390fd5b60008072184f03e93ff9f4daa797ed6e38ed64bf6a1f0160401b831061222b5772184f03e93ff9f4daa797ed6e38ed64bf6a1f0160401b830492506040015b6d04ee2d6d415b85acef81000000008310612257576d04ee2d6d415b85acef8100000000830492506020015b662386f26fc10000831061227557662386f26fc10000830492506010015b6305f5e100831061228d576305f5e100830492506008015b61271083106122a157612710830492506004015b606483106122b3576064830492506002015b600a83106105e95760010192915050565b6001600160e01b0319811681146107d857600080fd5b6000602082840312156122ec57600080fd5b8135611cd3816122c4565b60005b838110156123125781810151838201526020016122fa565b50506000910152565b600081518084526123338160208601602086016122f7565b601f01601f19169290920160200192915050565b602081526000611cd3602083018461231b565b60006020828403121561236c57600080fd5b5035919050565b80356001600160a01b038116811461238a57600080fd5b919050565b600080604083850312156123a257600080fd5b6123ab83612373565b946020939093013593505050565b6000806000606084860312156123ce57600080fd5b6123d784612373565b92506123e560208501612373565b9150604084013590509250925092565b6000806040838503121561240857600080fd5b8235915061241860208401612373565b90509250929050565b634e487b7160e01b600052604160045260246000fd5b600082601f83011261244857600080fd5b813567ffffffffffffffff8082111561246357612463612421565b604051601f8301601f19908116603f0116810190828211818310171561248b5761248b612421565b816040528381528660208588010111156124a457600080fd5b836020870160208301376000602085830101528094505050505092915050565b600080600080608085870312156124da57600080fd5b6124e385612373565b935060208501359250604085013567ffffffffffffffff81111561250657600080fd5b61251287828801612437565b949793965093946060013593505050565b60006020828403121561253557600080fd5b611cd382612373565b60ff60f81b881681526000602060e08184015261255e60e084018a61231b565b8381036040850152612570818a61231b565b606085018990526001600160a01b038816608086015260a0850187905284810360c0860152855180825283870192509083019060005b818110156125c2578351835292840192918401916001016125a6565b50909c9b505050505050505050505050565b600080604083850312156125e757600080fd5b6125f083612373565b91506020830135801515811461260557600080fd5b809150509250929050565b60008083601f84011261262257600080fd5b50813567ffffffffffffffff81111561263a57600080fd5b6020830191508360208260051b850101111561265557600080fd5b9250929050565b60008060008060008060006080888a03121561267757600080fd5b873567ffffffffffffffff8082111561268f57600080fd5b61269b8b838c01612610565b909950975060208a01359150808211156126b457600080fd5b6126c08b838c01612610565b909750955060408a01359150808211156126d957600080fd5b506126e68a828b01612610565b989b979a50959894979596606090950135949350505050565b6000806000806080858703121561271557600080fd5b61271e85612373565b935061272c60208601612373565b925060408501359150606085013567ffffffffffffffff81111561274f57600080fd5b61275b87828801612437565b91505092959194509250565b6000806040838503121561277a57600080fd5b50508035926020909101359150565b60008060008060008060c087890312156127a257600080fd5b6127ab87612373565b955060208701359450604087013567ffffffffffffffff808211156127cf57600080fd5b6127db8a838b01612437565b9550606089013594506080890135935060a08901359150808211156127ff57600080fd5b5061280c89828a01612437565b9150509295509295509295565b6000806040838503121561282c57600080fd5b61283583612373565b915061241860208401612373565b600181811c9082168061285757607f821691505b60208210810361287757634e487b7160e01b600052602260045260246000fd5b50919050565b60208082526012908201527113585e081cdd5c1c1b1e481c995858da195960721b604082015260600190565b6000600182016128c957634e487b7160e01b600052601160045260246000fd5b5060010190565b6080815260006128e3608083018761231b565b6020830195909552506040810192909252606090910152919050565b634e487b7160e01b600052603260045260246000fd5b6000808335601e1984360301811261292c57600080fd5b83018035915067ffffffffffffffff82111561294757600080fd5b60200191503681900382131561265557600080fd5b60808152846080820152848660a0830137600060a08683010152600060a0601f19601f88011683010190508460208301528360408301528260608301529695505050505050565b601f8211156107a157600081815260208120601f850160051c810160208610156129ca5750805b601f850160051c820191505b81811015611846578281556001016129d6565b815167ffffffffffffffff811115612a0357612a03612421565b612a1781612a118454612843565b846129a3565b602080601f831160018114612a4c5760008415612a345750858301515b600019600386901b1c1916600185901b178555611846565b600085815260208120601f198616915b82811015612a7b57888601518255948401946001909101908401612a5c565b5085821015612a995787850151600019600388901b60f8161c191681555b5050505050600190811b01905550565b6001600160a01b03858116825284166020820152604081018390526080606082018190526000906112369083018461231b565b600060208284031215612aee57600080fd5b8151611cd3816122c4565b60008351612b0b8184602088016122f7565b835190830190612b1f8183602088016122f7565b01949350505050565b634e487b7160e01b600052602160045260246000fdfe9f2df0fed2c77648de5860a4cc508cd0818c85b8b8a1ab4ceeef8d981c8956a6a26469706673582212203fcccfe3d3a7e2c3bb2692d051b43dd0261f0f2a43b5106e88f2d5f8b4a86f8f64736f6c63430008140033",
  "linkReferences": {},
  "deployedLinkReferences": {}
}