{
  "_format": "hh-sol-artifact-1",
  "contractName": "SunDevilBadge",
  "sourceName": "contracts/SunDevilBadge.sol",
  "abi": [
    {
      "inputs": [],
      "stateMutability": "nonpayable",
      "type": "constructor"
    },
    {
      "inputs": [],
      "name": "AccessControlBadConfirmation",
      "type": "error"
    },
    {
      "inputs": [
        {
          "internalType": "address",
          "name": "account",
          "type": "address"
        },
        {
          "internalType": "bytes32",
          "name": "neededRole",
          "type": "bytes32"
        }
      ],
      "name": "AccessControlUnauthorizedAccount",
      "type": "error"
    },
    {
      "inputs": [
        {
          "internalType": "address",
          "name": "sender",
          "type": "address"
        },
        {
          "internalType": "uint256",
          "name": "tokenId",
          "type": "uint256"
        },
        {
          "internalType": "address",
          "name": "owner",
          "type": "address"
        }
      ],
      "name": "ERC721IncorrectOwner",
      "type": "error"
    },
    {
      "inputs": [
        {
          "internalType": "address",
          "name": "operator",
          "type": "address"
        },
        {
          "internalType": "uint256",
          "name": "tokenId",
          "type": "uint256"
        }
      ],
      "name": "ERC721InsufficientApproval",
      "type": "error"
    },
    {
      "inputs": [
        {
          "internalType": "address",
          "name": "approver",
          "type": "address"
        }
      ],
      "name": "ERC721InvalidApprover",
      "type": "error"
    },
    {
      "inputs": [
        {
          "internalType": "address",
          "name": "operator",
          "type": "address"
        }
      ],
      "name": "ERC721InvalidOperator",
      "type": "error"
    },
    {
      "inputs": [
        {
          "internalType": "address",
          "name": "owner",
          "type": "address"
        }
      ],
      "name": "ERC721InvalidOwner",
      "type": "error"
    },
    {
      "inputs": [
        {
          "internalType": "address",
          "name": "receiver",
          "type": "address"
        }
      ],
      "name": "ERC721InvalidReceiver",
      "type": "error"
    },
    {
      "inputs": [
        {
          "internalType": "address",
          "name": "sender",
          "type": "address"
        }
      ],
      "name": "ERC721InvalidSender",
      "type": "error"
    },
    {
      "inputs": [
        {
          "internalType": "uint256",
          "name": "tokenId",
          "type": "uint256"
        }
      ],
      "name": "ERC721NonexistentToken",
      "type": "error"
    },
    {
      "anonymous": false,
      "inputs": [
        {
          "indexed": true,
          "internalType": "address",
          "name": "owner",
          "type": "address"
        },
        {
          "indexed": true,
          "internalType": "address",
          "name": "approved",
          "type": "address"
        },
        {
          "indexed": true,
          "internalType": "uint256",
          "name": "tokenId",
          "type": "uint256"
        }
      ],
      "name": "Approval",
      "type": "event"
    },
    {
      "anonymous": false,
      "inputs": [
        {
          "indexed": true,
          "internalType": "address",
          "name": "owner",
          "type": "address"
        },
        {
          "indexed": true,
          "internalType": "address",
          "name": "operator",
          "type": "address"
        },
        {
          "indexed": false,
          "internalType": "bool",
          "name": "approved",
          "type": "bool"
        }
      ],
      "name": "ApprovalForAll",
      "type": "event"
    },
    {
      "anonymous": false,
      "inputs": [
        {
          "indexed": true,
          "internalType": "uint256",
          "name": "tokenId",
          "type": "uint256"
        },
        {
          "indexed": true,
          "internalType": "address",
          "name": "student",
          "type": "address"
        },
        {
          "indexed": true,
          "internalType": "uint256",
          "name": "eventId",
          "type": "uint256"
        },
        {
          "indexed": false,
          "internalType": "string",
          "name": "achievementType",
          "type": "string"
        },
        {
          "indexed": false,
          "internalType": "string",
          "name": "metadataURI",
          "type": "string"
        }
      ],
      "name": "BadgeIssued",
      "type": "event"
    },
    {
      "anonymous": false,
      "inputs": [
        {
          "indexed": false,
          "internalType": "uint256",
          "name": "_fromTokenId",
          "type": "uint256"
        },
        {
          "indexed": false,
          "internalType": "uint256",
          "name": "_toTokenId",
          "type": "uint256"
        }
      ],
      "name": "BatchMetadataUpdate",
      "type": "event"
    },
    {
      "anonymous": false,
      "inputs": [
        {
          "indexed": false,
          "internalType": "uint256",
          "name": "_tokenId",
          "type": "uint256"
        }
      ],
      "name": "MetadataUpdate",
      "type": "event"
    },
    {
      "anonymous": false,
      "inputs": [
        {
          "indexed": true,
          "internalType": "bytes32",
          "name": "role",
          "type": "bytes32"
        },
        {
          "indexed": true,
          "internalType": "bytes32",
          "name": "previousAdminRole",
          "type": "bytes32"
        },
        {
          "indexed": true,
          "internalType": "bytes32",
          "name": "newAdminRole",
          "type": "bytes32"
        }
      ],
      "name": "RoleAdminChanged",
      "type": "event"
    },
    {
      "anonymous": false,
      "inputs": [
        {
          "indexed": true,
          "internalType": "bytes32",
          "name": "role",
          "type": "bytes32"
        },
        {
          "indexed": true,
          "internalType": "address",
          "name": "account",
          "type": "address"
        },
        {
          "indexed": true,
          "internalType": "address",
          "name": "sender",
          "type": "address"
        }
      ],
      "name": "RoleGranted",
      "type": "event"
    },
    {
      "anonymous": false,
      "inputs": [
        {
          "indexed": true,
          "internalType": "bytes32",
          "name": "role",
          "type": "bytes32"
        },
        {
          "indexed": true,
          "internalType": "address",
          "name": "account",
          "type": "address"
        },
        {
          "indexed": true,
          "internalType": "address",
          "name": "sender",
          "type": "address"
        }
      ],
      "name": "RoleRevoked",
      "type": "event"
    },
    {
      "anonymous": false,
      "inputs": [
        {
          "indexed": true,
          "internalType": "address",
          "name": "from",
          "type": "address"
        },
        {
          "indexed": true,
          "internalType": "address",
          "name": "to",
          "type": "address"
        },
        {
          "indexed": true,
          "internalType": "uint256",
          "name": "tokenId",
          "type": "uint256"
        }
      ],
      "name": "Transfer",
      "type": "event"
    },
    {
      "inputs": [],
      "name": "DEFAULT_ADMIN_ROLE",
      "outputs": [
        {
          "internalType": "bytes32",
          "name": "",
          "type": "bytes32"
        }
      ],
      "stateMutability": "view",
      "type": "function"
    },
    {
      "inputs": [],
      "name": "MINTER_ROLE",
      "outputs": [
        {
          "internalType": "bytes32",
          "name": "",
          "type": "bytes32"
        }
      ],
      "stateMutability": "view",
      "type": "function"
    },
    {
      "inputs": [
        {
          "internalType": "address",
          "name": "to",
          "type": "address"
        },
        {
          "internalType": "uint256",
          "name": "tokenId",
          "type": "uint256"
        }
      ],
      "name": "approve",
      "outputs": [],
      "stateMutability": "nonpayable",
      "type": "function"
    },
    {
      "inputs": [
        {
          "internalType": "address",
          "name": "owner",
          "type": "address"
        }
      ],
      "name": "balanceOf",
      "outputs": [
        {
          "internalType": "uint256",
          "name": "",
          "type": "uint256"
        }
      ],
      "stateMutability": "view",
      "type": "function"
    },
    {
      "inputs": [
        {
          "internalType": "uint256",
          "name": "tokenId",
          "type": "uint256"
        }
      ],
      "name": "getApproved",
      "outputs": [
        {
          "internalType": "address",
          "name": "",
          "type": "address"
        }
      ],
      "stateMutability": "view",
      "type": "function"
    },
    {
      "inputs": [
        {
          "internalType": "uint256",
          "name": "tokenId",
          "type": "uint256"
        }
      ],
      "name": "getBadge",
      "outputs": [
        {
          "components": [
            {
              "internalType": "uint256",
              "name": "eventId",
              "type": "uint256"
            },
            {
              "internalType": "string",
              "name": "eventName",
              "type": "string"
            },
            {
              "internalType": "string",
              "name": "eventDate",
              "type": "string"
            },
            {
              "internalType": "string",
              "name": "achievementType",
              "type": "string"
            },
            {
              "internalType": "string",
              "name": "metadataURI",
              "type": "string"
            },
            {
              "internalType": "uint256",
              "name": "issuedAt",
              "type": "uint256"
            },
            {
              "internalType": "address",
              "name": "issuer",
              "type": "address"
            }
          ],
          "internalType": "struct SunDevilBadge.Badge",
          "name": "badge",
          "type": "tuple"
        }
      ],
      "stateMutability": "view",
      "type": "function"
    },
    {
      "inputs": [
        {
          "internalType": "bytes32",
          "name": "role",
          "type": "bytes32"
        }
      ],
      "name": "getRoleAdmin",
      "outputs": [
        {
          "internalType": "bytes32",
          "name": "",
          "type": "bytes32"
        }
      ],
      "stateMutability": "view",
      "type": "function"
    },
    {
      "inputs": [
        {
          "internalType": "bytes32",
          "name": "role",
          "type": "bytes32"
        },
        {
          "internalType": "address",
          "name": "account",
          "type": "address"
        }
      ],
      "name": "grantRole",
      "outputs": [],
      "stateMutability": "nonpayable",
      "type": "function"
    },
    {
      "inputs": [
        {
          "internalType": "bytes32",
          "name": "role",
          "type": "bytes32"
        },
        {
          "internalType": "address",
          "name": "account",
          "type": "address"
        }
      ],
      "name": "hasRole",
      "outputs": [
        {
          "internalType": "bool",
          "name": "",
          "type": "bool"
        }
      ],
      "stateMutability": "view",
      "type": "function"
    },
    {
      "inputs": [
        {
          "internalType": "address",
          "name": "owner",
          "type": "address"
        },
        {
          "internalType": "address",
          "name": "operator",
          "type": "address"
        }
      ],
      "name": "isApprovedForAll",
      "outputs": [
        {
          "internalType": "bool",
          "name": "",
          "type": "bool"
        }
      ],
      "stateMutability": "view",
      "type": "function"
    },
    {
      "inputs": [
        {
          "internalType": "address",
          "name": "student",
          "type": "address"
        },
        {
          "internalType": "uint256",
          "name": "eventId",
          "type": "uint256"
        },
        {
          "internalType": "string",
          "name": "eventName",
          "type": "string"
        },
        {
          "internalType": "string",
          "name": "eventDate",
          "type": "string"
        },
        {
          "internalType": "string",
          "name": "achievementType",
          "type": "string"
        },
        {
          "internalType": "string",
          "name": "metadataURI",
          "type": "string"
        }
      ],
      "name": "issueBadge",
      "outputs": [
        {
          "internalType": "uint256",
          "name": "",
          "type": "uint256"
        }
      ],
      "stateMutability": "nonpayable",
      "type": "function"
    },
    {
      "inputs": [],
      "name": "name",
      "outputs": [
        {
          "internalType": "string",
          "name": "",
          "type": "string"
        }
      ],
      "stateMutability": "view",
      "type": "function"
    },
    {
      "inputs": [
        {
          "internalType": "uint256",
          "name": "tokenId",
          "type": "uint256"
        }
      ],
      "name": "ownerOf",
      "outputs": [
        {
          "internalType": "address",
          "name": "",
          "type": "address"
        }
      ],
      "stateMutability": "view",
      "type": "function"
    },
    {
      "inputs": [
        {
          "internalType": "bytes32",
          "name": "role",
          "type": "bytes32"
        },
        {
          "internalType": "address",
          "name": "callerConfirmation",
          "type": "address"
        }
      ],
      "name": "renounceRole",
      "outputs": [],
      "stateMutability": "nonpayable",
      "type": "function"
    },
    {
      "inputs": [
        {
          "internalType": "bytes32",
          "name": "role",
          "type": "bytes32"
        },
        {
          "internalType": "address",
          "name": "account",
          "type": "address"
        }
      ],
      "name": "revokeRole",
      "outputs": [],
      "stateMutability": "nonpayable",
      "type": "function"
    },
    {
      "inputs": [
        {
          "internalType": "address",
          "name": "from",
          "type": "address"
        },
        {
          "internalType": "address",
          "name": "to",
          "type": "address"
        },
        {
          "internalType": "uint256",
          "name": "tokenId",
          "type": "uint256"
        }
      ],
      "name": "safeTransferFrom",
      "outputs": [],
      "stateMutability": "nonpayable",
      "type": "function"
    },
    {
      "inputs": [
        {
          "internalType": "address",
          "name": "from",
          "type": "address"
        },
        {
          "internalType": "address",
          "name": "to",
          "type": "address"
        },
        {
          "internalType": "uint256",
          "name": "tokenId",
          "type": "uint256"
        },
        {
          "internalType": "bytes",
          "name": "data",
          "type": "bytes"
        }
      ],
      "name": "safeTransferFrom",
      "outputs": [],
      "stateMutability": "nonpayable",
      "type": "function"
    },
    {
      "inputs": [
        {
          "internalType": "address",
          "name": "operator",
          "type": "address"
        },
        {
          "internalType": "bool",
          "name": "approved",
          "type": "bool"
        }
      ],
      "name": "setApprovalForAll",
      "outputs": [],
      "stateMutability": "nonpayable",
      "type": "function"
    },
    {
      "inputs": [
        {
          "internalType": "address",
          "name": "account",
          "type": "address"
        },
        {
          "internalType": "bool",
          "name": "enabled",
          "type": "bool"
        }
      ],
      "name": "setMinter",
      "outputs": [],
      "stateMutability": "nonpayable",
      "type": "function"
    },
    {
      "inputs": [
        {
          "internalType": "bytes4",
          "name": "interfaceId",
          "type": "bytes4"
        }
      ],
      "name": "supportsInterface",
      "outputs": [
        {
          "internalType": "bool",
          "name": "",
          "type": "bool"
        }
      ],
      "stateMutability": "view",
      "type": "function"
    },
    {
      "inputs": [],
      "name": "symbol",
      "outputs": [
        {
          "internalType": "string",
          "name": "",
          "type": "string"
        }
      ],
      "stateMutability": "view",
      "type": "function"
    },
    {
      "inputs": [
        {
          "internalType": "uint256",
          "name": "tokenId",
          "type": "uint256"
        }
      ],
      "name": "tokenURI",
      "outputs": [
        {
          "internalType": "string",
          "name": "",
          "type": "string"
        }
      ],
      "stateMutability": "view",
      "type": "function"
    },
    {
      "inputs": [],
      "name": "totalMinted",
      "outputs": [
        {
          "internalType": "uint256",
          "name": "",
          "type": "uint256"
        }
      ],
      "stateMutability": "view",
      "type": "function"
    },
    {
      "inputs": [
        {
          "internalType": "address",
          "name": "from",
          "type": "address"
        },
        {
          "internalType": "address",
          "name": "to",
          "type": "address"
        },
        {
          "internalType": "uint256",
          "name": "tokenId",
          "type": "uint256"
        }
      ],
      "name": "transferFrom",
      "outputs": [],
      "stateMutability": "nonpayable",
      "type": "function"
    }
  ],
  "bytecode": "0x60806040523480156200001157600080fd5b506040518060400160405280600e81526020016d53756e446576696c20426164676560901b8152506040518060400160405280600381526020016229a22160e91b815250816000908162000066919062000213565b50600162000075828262000213565b506200008791506000905033620000bb565b50620000b47f9f2df0fed2c77648de5860a4cc508cd0818c85b8b8a1ab4ceeef8d981c8956a633620000bb565b50620002df565b60008281526007602090815260408083206001600160a01b038516845290915281205460ff16620001645760008381526007602090815260408083206001600160a01b03861684529091529020805460ff191660011790556200011b3390565b6001600160a01b0316826001600160a01b0316847f2f8788117e7eff1d82e926ec794901d17c78024a50270940304540a733656f0d60405160405180910390a450600162000168565b5060005b92915050565b634e487b7160e01b600052604160045260246000fd5b600181811c908216806200019957607f821691505b602082108103620001ba57634e487b7160e01b600052602260045260246000fd5b50919050565b601f8211156200020e57600081815260208120601f850160051c81016020861015620001e95750805b601f850160051c820191505b818110156200020a57828155600101620001f5565b5050505b505050565b81516001600160401b038111156200022f576200022f6200016e565b620002478162000240845462000184565b84620001c0565b602080601f8311600181146200027f5760008415620002665750858301515b600019600386901b1c1916600185901b1785556200020a565b600085815260208120601f198616915b82811015620002b0578886015182559484019460019091019084016200028f565b5085821015620002cf5787850151600019600388901b60f8161c191681555b5050505050600190811b01905550565b611d4b80620002ef6000396000f3fe608060405234801561001057600080fd5b50600436106101585760003560e01c80638d838622116100c3578063b88d4fde1161007c578063b88d4fde146102ee578063c87b56dd14610301578063cf456ae714610314578063d539139314610327578063d547741f1461033c578063e985e9c51461034f57600080fd5b80638d8386221461029057806391d14854146102b057806395d89b41146102c3578063a217fddf146102cb578063a22cb465146102d3578063a2309ff8146102e657600080fd5b80632f2ff15d116101155780632f2ff15d1461021e57806336568abe1461023157806342842e0e146102445780636352211e1461025757806370a082311461026a5780637b52b9e61461027d57600080fd5b806301ffc9a71461015d57806306fdde0314610185578063081812fc1461019a578063095ea7b3146101c557806323b872dd146101da578063248a9ca3146101ed575b600080fd5b61017061016b36600461169c565b610362565b60405190151581526020015b60405180910390f35b61018d610373565b60405161017c9190611709565b6101ad6101a836600461171c565b610405565b6040516001600160a01b03909116815260200161017c565b6101d86101d3366004611751565b61042e565b005b6101d86101e836600461177b565b61043d565b6102106101fb36600461171c565b60009081526007602052604090206001015490565b60405190815260200161017c565b6101d861022c3660046117b7565b6104cd565b6101d861023f3660046117b7565b6104f2565b6101d861025236600461177b565b61052a565b6101ad61026536600461171c565b610545565b6102106102783660046117e3565b610550565b61021061028b3660046118aa565b610598565b6102a361029e36600461171c565b610786565b60405161017c9190611970565b6101706102be3660046117b7565b610abe565b61018d610ae9565b610210600081565b6101d86102e1366004611a1c565b610af8565b600854610210565b6101d86102fc366004611a58565b610b03565b61018d61030f36600461171c565b610b1b565b6101d8610322366004611a1c565b610c2c565b610210600080516020611cf683398151915281565b6101d861034a3660046117b7565b610cb5565b61017061035d366004611ad4565b610cda565b600061036d82610d08565b92915050565b60606000805461038290611afe565b80601f01602080910402602001604051908101604052809291908181526020018280546103ae90611afe565b80156103fb5780601f106103d0576101008083540402835291602001916103fb565b820191906000526020600020905b8154815290600101906020018083116103de57829003601f168201915b5050505050905090565b600061041082610d2d565b506000828152600460205260409020546001600160a01b031661036d565b610439828233610d66565b5050565b6001600160a01b03821661046c57604051633250574960e11b8152600060048201526024015b60405180910390fd5b6000610479838333610d73565b9050836001600160a01b0316816001600160a01b0316146104c7576040516364283d7b60e01b81526001600160a01b0380861660048301526024820184905282166044820152606401610463565b50505050565b6000828152600760205260409020600101546104e881610e6c565b6104c78383610e79565b6001600160a01b038116331461051b5760405163334bd91960e11b815260040160405180910390fd5b6105258282610f0d565b505050565b61052583838360405180602001604052806000815250610b03565b600061036d82610d2d565b60006001600160a01b03821661057c576040516322718ad960e21b815260006004820152602401610463565b506001600160a01b031660009081526003602052604090205490565b6000600080516020611cf68339815191526105b281610e6c565b6001600160a01b0388166106085760405162461bcd60e51b815260206004820152601760248201527f496e76616c69642073747564656e7420616464726573730000000000000000006044820152606401610463565b60008351116106515760405162461bcd60e51b815260206004820152601560248201527413595d1859185d1848155492481c995c5d5a5c9959605a1b6044820152606401610463565b60088054600101908190556106668982610f7a565b6106708185610f94565b6040805160e08101825289815260208082018a81528284018a905260608301899052608083018890524260a08401523360c08401526000858152600990925292902081518155915190919060018201906106ca9082611b7e565b50604082015160028201906106df9082611b7e565b50606082015160038201906106f49082611b7e565b50608082015160048201906107099082611b7e565b5060a0820151600582015560c090910151600690910180546001600160a01b0319166001600160a01b0392831617905560405189918b169083907fb0a5d70ae1396978c32c957ab8aa23176e04c0e29c69fcf691c230378194153590610772908a908a90611c3e565b60405180910390a498975050505050505050565b6107cf6040518060e0016040528060008152602001606081526020016060815260200160608152602001606081526020016000815260200160006001600160a01b031681525090565b6000828152600260205260409020546001600160a01b031661082a5760405162461bcd60e51b815260206004820152601460248201527310985919d948191bd95cc81b9bdd08195e1a5cdd60621b6044820152606401610463565b600960008381526020019081526020016000206040518060e00160405290816000820154815260200160018201805461086290611afe565b80601f016020809104026020016040519081016040528092919081815260200182805461088e90611afe565b80156108db5780601f106108b0576101008083540402835291602001916108db565b820191906000526020600020905b8154815290600101906020018083116108be57829003601f168201915b505050505081526020016002820180546108f490611afe565b80601f016020809104026020016040519081016040528092919081815260200182805461092090611afe565b801561096d5780601f106109425761010080835404028352916020019161096d565b820191906000526020600020905b81548152906001019060200180831161095057829003601f168201915b5050505050815260200160038201805461098690611afe565b80601f01602080910402602001604051908101604052809291908181526020018280546109b290611afe565b80156109ff5780601f106109d4576101008083540402835291602001916109ff565b820191906000526020600020905b8154815290600101906020018083116109e257829003601f168201915b50505050508152602001600482018054610a1890611afe565b80601f0160208091040260200160405190810160405280929190818152602001828054610a4490611afe565b8015610a915780601f10610a6657610100808354040283529160200191610a91565b820191906000526020600020905b815481529060010190602001808311610a7457829003601f168201915b5050509183525050600582015460208201526006909101546001600160a01b031660409091015292915050565b60009182526007602090815260408084206001600160a01b0393909316845291905290205460ff1690565b60606001805461038290611afe565b610439338383610fe4565b610b0e84848461043d565b6104c73385858585611083565b6060610b2682610d2d565b5060008281526006602052604081208054610b4090611afe565b80601f0160208091040260200160405190810160405280929190818152602001828054610b6c90611afe565b8015610bb95780601f10610b8e57610100808354040283529160200191610bb9565b820191906000526020600020905b815481529060010190602001808311610b9c57829003601f168201915b505050505090506000610bd760408051602081019091526000815290565b90508051600003610be9575092915050565b815115610c1b578082604051602001610c03929190611c6c565b60405160208183030381529060405292505050919050565b610c24846111ae565b949350505050565b6000610c3781610e6c565b6001600160a01b038316610c7f5760405162461bcd60e51b815260206004820152600f60248201526e125b9d985b1a59081858d8dbdd5b9d608a1b6044820152606401610463565b8115610c9d576104c7600080516020611cf683398151915284610e79565b6104c7600080516020611cf683398151915284610f0d565b600082815260076020526040902060010154610cd081610e6c565b6104c78383610f0d565b6001600160a01b03918216600090815260056020908152604080832093909416825291909152205460ff1690565b60006001600160e01b03198216637965db0b60e01b148061036d575061036d82611223565b6000818152600260205260408120546001600160a01b03168061036d57604051637e27328960e01b815260048101849052602401610463565b6105258383836001611248565b6000828152600260205260408120546001600160a01b0390811690831615610da057610da081848661134e565b6001600160a01b03811615610dde57610dbd600085600080611248565b6001600160a01b038116600090815260036020526040902080546000190190555b6001600160a01b03851615610e0d576001600160a01b0385166000908152600360205260409020805460010190555b60008481526002602052604080822080546001600160a01b0319166001600160a01b0389811691821790925591518793918516917fddf252ad1be2c89b69c2b068fc378daa952ba7f163c4a11628f55a4df523b3ef91a4949350505050565b610e7681336113b2565b50565b6000610e858383610abe565b610f055760008381526007602090815260408083206001600160a01b03861684529091529020805460ff19166001179055610ebd3390565b6001600160a01b0316826001600160a01b0316847f2f8788117e7eff1d82e926ec794901d17c78024a50270940304540a733656f0d60405160405180910390a450600161036d565b50600061036d565b6000610f198383610abe565b15610f055760008381526007602090815260408083206001600160a01b0386168085529252808320805460ff1916905551339286917ff6391f5c32d9c69d2a47ea670b442974b53935d1edc7fd64eb21e047a839171b9190a450600161036d565b6104398282604051806020016040528060008152506113eb565b6000828152600660205260409020610fac8282611b7e565b506040518281527ff8e1a15aba9398e019f0b49df1a4fde98ee17ae345cb5f6b5e2c27f5033e8ce79060200160405180910390a15050565b6001600160a01b03821661101657604051630b61174360e31b81526001600160a01b0383166004820152602401610463565b6001600160a01b03838116600081815260056020908152604080832094871680845294825291829020805460ff191686151590811790915591519182527f17307eab39ab6107e8899845ad3d59bd9653f200f220920489ca2b5937696c31910160405180910390a3505050565b6001600160a01b0383163b156111a757604051630a85bd0160e11b81526001600160a01b0384169063150b7a02906110c5908890889087908790600401611c9b565b6020604051808303816000875af1925050508015611100575060408051601f3d908101601f191682019092526110fd91810190611cd8565b60015b611169573d80801561112e576040519150601f19603f3d011682016040523d82523d6000602084013e611133565b606091505b50805160000361116157604051633250574960e11b81526001600160a01b0385166004820152602401610463565b805160208201fd5b6001600160e01b03198116630a85bd0160e11b146111a557604051633250574960e11b81526001600160a01b0385166004820152602401610463565b505b5050505050565b60606111b982610d2d565b5060006111d160408051602081019091526000815290565b905060008151116111f1576040518060200160405280600081525061121c565b806111fb84611403565b60405160200161120c929190611c6c565b6040516020818303038152906040525b9392505050565b60006001600160e01b03198216632483248360e11b148061036d575061036d82611496565b808061125c57506001600160a01b03821615155b1561131e57600061126c84610d2d565b90506001600160a01b038316158015906112985750826001600160a01b0316816001600160a01b031614155b80156112ab57506112a98184610cda565b155b156112d45760405163a9fbf51f60e01b81526001600160a01b0384166004820152602401610463565b811561131c5783856001600160a01b0316826001600160a01b03167f8c5be1e5ebec7d5bd14f71427d1e84f3dd0314c0f7b2291e5b200ac8c7c3b92560405160405180910390a45b505b5050600090815260046020526040902080546001600160a01b0319166001600160a01b0392909216919091179055565b6113598383836114e6565b610525576001600160a01b03831661138757604051637e27328960e01b815260048101829052602401610463565b60405163177e802f60e01b81526001600160a01b038316600482015260248101829052604401610463565b6113bc8282610abe565b6104395760405163e2517d3f60e01b81526001600160a01b038216600482015260248101839052604401610463565b6113f58383611549565b610525336000858585611083565b60606000611410836115ae565b600101905060008167ffffffffffffffff811115611430576114306117fe565b6040519080825280601f01601f19166020018201604052801561145a576020820181803683370190505b5090508181016020015b600019016f181899199a1a9b1b9c1cb0b131b232b360811b600a86061a8153600a850494508461146457509392505050565b60006001600160e01b031982166380ac58cd60e01b14806114c757506001600160e01b03198216635b5e139f60e01b145b8061036d57506301ffc9a760e01b6001600160e01b031983161461036d565b60006001600160a01b03831615801590610c245750826001600160a01b0316846001600160a01b0316148061152057506115208484610cda565b80610c245750506000908152600460205260409020546001600160a01b03908116911614919050565b6001600160a01b03821661157357604051633250574960e11b815260006004820152602401610463565b600061158183836000610d73565b90506001600160a01b03811615610525576040516339e3563760e11b815260006004820152602401610463565b60008072184f03e93ff9f4daa797ed6e38ed64bf6a1f0160401b83106115ed5772184f03e93ff9f4daa797ed6e38ed64bf6a1f0160401b830492506040015b6d04ee2d6d415b85acef81000000008310611619576d04ee2d6d415b85acef8100000000830492506020015b662386f26fc10000831061163757662386f26fc10000830492506010015b6305f5e100831061164f576305f5e100830492506008015b612710831061166357612710830492506004015b60648310611675576064830492506002015b600a831061036d5760010192915050565b6001600160e01b031981168114610e7657600080fd5b6000602082840312156116ae57600080fd5b813561121c81611686565b60005b838110156116d45781810151838201526020016116bc565b50506000910152565b600081518084526116f58160208601602086016116b9565b601f01601f19169290920160200192915050565b60208152600061121c60208301846116dd565b60006020828403121561172e57600080fd5b5035919050565b80356001600160a01b038116811461174c57600080fd5b919050565b6000806040838503121561176457600080fd5b61176d83611735565b946020939093013593505050565b60008060006060848603121561179057600080fd5b61179984611735565b92506117a760208501611735565b9150604084013590509250925092565b600080604083850312156117ca57600080fd5b823591506117da60208401611735565b90509250929050565b6000602082840312156117f557600080fd5b61121c82611735565b634e487b7160e01b600052604160045260246000fd5b600067ffffffffffffffff8084111561182f5761182f6117fe565b604051601f8501601f19908116603f01168101908282118183101715611857576118576117fe565b8160405280935085815286868601111561187057600080fd5b858560208301376000602087830101525050509392505050565b600082601f83011261189b57600080fd5b61121c83833560208501611814565b60008060008060008060c087890312156118c357600080fd5b6118cc87611735565b955060208701359450604087013567ffffffffffffffff808211156118f057600080fd5b6118fc8a838b0161188a565b9550606089013591508082111561191257600080fd5b61191e8a838b0161188a565b9450608089013591508082111561193457600080fd5b6119408a838b0161188a565b935060a089013591508082111561195657600080fd5b5061196389828a0161188a565b9150509295509295509295565b60208152815160208201526000602083015160e060408401526119976101008401826116dd565b90506040840151601f19808584030160608601526119b583836116dd565b925060608601519150808584030160808601526119d283836116dd565b925060808601519150808584030160a0860152506119f082826116dd565b60a086015160c086810191909152909501516001600160a01b031660e090940193909352509192915050565b60008060408385031215611a2f57600080fd5b611a3883611735565b915060208301358015158114611a4d57600080fd5b809150509250929050565b60008060008060808587031215611a6e57600080fd5b611a7785611735565b9350611a8560208601611735565b925060408501359150606085013567ffffffffffffffff811115611aa857600080fd5b8501601f81018713611ab957600080fd5b611ac887823560208401611814565b91505092959194509250565b60008060408385031215611ae757600080fd5b611af083611735565b91506117da60208401611735565b600181811c90821680611b1257607f821691505b602082108103611b3257634e487b7160e01b600052602260045260246000fd5b50919050565b601f82111561052557600081815260208120601f850160051c81016020861015611b5f5750805b601f850160051c820191505b818110156111a557828155600101611b6b565b815167ffffffffffffffff811115611b9857611b986117fe565b611bac81611ba68454611afe565b84611b38565b602080601f831160018114611be15760008415611bc95750858301515b600019600386901b1c1916600185901b1785556111a5565b600085815260208120601f198616915b82811015611c1057888601518255948401946001909101908401611bf1565b5085821015611c2e5787850151600019600388901b60f8161c191681555b5050505050600190811b01905550565b604081526000611c5160408301856116dd565b8281036020840152611c6381856116dd565b95945050505050565b60008351611c7e8184602088016116b9565b835190830190611c928183602088016116b9565b01949350505050565b6001600160a01b0385811682528416602082015260408101839052608060608201819052600090611cce908301846116dd565b9695505050505050565b600060208284031215611cea57600080fd5b815161121c8161168656fe9f2df0fed2c77648de5860a4cc508cd0818c85b8b8a1ab4ceeef8d981c8956a6a2646970667358221220fe3e4fb3a2c91ab1c0f84c2684bc7bebff7c55a631f3466f186c58af1bbc475064736f6c63430008140033",
  "linkReferences": {},
  "deployedLinkReferences": {}
}