{"contracts/AchievementSBT.sol":{"AchievementSBT":{"abi":[{"inputs":[{"internalType":"string","name":"name","type":"string"},{"internalType":"string","name":"symbol","type":"string"},{"internalType":"address","name":"admin","type":"address"},{"internalType":"address","name":"minter","type":"address"}],"stateMutability":"nonpayable","type":"constructor"},{"inputs":[],"name":"AccessControlBadConfirmation","type":"error"},{"inputs":[{"internalType":"address","name":"account","type":"address"},{"internalType":"bytes32","name":"neededRole","type":"bytes32"}],"name":"AccessControlUnauthorizedAccount","type":"error"},{"inputs":[],"name":"ECDSAInvalidSignature","type":"error"},{"inputs":[{"internalType":"uint256","name":"length","type":"uint256"}],"name":"ECDSAInvalidSignatureLength","type":"error"},{"inputs":[{"internalType":"bytes32","name":"s","type":"bytes32"}],"name":"ECDSAInvalidSignatureS","type":"error"},{"inputs":[{"internalType":"address","name":"sender","type":"address"},{"internalType":"uint256","name":"tokenId","type":"uint256"},{"internalType":"address","name":"owner","type":"address"}],"name":"ERC721IncorrectOwner","type":"error"},{"inputs":[{"internalType":"address","name":"operator","type":"address"},{"internalType":"uint256","name":"tokenId","type":"uint256"}],"name":"ERC721InsufficientApproval","type":"error"},{"inputs":[{"internalType":"address","name":"approver","type":"address"}],"name":"ERC721InvalidApprover","type":"error"},{"inputs":[{"internalType":"address","name":"operator","type":"address"}],"name":"ERC721InvalidOperator","type":"error"},{"inputs":[{"internalType":"address","name":"owner","type":"address"}],"name":"ERC721InvalidOwner","type":"error"},{"inputs":[{"internalType":"address","name":"receiver","type":"address"}],"name":"ERC721InvalidReceiver","type":"error"},{"inputs":[{"internalType":"address","name":"sender","type":"address"}],"name":"ERC721InvalidSender","type":"error"},{"inputs":[{"internalType":"uint256","name":"tokenId","type":"uint256"}],"name":"ERC721NonexistentToken","type":"error"},{"inputs":[],"name":"EnforcedPause","type":"error"},{"inputs":[],"name":"ExpectedPause","type":"error"},{"inputs":[],"name":"InvalidShortString","type":"error"},{"inputs":[],"name":"ReentrancyGuardReentrantCall","type":"error"},{"inputs":[{"internalType":"string","name":"str","type":"string"}],"name":"StringTooLong","type":"error"},{"anonymous":false,"inputs":[{"indexed":true,"internalType":"uint256","name":"tokenId","type":"uint256"},{"indexed":true,"internalType":"address","name":"recipient","type":"address"},{"indexed":true,"internalType":"bytes32","name":"eventId","type":"bytes32"},{"indexed":false,"internalType":"bytes32","name":"badgeType","type":"bytes32"},{"indexed":false,"internalType":"string","name":"metadataURI","type":"string"},{"indexed":false,"internalType":"uint256","name":"timestamp","type":"uint256"}],"name":"AchievementMinted","type":"event"},{"anonymous":false,"inputs":[{"indexed":true,"internalType":"uint256","name":"tokenId","type":"uint256"},{"indexed":false,"internalType":"string","name":"reason","type":"string"},{"indexed":false,"internalType":"address","name":"revokedBy","type":"address"},{"indexed":false,"internalType":"uint256","name":"timestamp","type":"uint256"}],"name":"AchievementRevoked","type":"event"},{"anonymous":false,"inputs":[{"indexed":true,"internalType":"address","name":"owner","type":"address"},{"indexed":true,"internalType":"address","name":"approved","type":"address"},{"indexed":true,"internalType":"uint256","name":"tokenId","type":"uint256"}],"name":"Approval","type":"event"},{"anonymous":false,"inputs":[{"indexed":true,"internalType":"address","name":"owner","type":"address"},{"indexed":true,"internalType":"address","name":"operator","type":"address"},{"indexed":false,"internalType":"bool","name":"approved","type":"bool"}],"name":"ApprovalForAll","type":"event"},{"anonymous":false,"inputs":[{"indexed":false,"internalType":"uint256","name":"_fromTokenId","type":"uint256"},{"indexed":false,"internalType":"uint256","name":"_toTokenId","type":"uint256"}],"name":"BatchMetadataUpdate","type":"event"},{"anonymous":false,"inputs":[],"name":"EIP712DomainChanged","type":"event"},{"anonymous":false,"inputs":[{"indexed":false,"internalType":"uint256","name":"_tokenId","type":"uint256"}],"name":"MetadataUpdate","type":"event"},{"anonymous":false,"inputs":[{"indexed":false,"internalType":"address","name":"account","type":"address"}],"name":"Paused","type":"event"},{"anonymous":false,"inputs":[{"indexed":true,"internalType":"bytes32","name":"role","type":"bytes32"},{"indexed":true,"internalType":"bytes32","name":"previousAdminRole","type":"bytes32"},{"indexed":true,"internalType":"bytes32","name":"newAdminRole","type":"bytes32"}],"name":"RoleAdminChanged","type":"event"},{"anonymous":false,"inputs":[{"indexed":true,"internalType":"bytes32","name":"role","type":"bytes32"},{"indexed":true,"internalType":"address","name":"account","type":"address"},{"indexed":true,"internalType":"address","name":"sender","type":"address"}],"name":"RoleGranted","type":"event"},{"anonymous":false,"inputs":[{"indexed":true,"internalType":"bytes32","name":"role","type":"bytes32"},{"indexed":true,"internalType":"address","name":"account","type":"address"},{"indexed":true,"internalType":"address","name":"sender","type":"address"}],"name":"RoleRevoked","type":"event"},{"anonymous":false,"inputs":[{"indexed":true,"internalType":"address","name":"from","type":"address"},{"indexed":true,"internalType":"address","name":"to","type":"address"},{"indexed":true,"internalType":"uint256","name":"tokenId","type":"uint256"}],"name":"Transfer","type":"event"},{"anonymous":false,"inputs":[{"indexed":true,"internalType":"uint256","name":"tokenId","type":"uint256"},{"indexed":false,"internalType":"bool","name":"locked","type":"bool"}],"name":"TransferLockSet","type":"event"},{"anonymous":false,"inputs":[{"indexed":false,"internalType":"address","name":"account","type":"address"}],"name":"Unpaused","type":"event"},{"inputs":[],"name":"DEFAULT_ADMIN_ROLE","outputs":[{"internalType":"bytes32","name":"","type":"bytes32"}],"stateMutability":"view","type":"function"},{"inputs":[],"name":"MINTER_ROLE","outputs":[{"internalType":"bytes32","name":"","type":"bytes32"}],"stateMutability":"view","type":"function"},{"inputs":[],"name":"MINT_PERMIT_TYPEHASH","outputs":[{"internalType":"bytes32","name":"","type":"bytes32"}],"stateMutability":"view","type":"function"},{"inputs":[],"name":"PAUSER_ROLE","outputs":[{"internalType":"bytes32","name":"","type":"bytes32"}],"stateMutability":"view","type":"function"},{"inputs":[],"name":"REVOKER_ROLE","outputs":[{"internalType":"bytes32","name":"","type":"bytes32"}],"stateMutability":"view","type":"function"},{"inputs":[{"internalType":"address","name":"to","type":"address"},{"internalType":"uint256","name":"tokenId","type":"uint256"}],"name":"approve","outputs":[],"stateMutability":"nonpayable","type":"function"},{"inputs":[{"internalType":"uint256","name":"","type":"uint256"}],"name":"badgeType","outputs":[{"internalType":"bytes32","name":"","type":"bytes32"}],"stateMutability":"view","type":"function"},{"inputs":[{"internalType":"address","name":"owner","type":"address"}],"name":"balanceOf","outputs":[{"internalType":"uint256","name":"","type":"uint256"}],"stateMutability":"view","type":"function"},{"inputs":[{"internalType":"address[]","name":"recipients","type":"address[]"},{"internalType":"bytes32[]","name":"eventIds","type":"bytes32[]"},{"internalType":"bytes32[]","name":"badgeTypes","type":"bytes32[]"},{"internalType":"string[]","name":"metadataURIs","type":"string[]"}],"name":"batchMint","outputs":[],"stateMutability":"nonpayable","type":"function"},{"inputs":[],"name":"eip712Domain","outputs":[{"internalType":"bytes1","name":"fields","type":"bytes1"},{"internalType":"string","name":"name","type":"string"},{"internalType":"string","name":"version","type":"string"},{"internalType":"uint256","name":"chainId","type":"uint256"},{"internalType":"address","name":"verifyingContract","type":"address"},{"internalType":"bytes32","name":"salt","type":"bytes32"},{"internalType":"uint256[]","name":"extensions","type":"uint256[]"}],"stateMutability":"view","type":"function"},{"inputs":[{"internalType":"uint256","name":"","type":"uint256"}],"name":"eventId","outputs":[{"internalType":"bytes32","name":"","type":"bytes32"}],"stateMutability":"view","type":"function"},{"inputs":[{"internalType":"uint256","name":"tokenId","type":"uint256"}],"name":"getApproved","outputs":[{"internalType":"address","name":"","type":"address"}],"stateMutability":"view","type":"function"},{"inputs":[{"internalType":"bytes32","name":"role","type":"bytes32"}],"name":"getRoleAdmin","outputs":[{"internalType":"bytes32","name":"","type":"bytes32"}],"stateMutability":"view","type":"function"},{"inputs":[{"internalType":"uint256","name":"tokenId","type":"uint256"}],"name":"getTokenMetadata","outputs":[{"internalType":"bytes32","name":"_eventId","type":"bytes32"},{"internalType":"bytes32","name":"_badgeType","type":"bytes32"},{"internalType":"uint256","name":"_issuedAt","type":"uint256"},{"internalType":"bool","name":"_transferLock","type":"bool"},{"internalType":"bool","name":"_isRevoked","type":"bool"},{"internalType":"string","name":"_revocationReason","type":"string"}],"stateMutability":"view","type":"function"},{"inputs":[{"internalType":"bytes32","name":"role","type":"bytes32"},{"internalType":"address","name":"account","type":"address"}],"name":"grantRole","outputs":[],"stateMutability":"nonpayable","type":"function"},{"inputs":[{"internalType":"bytes32","name":"role","type":"bytes32"},{"internalType":"address","name":"account","type":"address"}],"name":"hasRole","outputs":[{"internalType":"bool","name":"","type":"bool"}],"stateMutability":"view","type":"function"},{"inputs":[{"internalType":"address","name":"owner","type":"address"},{"internalType":"address","name":"operator","type":"address"}],"name":"isApprovedForAll","outputs":[{"internalType":"bool","name":"","type":"bool"}],"stateMutability":"view","type":"function"},{"inputs":[{"internalType":"uint256","name":"","type":"uint256"}],"name":"isRevoked","outputs":[{"internalType":"bool","name":"","type":"bool"}],"stateMutability":"view","type":"function"},{"inputs":[{"internalType":"uint256","name":"","type":"uint256"}],"name":"issuedAt","outputs":[{"internalType":"uint256","name":"","type":"uint256"}],"stateMutability":"view","type":"function"},{"inputs":[{"internalType":"address","name":"to","type":"address"},{"internalType":"bytes32","name":"_eventId","type":"bytes32"},{"internalType":"bytes32","name":"_badgeType","type":"bytes32"},{"internalType":"string","name":"metadataURI","type":"string"}],"name":"mint","outputs":[{"internalType":"uint256","name":"","type":"uint256"}],"stateMutability":"nonpayable","type":"function"},{"inputs":[{"internalType":"address","name":"to","type":"address"},{"internalType":"bytes32","name":"_eventId","type":"bytes32"},{"internalType":"bytes32","name":"_badgeType","type":"bytes32"},{"internalType":"string","name":"metadataURI","type":"string"},{"internalType":"uint256","name":"deadline","type":"uint256"},{"internalType":"bytes","name":"signature","type":"bytes"}],"name":"mintWithPermit","outputs":[{"internalType":"uint256","name":"","type":"uint256"}],"stateMutability":"nonpayable","type":"function"},{"inputs":[],"name":"name","outputs":[{"internalType":"string","name":"","type":"string"}],"stateMutability":"view","type":"function"},{"inputs":[{"internalType":"address","name":"","type":"address"}],"name":"nonces","outputs":[{"internalType":"uint256","name":"","type":"uint256"}],"stateMutability":"view","type":"function"},{"inputs":[{"internalType":"uint256","name":"tokenId","type":"uint256"}],"name":"ownerOf","outputs":[{"internalType":"address","name":"","type":"address"}],"stateMutability":"view","type":"function"},{"inputs":[],"name":"pause","outputs":[],"stateMutability":"nonpayable","type":"function"},{"inputs":[],"name":"paused","outputs":[{"internalType":"bool","name":"","type":"bool"}],"stateMutability":"view","type":"function"},{"inputs":[{"internalType":"bytes32","name":"role","type":"bytes32"},{"internalType":"address","name":"callerConfirmation","type":"address"}],"name":"renounceRole","outputs":[],"stateMutability":"nonpayable","type":"function"},{"inputs":[{"internalType":"uint256","name":"","type":"uint256"}],"name":"revocationReason","outputs":[{"internalType":"string","name":"","type":"string"}],"stateMutability":"view","type":"function"},{"inputs":[{"internalType":"uint256","name":"tokenId","type":"uint256"},{"internalType":"string","name":"reason","type":"string"}],"name":"revoke","outputs":[],"stateMutability":"nonpayable","type":"function"},{"inputs":[{"internalType":"bytes32","name":"role","type":"bytes32"},{"internalType":"address","name":"account","type":"address"}],"name":"revokeRole","outputs":[],"stateMutability":"nonpayable","type":"function"},{"inputs":[{"internalType":"address","name":"from","type":"address"},{"internalType":"address","name":"to","type":"address"},{"internalType":"uint256","name":"tokenId","type":"uint256"}],"name":"safeTransferFrom","outputs":[],"stateMutability":"nonpayable","type":"function"},{"inputs":[{"internalType":"address","name":"from","type":"address"},{"internalType":"address","name":"to","type":"address"},{"internalType":"uint256","name":"tokenId","type":"uint256"},{"internalType":"bytes","name":"data","type":"bytes"}],"name":"safeTransferFrom","outputs":[],"stateMutability":"nonpayable","type":"function"},{"inputs":[{"internalType":"address","name":"operator","type":"address"},{"internalType":"bool","name":"approved","type":"bool"}],"name":"setApprovalForAll","outputs":[],"stateMutability":"nonpayable","type":"function"},{"inputs":[{"internalType":"uint256","name":"tokenId","type":"uint256"},{"internalType":"bool","name":"locked","type":"bool"}],"name":"setTransferLock","outputs":[],"stateMutability":"nonpayable","type":"function"},{"inputs":[{"internalType":"bytes4","name":"interfaceId","type":"bytes4"}],"name":"supportsInterface","outputs":[{"internalType":"bool","name":"","type":"bool"}],"stateMutability":"view","type":"function"},{"inputs":[],"name":"symbol","outputs":[{"internalType":"string","name":"","type":"string"}],"stateMutability":"view","type":"function"},{"inputs":[{"internalType":"uint256","name":"tokenId","type":"uint256"}],"name":"tokenURI","outputs":[{"internalType":"string","name":"","type":"string"}],"stateMutability":"view","type":"function"},{"inputs":[{"internalType":"address","name":"from","type":"address"},{"internalType":"address","name":"to","type":"address"},{"internalType":"uint256","name":"tokenId","type":"uint256"}],"name":"transferFrom","outputs":[],"stateMutability":"nonpayable","type":"function"},{"inputs":[{"internalType":"uint256","name":"","type":"uint256"}],"name":"transferLock","outputs":[{"internalType":"bool","name":"","type":"bool"}],"stateMutability":"view","type":"function"},{"inputs":[],"name":"unpause","outputs":[],"stateMutability":"nonpayable","type":"function"}],"evm":{"bytecode":{"linkReferences":{},"object":"6101606040523480156200001257600080fd5b506040516200349c3803806200349c8339810160408190526200003591620003eb565b6040805180820190915260018152603160f81b60208201528490818560006200005f838262000509565b5060016200006e828262000509565b50506001600955506200008382600a620001ca565b610120526200009481600b620001ca565b61014052815160208084019190912060e052815190820120610100524660a0526200012260e05161010051604080517f8b73c3c69bb8fe3d512ecc4cf759cc79239f7b179b0ffacaa9a75d522b39400f60208201529081019290925260608201524660808201523060a082015260009060c00160405160208183030381529060405280519060200120905090565b60805250503060c0526200013860008362000203565b50620001657f9f2df0fed2c77648de5860a4cc508cd0818c85b8b8a1ab4ceeef8d981c8956a68262000203565b50620001927f65d7a28e3265b37a6474929f336521b332c1681b933f6cb9f3376673440d862a8362000203565b50620001bf7fce3f34913921da558f105cefb578d87278debbbd073a8d552b5de0d168deee308362000203565b50505050506200062f565b6000602083511015620001ea57620001e283620002b5565b9050620001fd565b81620001f7848262000509565b5060ff90505b92915050565b60008281526007602090815260408083206001600160a01b038516845290915281205460ff16620002ac5760008381526007602090815260408083206001600160a01b03861684529091529020805460ff19166001179055620002633390565b6001600160a01b0316826001600160a01b0316847f2f8788117e7eff1d82e926ec794901d17c78024a50270940304540a733656f0d60405160405180910390a4506001620001fd565b506000620001fd565b600080829050601f81511115620002ec578260405163305a27a960e01b8152600401620002e39190620005d5565b60405180910390fd5b8051620002f9826200060a565b179392505050565b634e487b7160e01b600052604160045260246000fd5b60005b83811015620003345781810151838201526020016200031a565b50506000910152565b600082601f8301126200034f57600080fd5b81516001600160401b03808211156200036c576200036c62000301565b604051601f8301601f19908116603f0116810190828211818310171562000397576200039762000301565b81604052838152866020858801011115620003b157600080fd5b620003c484602083016020890162000317565b9695505050505050565b80516001600160a01b0381168114620003e657600080fd5b919050565b600080600080608085870312156200040257600080fd5b84516001600160401b03808211156200041a57600080fd5b62000428888389016200033d565b955060208701519150808211156200043f57600080fd5b506200044e878288016200033d565b9350506200045f60408601620003ce565b91506200046f60608601620003ce565b905092959194509250565b600181811c908216806200048f57607f821691505b602082108103620004b057634e487b7160e01b600052602260045260246000fd5b50919050565b601f8211156200050457600081815260208120601f850160051c81016020861015620004df5750805b601f850160051c820191505b818110156200050057828155600101620004eb565b5050505b505050565b81516001600160401b0381111562000525576200052562000301565b6200053d816200053684546200047a565b84620004b6565b602080601f8311600181146200057557600084156200055c5750858301515b600019600386901b1c1916600185901b17855562000500565b600085815260208120601f198616915b82811015620005a65788860151825594840194600190910190840162000585565b5085821015620005c55787850151600019600388901b60f8161c191681555b5050505050600190811b01905550565b6020815260008251806020840152620005f681604085016020870162000317565b601f01601f19169190910160400192915050565b80516020808301519190811015620004b05760001960209190910360031b1b16919050565b60805160a05160c05160e051610100516101205161014051612e126200068a60003960006117860152600061175401526000611b6101526000611b3901526000611a9401526000611abe01526000611ae80152612e126000f3fe608060405234801561001057600080fd5b50600436106102475760003560e01c806370a082311161013b578063a217fddf116100b8578063d547741f1161007c578063d547741f14610598578063e63ab1e9146105ab578063e985e9c5146105d2578063eb929ad5146105e5578063f9d98732146105f857600080fd5b8063a217fddf14610542578063a22cb4651461054a578063b88d4fde1461055d578063c87b56dd14610570578063d53913931461058357600080fd5b80638cfcae21116100ff5780638cfcae21146104cd57806391d14854146104f457806395d89b41146105075780639da769691461050f5780639f37e2fd1461052257600080fd5b806370a08231146104505780637c4acabf146104635780637ecebe001461048a5780638456cb59146104aa57806384b0196e146104b257600080fd5b80632f2ff15d116101c9578063471f9a091161018d578063471f9a09146103ca5780635c975abb146103ea5780635ccc561e146103f557806360316801146104185780636352211e1461043d57600080fd5b80632f2ff15d1461036957806336568abe1461037c5780633f4ba83a1461038f57806342842e0e14610397578063433b64b1146103aa57600080fd5b8063109c133211610210578063109c1332146102ea5780631f4198d21461030d57806320d4ab5a1461032057806323b872dd14610333578063248a9ca31461034657600080fd5b8062c5c0be1461024c57806301ffc9a71461027257806306fdde0314610295578063081812fc146102aa578063095ea7b3146102d5575b600080fd5b61025f61025a36600461254c565b61060b565b6040519081526020015b60405180910390f35b6102856102803660046125f2565b61089f565b6040519015158152602001610269565b61029d6108b0565b604051610269919061265f565b6102bd6102b8366004612672565b610942565b6040516001600160a01b039091168152602001610269565b6102e86102e336600461268b565b61096b565b005b6102856102f8366004612672565b600d6020526000908152604090205460ff1681565b61025f61031b3660046126b5565b61097a565b6102e861032e366004612726565b610ab5565b6102e8610341366004612752565b610b4d565b61025f610354366004612672565b60009081526007602052604090206001015490565b6102e861037736600461278e565b610bd8565b6102e861038a36600461278e565b610bfd565b6102e8610c35565b6102e86103a5366004612752565b610c6a565b61025f6103b8366004612672565b60106020526000908152604090205481565b61025f6103d8366004612672565b60116020526000908152604090205481565b60085460ff16610285565b610285610403366004612672565b600e6020526000908152604090205460ff1681565b61042b610426366004612672565b610c85565b604051610269969594939291906127b1565b6102bd61044b366004612672565b610dbf565b61025f61045e3660046127f2565b610dca565b61025f7fce3f34913921da558f105cefb578d87278debbbd073a8d552b5de0d168deee3081565b61025f6104983660046127f2565b60136020526000908152604090205481565b6102e8610e12565b6104ba610e44565b604051610269979695949392919061280d565b61025f7f832ed6b8a95b3e4b5964afcfe14a8cfe113c6c57b8f1b6ae54629a54f1e1405e81565b61028561050236600461278e565b610e8a565b61029d610eb5565b61029d61051d366004612672565b610ec4565b61025f610530366004612672565b60126020526000908152604090205481565b61025f600081565b6102e86105583660046128a3565b610f5e565b6102e861056b3660046128cd565b610f69565b61029d61057e366004612672565b610f81565b61025f600080516020612dbd83398151915281565b6102e86105a636600461278e565b610f8c565b61025f7f65d7a28e3265b37a6474929f336521b332c1681b933f6cb9f3376673440d862a81565b6102856105e036600461291d565b610fb1565b6102e86105f3366004612947565b610fdf565b6102e86106063660046129da565b6110f0565b6000610615611390565b61061d6113ba565b824211156106635760405162461bcd60e51b815260206004820152600e60248201526d14195c9b5a5d08195e1c1a5c995960921b60448201526064015b60405180910390fd5b6001600160a01b0387166106ad5760405162461bcd60e51b8152602060048201526011602482015270125b9d985b1a59081c9958da5c1a595b9d607a1b604482015260640161065a565b83516020808601919091206001600160a01b038916600090815260139092526040822080547f832ed6b8a95b3e4b5964afcfe14a8cfe113c6c57b8f1b6ae54629a54f1e1405e928b928b928b92918761070583612a9e565b909155506040805160208101979097526001600160a01b03909516948601949094526060850192909252608084015260a083015260c082015260e0810185905261010001604051602081830303815290604052805190602001209050600061076c826113e0565b9050600061077a828661140d565b9050610794600080516020612dbd83398151915282610e8a565b6107d45760405162461bcd60e51b8152602060048201526011602482015270496e76616c6964207369676e617475726560781b604482015260640161065a565b600c8054600091826107e583612a9e565b9190505590506107f58b82611437565b6107ff8189611451565b60008181526010602090815260408083208d9055601182528083208c9055601282528083204290819055600d90925291829020805460ff1916600117905590518b916001600160a01b038e169184917f9b0ef120b6fa26c3ab0eb36ed50abe87249253f57eab819c23138cd905259c2d9161087e918f918f9190612ac5565b60405180910390a493505050506108956001600955565b9695505050505050565b60006108aa826114a1565b92915050565b6060600080546108bf90612aee565b80601f01602080910402602001604051908101604052809291908181526020018280546108eb90612aee565b80156109385780601f1061090d57610100808354040283529160200191610938565b820191906000526020600020905b81548152906001019060200180831161091b57829003601f168201915b5050505050905090565b600061094d826114c6565b506000828152600460205260409020546001600160a01b03166108aa565b6109768282336114ff565b5050565b6000600080516020612dbd8339815191526109948161150c565b61099c611390565b6109a46113ba565b6001600160a01b0386166109ee5760405162461bcd60e51b8152602060048201526011602482015270125b9d985b1a59081c9958da5c1a595b9d607a1b604482015260640161065a565b600c8054600091826109ff83612a9e565b919050559050610a0f8782611437565b610a198185611451565b600081815260106020908152604080832089905560118252808320889055601282528083204290819055600d90925291829020805460ff19166001179055905187916001600160a01b038a169184917f9b0ef120b6fa26c3ab0eb36ed50abe87249253f57eab819c23138cd905259c2d91610a98918b918b9190612ac5565b60405180910390a49150610aac6001600955565b50949350505050565b6000610ac08161150c565b6000838152600260205260409020546001600160a01b0316610af45760405162461bcd60e51b815260040161065a90612b28565b6000838152600d6020908152604091829020805460ff1916851515908117909155915191825284917fe15c838be9b51164b98296aa772f0eeb923d5d565147205a923a2697522a8c9691015b60405180910390a2505050565b6001600160a01b038216610b7757604051633250574960e11b81526000600482015260240161065a565b6000610b84838333611516565b9050836001600160a01b0316816001600160a01b031614610bd2576040516364283d7b60e01b81526001600160a01b038086166004830152602482018490528216604482015260640161065a565b50505050565b600082815260076020526040902060010154610bf38161150c565b610bd283836115bd565b6001600160a01b0381163314610c265760405163334bd91960e11b815260040160405180910390fd5b610c308282611651565b505050565b7f65d7a28e3265b37a6474929f336521b332c1681b933f6cb9f3376673440d862a610c5f8161150c565b610c676116be565b50565b610c3083838360405180602001604052806000815250610f69565b600080808080606081610cad886000908152600260205260409020546001600160a01b031690565b6001600160a01b031603610cd35760405162461bcd60e51b815260040161065a90612b28565b60008781526010602090815260408083205460118352818420546012845282852054600d855283862054600e865284872054600f90965293909520805492959194919360ff908116939216918190610d2a90612aee565b80601f0160208091040260200160405190810160405280929190818152602001828054610d5690612aee565b8015610da35780601f10610d7857610100808354040283529160200191610da3565b820191906000526020600020905b815481529060010190602001808311610d8657829003601f168201915b5050505050905095509550955095509550955091939550919395565b60006108aa826114c6565b60006001600160a01b038216610df6576040516322718ad960e21b81526000600482015260240161065a565b506001600160a01b031660009081526003602052604090205490565b7f65d7a28e3265b37a6474929f336521b332c1681b933f6cb9f3376673440d862a610e3c8161150c565b610c67611710565b600060608060008060006060610e5861174d565b610e6061177f565b60408051600080825260208201909252600f60f81b9b939a50919850469750309650945092509050565b60009182526007602090815260408084206001600160a01b0393909316845291905290205460ff1690565b6060600180546108bf90612aee565b600f6020526000908152604090208054610edd90612aee565b80601f0160208091040260200160405190810160405280929190818152602001828054610f0990612aee565b8015610f565780601f10610f2b57610100808354040283529160200191610f56565b820191906000526020600020905b815481529060010190602001808311610f3957829003601f168201915b505050505081565b6109763383836117ac565b610f74848484610b4d565b610bd2338585858561184b565b60606108aa82611976565b600082815260076020526040902060010154610fa78161150c565b610bd28383611651565b6001600160a01b03918216600090815260056020908152604080832093909416825291909152205460ff1690565b7fce3f34913921da558f105cefb578d87278debbbd073a8d552b5de0d168deee306110098161150c565b6000838152600260205260409020546001600160a01b031661103d5760405162461bcd60e51b815260040161065a90612b28565b6000838152600e602052604090205460ff161561108e5760405162461bcd60e51b815260206004820152600f60248201526e105b1c9958591e481c995d9bdad959608a1b604482015260640161065a565b6000838152600e60209081526040808320805460ff19166001179055600f90915290206110bb8382612b9c565b50827f8d534bd9c2c60f1201e9f0ccec5fcda358f4d63537ac9f80c54728bee7f38de2833342604051610b4093929190612c5c565b600080516020612dbd8339815191526111088161150c565b611110611390565b6111186113ba565b878614801561112657508584145b801561113157508382145b6111755760405162461bcd60e51b8152602060048201526015602482015274082e4e4c2f240d8cadccee8d040dad2e6dac2e8c6d605b1b604482015260640161065a565b60005b8881101561137a57600c80546000918261119183612a9e565b9190505590506111c78b8b848181106111ac576111ac612c8a565b90506020020160208101906111c191906127f2565b82611437565b611229818686858181106111dd576111dd612c8a565b90506020028101906111ef9190612ca0565b8080601f01602080910402602001604051908101604052809392919081815260200183838082843760009201919091525061145192505050565b88888381811061123b5761123b612c8a565b90506020020135601060008381526020019081526020016000208190555086868381811061126b5761126b612c8a565b6000848152601160209081526040808320938202959095013590925560128252838120429055600d90915291909120805460ff19166001179055508888838181106112b8576112b8612c8a565b905060200201358b8b848181106112d1576112d1612c8a565b90506020020160208101906112e691906127f2565b6001600160a01b0316827f9b0ef120b6fa26c3ab0eb36ed50abe87249253f57eab819c23138cd905259c2d8a8a8781811061132357611323612c8a565b9050602002013589898881811061133c5761133c612c8a565b905060200281019061134e9190612ca0565b4260405161135f9493929190612ce7565b60405180910390a4508061137281612a9e565b915050611178565b506113856001600955565b505050505050505050565b6002600954036113b357604051633ee5aeb560e01b815260040160405180910390fd5b6002600955565b60085460ff16156113de5760405163d93c066560e01b815260040160405180910390fd5b565b60006108aa6113ed611a87565b8360405161190160f01b8152600281019290925260228201526042902090565b60008060008061141d8686611bb2565b92509250925061142d8282611bff565b5090949350505050565b610976828260405180602001604052806000815250611cb8565b60008281526006602052604090206114698282612b9c565b506040518281527ff8e1a15aba9398e019f0b49df1a4fde98ee17ae345cb5f6b5e2c27f5033e8ce79060200160405180910390a15050565b60006001600160e01b03198216637965db0b60e01b14806108aa57506108aa82611cd0565b6000818152600260205260408120546001600160a01b0316806108aa57604051637e27328960e01b81526004810184905260240161065a565b610c308383836001611cf5565b610c678133611dfb565b6000828152600260205260408120546001600160a01b0316801580159061154557506001600160a01b03851615155b156115a9576000848152600d602052604090205460ff16156115a95760405162461bcd60e51b815260206004820152601960248201527f546f6b656e206973206e6f6e2d7472616e7366657261626c6500000000000000604482015260640161065a565b6115b4858585611e34565b95945050505050565b60006115c98383610e8a565b6116495760008381526007602090815260408083206001600160a01b03861684529091529020805460ff191660011790556116013390565b6001600160a01b0316826001600160a01b0316847f2f8788117e7eff1d82e926ec794901d17c78024a50270940304540a733656f0d60405160405180910390a45060016108aa565b5060006108aa565b600061165d8383610e8a565b156116495760008381526007602090815260408083206001600160a01b0386168085529252808320805460ff1916905551339286917ff6391f5c32d9c69d2a47ea670b442974b53935d1edc7fd64eb21e047a839171b9190a45060016108aa565b6116c6611f2d565b6008805460ff191690557f5db9ee0a495bf2e6ff9c91a7834c1ba4fdd244a5e8aa4e537bd38aeae4b073aa335b6040516001600160a01b03909116815260200160405180910390a1565b6117186113ba565b6008805460ff191660011790557f62e78cea01bee320cd4e420270b5ea74000d11b0c9f74754ebdbfc544b05a2586116f33390565b606061177a7f0000000000000000000000000000000000000000000000000000000000000000600a611f50565b905090565b606061177a7f0000000000000000000000000000000000000000000000000000000000000000600b611f50565b6001600160a01b0382166117de57604051630b61174360e31b81526001600160a01b038316600482015260240161065a565b6001600160a01b03838116600081815260056020908152604080832094871680845294825291829020805460ff191686151590811790915591519182527f17307eab39ab6107e8899845ad3d59bd9653f200f220920489ca2b5937696c31910160405180910390a3505050565b6001600160a01b0383163b1561196f57604051630a85bd0160e11b81526001600160a01b0384169063150b7a029061188d908890889087908790600401612d27565b6020604051808303816000875af19250505080156118c8575060408051601f3d908101601f191682019092526118c591810190612d5a565b60015b611931573d8080156118f6576040519150601f19603f3d011682016040523d82523d6000602084013e6118fb565b606091505b50805160000361192957604051633250574960e11b81526001600160a01b038516600482015260240161065a565b805160208201fd5b6001600160e01b03198116630a85bd0160e11b1461196d57604051633250574960e11b81526001600160a01b038516600482015260240161065a565b505b5050505050565b6060611981826114c6565b506000828152600660205260408120805461199b90612aee565b80601f01602080910402602001604051908101604052809291908181526020018280546119c790612aee565b8015611a145780601f106119e957610100808354040283529160200191611a14565b820191906000526020600020905b8154815290600101906020018083116119f757829003601f168201915b505050505090506000611a3260408051602081019091526000815290565b90508051600003611a44575092915050565b815115611a76578082604051602001611a5e929190612d77565b60405160208183030381529060405292505050919050565b611a7f84611ffb565b949350505050565b6000306001600160a01b037f000000000000000000000000000000000000000000000000000000000000000016148015611ae057507f000000000000000000000000000000000000000000000000000000000000000046145b15611b0a57507f000000000000000000000000000000000000000000000000000000000000000090565b61177a604080517f8b73c3c69bb8fe3d512ecc4cf759cc79239f7b179b0ffacaa9a75d522b39400f60208201527f0000000000000000000000000000000000000000000000000000000000000000918101919091527f000000000000000000000000000000000000000000000000000000000000000060608201524660808201523060a082015260009060c00160405160208183030381529060405280519060200120905090565b60008060008351604103611bec5760208401516040850151606086015160001a611bde88828585612070565b955095509550505050611bf8565b50508151600091506002905b9250925092565b6000826003811115611c1357611c13612da6565b03611c1c575050565b6001826003811115611c3057611c30612da6565b03611c4e5760405163f645eedf60e01b815260040160405180910390fd5b6002826003811115611c6257611c62612da6565b03611c835760405163fce698f760e01b81526004810182905260240161065a565b6003826003811115611c9757611c97612da6565b03610976576040516335e2f38360e21b81526004810182905260240161065a565b611cc2838361213f565b610c3033600085858561184b565b60006001600160e01b03198216632483248360e11b14806108aa57506108aa826121a4565b8080611d0957506001600160a01b03821615155b15611dcb576000611d19846114c6565b90506001600160a01b03831615801590611d455750826001600160a01b0316816001600160a01b031614155b8015611d585750611d568184610fb1565b155b15611d815760405163a9fbf51f60e01b81526001600160a01b038416600482015260240161065a565b8115611dc95783856001600160a01b0316826001600160a01b03167f8c5be1e5ebec7d5bd14f71427d1e84f3dd0314c0f7b2291e5b200ac8c7c3b92560405160405180910390a45b505b5050600090815260046020526040902080546001600160a01b0319166001600160a01b0392909216919091179055565b611e058282610e8a565b6109765760405163e2517d3f60e01b81526001600160a01b03821660048201526024810183905260440161065a565b6000828152600260205260408120546001600160a01b0390811690831615611e6157611e618184866121f4565b6001600160a01b03811615611e9f57611e7e600085600080611cf5565b6001600160a01b038116600090815260036020526040902080546000190190555b6001600160a01b03851615611ece576001600160a01b0385166000908152600360205260409020805460010190555b60008481526002602052604080822080546001600160a01b0319166001600160a01b0389811691821790925591518793918516917fddf252ad1be2c89b69c2b068fc378daa952ba7f163c4a11628f55a4df523b3ef91a4949350505050565b60085460ff166113de57604051638dfc202b60e01b815260040160405180910390fd5b606060ff8314611f6a57611f6383612258565b90506108aa565b818054611f7690612aee565b80601f0160208091040260200160405190810160405280929190818152602001828054611fa290612aee565b8015611fef5780601f10611fc457610100808354040283529160200191611fef565b820191906000526020600020905b815481529060010190602001808311611fd257829003601f168201915b505050505090506108aa565b6060612006826114c6565b50600061201e60408051602081019091526000815290565b9050600081511161203e5760405180602001604052806000815250612069565b8061204884612297565b604051602001612059929190612d77565b6040516020818303038152906040525b9392505050565b600080807f7fffffffffffffffffffffffffffffff5d576e7357a4501ddfe92f46681b20a08411156120ab5750600091506003905082612135565b604080516000808252602082018084528a905260ff891692820192909252606081018790526080810186905260019060a0016020604051602081039080840390855afa1580156120ff573d6000803e3d6000fd5b5050604051601f1901519150506001600160a01b03811661212b57506000925060019150829050612135565b9250600091508190505b9450945094915050565b6001600160a01b03821661216957604051633250574960e11b81526000600482015260240161065a565b600061217783836000611516565b90506001600160a01b03811615610c30576040516339e3563760e11b81526000600482015260240161065a565b60006001600160e01b031982166380ac58cd60e01b14806121d557506001600160e01b03198216635b5e139f60e01b145b806108aa57506301ffc9a760e01b6001600160e01b03198316146108aa565b6121ff83838361232a565b610c30576001600160a01b03831661222d57604051637e27328960e01b81526004810182905260240161065a565b60405163177e802f60e01b81526001600160a01b03831660048201526024810182905260440161065a565b606060006122658361238d565b604080516020808252818301909252919250600091906020820181803683375050509182525060208101929092525090565b606060006122a4836123b5565b600101905060008167ffffffffffffffff8111156122c4576122c46124a9565b6040519080825280601f01601f1916602001820160405280156122ee576020820181803683370190505b5090508181016020015b600019016f181899199a1a9b1b9c1cb0b131b232b360811b600a86061a8153600a85049450846122f857509392505050565b60006001600160a01b03831615801590611a7f5750826001600160a01b0316846001600160a01b0316148061236457506123648484610fb1565b80611a7f5750506000908152600460205260409020546001600160a01b03908116911614919050565b600060ff8216601f8111156108aa57604051632cd44ac360e21b815260040160405180910390fd5b60008072184f03e93ff9f4daa797ed6e38ed64bf6a1f0160401b83106123f45772184f03e93ff9f4daa797ed6e38ed64bf6a1f0160401b830492506040015b6d04ee2d6d415b85acef81000000008310612420576d04ee2d6d415b85acef8100000000830492506020015b662386f26fc10000831061243e57662386f26fc10000830492506010015b6305f5e1008310612456576305f5e100830492506008015b612710831061246a57612710830492506004015b6064831061247c576064830492506002015b600a83106108aa5760010192915050565b80356001600160a01b03811681146124a457600080fd5b919050565b634e487b7160e01b600052604160045260246000fd5b600082601f8301126124d057600080fd5b813567ffffffffffffffff808211156124eb576124eb6124a9565b604051601f8301601f19908116603f01168101908282118183101715612513576125136124a9565b8160405283815286602085880101111561252c57600080fd5b836020870160208301376000602085830101528094505050505092915050565b60008060008060008060c0878903121561256557600080fd5b61256e8761248d565b95506020870135945060408701359350606087013567ffffffffffffffff8082111561259957600080fd5b6125a58a838b016124bf565b94506080890135935060a08901359150808211156125c257600080fd5b506125cf89828a016124bf565b9150509295509295509295565b6001600160e01b031981168114610c6757600080fd5b60006020828403121561260457600080fd5b8135612069816125dc565b60005b8381101561262a578181015183820152602001612612565b50506000910152565b6000815180845261264b81602086016020860161260f565b601f01601f19169290920160200192915050565b6020815260006120696020830184612633565b60006020828403121561268457600080fd5b5035919050565b6000806040838503121561269e57600080fd5b6126a78361248d565b946020939093013593505050565b600080600080608085870312156126cb57600080fd5b6126d48561248d565b93506020850135925060408501359150606085013567ffffffffffffffff8111156126fe57600080fd5b61270a878288016124bf565b91505092959194509250565b803580151581146124a457600080fd5b6000806040838503121561273957600080fd5b8235915061274960208401612716565b90509250929050565b60008060006060848603121561276757600080fd5b6127708461248d565b925061277e6020850161248d565b9150604084013590509250925092565b600080604083850312156127a157600080fd5b823591506127496020840161248d565b8681528560208201528460408201528315156060820152821515608082015260c060a082015260006127e660c0830184612633565b98975050505050505050565b60006020828403121561280457600080fd5b6120698261248d565b60ff60f81b881681526000602060e08184015261282d60e084018a612633565b838103604085015261283f818a612633565b606085018990526001600160a01b038816608086015260a0850187905284810360c0860152855180825283870192509083019060005b8181101561289157835183529284019291840191600101612875565b50909c9b505050505050505050505050565b600080604083850312156128b657600080fd5b6128bf8361248d565b915061274960208401612716565b600080600080608085870312156128e357600080fd5b6128ec8561248d565b93506128fa6020860161248d565b925060408501359150606085013567ffffffffffffffff8111156126fe57600080fd5b6000806040838503121561293057600080fd5b6129398361248d565b91506127496020840161248d565b6000806040838503121561295a57600080fd5b82359150602083013567ffffffffffffffff81111561297857600080fd5b612984858286016124bf565b9150509250929050565b60008083601f8401126129a057600080fd5b50813567ffffffffffffffff8111156129b857600080fd5b6020830191508360208260051b85010111156129d357600080fd5b9250929050565b6000806000806000806000806080898b0312156129f657600080fd5b883567ffffffffffffffff80821115612a0e57600080fd5b612a1a8c838d0161298e565b909a50985060208b0135915080821115612a3357600080fd5b612a3f8c838d0161298e565b909850965060408b0135915080821115612a5857600080fd5b612a648c838d0161298e565b909650945060608b0135915080821115612a7d57600080fd5b50612a8a8b828c0161298e565b999c989b5096995094979396929594505050565b600060018201612abe57634e487b7160e01b600052601160045260246000fd5b5060010190565b838152606060208201526000612ade6060830185612633565b9050826040830152949350505050565b600181811c90821680612b0257607f821691505b602082108103612b2257634e487b7160e01b600052602260045260246000fd5b50919050565b602080825260149082015273151bdad95b88191bd95cc81b9bdd08195e1a5cdd60621b604082015260600190565b601f821115610c3057600081815260208120601f850160051c81016020861015612b7d5750805b601f850160051c820191505b8181101561196d57828155600101612b89565b815167ffffffffffffffff811115612bb657612bb66124a9565b612bca81612bc48454612aee565b84612b56565b602080601f831160018114612bff5760008415612be75750858301515b600019600386901b1c1916600185901b17855561196d565b600085815260208120601f198616915b82811015612c2e57888601518255948401946001909101908401612c0f565b5085821015612c4c5787850151600019600388901b60f8161c191681555b5050505050600190811b01905550565b606081526000612c6f6060830186612633565b6001600160a01b039490941660208301525060400152919050565b634e487b7160e01b600052603260045260246000fd5b6000808335601e19843603018112612cb757600080fd5b83018035915067ffffffffffffffff821115612cd257600080fd5b6020019150368190038213156129d357600080fd5b848152606060208201528260608201528284608083013760006080848301015260006080601f19601f860116830101905082604083015295945050505050565b6001600160a01b038581168252841660208201526040810183905260806060820181905260009061089590830184612633565b600060208284031215612d6c57600080fd5b8151612069816125dc565b60008351612d8981846020880161260f565b835190830190612d9d81836020880161260f565b01949350505050565b634e487b7160e01b600052602160045260246000fdfe9f2df0fed2c77648de5860a4cc508cd0818c85b8b8a1ab4ceeef8d981c8956a6a2646970667358221220b0ae842dad9d5a44502897c1f3b1bfa7b082f8f1d7437973f83f49331d0b7b5364736f6c63430008140033","opcodes":"PUSH2 0x160 PUSH1 0x40 MSTORE CALLVALUE DUP1 ISZERO PUSH3 0x12 JUMPI PUSH1 0x0 DUP1 REVERT JUMPDEST POP PUSH1 0x40 MLOAD PUSH3 0x349C CODESIZE SUB DUP1 PUSH3 0x349C DUP4 CODECOPY DUP2 ADD PUSH1 0x40 DUP2 SWAP1 MSTORE PUSH3 0x35 SWAP2 PUSH3 0x3EB JUMP JUMPDEST PUSH1 0x40 DUP1 MLOAD DUP1 DUP3 ADD SWAP1 SWAP2 MSTORE PUSH1 0x1 DUP2 MSTORE PUSH1 0x31 PUSH1 0xF8 SHL PUSH1 0x20 DUP3 ADD MSTORE DUP5 SWAP1 DUP2 DUP6 PUSH1 0x0 PUSH3 0x5F DUP4 DUP3 PUSH3 0x509 JUMP JUMPDEST POP PUSH1 0x1 PUSH3 0x6E DUP3 DUP3 PUSH3 0x509 JUMP JUMPDEST POP POP PUSH1 0x1 PUSH1 0x9 SSTORE POP PUSH3 0x83 DUP3 PUSH1 0xA PUSH3 0x1CA JUMP JUMPDEST PUSH2 0x120 MSTORE PUSH3 0x94 DUP2 PUSH1 0xB PUSH3 0x1CA JUMP JUMPDEST PUSH2 0x140 MSTORE DUP2 MLOAD PUSH1 0x20 DUP1 DUP5 ADD SWAP2 SWAP1 SWAP2 KECCAK256 PUSH1 0xE0 MSTORE DUP2 MLOAD SWAP1 DUP3 ADD KECCAK256 PUSH2 0x100 MSTORE CHAINID PUSH1 0xA0 MSTORE PUSH3 0x122 PUSH1 0xE0 MLOAD PUSH2 0x100 MLOAD PUSH1 0x40 DUP1 MLOAD PUSH32 0x8B73C3C69BB8FE3D512ECC4CF759CC79239F7B179B0FFACAA9A75D522B39400F PUSH1 0x20 DUP3 ADD MSTORE SWAP1 DUP2 ADD SWAP3 SWAP1 SWAP3 MSTORE PUSH1 0x60 DUP3 ADD MSTORE CHAINID PUSH1 0x80 DUP3 ADD MSTORE ADDRESS PUSH1 0xA0 DUP3 ADD MSTORE PUSH1 0x0 SWAP1 PUSH1 0xC0 ADD PUSH1 0x40 MLOAD PUSH1 0x20 DUP2 DUP4 SUB SUB DUP2 MSTORE SWAP1 PUSH1 0x40 MSTORE DUP1 MLOAD SWAP1 PUSH1 0x20 ADD KECCAK256 SWAP1 POP SWAP1 JUMP JUMPDEST PUSH1 0x80 MSTORE POP POP ADDRESS PUSH1 0xC0 MSTORE PUSH3 0x138 PUSH1 0x0 DUP4 PUSH3 0x203 JUMP JUMPDEST POP PUSH3 0x165 PUSH32 0x9F2DF0FED2C77648DE5860A4CC508CD0818C85B8B8A1AB4CEEEF8D981C8956A6 DUP3 PUSH3 0x203 JUMP JUMPDEST POP PUSH3 0x192 PUSH32 0x65D7A28E3265B37A6474929F336521B332C1681B933F6CB9F3376673440D862A DUP4 PUSH3 0x203 JUMP JUMPDEST POP PUSH3 0x1BF PUSH32 0xCE3F34913921DA558F105CEFB578D87278DEBBBD073A8D552B5DE0D168DEEE30 DUP4 PUSH3 0x203 JUMP JUMPDEST POP POP POP POP POP PUSH3 0x62F JUMP JUMPDEST PUSH1 0x0 PUSH1 0x20 DUP4 MLOAD LT ISZERO PUSH3 0x1EA JUMPI PUSH3 0x1E2 DUP4 PUSH3 0x2B5 JUMP JUMPDEST SWAP1 POP PUSH3 0x1FD JUMP JUMPDEST DUP2 PUSH3 0x1F7 DUP5 DUP3 PUSH3 0x509 JUMP JUMPDEST POP PUSH1 0xFF SWAP1 POP JUMPDEST SWAP3 SWAP2 POP POP JUMP JUMPDEST PUSH1 0x0 DUP3 DUP2 MSTORE PUSH1 0x7 PUSH1 0x20 SWAP1 DUP2 MSTORE PUSH1 0x40 DUP1 DUP4 KECCAK256 PUSH1 0x1 PUSH1 0x1 PUSH1 0xA0 SHL SUB DUP6 AND DUP5 MSTORE SWAP1 SWAP2 MSTORE DUP2 KECCAK256 SLOAD PUSH1 0xFF AND PUSH3 0x2AC JUMPI PUSH1 0x0 DUP4 DUP2 MSTORE PUSH1 0x7 PUSH1 0x20 SWAP1 DUP2 MSTORE PUSH1 0x40 DUP1 DUP4 KECCAK256 PUSH1 0x1 PUSH1 0x1 PUSH1 0xA0 SHL SUB DUP7 AND DUP5 MSTORE SWAP1 SWAP2 MSTORE SWAP1 KECCAK256 DUP1 SLOAD PUSH1 0xFF NOT AND PUSH1 0x1 OR SWAP1 SSTORE PUSH3 0x263 CALLER SWAP1 JUMP JUMPDEST PUSH1 0x1 PUSH1 0x1 PUSH1 0xA0 SHL SUB AND DUP3 PUSH1 0x1 PUSH1 0x1 PUSH1 0xA0 SHL SUB AND DUP5 PUSH32 0x2F8788117E7EFF1D82E926EC794901D17C78024A50270940304540A733656F0D PUSH1 0x40 MLOAD PUSH1 0x40 MLOAD DUP1 SWAP2 SUB SWAP1 LOG4 POP PUSH1 0x1 PUSH3 0x1FD JUMP JUMPDEST POP PUSH1 0x0 PUSH3 0x1FD JUMP JUMPDEST PUSH1 0x0 DUP1 DUP3 SWAP1 POP PUSH1 0x1F DUP2 MLOAD GT ISZERO PUSH3 0x2EC JUMPI DUP3 PUSH1 0x40 MLOAD PUSH4 0x305A27A9 PUSH1 0xE0 SHL DUP2 MSTORE PUSH1 0x4 ADD PUSH3 0x2E3 SWAP2 SWAP1 PUSH3 0x5D5 JUMP JUMPDEST PUSH1 0x40 MLOAD DUP1 SWAP2 SUB SWAP1 REVERT JUMPDEST DUP1 MLOAD PUSH3 0x2F9 DUP3 PUSH3 0x60A JUMP JUMPDEST OR SWAP4 SWAP3 POP POP POP JUMP JUMPDEST PUSH4 0x4E487B71 PUSH1 0xE0 SHL PUSH1 0x0 MSTORE PUSH1 0x41 PUSH1 0x4 MSTORE PUSH1 0x24 PUSH1 0x0 REVERT JUMPDEST PUSH1 0x0 JUMPDEST DUP4 DUP2 LT ISZERO PUSH3 0x334 JUMPI DUP2 DUP2 ADD MLOAD DUP4 DUP3 ADD MSTORE PUSH1 0x20 ADD PUSH3 0x31A JUMP JUMPDEST POP POP PUSH1 0x0 SWAP2 ADD MSTORE JUMP JUMPDEST PUSH1 0x0 DUP3 PUSH1 0x1F DUP4 ADD SLT PUSH3 0x34F JUMPI PUSH1 0x0 DUP1 REVERT JUMPDEST DUP2 MLOAD PUSH1 0x1 PUSH1 0x1 PUSH1 0x40 SHL SUB DUP1 DUP3 GT ISZERO PUSH3 0x36C JUMPI PUSH3 0x36C PUSH3 0x301 JUMP JUMPDEST PUSH1 0x40 MLOAD PUSH1 0x1F DUP4 ADD PUSH1 0x1F NOT SWAP1 DUP2 AND PUSH1 0x3F ADD AND DUP2 ADD SWAP1 DUP3 DUP3 GT DUP2 DUP4 LT OR ISZERO PUSH3 0x397 JUMPI PUSH3 0x397 PUSH3 0x301 JUMP JUMPDEST DUP2 PUSH1 0x40 MSTORE DUP4 DUP2 MSTORE DUP7 PUSH1 0x20 DUP6 DUP9 ADD ADD GT ISZERO PUSH3 0x3B1 JUMPI PUSH1 0x0 DUP1 REVERT JUMPDEST PUSH3 0x3C4 DUP5 PUSH1 0x20 DUP4 ADD PUSH1 0x20 DUP10 ADD PUSH3 0x317 JUMP JUMPDEST SWAP7 SWAP6 POP POP POP POP POP POP JUMP JUMPDEST DUP1 MLOAD PUSH1 0x1 PUSH1 0x1 PUSH1 0xA0 SHL SUB DUP2 AND DUP2 EQ PUSH3 0x3E6 JUMPI PUSH1 0x0 DUP1 REVERT JUMPDEST SWAP2 SWAP1 POP JUMP JUMPDEST PUSH1 0x0 DUP1 PUSH1 0x0 DUP1 PUSH1 0x80 DUP6 DUP8 SUB SLT ISZERO PUSH3 0x402 JUMPI PUSH1 0x0 DUP1 REVERT JUMPDEST DUP5 MLOAD PUSH1 0x1 PUSH1 0x1 PUSH1 0x40 SHL SUB DUP1 DUP3 GT ISZERO PUSH3 0x41A JUMPI PUSH1 0x0 DUP1 REVERT JUMPDEST PUSH3 0x428 DUP9 DUP4 DUP10 ADD PUSH3 0x33D JUMP JUMPDEST SWAP6 POP PUSH1 0x20 DUP8 ADD MLOAD SWAP2 POP DUP1 DUP3 GT ISZERO PUSH3 0x43F JUMPI PUSH1 0x0 DUP1 REVERT JUMPDEST POP PUSH3 0x44E DUP8 DUP3 DUP9 ADD PUSH3 0x33D JUMP JUMPDEST SWAP4 POP POP PUSH3 0x45F PUSH1 0x40 DUP7 ADD PUSH3 0x3CE JUMP JUMPDEST SWAP2 POP PUSH3 0x46F PUSH1 0x60 DUP7 ADD PUSH3 0x3CE JUMP JUMPDEST SWAP1 POP SWAP3 SWAP6 SWAP2 SWAP5 POP SWAP3 POP JUMP JUMPDEST PUSH1 0x1 DUP2 DUP2 SHR SWAP1 DUP3 AND DUP1 PUSH3 0x48F JUMPI PUSH1 0x7F DUP3 AND SWAP2 POP JUMPDEST PUSH1 0x20 DUP3 LT DUP2 SUB PUSH3 0x4B0 JUMPI PUSH4 0x4E487B71 PUSH1 0xE0 SHL PUSH1 0x0 MSTORE PUSH1 0x22 PUSH1 0x4 MSTORE PUSH1 0x24 PUSH1 0x0 REVERT JUMPDEST POP SWAP2 SWAP1 POP JUMP JUMPDEST PUSH1 0x1F DUP3 GT ISZERO PUSH3 0x504 JUMPI PUSH1 0x0 DUP2 DUP2 MSTORE PUSH1 0x20 DUP2 KECCAK256 PUSH1 0x1F DUP6 ADD PUSH1 0x5 SHR DUP2 ADD PUSH1 0x20 DUP7 LT ISZERO PUSH3 0x4DF JUMPI POP DUP1 JUMPDEST PUSH1 0x1F DUP6 ADD PUSH1 0x5 SHR DUP3 ADD SWAP2 POP JUMPDEST DUP2 DUP2 LT ISZERO PUSH3 0x500 JUMPI DUP3 DUP2 SSTORE PUSH1 0x1 ADD PUSH3 0x4EB JUMP JUMPDEST POP POP POP JUMPDEST POP POP POP JUMP JUMPDEST DUP2 MLOAD PUSH1 0x1 PUSH1 0x1 PUSH1 0x40 SHL SUB DUP2 GT ISZERO PUSH3 0x525 JUMPI PUSH3 0x525 PUSH3 0x301 JUMP JUMPDEST PUSH3 0x53D DUP2 PUSH3 0x536 DUP5 SLOAD PUSH3 0x47A JUMP JUMPDEST DUP5 PUSH3 0x4B6 JUMP JUMPDEST PUSH1 0x20 DUP1 PUSH1 0x1F DUP4 GT PUSH1 0x1 DUP2 EQ PUSH3 0x575 JUMPI PUSH1 0x0 DUP5 ISZERO PUSH3 0x55C JUMPI POP DUP6 DUP4 ADD MLOAD JUMPDEST PUSH1 0x0 NOT PUSH1 0x3 DUP7 SWAP1 SHL SHR NOT AND PUSH1 0x1 DUP6 SWAP1 SHL OR DUP6 SSTORE PUSH3 0x500 JUMP JUMPDEST PUSH1 0x0 DUP6 DUP2 MSTORE PUSH1 0x20 DUP2 KECCAK256 PUSH1 0x1F NOT DUP7 AND SWAP2 JUMPDEST DUP3 DUP2 LT ISZERO PUSH3 0x5A6 JUMPI DUP9 DUP7 ADD MLOAD DUP3 SSTORE SWAP5 DUP5 ADD SWAP5 PUSH1 0x1 SWAP1 SWAP2 ADD SWAP1 DUP5 ADD PUSH3 0x585 JUMP JUMPDEST POP DUP6 DUP3 LT ISZERO PUSH3 0x5C5 JUMPI DUP8 DUP6 ADD MLOAD PUSH1 0x0 NOT PUSH1 0x3 DUP9 SWAP1 SHL PUSH1 0xF8 AND SHR NOT AND DUP2 SSTORE JUMPDEST POP POP POP POP POP PUSH1 0x1 SWAP1 DUP2 SHL ADD SWAP1 SSTORE POP JUMP JUMPDEST PUSH1 0x20 DUP2 MSTORE PUSH1 0x0 DUP3 MLOAD DUP1 PUSH1 0x20 DUP5 ADD MSTORE PUSH3 0x5F6 DUP2 PUSH1 0x40 DUP6 ADD PUSH1 0x20 DUP8 ADD PUSH3 0x317 JUMP JUMPDEST PUSH1 0x1F ADD PUSH1 0x1F NOT AND SWAP2 SWAP1 SWAP2 ADD PUSH1 0x40 ADD SWAP3 SWAP2 POP POP JUMP JUMPDEST DUP1 MLOAD PUSH1 0x20 DUP1 DUP4 ADD MLOAD SWAP2 SWAP1 DUP2 LT ISZERO PUSH3 0x4B0 JUMPI PUSH1 0x0 NOT PUSH1 0x20 SWAP2 SWAP1 SWAP2 SUB PUSH1 0x3 SHL SHL AND SWAP2 SWAP1 POP JUMP JUMPDEST PUSH1 0x80 MLOAD PUSH1 0xA0 MLOAD PUSH1 0xC0 MLOAD PUSH1 0xE0 MLOAD PUSH2 0x100 MLOAD PUSH2 0x120 MLOAD PUSH2 0x140 MLOAD PUSH2 0x2E12 PUSH3 0x68A PUSH1 0x0 CODECOPY PUSH1 0x0 PUSH2 0x1786 ADD MSTORE PUSH1 0x0 PUSH2 0x1754 ADD MSTORE PUSH1 0x0 PUSH2 0x1B61 ADD MSTORE PUSH1 0x0 PUSH2 0x1B39 ADD MSTORE PUSH1 0x0 PUSH2 0x1A94 ADD MSTORE PUSH1 0x0 PUSH2 0x1ABE ADD MSTORE PUSH1 0x0 PUSH2 0x1AE8 ADD MSTORE PUSH2 0x2E12 PUSH1 0x0 RETURN INVALID PUSH1 0x80 PUSH1 0x40 MSTORE CALLVALUE DUP1 ISZERO PUSH2 0x10 JUMPI PUSH1 0x0 DUP1 REVERT JUMPDEST POP PUSH1 0x4 CALLDATASIZE LT PUSH2 0x247 JUMPI PUSH1 0x0 CALLDATALOAD PUSH1 0xE0 SHR DUP1 PUSH4 0x70A08231 GT PUSH2 0x13B JUMPI DUP1 PUSH4 0xA217FDDF GT PUSH2 0xB8 JUMPI DUP1 PUSH4 0xD547741F GT PUSH2 0x7C JUMPI DUP1 PUSH4 0xD547741F EQ PUSH2 0x598 JUMPI DUP1 PUSH4 0xE63AB1E9 EQ PUSH2 0x5AB JUMPI DUP1 PUSH4 0xE985E9C5 EQ PUSH2 0x5D2 JUMPI DUP1 PUSH4 0xEB929AD5 EQ PUSH2 0x5E5 JUMPI DUP1 PUSH4 0xF9D98732 EQ PUSH2 0x5F8 JUMPI PUSH1 0x0 DUP1 REVERT JUMPDEST DUP1 PUSH4 0xA217FDDF EQ PUSH2 0x542 JUMPI DUP1 PUSH4 0xA22CB465 EQ PUSH2 0x54A JUMPI DUP1 PUSH4 0xB88D4FDE EQ PUSH2 0x55D JUMPI DUP1 PUSH4 0xC87B56DD EQ PUSH2 0x570 JUMPI DUP1 PUSH4 0xD5391393 EQ PUSH2 0x583 JUMPI PUSH1 0x0 DUP1 REVERT JUMPDEST DUP1 PUSH4 0x8CFCAE21 GT PUSH2 0xFF JUMPI DUP1 PUSH4 0x8CFCAE21 EQ PUSH2 0x4CD JUMPI DUP1 PUSH4 0x91D14854 EQ PUSH2 0x4F4 JUMPI DUP1 PUSH4 0x95D89B41 EQ PUSH2 0x507 JUMPI DUP1 PUSH4 0x9DA76969 EQ PUSH2 0x50F JUMPI DUP1 PUSH4 0x9F37E2FD EQ PUSH2 0x522 JUMPI PUSH1 0x0 DUP1 REVERT JUMPDEST DUP1 PUSH4 0x70A08231 EQ PUSH2 0x450 JUMPI DUP1 PUSH4 0x7C4ACABF EQ PUSH2 0x463 JUMPI DUP1 PUSH4 0x7ECEBE00 EQ PUSH2 0x48A JUMPI DUP1 PUSH4 0x8456CB59 EQ PUSH2 0x4AA JUMPI DUP1 PUSH4 0x84B0196E EQ PUSH2 0x4B2 JUMPI PUSH1 0x0 DUP1 REVERT JUMPDEST DUP1 PUSH4 0x2F2FF15D GT PUSH2 0x1C9 JUMPI DUP1 PUSH4 0x471F9A09 GT PUSH2 0x18D JUMPI DUP1 PUSH4 0x471F9A09 EQ PUSH2 0x3CA JUMPI DUP1 PUSH4 0x5C975ABB EQ PUSH2 0x3EA JUMPI DUP1 PUSH4 0x5CCC561E EQ PUSH2 0x3F5 JUMPI DUP1 PUSH4 0x60316801 EQ PUSH2 0x418 JUMPI DUP1 PUSH4 0x6352211E EQ PUSH2 0x43D JUMPI PUSH1 0x0 DUP1 REVERT JUMPDEST DUP1 PUSH4 0x2F2FF15D EQ PUSH2 0x369 JUMPI DUP1 PUSH4 0x36568ABE EQ PUSH2 0x37C JUMPI DUP1 PUSH4 0x3F4BA83A EQ PUSH2 0x38F JUMPI DUP1 PUSH4 0x42842E0E EQ PUSH2 0x397 JUMPI DUP1 PUSH4 0x433B64B1 EQ PUSH2 0x3AA JUMPI PUSH1 0x0 DUP1 REVERT JUMPDEST DUP1 PUSH4 0x109C1332 GT PUSH2 0x210 JUMPI DUP1 PUSH4 0x109C1332 EQ PUSH2 0x2EA JUMPI DUP1 PUSH4 0x1F4198D2 EQ PUSH2 0x30D JUMPI DUP1 PUSH4 0x20D4AB5A EQ PUSH2 0x320 JUMPI DUP1 PUSH4 0x23B872DD EQ PUSH2 0x333 JUMPI DUP1 PUSH4 0x248A9CA3 EQ PUSH2 0x346 JUMPI PUSH1 0x0 DUP1 REVERT JUMPDEST DUP1 PUSH3 0xC5C0BE EQ PUSH2 0x24C JUMPI DUP1 PUSH4 0x1FFC9A7 EQ PUSH2 0x272 JUMPI DUP1 PUSH4 0x6FDDE03 EQ PUSH2 0x295 JUMPI DUP1 PUSH4 0x81812FC EQ PUSH2 0x2AA JUMPI DUP1 PUSH4 0x95EA7B3 EQ PUSH2 0x2D5 JUMPI JUMPDEST PUSH1 0x0 DUP1 REVERT JUMPDEST PUSH2 0x25F PUSH2 0x25A CALLDATASIZE PUSH1 0x4 PUSH2 0x254C JUMP JUMPDEST PUSH2 0x60B JUMP JUMPDEST PUSH1 0x40 MLOAD SWAP1 DUP2 MSTORE PUSH1 0x20 ADD JUMPDEST PUSH1 0x40 MLOAD DUP1 SWAP2 SUB SWAP1 RETURN JUMPDEST PUSH2 0x285 PUSH2 0x280 CALLDATASIZE PUSH1 0x4 PUSH2 0x25F2 JUMP JUMPDEST PUSH2 0x89F JUMP JUMPDEST PUSH1 0x40 MLOAD SWAP1 ISZERO ISZERO DUP2 MSTORE PUSH1 0x20 ADD PUSH2 0x269 JUMP JUMPDEST PUSH2 0x29D PUSH2 0x8B0 JUMP JUMPDEST PUSH1 0x40 MLOAD PUSH2 0x269 SWAP2 SWAP1 PUSH2 0x265F JUMP JUMPDEST PUSH2 0x2BD PUSH2 0x2B8 CALLDATASIZE PUSH1 0x4 PUSH2 0x2672 JUMP JUMPDEST PUSH2 0x942 JUMP JUMPDEST PUSH1 0x40 MLOAD PUSH1 0x1 PUSH1 0x1 PUSH1 0xA0 SHL SUB SWAP1 SWAP2 AND DUP2 MSTORE PUSH1 0x20 ADD PUSH2 0x269 JUMP JUMPDEST PUSH2 0x2E8 PUSH2 0x2E3 CALLDATASIZE PUSH1 0x4 PUSH2 0x268B JUMP JUMPDEST PUSH2 0x96B JUMP JUMPDEST STOP JUMPDEST PUSH2 0x285 PUSH2 0x2F8 CALLDATASIZE PUSH1 0x4 PUSH2 0x2672 JUMP JUMPDEST PUSH1 0xD PUSH1 0x20 MSTORE PUSH1 0x0 SWAP1 DUP2 MSTORE PUSH1 0x40 SWAP1 KECCAK256 SLOAD PUSH1 0xFF AND DUP2 JUMP JUMPDEST PUSH2 0x25F PUSH2 0x31B CALLDATASIZE PUSH1 0x4 PUSH2 0x26B5 JUMP JUMPDEST PUSH2 0x97A JUMP JUMPDEST PUSH2 0x2E8 PUSH2 0x32E CALLDATASIZE PUSH1 0x4 PUSH2 0x2726 JUMP JUMPDEST PUSH2 0xAB5 JUMP JUMPDEST PUSH2 0x2E8 PUSH2 0x341 CALLDATASIZE PUSH1 0x4 PUSH2 0x2752 JUMP JUMPDEST PUSH2 0xB4D JUMP JUMPDEST PUSH2 0x25F PUSH2 0x354 CALLDATASIZE PUSH1 0x4 PUSH2 0x2672 JUMP JUMPDEST PUSH1 0x0 SWAP1 DUP2 MSTORE PUSH1 0x7 PUSH1 0x20 MSTORE PUSH1 0x40 SWAP1 KECCAK256 PUSH1 0x1 ADD SLOAD SWAP1 JUMP JUMPDEST PUSH2 0x2E8 PUSH2 0x377 CALLDATASIZE PUSH1 0x4 PUSH2 0x278E JUMP JUMPDEST PUSH2 0xBD8 JUMP JUMPDEST PUSH2 0x2E8 PUSH2 0x38A CALLDATASIZE PUSH1 0x4 PUSH2 0x278E JUMP JUMPDEST PUSH2 0xBFD JUMP JUMPDEST PUSH2 0x2E8 PUSH2 0xC35 JUMP JUMPDEST PUSH2 0x2E8 PUSH2 0x3A5 CALLDATASIZE PUSH1 0x4 PUSH2 0x2752 JUMP JUMPDEST PUSH2 0xC6A JUMP JUMPDEST PUSH2 0x25F PUSH2 0x3B8 CALLDATASIZE PUSH1 0x4 PUSH2 0x2672 JUMP JUMPDEST PUSH1 0x10 PUSH1 0x20 MSTORE PUSH1 0x0 SWAP1 DUP2 MSTORE PUSH1 0x40 SWAP1 KECCAK256 SLOAD DUP2 JUMP JUMPDEST PUSH2 0x25F PUSH2 0x3D8 CALLDATASIZE PUSH1 0x4 PUSH2 0x2672 JUMP JUMPDEST PUSH1 0x11 PUSH1 0x20 MSTORE PUSH1 0x0 SWAP1 DUP2 MSTORE PUSH1 0x40 SWAP1 KECCAK256 SLOAD DUP2 JUMP JUMPDEST PUSH1 0x8 SLOAD PUSH1 0xFF AND PUSH2 0x285 JUMP JUMPDEST PUSH2 0x285 PUSH2 0x403 CALLDATASIZE PUSH1 0x4 PUSH2 0x2672 JUMP JUMPDEST PUSH1 0xE PUSH1 0x20 MSTORE PUSH1 0x0 SWAP1 DUP2 MSTORE PUSH1 0x40 SWAP1 KECCAK256 SLOAD PUSH1 0xFF AND DUP2 JUMP JUMPDEST PUSH2 0x42B PUSH2 0x426 CALLDATASIZE PUSH1 0x4 PUSH2 0x2672 JUMP JUMPDEST PUSH2 0xC85 JUMP JUMPDEST PUSH1 0x40 MLOAD PUSH2 0x269 SWAP7 SWAP6 SWAP5 SWAP4 SWAP3 SWAP2 SWAP1 PUSH2 0x27B1 JUMP JUMPDEST PUSH2 0x2BD PUSH2 0x44B CALLDATASIZE PUSH1 0x4 PUSH2 0x2672 JUMP JUMPDEST PUSH2 0xDBF JUMP JUMPDEST PUSH2 0x25F PUSH2 0x45E CALLDATASIZE PUSH1 0x4 PUSH2 0x27F2 JUMP JUMPDEST PUSH2 0xDCA JUMP JUMPDEST PUSH2 0x25F PUSH32 0xCE3F34913921DA558F105CEFB578D87278DEBBBD073A8D552B5DE0D168DEEE30 DUP2 JUMP JUMPDEST PUSH2 0x25F PUSH2 0x498 CALLDATASIZE PUSH1 0x4 PUSH2 0x27F2 JUMP JUMPDEST PUSH1 0x13 PUSH1 0x20 MSTORE PUSH1 0x0 SWAP1 DUP2 MSTORE PUSH1 0x40 SWAP1 KECCAK256 SLOAD DUP2 JUMP JUMPDEST PUSH2 0x2E8 PUSH2 0xE12 JUMP JUMPDEST PUSH2 0x4BA PUSH2 0xE44 JUMP JUMPDEST PUSH1 0x40 MLOAD PUSH2 0x269 SWAP8 SWAP7 SWAP6 SWAP5 SWAP4 SWAP3 SWAP2 SWAP1 PUSH2 0x280D JUMP JUMPDEST PUSH2 0x25F PUSH32 0x832ED6B8A95B3E4B5964AFCFE14A8CFE113C6C57B8F1B6AE54629A54F1E1405E DUP2 JUMP JUMPDEST PUSH2 0x285 PUSH2 0x502 CALLDATASIZE PUSH1 0x4 PUSH2 0x278E JUMP JUMPDEST PUSH2 0xE8A JUMP JUMPDEST PUSH2 0x29D PUSH2 0xEB5 JUMP JUMPDEST PUSH2 0x29D PUSH2 0x51D CALLDATASIZE PUSH1 0x4 PUSH2 0x2672 JUMP JUMPDEST PUSH2 0xEC4 JUMP JUMPDEST PUSH2 0x25F PUSH2 0x530 CALLDATASIZE PUSH1 0x4 PUSH2 0x2672 JUMP JUMPDEST PUSH1 0x12 PUSH1 0x20 MSTORE PUSH1 0x0 SWAP1 DUP2 MSTORE PUSH1 0x40 SWAP1 KECCAK256 SLOAD DUP2 JUMP JUMPDEST PUSH2 0x25F PUSH1 0x0 DUP2 JUMP JUMPDEST PUSH2 0x2E8 PUSH2 0x558 CALLDATASIZE PUSH1 0x4 PUSH2 0x28A3 JUMP JUMPDEST PUSH2 0xF5E JUMP JUMPDEST PUSH2 0x2E8 PUSH2 0x56B CALLDATASIZE PUSH1 0x4 PUSH2 0x28CD JUMP JUMPDEST PUSH2 0xF69 JUMP JUMPDEST PUSH2 0x29D PUSH2 0x57E CALLDATASIZE PUSH1 0x4 PUSH2 0x2672 JUMP JUMPDEST PUSH2 0xF81 JUMP JUMPDEST PUSH2 0x25F PUSH1 0x0 DUP1 MLOAD PUSH1 0x20 PUSH2 0x2DBD DUP4 CODECOPY DUP2 MLOAD SWAP2 MSTORE DUP2 JUMP JUMPDEST PUSH2 0x2E8 PUSH2 0x5A6 CALLDATASIZE PUSH1 0x4 PUSH2 0x278E JUMP JUMPDEST PUSH2 0xF8C JUMP JUMPDEST PUSH2 0x25F PUSH32 0x65D7A28E3265B37A6474929F336521B332C1681B933F6CB9F3376673440D862A DUP2 JUMP JUMPDEST PUSH2 0x285 PUSH2 0x5E0 CALLDATASIZE PUSH1 0x4 PUSH2 0x291D JUMP JUMPDEST PUSH2 0xFB1 JUMP JUMPDEST PUSH2 0x2E8 PUSH2 0x5F3 CALLDATASIZE PUSH1 0x4 PUSH2 0x2947 JUMP JUMPDEST PUSH2 0xFDF JUMP JUMPDEST PUSH2 0x2E8 PUSH2 0x606 CALLDATASIZE PUSH1 0x4 PUSH2 0x29DA JUMP JUMPDEST PUSH2 0x10F0 JUMP JUMPDEST PUSH1 0x0 PUSH2 0x615 PUSH2 0x1390 JUMP JUMPDEST PUSH2 0x61D PUSH2 0x13BA JUMP JUMPDEST DUP3 TIMESTAMP GT ISZERO PUSH2 0x663 JUMPI PUSH1 0x40 MLOAD PUSH3 0x461BCD PUSH1 0xE5 SHL DUP2 MSTORE PUSH1 0x20 PUSH1 0x4 DUP3 ADD MSTORE PUSH1 0xE PUSH1 0x24 DUP3 ADD MSTORE PUSH14 0x14195C9B5A5D08195E1C1A5C9959 PUSH1 0x92 SHL PUSH1 0x44 DUP3 ADD MSTORE PUSH1 0x64 ADD JUMPDEST PUSH1 0x40 MLOAD DUP1 SWAP2 SUB SWAP1 REVERT JUMPDEST PUSH1 0x1 PUSH1 0x1 PUSH1 0xA0 SHL SUB DUP8 AND PUSH2 0x6AD JUMPI PUSH1 0x40 MLOAD PUSH3 0x461BCD PUSH1 0xE5 SHL DUP2 MSTORE PUSH1 0x20 PUSH1 0x4 DUP3 ADD MSTORE PUSH1 0x11 PUSH1 0x24 DUP3 ADD MSTORE PUSH17 0x125B9D985B1A59081C9958DA5C1A595B9D PUSH1 0x7A SHL PUSH1 0x44 DUP3 ADD MSTORE PUSH1 0x64 ADD PUSH2 0x65A JUMP JUMPDEST DUP4 MLOAD PUSH1 0x20 DUP1 DUP7 ADD SWAP2 SWAP1 SWAP2 KECCAK256 PUSH1 0x1 PUSH1 0x1 PUSH1 0xA0 SHL SUB DUP10 AND PUSH1 0x0 SWAP1 DUP2 MSTORE PUSH1 0x13 SWAP1 SWAP3 MSTORE PUSH1 0x40 DUP3 KECCAK256 DUP1 SLOAD PUSH32 0x832ED6B8A95B3E4B5964AFCFE14A8CFE113C6C57B8F1B6AE54629A54F1E1405E SWAP3 DUP12 SWAP3 DUP12 SWAP3 DUP12 SWAP3 SWAP2 DUP8 PUSH2 0x705 DUP4 PUSH2 0x2A9E JUMP JUMPDEST SWAP1 SWAP2 SSTORE POP PUSH1 0x40 DUP1 MLOAD PUSH1 0x20 DUP2 ADD SWAP8 SWAP1 SWAP8 MSTORE PUSH1 0x1 PUSH1 0x1 PUSH1 0xA0 SHL SUB SWAP1 SWAP6 AND SWAP5 DUP7 ADD SWAP5 SWAP1 SWAP5 MSTORE PUSH1 0x60 DUP6 ADD SWAP3 SWAP1 SWAP3 MSTORE PUSH1 0x80 DUP5 ADD MSTORE PUSH1 0xA0 DUP4 ADD MSTORE PUSH1 0xC0 DUP3 ADD MSTORE PUSH1 0xE0 DUP2 ADD DUP6 SWAP1 MSTORE PUSH2 0x100 ADD PUSH1 0x40 MLOAD PUSH1 0x20 DUP2 DUP4 SUB SUB DUP2 MSTORE SWAP1 PUSH1 0x40 MSTORE DUP1 MLOAD SWAP1 PUSH1 0x20 ADD KECCAK256 SWAP1 POP PUSH1 0x0 PUSH2 0x76C DUP3 PUSH2 0x13E0 JUMP JUMPDEST SWAP1 POP PUSH1 0x0 PUSH2 0x77A DUP3 DUP7 PUSH2 0x140D JUMP JUMPDEST SWAP1 POP PUSH2 0x794 PUSH1 0x0 DUP1 MLOAD PUSH1 0x20 PUSH2 0x2DBD DUP4 CODECOPY DUP2 MLOAD SWAP2 MSTORE DUP3 PUSH2 0xE8A JUMP JUMPDEST PUSH2 0x7D4 JUMPI PUSH1 0x40 MLOAD PUSH3 0x461BCD PUSH1 0xE5 SHL DUP2 MSTORE PUSH1 0x20 PUSH1 0x4 DUP3 ADD MSTORE PUSH1 0x11 PUSH1 0x24 DUP3 ADD MSTORE PUSH17 0x496E76616C6964207369676E6174757265 PUSH1 0x78 SHL PUSH1 0x44 DUP3 ADD MSTORE PUSH1 0x64 ADD PUSH2 0x65A JUMP JUMPDEST PUSH1 0xC DUP1 SLOAD PUSH1 0x0 SWAP2 DUP3 PUSH2 0x7E5 DUP4 PUSH2 0x2A9E JUMP JUMPDEST SWAP2 SWAP1 POP SSTORE SWAP1 POP PUSH2 0x7F5 DUP12 DUP3 PUSH2 0x1437 JUMP JUMPDEST PUSH2 0x7FF DUP2 DUP10 PUSH2 0x1451 JUMP JUMPDEST PUSH1 0x0 DUP2 DUP2 MSTORE PUSH1 0x10 PUSH1 0x20 SWAP1 DUP2 MSTORE PUSH1 0x40 DUP1 DUP4 KECCAK256 DUP14 SWAP1 SSTORE PUSH1 0x11 DUP3 MSTORE DUP1 DUP4 KECCAK256 DUP13 SWAP1 SSTORE PUSH1 0x12 DUP3 MSTORE DUP1 DUP4 KECCAK256 TIMESTAMP SWAP1 DUP2 SWAP1 SSTORE PUSH1 0xD SWAP1 SWAP3 MSTORE SWAP2 DUP3 SWAP1 KECCAK256 DUP1 SLOAD PUSH1 0xFF NOT AND PUSH1 0x1 OR SWAP1 SSTORE SWAP1 MLOAD DUP12 SWAP2 PUSH1 0x1 PUSH1 0x1 PUSH1 0xA0 SHL SUB DUP15 AND SWAP2 DUP5 SWAP2 PUSH32 0x9B0EF120B6FA26C3AB0EB36ED50ABE87249253F57EAB819C23138CD905259C2D SWAP2 PUSH2 0x87E SWAP2 DUP16 SWAP2 DUP16 SWAP2 SWAP1 PUSH2 0x2AC5 JUMP JUMPDEST PUSH1 0x40 MLOAD DUP1 SWAP2 SUB SWAP1 LOG4 SWAP4 POP POP POP POP PUSH2 0x895 PUSH1 0x1 PUSH1 0x9 SSTORE JUMP JUMPDEST SWAP7 SWAP6 POP POP POP POP POP POP JUMP JUMPDEST PUSH1 0x0 PUSH2 0x8AA DUP3 PUSH2 0x14A1 JUMP JUMPDEST SWAP3 SWAP2 POP POP JUMP JUMPDEST PUSH1 0x60 PUSH1 0x0 DUP1 SLOAD PUSH2 0x8BF SWAP1 PUSH2 0x2AEE JUMP JUMPDEST DUP1 PUSH1 0x1F ADD PUSH1 0x20 DUP1 SWAP2 DIV MUL PUSH1 0x20 ADD PUSH1 0x40 MLOAD SWAP1 DUP2 ADD PUSH1 0x40 MSTORE DUP1 SWAP3 SWAP2 SWAP1 DUP2 DUP2 MSTORE PUSH1 0x20 ADD DUP3 DUP1 SLOAD PUSH2 0x8EB SWAP1 PUSH2 0x2AEE JUMP JUMPDEST DUP1 ISZERO PUSH2 0x938 JUMPI DUP1 PUSH1 0x1F LT PUSH2 0x90D JUMPI PUSH2 0x100 DUP1 DUP4 SLOAD DIV MUL DUP4 MSTORE SWAP2 PUSH1 0x20 ADD SWAP2 PUSH2 0x938 JUMP JUMPDEST DUP3 ADD SWAP2 SWAP1 PUSH1 0x0 MSTORE PUSH1 0x20 PUSH1 0x0 KECCAK256 SWAP1 JUMPDEST DUP2 SLOAD DUP2 MSTORE SWAP1 PUSH1 0x1 ADD SWAP1 PUSH1 0x20 ADD DUP1 DUP4 GT PUSH2 0x91B JUMPI DUP3 SWAP1 SUB PUSH1 0x1F AND DUP3 ADD SWAP2 JUMPDEST POP POP POP POP POP SWAP1 POP SWAP1 JUMP JUMPDEST PUSH1 0x0 PUSH2 0x94D DUP3 PUSH2 0x14C6 JUMP JUMPDEST POP PUSH1 0x0 DUP3 DUP2 MSTORE PUSH1 0x4 PUSH1 0x20 MSTORE PUSH1 0x40 SWAP1 KECCAK256 SLOAD PUSH1 0x1 PUSH1 0x1 PUSH1 0xA0 SHL SUB AND PUSH2 0x8AA JUMP JUMPDEST PUSH2 0x976 DUP3 DUP3 CALLER PUSH2 0x14FF JUMP JUMPDEST POP POP JUMP JUMPDEST PUSH1 0x0 PUSH1 0x0 DUP1 MLOAD PUSH1 0x20 PUSH2 0x2DBD DUP4 CODECOPY DUP2 MLOAD SWAP2 MSTORE PUSH2 0x994 DUP2 PUSH2 0x150C JUMP JUMPDEST PUSH2 0x99C PUSH2 0x1390 JUMP JUMPDEST PUSH2 0x9A4 PUSH2 0x13BA JUMP JUMPDEST PUSH1 0x1 PUSH1 0x1 PUSH1 0xA0 SHL SUB DUP7 AND PUSH2 0x9EE JUMPI PUSH1 0x40 MLOAD PUSH3 0x461BCD PUSH1 0xE5 SHL DUP2 MSTORE PUSH1 0x20 PUSH1 0x4 DUP3 ADD MSTORE PUSH1 0x11 PUSH1 0x24 DUP3 ADD MSTORE PUSH17 0x125B9D985B1A59081C9958DA5C1A595B9D PUSH1 0x7A SHL PUSH1 0x44 DUP3 ADD MSTORE PUSH1 0x64 ADD PUSH2 0x65A JUMP JUMPDEST PUSH1 0xC DUP1 SLOAD PUSH1 0x0 SWAP2 DUP3 PUSH2 0x9FF DUP4 PUSH2 0x2A9E JUMP JUMPDEST SWAP2 SWAP1 POP SSTORE SWAP1 POP PUSH2 0xA0F DUP8 DUP3 PUSH2 0x1437 JUMP JUMPDEST PUSH2 0xA19 DUP2 DUP6 PUSH2 0x1451 JUMP JUMPDEST PUSH1 0x0 DUP2 DUP2 MSTORE PUSH1 0x10 PUSH1 0x20 SWAP1 DUP2 MSTORE PUSH1 0x40 DUP1 DUP4 KECCAK256 DUP10 SWAP1 SSTORE PUSH1 0x11 DUP3 MSTORE DUP1 DUP4 KECCAK256 DUP9 SWAP1 SSTORE PUSH1 0x12 DUP3 MSTORE DUP1 DUP4 KECCAK256 TIMESTAMP SWAP1 DUP2 SWAP1 SSTORE PUSH1 0xD SWAP1 SWAP3 MSTORE SWAP2 DUP3 SWAP1 KECCAK256 DUP1 SLOAD PUSH1 0xFF NOT AND PUSH1 0x1 OR SWAP1 SSTORE SWAP1 MLOAD DUP8 SWAP2 PUSH1 0x1 PUSH1 0x1 PUSH1 0xA0 SHL SUB DUP11 AND SWAP2 DUP5 SWAP2 PUSH32 0x9B0EF120B6FA26C3AB0EB36ED50ABE87249253F57EAB819C23138CD905259C2D SWAP2 PUSH2 0xA98 SWAP2 DUP12 SWAP2 DUP12 SWAP2 SWAP1 PUSH2 0x2AC5 JUMP JUMPDEST PUSH1 0x40 MLOAD DUP1 SWAP2 SUB SWAP1 LOG4 SWAP2 POP PUSH2 0xAAC PUSH1 0x1 PUSH1 0x9 SSTORE JUMP JUMPDEST POP SWAP5 SWAP4 POP POP POP POP JUMP JUMPDEST PUSH1 0x0 PUSH2 0xAC0 DUP2 PUSH2 0x150C JUMP JUMPDEST PUSH1 0x0 DUP4 DUP2 MSTORE PUSH1 0x2 PUSH1 0x20 MSTORE PUSH1 0x40 SWAP1 KECCAK256 SLOAD PUSH1 0x1 PUSH1 0x1 PUSH1 0xA0 SHL SUB AND PUSH2 0xAF4 JUMPI PUSH1 0x40 MLOAD PUSH3 0x461BCD PUSH1 0xE5 SHL DUP2 MSTORE PUSH1 0x4 ADD PUSH2 0x65A SWAP1 PUSH2 0x2B28 JUMP JUMPDEST PUSH1 0x0 DUP4 DUP2 MSTORE PUSH1 0xD PUSH1 0x20 SWAP1 DUP2 MSTORE PUSH1 0x40 SWAP2 DUP3 SWAP1 KECCAK256 DUP1 SLOAD PUSH1 0xFF NOT AND DUP6 ISZERO ISZERO SWAP1 DUP2 OR SWAP1 SWAP2 SSTORE SWAP2 MLOAD SWAP2 DUP3 MSTORE DUP5 SWAP2 PUSH32 0xE15C838BE9B51164B98296AA772F0EEB923D5D565147205A923A2697522A8C96 SWAP2 ADD JUMPDEST PUSH1 0x40 MLOAD DUP1 SWAP2 SUB SWAP1 LOG2 POP POP POP JUMP JUMPDEST PUSH1 0x1 PUSH1 0x1 PUSH1 0xA0 SHL SUB DUP3 AND PUSH2 0xB77 JUMPI PUSH1 0x40 MLOAD PUSH4 0x32505749 PUSH1 0xE1 SHL DUP2 MSTORE PUSH1 0x0 PUSH1 0x4 DUP3 ADD MSTORE PUSH1 0x24 ADD PUSH2 0x65A JUMP JUMPDEST PUSH1 0x0 PUSH2 0xB84 DUP4 DUP4 CALLER PUSH2 0x1516 JUMP JUMPDEST SWAP1 POP DUP4 PUSH1 0x1 PUSH1 0x1 PUSH1 0xA0 SHL SUB AND DUP2 PUSH1 0x1 PUSH1 0x1 PUSH1 0xA0 SHL SUB AND EQ PUSH2 0xBD2 JUMPI PUSH1 0x40 MLOAD PUSH4 0x64283D7B PUSH1 0xE0 SHL DUP2 MSTORE PUSH1 0x1 PUSH1 0x1 PUSH1 0xA0 SHL SUB DUP1 DUP7 AND PUSH1 0x4 DUP4 ADD MSTORE PUSH1 0x24 DUP3 ADD DUP5 SWAP1 MSTORE DUP3 AND PUSH1 0x44 DUP3 ADD MSTORE PUSH1 0x64 ADD PUSH2 0x65A JUMP JUMPDEST POP POP POP POP JUMP JUMPDEST PUSH1 0x0 DUP3 DUP2 MSTORE PUSH1 0x7 PUSH1 0x20 MSTORE PUSH1 0x40 SWAP1 KECCAK256 PUSH1 0x1 ADD SLOAD PUSH2 0xBF3 DUP2 PUSH2 0x150C JUMP JUMPDEST PUSH2 0xBD2 DUP4 DUP4 PUSH2 0x15BD JUMP JUMPDEST PUSH1 0x1 PUSH1 0x1 PUSH1 0xA0 SHL SUB DUP2 AND CALLER EQ PUSH2 0xC26 JUMPI PUSH1 0x40 MLOAD PUSH4 0x334BD919 PUSH1 0xE1 SHL DUP2 MSTORE PUSH1 0x4 ADD PUSH1 0x40 MLOAD DUP1 SWAP2 SUB SWAP1 REVERT JUMPDEST PUSH2 0xC30 DUP3 DUP3 PUSH2 0x1651 JUMP JUMPDEST POP POP POP JUMP JUMPDEST PUSH32 0x65D7A28E3265B37A6474929F336521B332C1681B933F6CB9F3376673440D862A PUSH2 0xC5F DUP2 PUSH2 0x150C JUMP JUMPDEST PUSH2 0xC67 PUSH2 0x16BE JUMP JUMPDEST POP JUMP JUMPDEST PUSH2 0xC30 DUP4 DUP4 DUP4 PUSH1 0x40 MLOAD DUP1 PUSH1 0x20 ADD PUSH1 0x40 MSTORE DUP1 PUSH1 0x0 DUP2 MSTORE POP PUSH2 0xF69 JUMP JUMPDEST PUSH1 0x0 DUP1 DUP1 DUP1 DUP1 PUSH1 0x60 DUP2 PUSH2 0xCAD DUP9 PUSH1 0x0 SWAP1 DUP2 MSTORE PUSH1 0x2 PUSH1 0x20 MSTORE PUSH1 0x40 SWAP1 KECCAK256 SLOAD PUSH1 0x1 PUSH1 0x1 PUSH1 0xA0 SHL SUB AND SWAP1 JUMP JUMPDEST PUSH1 0x1 PUSH1 0x1 PUSH1 0xA0 SHL SUB AND SUB PUSH2 0xCD3 JUMPI PUSH1 0x40 MLOAD PUSH3 0x461BCD PUSH1 0xE5 SHL DUP2 MSTORE PUSH1 0x4 ADD PUSH2 0x65A SWAP1 PUSH2 0x2B28 JUMP JUMPDEST PUSH1 0x0 DUP8 DUP2 MSTORE PUSH1 0x10 PUSH1 0x20 SWAP1 DUP2 MSTORE PUSH1 0x40 DUP1 DUP4 KECCAK256 SLOAD PUSH1 0x11 DUP4 MSTORE DUP2 DUP5 KECCAK256 SLOAD PUSH1 0x12 DUP5 MSTORE DUP3 DUP6 KECCAK256 SLOAD PUSH1 0xD DUP6 MSTORE DUP4 DUP7 KECCAK256 SLOAD PUSH1 0xE DUP7 MSTORE DUP5 DUP8 KECCAK256 SLOAD PUSH1 0xF SWAP1 SWAP7 MSTORE SWAP4 SWAP1 SWAP6 KECCAK256 DUP1 SLOAD SWAP3 SWAP6 SWAP2 SWAP5 SWAP2 SWAP4 PUSH1 0xFF SWAP1 DUP2 AND SWAP4 SWAP3 AND SWAP2 DUP2 SWAP1 PUSH2 0xD2A SWAP1 PUSH2 0x2AEE JUMP JUMPDEST DUP1 PUSH1 0x1F ADD PUSH1 0x20 DUP1 SWAP2 DIV MUL PUSH1 0x20 ADD PUSH1 0x40 MLOAD SWAP1 DUP2 ADD PUSH1 0x40 MSTORE DUP1 SWAP3 SWAP2 SWAP1 DUP2 DUP2 MSTORE PUSH1 0x20 ADD DUP3 DUP1 SLOAD PUSH2 0xD56 SWAP1 PUSH2 0x2AEE JUMP JUMPDEST DUP1 ISZERO PUSH2 0xDA3 JUMPI DUP1 PUSH1 0x1F LT PUSH2 0xD78 JUMPI PUSH2 0x100 DUP1 DUP4 SLOAD DIV MUL DUP4 MSTORE SWAP2 PUSH1 0x20 ADD SWAP2 PUSH2 0xDA3 JUMP JUMPDEST DUP3 ADD SWAP2 SWAP1 PUSH1 0x0 MSTORE PUSH1 0x20 PUSH1 0x0 KECCAK256 SWAP1 JUMPDEST DUP2 SLOAD DUP2 MSTORE SWAP1 PUSH1 0x1 ADD SWAP1 PUSH1 0x20 ADD DUP1 DUP4 GT PUSH2 0xD86 JUMPI DUP3 SWAP1 SUB PUSH1 0x1F AND DUP3 ADD SWAP2 JUMPDEST POP POP POP POP POP SWAP1 POP SWAP6 POP SWAP6 POP SWAP6 POP SWAP6 POP SWAP6 POP SWAP6 POP SWAP2 SWAP4 SWAP6 POP SWAP2 SWAP4 SWAP6 JUMP JUMPDEST PUSH1 0x0 PUSH2 0x8AA DUP3 PUSH2 0x14C6 JUMP JUMPDEST PUSH1 0x0 PUSH1 0x1 PUSH1 0x1 PUSH1 0xA0 SHL SUB DUP3 AND PUSH2 0xDF6 JUMPI PUSH1 0x40 MLOAD PUSH4 0x22718AD9 PUSH1 0xE2 SHL DUP2 MSTORE PUSH1 0x0 PUSH1 0x4 DUP3 ADD MSTORE PUSH1 0x24 ADD PUSH2 0x65A JUMP JUMPDEST POP PUSH1 0x1 PUSH1 0x1 PUSH1 0xA0 SHL SUB AND PUSH1 0x0 SWAP1 DUP2 MSTORE PUSH1 0x3 PUSH1 0x20 MSTORE PUSH1 0x40 SWAP1 KECCAK256 SLOAD SWAP1 JUMP JUMPDEST PUSH32 0x65D7A28E3265B37A6474929F336521B332C1681B933F6CB9F3376673440D862A PUSH2 0xE3C DUP2 PUSH2 0x150C JUMP JUMPDEST PUSH2 0xC67 PUSH2 0x1710 JUMP JUMPDEST PUSH1 0x0 PUSH1 0x60 DUP1 PUSH1 0x0 DUP1 PUSH1 0x0 PUSH1 0x60 PUSH2 0xE58 PUSH2 0x174D JUMP JUMPDEST PUSH2 0xE60 PUSH2 0x177F JUMP JUMPDEST PUSH1 0x40 DUP1 MLOAD PUSH1 0x0 DUP1 DUP3 MSTORE PUSH1 0x20 DUP3 ADD SWAP1 SWAP3 MSTORE PUSH1 0xF PUSH1 0xF8 SHL SWAP12 SWAP4 SWAP11 POP SWAP2 SWAP9 POP CHAINID SWAP8 POP ADDRESS SWAP7 POP SWAP5 POP SWAP3 POP SWAP1 POP JUMP JUMPDEST PUSH1 0x0 SWAP2 DUP3 MSTORE PUSH1 0x7 PUSH1 0x20 SWAP1 DUP2 MSTORE PUSH1 0x40 DUP1 DUP5 KECCAK256 PUSH1 0x1 PUSH1 0x1 PUSH1 0xA0 SHL SUB SWAP4 SWAP1 SWAP4 AND DUP5 MSTORE SWAP2 SWAP1 MSTORE SWAP1 KECCAK256 SLOAD PUSH1 0xFF AND SWAP1 JUMP JUMPDEST PUSH1 0x60 PUSH1 0x1 DUP1 SLOAD PUSH2 0x8BF SWAP1 PUSH2 0x2AEE JUMP JUMPDEST PUSH1 0xF PUSH1 0x20 MSTORE PUSH1 0x0 SWAP1 DUP2 MSTORE PUSH1 0x40 SWAP1 KECCAK256 DUP1 SLOAD PUSH2 0xEDD SWAP1 PUSH2 0x2AEE JUMP JUMPDEST DUP1 PUSH1 0x1F ADD PUSH1 0x20 DUP1 SWAP2 DIV MUL PUSH1 0x20 ADD PUSH1 0x40 MLOAD SWAP1 DUP2 ADD PUSH1 0x40 MSTORE DUP1 SWAP3 SWAP2 SWAP1 DUP2 DUP2 MSTORE PUSH1 0x20 ADD DUP3 DUP1 SLOAD PUSH2 0xF09 SWAP1 PUSH2 0x2AEE JUMP JUMPDEST DUP1 ISZERO PUSH2 0xF56 JUMPI DUP1 PUSH1 0x1F LT PUSH2 0xF2B JUMPI PUSH2 0x100 DUP1 DUP4 SLOAD DIV MUL DUP4 MSTORE SWAP2 PUSH1 0x20 ADD SWAP2 PUSH2 0xF56 JUMP JUMPDEST DUP3 ADD SWAP2 SWAP1 PUSH1 0x0 MSTORE PUSH1 0x20 PUSH1 0x0 KECCAK256 SWAP1 JUMPDEST DUP2 SLOAD DUP2 MSTORE SWAP1 PUSH1 0x1 ADD SWAP1 PUSH1 0x20 ADD DUP1 DUP4 GT PUSH2 0xF39 JUMPI DUP3 SWAP1 SUB PUSH1 0x1F AND DUP3 ADD SWAP2 JUMPDEST POP POP POP POP POP DUP2 JUMP JUMPDEST PUSH2 0x976 CALLER DUP4 DUP4 PUSH2 0x17AC JUMP JUMPDEST PUSH2 0xF74 DUP5 DUP5 DUP5 PUSH2 0xB4D JUMP JUMPDEST PUSH2 0xBD2 CALLER DUP6 DUP6 DUP6 DUP6 PUSH2 0x184B JUMP JUMPDEST PUSH1 0x60 PUSH2 0x8AA DUP3 PUSH2 0x1976 JUMP JUMPDEST PUSH1 0x0 DUP3 DUP2 MSTORE PUSH1 0x7 PUSH1 0x20 MSTORE PUSH1 0x40 SWAP1 KECCAK256 PUSH1 0x1 ADD SLOAD PUSH2 0xFA7 DUP2 PUSH2 0x150C JUMP JUMPDEST PUSH2 0xBD2 DUP4 DUP4 PUSH2 0x1651 JUMP JUMPDEST PUSH1 0x1 PUSH1 0x1 PUSH1 0xA0 SHL SUB SWAP2 DUP3 AND PUSH1 0x0 SWAP1 DUP2 MSTORE PUSH1 0x5 PUSH1 0x20 SWAP1 DUP2 MSTORE PUSH1 0x40 DUP1 DUP4 KECCAK256 SWAP4 SWAP1 SWAP5 AND DUP3 MSTORE SWAP2 SWAP1 SWAP2 MSTORE KECCAK256 SLOAD PUSH1 0xFF AND SWAP1 JUMP JUMPDEST PUSH32 0xCE3F34913921DA558F105CEFB578D87278DEBBBD073A8D552B5DE0D168DEEE30 PUSH2 0x1009 DUP2 PUSH2 0x150C JUMP JUMPDEST PUSH1 0x0 DUP4 DUP2 MSTORE PUSH1 0x2 PUSH1 0x20 MSTORE PUSH1 0x40 SWAP1 KECCAK256 SLOAD PUSH1 0x1 PUSH1 0x1 PUSH1 0xA0 SHL SUB AND PUSH2 0x103D JUMPI PUSH1 0x40 MLOAD PUSH3 0x461BCD PUSH1 0xE5 SHL DUP2 MSTORE PUSH1 0x4 ADD PUSH2 0x65A SWAP1 PUSH2 0x2B28 JUMP JUMPDEST PUSH1 0x0 DUP4 DUP2 MSTORE PUSH1 0xE PUSH1 0x20 MSTORE PUSH1 0x40 SWAP1 KECCAK256 SLOAD PUSH1 0xFF AND ISZERO PUSH2 0x108E JUMPI PUSH1 0x40 MLOAD PUSH3 0x461BCD PUSH1 0xE5 SHL DUP2 MSTORE PUSH1 0x20 PUSH1 0x4 DUP3 ADD MSTORE PUSH1 0xF PUSH1 0x24 DUP3 ADD MSTORE PUSH15 0x105B1C9958591E481C995D9BDAD959 PUSH1 0x8A SHL PUSH1 0x44 DUP3 ADD MSTORE PUSH1 0x64 ADD PUSH2 0x65A JUMP JUMPDEST PUSH1 0x0 DUP4 DUP2 MSTORE PUSH1 0xE PUSH1 0x20 SWAP1 DUP2 MSTORE PUSH1 0x40 DUP1 DUP4 KECCAK256 DUP1 SLOAD PUSH1 0xFF NOT AND PUSH1 0x1 OR SWAP1 SSTORE PUSH1 0xF SWAP1 SWAP2 MSTORE SWAP1 KECCAK256 PUSH2 0x10BB DUP4 DUP3 PUSH2 0x2B9C JUMP JUMPDEST POP DUP3 PUSH32 0x8D534BD9C2C60F1201E9F0CCEC5FCDA358F4D63537AC9F80C54728BEE7F38DE2 DUP4 CALLER TIMESTAMP PUSH1 0x40 MLOAD PUSH2 0xB40 SWAP4 SWAP3 SWAP2 SWAP1 PUSH2 0x2C5C JUMP JUMPDEST PUSH1 0x0 DUP1 MLOAD PUSH1 0x20 PUSH2 0x2DBD DUP4 CODECOPY DUP2 MLOAD SWAP2 MSTORE PUSH2 0x1108 DUP2 PUSH2 0x150C JUMP JUMPDEST PUSH2 0x1110 PUSH2 0x1390 JUMP JUMPDEST PUSH2 0x1118 PUSH2 0x13BA JUMP JUMPDEST DUP8 DUP7 EQ DUP1 ISZERO PUSH2 0x1126 JUMPI POP DUP6 DUP5 EQ JUMPDEST DUP1 ISZERO PUSH2 0x1131 JUMPI POP DUP4 DUP3 EQ JUMPDEST PUSH2 0x1175 JUMPI PUSH1 0x40 MLOAD PUSH3 0x461BCD PUSH1 0xE5 SHL DUP2 MSTORE PUSH1 0x20 PUSH1 0x4 DUP3 ADD MSTORE PUSH1 0x15 PUSH1 0x24 DUP3 ADD MSTORE PUSH21 0x82E4E4C2F240D8CADCCEE8D040DAD2E6DAC2E8C6D PUSH1 0x5B SHL PUSH1 0x44 DUP3 ADD MSTORE PUSH1 0x64 ADD PUSH2 0x65A JUMP JUMPDEST PUSH1 0x0 JUMPDEST DUP9 DUP2 LT ISZERO PUSH2 0x137A JUMPI PUSH1 0xC DUP1 SLOAD PUSH1 0x0 SWAP2 DUP3 PUSH2 0x1191 DUP4 PUSH2 0x2A9E JUMP JUMPDEST SWAP2 SWAP1 POP SSTORE SWAP1 POP PUSH2 0x11C7 DUP12 DUP12 DUP5 DUP2 DUP2 LT PUSH2 0x11AC JUMPI PUSH2 0x11AC PUSH2 0x2C8A JUMP JUMPDEST SWAP1 POP PUSH1 0x20 MUL ADD PUSH1 0x20 DUP2 ADD SWAP1 PUSH2 0x11C1 SWAP2 SWAP1 PUSH2 0x27F2 JUMP JUMPDEST DUP3 PUSH2 0x1437 JUMP JUMPDEST PUSH2 0x1229 DUP2 DUP7 DUP7 DUP6 DUP2 DUP2 LT PUSH2 0x11DD JUMPI PUSH2 0x11DD PUSH2 0x2C8A JUMP JUMPDEST SWAP1 POP PUSH1 0x20 MUL DUP2 ADD SWAP1 PUSH2 0x11EF SWAP2 SWAP1 PUSH2 0x2CA0 JUMP JUMPDEST DUP1 DUP1 PUSH1 0x1F ADD PUSH1 0x20 DUP1 SWAP2 DIV MUL PUSH1 0x20 ADD PUSH1 0x40 MLOAD SWAP1 DUP2 ADD PUSH1 0x40 MSTORE DUP1 SWAP4 SWAP3 SWAP2 SWAP1 DUP2 DUP2 MSTORE PUSH1 0x20 ADD DUP4 DUP4 DUP1 DUP3 DUP5 CALLDATACOPY PUSH1 0x0 SWAP3 ADD SWAP2 SWAP1 SWAP2 MSTORE POP PUSH2 0x1451 SWAP3 POP POP POP JUMP JUMPDEST DUP9 DUP9 DUP4 DUP2 DUP2 LT PUSH2 0x123B JUMPI PUSH2 0x123B PUSH2 0x2C8A JUMP JUMPDEST SWAP1 POP PUSH1 0x20 MUL ADD CALLDATALOAD PUSH1 0x10 PUSH1 0x0 DUP4 DUP2 MSTORE PUSH1 0x20 ADD SWAP1 DUP2 MSTORE PUSH1 0x20 ADD PUSH1 0x0 KECCAK256 DUP2 SWAP1 SSTORE POP DUP7 DUP7 DUP4 DUP2 DUP2 LT PUSH2 0x126B JUMPI PUSH2 0x126B PUSH2 0x2C8A JUMP JUMPDEST PUSH1 0x0 DUP5 DUP2 MSTORE PUSH1 0x11 PUSH1 0x20 SWAP1 DUP2 MSTORE PUSH1 0x40 DUP1 DUP4 KECCAK256 SWAP4 DUP3 MUL SWAP6 SWAP1 SWAP6 ADD CALLDATALOAD SWAP1 SWAP3 SSTORE PUSH1 0x12 DUP3 MSTORE DUP4 DUP2 KECCAK256 TIMESTAMP SWAP1 SSTORE PUSH1 0xD SWAP1 SWAP2 MSTORE SWAP2 SWAP1 SWAP2 KECCAK256 DUP1 SLOAD PUSH1 0xFF NOT AND PUSH1 0x1 OR SWAP1 SSTORE POP DUP9 DUP9 DUP4 DUP2 DUP2 LT PUSH2 0x12B8 JUMPI PUSH2 0x12B8 PUSH2 0x2C8A JUMP JUMPDEST SWAP1 POP PUSH1 0x20 MUL ADD CALLDATALOAD DUP12 DUP12 DUP5 DUP2 DUP2 LT PUSH2 0x12D1 JUMPI PUSH2 0x12D1 PUSH2 0x2C8A JUMP JUMPDEST SWAP1 POP PUSH1 0x20 MUL ADD PUSH1 0x20 DUP2 ADD SWAP1 PUSH2 0x12E6 SWAP2 SWAP1 PUSH2 0x27F2 JUMP JUMPDEST PUSH1 0x1 PUSH1 0x1 PUSH1 0xA0 SHL SUB AND DUP3 PUSH32 0x9B0EF120B6FA26C3AB0EB36ED50ABE87249253F57EAB819C23138CD905259C2D DUP11 DUP11 DUP8 DUP2 DUP2 LT PUSH2 0x1323 JUMPI PUSH2 0x1323 PUSH2 0x2C8A JUMP JUMPDEST SWAP1 POP PUSH1 0x20 MUL ADD CALLDATALOAD DUP10 DUP10 DUP9 DUP2 DUP2 LT PUSH2 0x133C JUMPI PUSH2 0x133C PUSH2 0x2C8A JUMP JUMPDEST SWAP1 POP PUSH1 0x20 MUL DUP2 ADD SWAP1 PUSH2 0x134E SWAP2 SWAP1 PUSH2 0x2CA0 JUMP JUMPDEST TIMESTAMP PUSH1 0x40 MLOAD PUSH2 0x135F SWAP5 SWAP4 SWAP3 SWAP2 SWAP1 PUSH2 0x2CE7 JUMP JUMPDEST PUSH1 0x40 MLOAD DUP1 SWAP2 SUB SWAP1 LOG4 POP DUP1 PUSH2 0x1372 DUP2 PUSH2 0x2A9E JUMP JUMPDEST SWAP2 POP POP PUSH2 0x1178 JUMP JUMPDEST POP PUSH2 0x1385 PUSH1 0x1 PUSH1 0x9 SSTORE JUMP JUMPDEST POP POP POP POP POP POP POP POP POP JUMP JUMPDEST PUSH1 0x2 PUSH1 0x9 SLOAD SUB PUSH2 0x13B3 JUMPI PUSH1 0x40 MLOAD PUSH4 0x3EE5AEB5 PUSH1 0xE0 SHL DUP2 MSTORE PUSH1 0x4 ADD PUSH1 0x40 MLOAD DUP1 SWAP2 SUB SWAP1 REVERT JUMPDEST PUSH1 0x2 PUSH1 0x9 SSTORE JUMP JUMPDEST PUSH1 0x8 SLOAD PUSH1 0xFF AND ISZERO PUSH2 0x13DE JUMPI PUSH1 0x40 MLOAD PUSH4 0xD93C0665 PUSH1 0xE0 SHL DUP2 MSTORE PUSH1 0x4 ADD PUSH1 0x40 MLOAD DUP1 SWAP2 SUB SWAP1 REVERT JUMPDEST JUMP JUMPDEST PUSH1 0x0 PUSH2 0x8AA PUSH2 0x13ED PUSH2 0x1A87 JUMP JUMPDEST DUP4 PUSH1 0x40 MLOAD PUSH2 0x1901 PUSH1 0xF0 SHL DUP2 MSTORE PUSH1 0x2 DUP2 ADD SWAP3 SWAP1 SWAP3 MSTORE PUSH1 0x22 DUP3 ADD MSTORE PUSH1 0x42 SWAP1 KECCAK256 SWAP1 JUMP JUMPDEST PUSH1 0x0 DUP1 PUSH1 0x0 DUP1 PUSH2 0x141D DUP7 DUP7 PUSH2 0x1BB2 JUMP JUMPDEST SWAP3 POP SWAP3 POP SWAP3 POP PUSH2 0x142D DUP3 DUP3 PUSH2 0x1BFF JUMP JUMPDEST POP SWAP1 SWAP5 SWAP4 POP POP POP POP JUMP JUMPDEST PUSH2 0x976 DUP3 DUP3 PUSH1 0x40 MLOAD DUP1 PUSH1 0x20 ADD PUSH1 0x40 MSTORE DUP1 PUSH1 0x0 DUP2 MSTORE POP PUSH2 0x1CB8 JUMP JUMPDEST PUSH1 0x0 DUP3 DUP2 MSTORE PUSH1 0x6 PUSH1 0x20 MSTORE PUSH1 0x40 SWAP1 KECCAK256 PUSH2 0x1469 DUP3 DUP3 PUSH2 0x2B9C JUMP JUMPDEST POP PUSH1 0x40 MLOAD DUP3 DUP2 MSTORE PUSH32 0xF8E1A15ABA9398E019F0B49DF1A4FDE98EE17AE345CB5F6B5E2C27F5033E8CE7 SWAP1 PUSH1 0x20 ADD PUSH1 0x40 MLOAD DUP1 SWAP2 SUB SWAP1 LOG1 POP POP JUMP JUMPDEST PUSH1 0x0 PUSH1 0x1 PUSH1 0x1 PUSH1 0xE0 SHL SUB NOT DUP3 AND PUSH4 0x7965DB0B PUSH1 0xE0 SHL EQ DUP1 PUSH2 0x8AA JUMPI POP PUSH2 0x8AA DUP3 PUSH2 0x1CD0 JUMP JUMPDEST PUSH1 0x0 DUP2 DUP2 MSTORE PUSH1 0x2 PUSH1 0x20 MSTORE PUSH1 0x40 DUP2 KECCAK256 SLOAD PUSH1 0x1 PUSH1 0x1 PUSH1 0xA0 SHL SUB AND DUP1 PUSH2 0x8AA JUMPI PUSH1 0x40 MLOAD PUSH4 0x7E273289 PUSH1 0xE0 SHL DUP2 MSTORE PUSH1 0x4 DUP2 ADD DUP5 SWAP1 MSTORE PUSH1 0x24 ADD PUSH2 0x65A JUMP JUMPDEST PUSH2 0xC30 DUP4 DUP4 DUP4 PUSH1 0x1 PUSH2 0x1CF5 JUMP JUMPDEST PUSH2 0xC67 DUP2 CALLER PUSH2 0x1DFB JUMP JUMPDEST PUSH1 0x0 DUP3 DUP2 MSTORE PUSH1 0x2 PUSH1 0x20 MSTORE PUSH1 0x40 DUP2 KECCAK256 SLOAD PUSH1 0x1 PUSH1 0x1 PUSH1 0xA0 SHL SUB AND DUP1 ISZERO DUP1 ISZERO SWAP1 PUSH2 0x1545 JUMPI POP PUSH1 0x1 PUSH1 0x1 PUSH1 0xA0 SHL SUB DUP6 AND ISZERO ISZERO JUMPDEST ISZERO PUSH2 0x15A9 JUMPI PUSH1 0x0 DUP5 DUP2 MSTORE PUSH1 0xD PUSH1 0x20 MSTORE PUSH1 0x40 SWAP1 KECCAK256 SLOAD PUSH1 0xFF AND ISZERO PUSH2 0x15A9 JUMPI PUSH1 0x40 MLOAD PUSH3 0x461BCD PUSH1 0xE5 SHL DUP2 MSTORE PUSH1 0x20 PUSH1 0x4 DUP3 ADD MSTORE PUSH1 0x19 PUSH1 0x24 DUP3 ADD MSTORE PUSH32 0x546F6B656E206973206E6F6E2D7472616E7366657261626C6500000000000000 PUSH1 0x44 DUP3 ADD MSTORE PUSH1 0x64 ADD PUSH2 0x65A JUMP JUMPDEST PUSH2 0x15B4 DUP6 DUP6 DUP6 PUSH2 0x1E34 JUMP JUMPDEST SWAP6 SWAP5 POP POP POP POP POP JUMP JUMPDEST PUSH1 0x0 PUSH2 0x15C9 DUP4 DUP4 PUSH2 0xE8A JUMP JUMPDEST PUSH2 0x1649 JUMPI PUSH1 0x0 DUP4 DUP2 MSTORE PUSH1 0x7 PUSH1 0x20 SWAP1 DUP2 MSTORE PUSH1 0x40 DUP1 DUP4 KECCAK256 PUSH1 0x1 PUSH1 0x1 PUSH1 0xA0 SHL SUB DUP7 AND DUP5 MSTORE SWAP1 SWAP2 MSTORE SWAP1 KECCAK256 DUP1 SLOAD PUSH1 0xFF NOT AND PUSH1 0x1 OR SWAP1 SSTORE PUSH2 0x1601 CALLER SWAP1 JUMP JUMPDEST PUSH1 0x1 PUSH1 0x1 PUSH1 0xA0 SHL SUB AND DUP3 PUSH1 0x1 PUSH1 0x1 PUSH1 0xA0 SHL SUB AND DUP5 PUSH32 0x2F8788117E7EFF1D82E926EC794901D17C78024A50270940304540A733656F0D PUSH1 0x40 MLOAD PUSH1 0x40 MLOAD DUP1 SWAP2 SUB SWAP1 LOG4 POP PUSH1 0x1 PUSH2 0x8AA JUMP JUMPDEST POP PUSH1 0x0 PUSH2 0x8AA JUMP JUMPDEST PUSH1 0x0 PUSH2 0x165D DUP4 DUP4 PUSH2 0xE8A JUMP JUMPDEST ISZERO PUSH2 0x1649 JUMPI PUSH1 0x0 DUP4 DUP2 MSTORE PUSH1 0x7 PUSH1 0x20 SWAP1 DUP2 MSTORE PUSH1 0x40 DUP1 DUP4 KECCAK256 PUSH1 0x1 PUSH1 0x1 PUSH1 0xA0 SHL SUB DUP7 AND DUP1 DUP6 MSTORE SWAP3 MSTORE DUP1 DUP4 KECCAK256 DUP1 SLOAD PUSH1 0xFF NOT AND SWAP1 SSTORE MLOAD CALLER SWAP3 DUP7 SWAP2 PUSH32 0xF6391F5C32D9C69D2A47EA670B442974B53935D1EDC7FD64EB21E047A839171B SWAP2 SWAP1 LOG4 POP PUSH1 0x1 PUSH2 0x8AA JUMP JUMPDEST PUSH2 0x16C6 PUSH2 0x1F2D JUMP JUMPDEST PUSH1 0x8 DUP1 SLOAD PUSH1 0xFF NOT AND SWAP1 SSTORE PUSH32 0x5DB9EE0A495BF2E6FF9C91A7834C1BA4FDD244A5E8AA4E537BD38AEAE4B073AA CALLER JUMPDEST PUSH1 0x40 MLOAD PUSH1 0x1 PUSH1 0x1 PUSH1 0xA0 SHL SUB SWAP1 SWAP2 AND DUP2 MSTORE PUSH1 0x20 ADD PUSH1 0x40 MLOAD DUP1 SWAP2 SUB SWAP1 LOG1 JUMP JUMPDEST PUSH2 0x1718 PUSH2 0x13BA JUMP JUMPDEST PUSH1 0x8 DUP1 SLOAD PUSH1 0xFF NOT AND PUSH1 0x1 OR SWAP1 SSTORE PUSH32 0x62E78CEA01BEE320CD4E420270B5EA74000D11B0C9F74754EBDBFC544B05A258 PUSH2 0x16F3 CALLER SWAP1 JUMP JUMPDEST PUSH1 0x60 PUSH2 0x177A PUSH32 0x0 PUSH1 0xA PUSH2 0x1F50 JUMP JUMPDEST SWAP1 POP SWAP1 JUMP JUMPDEST PUSH1 0x60 PUSH2 0x177A PUSH32 0x0 PUSH1 0xB PUSH2 0x1F50 JUMP JUMPDEST PUSH1 0x1 PUSH1 0x1 PUSH1 0xA0 SHL SUB DUP3 AND PUSH2 0x17DE JUMPI PUSH1 0x40 MLOAD PUSH4 0xB611743 PUSH1 0xE3 SHL DUP2 MSTORE PUSH1 0x1 PUSH1 0x1 PUSH1 0xA0 SHL SUB DUP4 AND PUSH1 0x4 DUP3 ADD MSTORE PUSH1 0x24 ADD PUSH2 0x65A JUMP JUMPDEST PUSH1 0x1 PUSH1 0x1 PUSH1 0xA0 SHL SUB DUP4 DUP2 AND PUSH1 0x0 DUP2 DUP2 MSTORE PUSH1 0x5 PUSH1 0x20 SWAP1 DUP2 MSTORE PUSH1 0x40 DUP1 DUP4 KECCAK256 SWAP5 DUP8 AND DUP1 DUP5 MSTORE SWAP5 DUP3 MSTORE SWAP2 DUP3 SWAP1 KECCAK256 DUP1 SLOAD PUSH1 0xFF NOT AND DUP7 ISZERO ISZERO SWAP1 DUP2 OR SWAP1 SWAP2 SSTORE SWAP2 MLOAD SWAP2 DUP3 MSTORE PUSH32 0x17307EAB39AB6107E8899845AD3D59BD9653F200F220920489CA2B5937696C31 SWAP2 ADD PUSH1 0x40 MLOAD DUP1 SWAP2 SUB SWAP1 LOG3 POP POP POP JUMP JUMPDEST PUSH1 0x1 PUSH1 0x1 PUSH1 0xA0 SHL SUB DUP4 AND EXTCODESIZE ISZERO PUSH2 0x196F JUMPI PUSH1 0x40 MLOAD PUSH4 0xA85BD01 PUSH1 0xE1 SHL DUP2 MSTORE PUSH1 0x1 PUSH1 0x1 PUSH1 0xA0 SHL SUB DUP5 AND SWAP1 PUSH4 0x150B7A02 SWAP1 PUSH2 0x188D SWAP1 DUP9 SWAP1 DUP9 SWAP1 DUP8 SWAP1 DUP8 SWAP1 PUSH1 0x4 ADD PUSH2 0x2D27 JUMP JUMPDEST PUSH1 0x20 PUSH1 0x40 MLOAD DUP1 DUP4 SUB DUP2 PUSH1 0x0 DUP8 GAS CALL SWAP3 POP POP POP DUP1 ISZERO PUSH2 0x18C8 JUMPI POP PUSH1 0x40 DUP1 MLOAD PUSH1 0x1F RETURNDATASIZE SWAP1 DUP2 ADD PUSH1 0x1F NOT AND DUP3 ADD SWAP1 SWAP3 MSTORE PUSH2 0x18C5 SWAP2 DUP2 ADD SWAP1 PUSH2 0x2D5A JUMP JUMPDEST PUSH1 0x1 JUMPDEST PUSH2 0x1931 JUMPI RETURNDATASIZE DUP1 DUP1 ISZERO PUSH2 0x18F6 JUMPI PUSH1 0x40 MLOAD SWAP2 POP PUSH1 0x1F NOT PUSH1 0x3F RETURNDATASIZE ADD AND DUP3 ADD PUSH1 0x40 MSTORE RETURNDATASIZE DUP3 MSTORE RETURNDATASIZE PUSH1 0x0 PUSH1 0x20 DUP5 ADD RETURNDATACOPY PUSH2 0x18FB JUMP JUMPDEST PUSH1 0x60 SWAP2 POP JUMPDEST POP DUP1 MLOAD PUSH1 0x0 SUB PUSH2 0x1929 JUMPI PUSH1 0x40 MLOAD PUSH4 0x32505749 PUSH1 0xE1 SHL DUP2 MSTORE PUSH1 0x1 PUSH1 0x1 PUSH1 0xA0 SHL SUB DUP6 AND PUSH1 0x4 DUP3 ADD MSTORE PUSH1 0x24 ADD PUSH2 0x65A JUMP JUMPDEST DUP1 MLOAD PUSH1 0x20 DUP3 ADD REVERT JUMPDEST PUSH1 0x1 PUSH1 0x1 PUSH1 0xE0 SHL SUB NOT DUP2 AND PUSH4 0xA85BD01 PUSH1 0xE1 SHL EQ PUSH2 0x196D JUMPI PUSH1 0x40 MLOAD PUSH4 0x32505749 PUSH1 0xE1 SHL DUP2 MSTORE PUSH1 0x1 PUSH1 0x1 PUSH1 0xA0 SHL SUB DUP6 AND PUSH1 0x4 DUP3 ADD MSTORE PUSH1 0x24 ADD PUSH2 0x65A JUMP JUMPDEST POP JUMPDEST POP POP POP POP POP JUMP JUMPDEST PUSH1 0x60 PUSH2 0x1981 DUP3 PUSH2 0x14C6 JUMP JUMPDEST POP PUSH1 0x0 DUP3 DUP2 MSTORE PUSH1 0x6 PUSH1 0x20 MSTORE PUSH1 0x40 DUP2 KECCAK256 DUP1 SLOAD PUSH2 0x199B SWAP1 PUSH2 0x2AEE JUMP JUMPDEST DUP1 PUSH1 0x1F ADD PUSH1 0x20 DUP1 SWAP2 DIV MUL PUSH1 0x20 ADD PUSH1 0x40 MLOAD SWAP1 DUP2 ADD PUSH1 0x40 MSTORE DUP1 SWAP3 SWAP2 SWAP1 DUP2 DUP2 MSTORE PUSH1 0x20 ADD DUP3 DUP1 SLOAD PUSH2 0x19C7 SWAP1 PUSH2 0x2AEE JUMP JUMPDEST DUP1 ISZERO PUSH2 0x1A14 JUMPI DUP1 PUSH1 0x1F LT PUSH2 0x19E9 JUMPI PUSH2 0x100 DUP1 DUP4 SLOAD DIV MUL DUP4 MSTORE SWAP2 PUSH1 0x20 ADD SWAP2 PUSH2 0x1A14 JUMP JUMPDEST DUP3 ADD SWAP2 SWAP1 PUSH1 0x0 MSTORE PUSH1 0x20 PUSH1 0x0 KECCAK256 SWAP1 JUMPDEST DUP2 SLOAD DUP2 MSTORE SWAP1 PUSH1 0x1 ADD SWAP1 PUSH1 0x20 ADD DUP1 DUP4 GT PUSH2 0x19F7 JUMPI DUP3 SWAP1 SUB PUSH1 0x1F AND DUP3 ADD SWAP2 JUMPDEST POP POP POP POP POP SWAP1 POP PUSH1 0x0 PUSH2 0x1A32 PUSH1 0x40 DUP1 MLOAD PUSH1 0x20 DUP2 ADD SWAP1 SWAP2 MSTORE PUSH1 0x0 DUP2 MSTORE SWAP1 JUMP JUMPDEST SWAP1 POP DUP1 MLOAD PUSH1 0x0 SUB PUSH2 0x1A44 JUMPI POP SWAP3 SWAP2 POP POP JUMP JUMPDEST DUP2 MLOAD ISZERO PUSH2 0x1A76 JUMPI DUP1 DUP3 PUSH1 0x40 MLOAD PUSH1 0x20 ADD PUSH2 0x1A5E SWAP3 SWAP2 SWAP1 PUSH2 0x2D77 JUMP JUMPDEST PUSH1 0x40 MLOAD PUSH1 0x20 DUP2 DUP4 SUB SUB DUP2 MSTORE SWAP1 PUSH1 0x40 MSTORE SWAP3 POP POP POP SWAP2 SWAP1 POP JUMP JUMPDEST PUSH2 0x1A7F DUP5 PUSH2 0x1FFB JUMP JUMPDEST SWAP5 SWAP4 POP POP POP POP JUMP JUMPDEST PUSH1 0x0 ADDRESS PUSH1 0x1 PUSH1 0x1 PUSH1 0xA0 SHL SUB PUSH32 0x0 AND EQ DUP1 ISZERO PUSH2 0x1AE0 JUMPI POP PUSH32 0x0 CHAINID EQ JUMPDEST ISZERO PUSH2 0x1B0A JUMPI POP PUSH32 0x0 SWAP1 JUMP JUMPDEST PUSH2 0x177A PUSH1 0x40 DUP1 MLOAD PUSH32 0x8B73C3C69BB8FE3D512ECC4CF759CC79239F7B179B0FFACAA9A75D522B39400F PUSH1 0x20 DUP3 ADD MSTORE PUSH32 0x0 SWAP2 DUP2 ADD SWAP2 SWAP1 SWAP2 MSTORE PUSH32 0x0 PUSH1 0x60 DUP3 ADD MSTORE CHAINID PUSH1 0x80 DUP3 ADD MSTORE ADDRESS PUSH1 0xA0 DUP3 ADD MSTORE PUSH1 0x0 SWAP1 PUSH1 0xC0 ADD PUSH1 0x40 MLOAD PUSH1 0x20 DUP2 DUP4 SUB SUB DUP2 MSTORE SWAP1 PUSH1 0x40 MSTORE DUP1 MLOAD SWAP1 PUSH1 0x20 ADD KECCAK256 SWAP1 POP SWAP1 JUMP JUMPDEST PUSH1 0x0 DUP1 PUSH1 0x0 DUP4 MLOAD PUSH1 0x41 SUB PUSH2 0x1BEC JUMPI PUSH1 0x20 DUP5 ADD MLOAD PUSH1 0x40 DUP6 ADD MLOAD PUSH1 0x60 DUP7 ADD MLOAD PUSH1 0x0 BYTE PUSH2 0x1BDE DUP9 DUP3 DUP6 DUP6 PUSH2 0x2070 JUMP JUMPDEST SWAP6 POP SWAP6 POP SWAP6 POP POP POP POP PUSH2 0x1BF8 JUMP JUMPDEST POP POP DUP2 MLOAD PUSH1 0x0 SWAP2 POP PUSH1 0x2 SWAP1 JUMPDEST SWAP3 POP SWAP3 POP SWAP3 JUMP JUMPDEST PUSH1 0x0 DUP3 PUSH1 0x3 DUP2 GT ISZERO PUSH2 0x1C13 JUMPI PUSH2 0x1C13 PUSH2 0x2DA6 JUMP JUMPDEST SUB PUSH2 0x1C1C JUMPI POP POP JUMP JUMPDEST PUSH1 0x1 DUP3 PUSH1 0x3 DUP2 GT ISZERO PUSH2 0x1C30 JUMPI PUSH2 0x1C30 PUSH2 0x2DA6 JUMP JUMPDEST SUB PUSH2 0x1C4E JUMPI PUSH1 0x40 MLOAD PUSH4 0xF645EEDF PUSH1 0xE0 SHL DUP2 MSTORE PUSH1 0x4 ADD PUSH1 0x40 MLOAD DUP1 SWAP2 SUB SWAP1 REVERT JUMPDEST PUSH1 0x2 DUP3 PUSH1 0x3 DUP2 GT ISZERO PUSH2 0x1C62 JUMPI PUSH2 0x1C62 PUSH2 0x2DA6 JUMP JUMPDEST SUB PUSH2 0x1C83 JUMPI PUSH1 0x40 MLOAD PUSH4 0xFCE698F7 PUSH1 0xE0 SHL DUP2 MSTORE PUSH1 0x4 DUP2 ADD DUP3 SWAP1 MSTORE PUSH1 0x24 ADD PUSH2 0x65A JUMP JUMPDEST PUSH1 0x3 DUP3 PUSH1 0x3 DUP2 GT ISZERO PUSH2 0x1C97 JUMPI PUSH2 0x1C97 PUSH2 0x2DA6 JUMP JUMPDEST SUB PUSH2 0x976 JUMPI PUSH1 0x40 MLOAD PUSH4 0x35E2F383 PUSH1 0xE2 SHL DUP2 MSTORE PUSH1 0x4 DUP2 ADD DUP3 SWAP1 MSTORE PUSH1 0x24 ADD PUSH2 0x65A JUMP JUMPDEST PUSH2 0x1CC2 DUP4 DUP4 PUSH2 0x213F JUMP JUMPDEST PUSH2 0xC30 CALLER PUSH1 0x0 DUP6 DUP6 DUP6 PUSH2 0x184B JUMP JUMPDEST PUSH1 0x0 PUSH1 0x1 PUSH1 0x1 PUSH1 0xE0 SHL SUB NOT DUP3 AND PUSH4 0x24832483 PUSH1 0xE1 SHL EQ DUP1 PUSH2 0x8AA JUMPI POP PUSH2 0x8AA DUP3 PUSH2 0x21A4 JUMP JUMPDEST DUP1 DUP1 PUSH2 0x1D09 JUMPI POP PUSH1 0x1 PUSH1 0x1 PUSH1 0xA0 SHL SUB DUP3 AND ISZERO ISZERO JUMPDEST ISZERO PUSH2 0x1DCB JUMPI PUSH1 0x0 PUSH2 0x1D19 DUP5 PUSH2 0x14C6 JUMP JUMPDEST SWAP1 POP PUSH1 0x1 PUSH1 0x1 PUSH1 0xA0 SHL SUB DUP4 AND ISZERO DUP1 ISZERO SWAP1 PUSH2 0x1D45 JUMPI POP DUP3 PUSH1 0x1 PUSH1 0x1 PUSH1 0xA0 SHL SUB AND DUP2 PUSH1 0x1 PUSH1 0x1 PUSH1 0xA0 SHL SUB AND EQ ISZERO JUMPDEST DUP1 ISZERO PUSH2 0x1D58 JUMPI POP PUSH2 0x1D56 DUP2 DUP5 PUSH2 0xFB1 JUMP JUMPDEST ISZERO JUMPDEST ISZERO PUSH2 0x1D81 JUMPI PUSH1 0x40 MLOAD PUSH4 0xA9FBF51F PUSH1 0xE0 SHL DUP2 MSTORE PUSH1 0x1 PUSH1 0x1 PUSH1 0xA0 SHL SUB DUP5 AND PUSH1 0x4 DUP3 ADD MSTORE PUSH1 0x24 ADD PUSH2 0x65A JUMP JUMPDEST DUP2 ISZERO PUSH2 0x1DC9 JUMPI DUP4 DUP6 PUSH1 0x1 PUSH1 0x1 PUSH1 0xA0 SHL SUB AND DUP3 PUSH1 0x1 PUSH1 0x1 PUSH1 0xA0 SHL SUB AND PUSH32 0x8C5BE1E5EBEC7D5BD14F71427D1E84F3DD0314C0F7B2291E5B200AC8C7C3B925 PUSH1 0x40 MLOAD PUSH1 0x40 MLOAD DUP1 SWAP2 SUB SWAP1 LOG4 JUMPDEST POP JUMPDEST POP POP PUSH1 0x0 SWAP1 DUP2 MSTORE PUSH1 0x4 PUSH1 0x20 MSTORE PUSH1 0x40 SWAP1 KECCAK256 DUP1 SLOAD PUSH1 0x1 PUSH1 0x1 PUSH1 0xA0 SHL SUB NOT AND PUSH1 0x1 PUSH1 0x1 PUSH1 0xA0 SHL SUB SWAP3 SWAP1 SWAP3 AND SWAP2 SWAP1 SWAP2 OR SWAP1 SSTORE JUMP JUMPDEST PUSH2 0x1E05 DUP3 DUP3 PUSH2 0xE8A JUMP JUMPDEST PUSH2 0x976 JUMPI PUSH1 0x40 MLOAD PUSH4 0xE2517D3F PUSH1 0xE0 SHL DUP2 MSTORE PUSH1 0x1 PUSH1 0x1 PUSH1 0xA0 SHL SUB DUP3 AND PUSH1 0x4 DUP3 ADD MSTORE PUSH1 0x24 DUP2 ADD DUP4 SWAP1 MSTORE PUSH1 0x44 ADD PUSH2 0x65A JUMP JUMPDEST PUSH1 0x0 DUP3 DUP2 MSTORE PUSH1 0x2 PUSH1 0x20 MSTORE PUSH1 0x40 DUP2 KECCAK256 SLOAD PUSH1 0x1 PUSH1 0x1 PUSH1 0xA0 SHL SUB SWAP1 DUP2 AND SWAP1 DUP4 AND ISZERO PUSH2 0x1E61 JUMPI PUSH2 0x1E61 DUP2 DUP5 DUP7 PUSH2 0x21F4 JUMP JUMPDEST PUSH1 0x1 PUSH1 0x1 PUSH1 0xA0 SHL SUB DUP2 AND ISZERO PUSH2 0x1E9F JUMPI PUSH2 0x1E7E PUSH1 0x0 DUP6 PUSH1 0x0 DUP1 PUSH2 0x1CF5 JUMP JUMPDEST PUSH1 0x1 PUSH1 0x1 PUSH1 0xA0 SHL SUB DUP2 AND PUSH1 0x0 SWAP1 DUP2 MSTORE PUSH1 0x3 PUSH1 0x20 MSTORE PUSH1 0x40 SWAP1 KECCAK256 DUP1 SLOAD PUSH1 0x0 NOT ADD SWAP1 SSTORE JUMPDEST PUSH1 0x1 PUSH1 0x1 PUSH1 0xA0 SHL SUB DUP6 AND ISZERO PUSH2 0x1ECE JUMPI PUSH1 0x1 PUSH1 0x1 PUSH1 0xA0 SHL SUB DUP6 AND PUSH1 0x0 SWAP1 DUP2 MSTORE PUSH1 0x3 PUSH1 0x20 MSTORE PUSH1 0x40 SWAP1 KECCAK256 DUP1 SLOAD PUSH1 0x1 ADD SWAP1 SSTORE JUMPDEST PUSH1 0x0 DUP5 DUP2 MSTORE PUSH1 0x2 PUSH1 0x20 MSTORE PUSH1 0x40 DUP1 DUP3 KECCAK256 DUP1 SLOAD PUSH1 0x1 PUSH1 0x1 PUSH1 0xA0 SHL SUB NOT AND PUSH1 0x1 PUSH1 0x1 PUSH1 0xA0 SHL SUB DUP10 DUP2 AND SWAP2 DUP3 OR SWAP1 SWAP3 SSTORE SWAP2 MLOAD DUP8 SWAP4 SWAP2 DUP6 AND SWAP2 PUSH32 0xDDF252AD1BE2C89B69C2B068FC378DAA952BA7F163C4A11628F55A4DF523B3EF SWAP2 LOG4 SWAP5 SWAP4 POP POP POP POP JUMP JUMPDEST PUSH1 0x8 SLOAD PUSH1 0xFF AND PUSH2 0x13DE JUMPI PUSH1 0x40 MLOAD PUSH4 0x8DFC202B PUSH1 0xE0 SHL DUP2 MSTORE PUSH1 0x4 ADD PUSH1 0x40 MLOAD DUP1 SWAP2 SUB SWAP1 REVERT JUMPDEST PUSH1 0x60 PUSH1 0xFF DUP4 EQ PUSH2 0x1F6A JUMPI PUSH2 0x1F63 DUP4 PUSH2 0x2258 JUMP JUMPDEST SWAP1 POP PUSH2 0x8AA JUMP JUMPDEST DUP2 DUP1 SLOAD PUSH2 0x1F76 SWAP1 PUSH2 0x2AEE JUMP JUMPDEST DUP1 PUSH1 0x1F ADD PUSH1 0x20 DUP1 SWAP2 DIV MUL PUSH1 0x20 ADD PUSH1 0x40 MLOAD SWAP1 DUP2 ADD PUSH1 0x40 MSTORE DUP1 SWAP3 SWAP2 SWAP1 DUP2 DUP2 MSTORE PUSH1 0x20 ADD DUP3 DUP1 SLOAD PUSH2 0x1FA2 SWAP1 PUSH2 0x2AEE JUMP JUMPDEST DUP1 ISZERO PUSH2 0x1FEF JUMPI DUP1 PUSH1 0x1F LT PUSH2 0x1FC4 JUMPI PUSH2 0x100 DUP1 DUP4 SLOAD DIV MUL DUP4 MSTORE SWAP2 PUSH1 0x20 ADD SWAP2 PUSH2 0x1FEF JUMP JUMPDEST DUP3 ADD SWAP2 SWAP1 PUSH1 0x0 MSTORE PUSH1 0x20 PUSH1 0x0 KECCAK256 SWAP1 JUMPDEST DUP2 SLOAD DUP2 MSTORE SWAP1 PUSH1 0x1 ADD SWAP1 PUSH1 0x20 ADD DUP1 DUP4 GT PUSH2 0x1FD2 JUMPI DUP3 SWAP1 SUB PUSH1 0x1F AND DUP3 ADD SWAP2 JUMPDEST POP POP POP POP POP SWAP1 POP PUSH2 0x8AA JUMP JUMPDEST PUSH1 0x60 PUSH2 0x2006 DUP3 PUSH2 0x14C6 JUMP JUMPDEST POP PUSH1 0x0 PUSH2 0x201E PUSH1 0x40 DUP1 MLOAD PUSH1 0x20 DUP2 ADD SWAP1 SWAP2 MSTORE PUSH1 0x0 DUP2 MSTORE SWAP1 JUMP JUMPDEST SWAP1 POP PUSH1 0x0 DUP2 MLOAD GT PUSH2 0x203E JUMPI PUSH1 0x40 MLOAD DUP1 PUSH1 0x20 ADD PUSH1 0x40 MSTORE DUP1 PUSH1 0x0 DUP2 MSTORE POP PUSH2 0x2069 JUMP JUMPDEST DUP1 PUSH2 0x2048 DUP5 PUSH2 0x2297 JUMP JUMPDEST PUSH1 0x40 MLOAD PUSH1 0x20 ADD PUSH2 0x2059 SWAP3 SWAP2 SWAP1 PUSH2 0x2D77 JUMP JUMPDEST PUSH1 0x40 MLOAD PUSH1 0x20 DUP2 DUP4 SUB SUB DUP2 MSTORE SWAP1 PUSH1 0x40 MSTORE JUMPDEST SWAP4 SWAP3 POP POP POP JUMP JUMPDEST PUSH1 0x0 DUP1 DUP1 PUSH32 0x7FFFFFFFFFFFFFFFFFFFFFFFFFFFFFFF5D576E7357A4501DDFE92F46681B20A0 DUP5 GT ISZERO PUSH2 0x20AB JUMPI POP PUSH1 0x0 SWAP2 POP PUSH1 0x3 SWAP1 POP DUP3 PUSH2 0x2135 JUMP JUMPDEST PUSH1 0x40 DUP1 MLOAD PUSH1 0x0 DUP1 DUP3 MSTORE PUSH1 0x20 DUP3 ADD DUP1 DUP5 MSTORE DUP11 SWAP1 MSTORE PUSH1 0xFF DUP10 AND SWAP3 DUP3 ADD SWAP3 SWAP1 SWAP3 MSTORE PUSH1 0x60 DUP2 ADD DUP8 SWAP1 MSTORE PUSH1 0x80 DUP2 ADD DUP7 SWAP1 MSTORE PUSH1 0x1 SWAP1 PUSH1 0xA0 ADD PUSH1 0x20 PUSH1 0x40 MLOAD PUSH1 0x20 DUP2 SUB SWAP1 DUP1 DUP5 SUB SWAP1 DUP6 GAS STATICCALL ISZERO DUP1 ISZERO PUSH2 0x20FF JUMPI RETURNDATASIZE PUSH1 0x0 DUP1 RETURNDATACOPY RETURNDATASIZE PUSH1 0x0 REVERT JUMPDEST POP POP PUSH1 0x40 MLOAD PUSH1 0x1F NOT ADD MLOAD SWAP2 POP POP PUSH1 0x1 PUSH1 0x1 PUSH1 0xA0 SHL SUB DUP2 AND PUSH2 0x212B JUMPI POP PUSH1 0x0 SWAP3 POP PUSH1 0x1 SWAP2 POP DUP3 SWAP1 POP PUSH2 0x2135 JUMP JUMPDEST SWAP3 POP PUSH1 0x0 SWAP2 POP DUP2 SWAP1 POP JUMPDEST SWAP5 POP SWAP5 POP SWAP5 SWAP2 POP POP JUMP JUMPDEST PUSH1 0x1 PUSH1 0x1 PUSH1 0xA0 SHL SUB DUP3 AND PUSH2 0x2169 JUMPI PUSH1 0x40 MLOAD PUSH4 0x32505749 PUSH1 0xE1 SHL DUP2 MSTORE PUSH1 0x0 PUSH1 0x4 DUP3 ADD MSTORE PUSH1 0x24 ADD PUSH2 0x65A JUMP JUMPDEST PUSH1 0x0 PUSH2 0x2177 DUP4 DUP4 PUSH1 0x0 PUSH2 0x1516 JUMP JUMPDEST SWAP1 POP PUSH1 0x1 PUSH1 0x1 PUSH1 0xA0 SHL SUB DUP2 AND ISZERO PUSH2 0xC30 JUMPI PUSH1 0x40 MLOAD PUSH4 0x39E35637 PUSH1 0xE1 SHL DUP2 MSTORE PUSH1 0x0 PUSH1 0x4 DUP3 ADD MSTORE PUSH1 0x24 ADD PUSH2 0x65A JUMP JUMPDEST PUSH1 0x0 PUSH1 0x1 PUSH1 0x1 PUSH1 0xE0 SHL SUB NOT DUP3 AND PUSH4 0x80AC58CD PUSH1 0xE0 SHL EQ DUP1 PUSH2 0x21D5 JUMPI POP PUSH1 0x1 PUSH1 0x1 PUSH1 0xE0 SHL SUB NOT DUP3 AND PUSH4 0x5B5E139F PUSH1 0xE0 SHL EQ JUMPDEST DUP1 PUSH2 0x8AA JUMPI POP PUSH4 0x1FFC9A7 PUSH1 0xE0 SHL PUSH1 0x1 PUSH1 0x1 PUSH1 0xE0 SHL SUB NOT DUP4 AND EQ PUSH2 0x8AA JUMP JUMPDEST PUSH2 0x21FF DUP4 DUP4 DUP4 PUSH2 0x232A JUMP JUMPDEST PUSH2 0xC30 JUMPI PUSH1 0x1 PUSH1 0x1 PUSH1 0xA0 SHL SUB DUP4 AND PUSH2 0x222D JUMPI PUSH1 0x40 MLOAD PUSH4 0x7E273289 PUSH1 0xE0 SHL DUP2 MSTORE PUSH1 0x4 DUP2 ADD DUP3 SWAP1 MSTORE PUSH1 0x24 ADD PUSH2 0x65A JUMP JUMPDEST PUSH1 0x40 MLOAD PUSH4 0x177E802F PUSH1 0xE0 SHL DUP2 MSTORE PUSH1 0x1 PUSH1 0x1 PUSH1 0xA0 SHL SUB DUP4 AND PUSH1 0x4 DUP3 ADD MSTORE PUSH1 0x24 DUP2 ADD DUP3 SWAP1 MSTORE PUSH1 0x44 ADD PUSH2 0x65A JUMP JUMPDEST PUSH1 0x60 PUSH1 0x0 PUSH2 0x2265 DUP4 PUSH2 0x238D JUMP JUMPDEST PUSH1 0x40 DUP1 MLOAD PUSH1 0x20 DUP1 DUP3 MSTORE DUP2 DUP4 ADD SWAP1 SWAP3 MSTORE SWAP2 SWAP3 POP PUSH1 0x0 SWAP2 SWAP1 PUSH1 0x20 DUP3 ADD DUP2 DUP1 CALLDATASIZE DUP4 CALLDATACOPY POP POP POP SWAP2 DUP3 MSTORE POP PUSH1 0x20 DUP2 ADD SWAP3 SWAP1 SWAP3 MSTORE POP SWAP1 JUMP JUMPDEST PUSH1 0x60 PUSH1 0x0 PUSH2 0x22A4 DUP4 PUSH2 0x23B5 JUMP JUMPDEST PUSH1 0x1 ADD SWAP1 POP PUSH1 0x0 DUP2 PUSH8 0xFFFFFFFFFFFFFFFF DUP2 GT ISZERO PUSH2 0x22C4 JUMPI PUSH2 0x22C4 PUSH2 0x24A9 JUMP JUMPDEST PUSH1 0x40 MLOAD SWAP1 DUP1 DUP3 MSTORE DUP1 PUSH1 0x1F ADD PUSH1 0x1F NOT AND PUSH1 0x20 ADD DUP3 ADD PUSH1 0x40 MSTORE DUP1 ISZERO PUSH2 0x22EE JUMPI PUSH1 0x20 DUP3 ADD DUP2 DUP1 CALLDATASIZE DUP4 CALLDATACOPY ADD SWAP1 POP JUMPDEST POP SWAP1 POP DUP2 DUP2 ADD PUSH1 0x20 ADD JUMPDEST PUSH1 0x0 NOT ADD PUSH16 0x181899199A1A9B1B9C1CB0B131B232B3 PUSH1 0x81 SHL PUSH1 0xA DUP7 MOD BYTE DUP2 MSTORE8 PUSH1 0xA DUP6 DIV SWAP5 POP DUP5 PUSH2 0x22F8 JUMPI POP SWAP4 SWAP3 POP POP POP JUMP JUMPDEST PUSH1 0x0 PUSH1 0x1 PUSH1 0x1 PUSH1 0xA0 SHL SUB DUP4 AND ISZERO DUP1 ISZERO SWAP1 PUSH2 0x1A7F JUMPI POP DUP3 PUSH1 0x1 PUSH1 0x1 PUSH1 0xA0 SHL SUB AND DUP5 PUSH1 0x1 PUSH1 0x1 PUSH1 0xA0 SHL SUB AND EQ DUP1 PUSH2 0x2364 JUMPI POP PUSH2 0x2364 DUP5 DUP5 PUSH2 0xFB1 JUMP JUMPDEST DUP1 PUSH2 0x1A7F JUMPI POP POP PUSH1 0x0 SWAP1 DUP2 MSTORE PUSH1 0x4 PUSH1 0x20 MSTORE PUSH1 0x40 SWAP1 KECCAK256 SLOAD PUSH1 0x1 PUSH1 0x1 PUSH1 0xA0 SHL SUB SWAP1 DUP2 AND SWAP2 AND EQ SWAP2 SWAP1 POP JUMP JUMPDEST PUSH1 0x0 PUSH1 0xFF DUP3 AND PUSH1 0x1F DUP2 GT ISZERO PUSH2 0x8AA JUMPI PUSH1 0x40 MLOAD PUSH4 0x2CD44AC3 PUSH1 0xE2 SHL DUP2 MSTORE PUSH1 0x4 ADD PUSH1 0x40 MLOAD DUP1 SWAP2 SUB SWAP1 REVERT JUMPDEST PUSH1 0x0 DUP1 PUSH19 0x184F03E93FF9F4DAA797ED6E38ED64BF6A1F01 PUSH1 0x40 SHL DUP4 LT PUSH2 0x23F4 JUMPI PUSH19 0x184F03E93FF9F4DAA797ED6E38ED64BF6A1F01 PUSH1 0x40 SHL DUP4 DIV SWAP3 POP PUSH1 0x40 ADD JUMPDEST PUSH14 0x4EE2D6D415B85ACEF8100000000 DUP4 LT PUSH2 0x2420 JUMPI PUSH14 0x4EE2D6D415B85ACEF8100000000 DUP4 DIV SWAP3 POP PUSH1 0x20 ADD JUMPDEST PUSH7 0x2386F26FC10000 DUP4 LT PUSH2 0x243E JUMPI PUSH7 0x2386F26FC10000 DUP4 DIV SWAP3 POP PUSH1 0x10 ADD JUMPDEST PUSH4 0x5F5E100 DUP4 LT PUSH2 0x2456 JUMPI PUSH4 0x5F5E100 DUP4 DIV SWAP3 POP PUSH1 0x8 ADD JUMPDEST PUSH2 0x2710 DUP4 LT PUSH2 0x246A JUMPI PUSH2 0x2710 DUP4 DIV SWAP3 POP PUSH1 0x4 ADD JUMPDEST PUSH1 0x64 DUP4 LT PUSH2 0x247C JUMPI PUSH1 0x64 DUP4 DIV SWAP3 POP PUSH1 0x2 ADD JUMPDEST PUSH1 0xA DUP4 LT PUSH2 0x8AA JUMPI PUSH1 0x1 ADD SWAP3 SWAP2 POP POP JUMP JUMPDEST DUP1 CALLDATALOAD PUSH1 0x1 PUSH1 0x1 PUSH1 0xA0 SHL SUB DUP2 AND DUP2 EQ PUSH2 0x24A4 JUMPI PUSH1 0x0 DUP1 REVERT JUMPDEST SWAP2 SWAP1 POP JUMP JUMPDEST PUSH4 0x4E487B71 PUSH1 0xE0 SHL PUSH1 0x0 MSTORE PUSH1 0x41 PUSH1 0x4 MSTORE PUSH1 0x24 PUSH1 0x0 REVERT JUMPDEST PUSH1 0x0 DUP3 PUSH1 0x1F DUP4 ADD SLT PUSH2 0x24D0 JUMPI PUSH1 0x0 DUP1 REVERT JUMPDEST DUP2 CALLDATALOAD PUSH8 0xFFFFFFFFFFFFFFFF DUP1 DUP3 GT ISZERO PUSH2 0x24EB JUMPI PUSH2 0x24EB PUSH2 0x24A9 JUMP JUMPDEST PUSH1 0x40 MLOAD PUSH1 0x1F DUP4 ADD PUSH1 0x1F NOT SWAP1 DUP2 AND PUSH1 0x3F ADD AND DUP2 ADD SWAP1 DUP3 DUP3 GT DUP2 DUP4 LT OR ISZERO PUSH2 0x2513 JUMPI PUSH2 0x2513 PUSH2 0x24A9 JUMP JUMPDEST DUP2 PUSH1 0x40 MSTORE DUP4 DUP2 MSTORE DUP7 PUSH1 0x20 DUP6 DUP9 ADD ADD GT ISZERO PUSH2 0x252C JUMPI PUSH1 0x0 DUP1 REVERT JUMPDEST DUP4 PUSH1 0x20 DUP8 ADD PUSH1 0x20 DUP4 ADD CALLDATACOPY PUSH1 0x0 PUSH1 0x20 DUP6 DUP4 ADD ADD MSTORE DUP1 SWAP5 POP POP POP POP POP SWAP3 SWAP2 POP POP JUMP JUMPDEST PUSH1 0x0 DUP1 PUSH1 0x0 DUP1 PUSH1 0x0 DUP1 PUSH1 0xC0 DUP8 DUP10 SUB SLT ISZERO PUSH2 0x2565 JUMPI PUSH1 0x0 DUP1 REVERT JUMPDEST PUSH2 0x256E DUP8 PUSH2 0x248D JUMP JUMPDEST SWAP6 POP PUSH1 0x20 DUP8 ADD CALLDATALOAD SWAP5 POP PUSH1 0x40 DUP8 ADD CALLDATALOAD SWAP4 POP PUSH1 0x60 DUP8 ADD CALLDATALOAD PUSH8 0xFFFFFFFFFFFFFFFF DUP1 DUP3 GT ISZERO PUSH2 0x2599 JUMPI PUSH1 0x0 DUP1 REVERT JUMPDEST PUSH2 0x25A5 DUP11 DUP4 DUP12 ADD PUSH2 0x24BF JUMP JUMPDEST SWAP5 POP PUSH1 0x80 DUP10 ADD CALLDATALOAD SWAP4 POP PUSH1 0xA0 DUP10 ADD CALLDATALOAD SWAP2 POP DUP1 DUP3 GT ISZERO PUSH2 0x25C2 JUMPI PUSH1 0x0 DUP1 REVERT JUMPDEST POP PUSH2 0x25CF DUP10 DUP3 DUP11 ADD PUSH2 0x24BF JUMP JUMPDEST SWAP2 POP POP SWAP3 SWAP6 POP SWAP3 SWAP6 POP SWAP3 SWAP6 JUMP JUMPDEST PUSH1 0x1 PUSH1 0x1 PUSH1 0xE0 SHL SUB NOT DUP2 AND DUP2 EQ PUSH2 0xC67 JUMPI PUSH1 0x0 DUP1 REVERT JUMPDEST PUSH1 0x0 PUSH1 0x20 DUP3 DUP5 SUB SLT ISZERO PUSH2 0x2604 JUMPI PUSH1 0x0 DUP1 REVERT JUMPDEST DUP2 CALLDATALOAD PUSH2 0x2069 DUP2 PUSH2 0x25DC JUMP JUMPDEST PUSH1 0x0 JUMPDEST DUP4 DUP2 LT ISZERO PUSH2 0x262A JUMPI DUP2 DUP2 ADD MLOAD DUP4 DUP3 ADD MSTORE PUSH1 0x20 ADD PUSH2 0x2612 JUMP JUMPDEST POP POP PUSH1 0x0 SWAP2 ADD MSTORE JUMP JUMPDEST PUSH1 0x0 DUP2 MLOAD DUP1 DUP5 MSTORE PUSH2 0x264B DUP2 PUSH1 0x20 DUP7 ADD PUSH1 0x20 DUP7 ADD PUSH2 0x260F JUMP JUMPDEST PUSH1 0x1F ADD PUSH1 0x1F NOT AND SWAP3 SWAP1 SWAP3 ADD PUSH1 0x20 ADD SWAP3 SWAP2 POP POP JUMP JUMPDEST PUSH1 0x20 DUP2 MSTORE PUSH1 0x0 PUSH2 0x2069 PUSH1 0x20 DUP4 ADD DUP5 PUSH2 0x2633 JUMP JUMPDEST PUSH1 0x0 PUSH1 0x20 DUP3 DUP5 SUB SLT ISZERO PUSH2 0x2684 JUMPI PUSH1 0x0 DUP1 REVERT JUMPDEST POP CALLDATALOAD SWAP2 SWAP1 POP JUMP JUMPDEST PUSH1 0x0 DUP1 PUSH1 0x40 DUP4 DUP6 SUB SLT ISZERO PUSH2 0x269E JUMPI PUSH1 0x0 DUP1 REVERT JUMPDEST PUSH2 0x26A7 DUP4 PUSH2 0x248D JUMP JUMPDEST SWAP5 PUSH1 0x20 SWAP4 SWAP1 SWAP4 ADD CALLDATALOAD SWAP4 POP POP POP JUMP JUMPDEST PUSH1 0x0 DUP1 PUSH1 0x0 DUP1 PUSH1 0x80 DUP6 DUP8 SUB SLT ISZERO PUSH2 0x26CB JUMPI PUSH1 0x0 DUP1 REVERT JUMPDEST PUSH2 0x26D4 DUP6 PUSH2 0x248D JUMP JUMPDEST SWAP4 POP PUSH1 0x20 DUP6 ADD CALLDATALOAD SWAP3 POP PUSH1 0x40 DUP6 ADD CALLDATALOAD SWAP2 POP PUSH1 0x60 DUP6 ADD CALLDATALOAD PUSH8 0xFFFFFFFFFFFFFFFF DUP2 GT ISZERO PUSH2 0x26FE JUMPI PUSH1 0x0 DUP1 REVERT JUMPDEST PUSH2 0x270A DUP8 DUP3 DUP9 ADD PUSH2 0x24BF JUMP JUMPDEST SWAP2 POP POP SWAP3 SWAP6 SWAP2 SWAP5 POP SWAP3 POP JUMP JUMPDEST DUP1 CALLDATALOAD DUP1 ISZERO ISZERO DUP2 EQ PUSH2 0x24A4 JUMPI PUSH1 0x0 DUP1 REVERT JUMPDEST PUSH1 0x0 DUP1 PUSH1 0x40 DUP4 DUP6 SUB SLT ISZERO PUSH2 0x2739 JUMPI PUSH1 0x0 DUP1 REVERT JUMPDEST DUP3 CALLDATALOAD SWAP2 POP PUSH2 0x2749 PUSH1 0x20 DUP5 ADD PUSH2 0x2716 JUMP JUMPDEST SWAP1 POP SWAP3 POP SWAP3 SWAP1 POP JUMP JUMPDEST PUSH1 0x0 DUP1 PUSH1 0x0 PUSH1 0x60 DUP5 DUP7 SUB SLT ISZERO PUSH2 0x2767 JUMPI PUSH1 0x0 DUP1 REVERT JUMPDEST PUSH2 0x2770 DUP5 PUSH2 0x248D JUMP JUMPDEST SWAP3 POP PUSH2 0x277E PUSH1 0x20 DUP6 ADD PUSH2 0x248D JUMP JUMPDEST SWAP2 POP PUSH1 0x40 DUP5 ADD CALLDATALOAD SWAP1 POP SWAP3 POP SWAP3 POP SWAP3 JUMP JUMPDEST PUSH1 0x0 DUP1 PUSH1 0x40 DUP4 DUP6 SUB SLT ISZERO PUSH2 0x27A1 JUMPI PUSH1 0x0 DUP1 REVERT JUMPDEST DUP3 CALLDATALOAD SWAP2 POP PUSH2 0x2749 PUSH1 0x20 DUP5 ADD PUSH2 0x248D JUMP JUMPDEST DUP7 DUP2 MSTORE DUP6 PUSH1 0x20 DUP3 ADD MSTORE DUP5 PUSH1 0x40 DUP3 ADD MSTORE DUP4 ISZERO ISZERO PUSH1 0x60 DUP3 ADD MSTORE DUP3 ISZERO ISZERO PUSH1 0x80 DUP3 ADD MSTORE PUSH1 0xC0 PUSH1 0xA0 DUP3 ADD MSTORE PUSH1 0x0 PUSH2 0x27E6 PUSH1 0xC0 DUP4 ADD DUP5 PUSH2 0x2633 JUMP JUMPDEST SWAP9 SWAP8 POP POP POP POP POP POP POP POP JUMP JUMPDEST PUSH1 0x0 PUSH1 0x20 DUP3 DUP5 SUB SLT ISZERO PUSH2 0x2804 JUMPI PUSH1 0x0 DUP1 REVERT JUMPDEST PUSH2 0x2069 DUP3 PUSH2 0x248D JUMP JUMPDEST PUSH1 0xFF PUSH1 0xF8 SHL DUP9 AND DUP2 MSTORE PUSH1 0x0 PUSH1 0x20 PUSH1 0xE0 DUP2 DUP5 ADD MSTORE PUSH2 0x282D PUSH1 0xE0 DUP5 ADD DUP11 PUSH2 0x2633 JUMP JUMPDEST DUP4 DUP2 SUB PUSH1 0x40 DUP6 ADD MSTORE PUSH2 0x283F DUP2 DUP11 PUSH2 0x2633 JUMP JUMPDEST PUSH1 0x60 DUP6 ADD DUP10 SWAP1 MSTORE PUSH1 0x1 PUSH1 0x1 PUSH1 0xA0 SHL SUB DUP9 AND PUSH1 0x80 DUP7 ADD MSTORE PUSH1 0xA0 DUP6 ADD DUP8 SWAP1 MSTORE DUP5 DUP2 SUB PUSH1 0xC0 DUP7 ADD MSTORE DUP6 MLOAD DUP1 DUP3 MSTORE DUP4 DUP8 ADD SWAP3 POP SWAP1 DUP4 ADD SWAP1 PUSH1 0x0 JUMPDEST DUP2 DUP2 LT ISZERO PUSH2 0x2891 JUMPI DUP4 MLOAD DUP4 MSTORE SWAP3 DUP5 ADD SWAP3 SWAP2 DUP5 ADD SWAP2 PUSH1 0x1 ADD PUSH2 0x2875 JUMP JUMPDEST POP SWAP1 SWAP13 SWAP12 POP POP POP POP POP POP POP POP POP POP POP POP JUMP JUMPDEST PUSH1 0x0 DUP1 PUSH1 0x40 DUP4 DUP6 SUB SLT ISZERO PUSH2 0x28B6 JUMPI PUSH1 0x0 DUP1 REVERT JUMPDEST PUSH2 0x28BF DUP4 PUSH2 0x248D JUMP JUMPDEST SWAP2 POP PUSH2 0x2749 PUSH1 0x20 DUP5 ADD PUSH2 0x2716 JUMP JUMPDEST PUSH1 0x0 DUP1 PUSH1 0x0 DUP1 PUSH1 0x80 DUP6 DUP8 SUB SLT ISZERO PUSH2 0x28E3 JUMPI PUSH1 0x0 DUP1 REVERT JUMPDEST PUSH2 0x28EC DUP6 PUSH2 0x248D JUMP JUMPDEST SWAP4 POP PUSH2 0x28FA PUSH1 0x20 DUP7 ADD PUSH2 0x248D JUMP JUMPDEST SWAP3 POP PUSH1 0x40 DUP6 ADD CALLDATALOAD SWAP2 POP PUSH1 0x60 DUP6 ADD CALLDATALOAD PUSH8 0xFFFFFFFFFFFFFFFF DUP2 GT ISZERO PUSH2 0x26FE JUMPI PUSH1 0x0 DUP1 REVERT JUMPDEST PUSH1 0x0 DUP1 PUSH1 0x40 DUP4 DUP6 SUB SLT ISZERO PUSH2 0x2930 JUMPI PUSH1 0x0 DUP1 REVERT JUMPDEST PUSH2 0x2939 DUP4 PUSH2 0x248D JUMP JUMPDEST SWAP2 POP PUSH2 0x2749 PUSH1 0x20 DUP5 ADD PUSH2 0x248D JUMP JUMPDEST PUSH1 0x0 DUP1 PUSH1 0x40 DUP4 DUP6 SUB SLT ISZERO PUSH2 0x295A JUMPI PUSH1 0x0 DUP1 REVERT JUMPDEST DUP3 CALLDATALOAD SWAP2 POP PUSH1 0x20 DUP4 ADD CALLDATALOAD PUSH8 0xFFFFFFFFFFFFFFFF DUP2 GT ISZERO PUSH2 0x2978 JUMPI PUSH1 0x0 DUP1 REVERT JUMPDEST PUSH2 0x2984 DUP6 DUP3 DUP7 ADD PUSH2 0x24BF JUMP JUMPDEST SWAP2 POP POP SWAP3 POP SWAP3 SWAP1 POP JUMP JUMPDEST PUSH1 0x0 DUP1 DUP4 PUSH1 0x1F DUP5 ADD SLT PUSH2 0x29A0 JUMPI PUSH1 0x0 DUP1 REVERT JUMPDEST POP DUP2 CALLDATALOAD PUSH8 0xFFFFFFFFFFFFFFFF DUP2 GT ISZERO PUSH2 0x29B8 JUMPI PUSH1 0x0 DUP1 REVERT JUMPDEST PUSH1 0x20 DUP4 ADD SWAP2 POP DUP4 PUSH1 0x20 DUP3 PUSH1 0x5 SHL DUP6 ADD ADD GT ISZERO PUSH2 0x29D3 JUMPI PUSH1 0x0 DUP1 REVERT JUMPDEST SWAP3 POP SWAP3 SWAP1 POP JUMP JUMPDEST PUSH1 0x0 DUP1 PUSH1 0x0 DUP1 PUSH1 0x0 DUP1 PUSH1 0x0 DUP1 PUSH1 0x80 DUP10 DUP12 SUB SLT ISZERO PUSH2 0x29F6 JUMPI PUSH1 0x0 DUP1 REVERT JUMPDEST DUP9 CALLDATALOAD PUSH8 0xFFFFFFFFFFFFFFFF DUP1 DUP3 GT ISZERO PUSH2 0x2A0E JUMPI PUSH1 0x0 DUP1 REVERT JUMPDEST PUSH2 0x2A1A DUP13 DUP4 DUP14 ADD PUSH2 0x298E JUMP JUMPDEST SWAP1 SWAP11 POP SWAP9 POP PUSH1 0x20 DUP12 ADD CALLDATALOAD SWAP2 POP DUP1 DUP3 GT ISZERO PUSH2 0x2A33 JUMPI PUSH1 0x0 DUP1 REVERT JUMPDEST PUSH2 0x2A3F DUP13 DUP4 DUP14 ADD PUSH2 0x298E JUMP JUMPDEST SWAP1 SWAP9 POP SWAP7 POP PUSH1 0x40 DUP12 ADD CALLDATALOAD SWAP2 POP DUP1 DUP3 GT ISZERO PUSH2 0x2A58 JUMPI PUSH1 0x0 DUP1 REVERT JUMPDEST PUSH2 0x2A64 DUP13 DUP4 DUP14 ADD PUSH2 0x298E JUMP JUMPDEST SWAP1 SWAP7 POP SWAP5 POP PUSH1 0x60 DUP12 ADD CALLDATALOAD SWAP2 POP DUP1 DUP3 GT ISZERO PUSH2 0x2A7D JUMPI PUSH1 0x0 DUP1 REVERT JUMPDEST POP PUSH2 0x2A8A DUP12 DUP3 DUP13 ADD PUSH2 0x298E JUMP JUMPDEST SWAP10 SWAP13 SWAP9 SWAP12 POP SWAP7 SWAP10 POP SWAP5 SWAP8 SWAP4 SWAP7 SWAP3 SWAP6 SWAP5 POP POP POP JUMP JUMPDEST PUSH1 0x0 PUSH1 0x1 DUP3 ADD PUSH2 0x2ABE JUMPI PUSH4 0x4E487B71 PUSH1 0xE0 SHL PUSH1 0x0 MSTORE PUSH1 0x11 PUSH1 0x4 MSTORE PUSH1 0x24 PUSH1 0x0 REVERT JUMPDEST POP PUSH1 0x1 ADD SWAP1 JUMP JUMPDEST DUP4 DUP2 MSTORE PUSH1 0x60 PUSH1 0x20 DUP3 ADD MSTORE PUSH1 0x0 PUSH2 0x2ADE PUSH1 0x60 DUP4 ADD DUP6 PUSH2 0x2633 JUMP JUMPDEST SWAP1 POP DUP3 PUSH1 0x40 DUP4 ADD MSTORE SWAP5 SWAP4 POP POP POP POP JUMP JUMPDEST PUSH1 0x1 DUP2 DUP2 SHR SWAP1 DUP3 AND DUP1 PUSH2 0x2B02 JUMPI PUSH1 0x7F DUP3 AND SWAP2 POP JUMPDEST PUSH1 0x20 DUP3 LT DUP2 SUB PUSH2 0x2B22 JUMPI PUSH4 0x4E487B71 PUSH1 0xE0 SHL PUSH1 0x0 MSTORE PUSH1 0x22 PUSH1 0x4 MSTORE PUSH1 0x24 PUSH1 0x0 REVERT JUMPDEST POP SWAP2 SWAP1 POP JUMP JUMPDEST PUSH1 0x20 DUP1 DUP3 MSTORE PUSH1 0x14 SWAP1 DUP3 ADD MSTORE PUSH20 0x151BDAD95B88191BD95CC81B9BDD08195E1A5CDD PUSH1 0x62 SHL PUSH1 0x40 DUP3 ADD MSTORE PUSH1 0x60 ADD SWAP1 JUMP JUMPDEST PUSH1 0x1F DUP3 GT ISZERO PUSH2 0xC30 JUMPI PUSH1 0x0 DUP2 DUP2 MSTORE PUSH1 0x20 DUP2 KECCAK256 PUSH1 0x1F DUP6 ADD PUSH1 0x5 SHR DUP2 ADD PUSH1 0x20 DUP7 LT ISZERO PUSH2 0x2B7D JUMPI POP DUP1 JUMPDEST PUSH1 0x1F DUP6 ADD PUSH1 0x5 SHR DUP3 ADD SWAP2 POP JUMPDEST DUP2 DUP2 LT ISZERO PUSH2 0x196D JUMPI DUP3 DUP2 SSTORE PUSH1 0x1 ADD PUSH2 0x2B89 JUMP JUMPDEST DUP2 MLOAD PUSH8 0xFFFFFFFFFFFFFFFF DUP2 GT ISZERO PUSH2 0x2BB6 JUMPI PUSH2 0x2BB6 PUSH2 0x24A9 JUMP JUMPDEST PUSH2 0x2BCA DUP2 PUSH2 0x2BC4 DUP5 SLOAD PUSH2 0x2AEE JUMP JUMPDEST DUP5 PUSH2 0x2B56 JUMP JUMPDEST PUSH1 0x20 DUP1 PUSH1 0x1F DUP4 GT PUSH1 0x1 DUP2 EQ PUSH2 0x2BFF JUMPI PUSH1 0x0 DUP5 ISZERO PUSH2 0x2BE7 JUMPI POP DUP6 DUP4 ADD MLOAD JUMPDEST PUSH1 0x0 NOT PUSH1 0x3 DUP7 SWAP1 SHL SHR NOT AND PUSH1 0x1 DUP6 SWAP1 SHL OR DUP6 SSTORE PUSH2 0x196D JUMP JUMPDEST PUSH1 0x0 DUP6 DUP2 MSTORE PUSH1 0x20 DUP2 KECCAK256 PUSH1 0x1F NOT DUP7 AND SWAP2 JUMPDEST DUP3 DUP2 LT ISZERO PUSH2 0x2C2E JUMPI DUP9 DUP7 ADD MLOAD DUP3 SSTORE SWAP5 DUP5 ADD SWAP5 PUSH1 0x1 SWAP1 SWAP2 ADD SWAP1 DUP5 ADD PUSH2 0x2C0F JUMP JUMPDEST POP DUP6 DUP3 LT ISZERO PUSH2 0x2C4C JUMPI DUP8 DUP6 ADD MLOAD PUSH1 0x0 NOT PUSH1 0x3 DUP9 SWAP1 SHL PUSH1 0xF8 AND SHR NOT AND DUP2 SSTORE JUMPDEST POP POP POP POP POP PUSH1 0x1 SWAP1 DUP2 SHL ADD SWAP1 SSTORE POP JUMP JUMPDEST PUSH1 0x60 DUP2 MSTORE PUSH1 0x0 PUSH2 0x2C6F PUSH1 0x60 DUP4 ADD DUP7 PUSH2 0x2633 JUMP JUMPDEST PUSH1 0x1 PUSH1 0x1 PUSH1 0xA0 SHL SUB SWAP5 SWAP1 SWAP5 AND PUSH1 0x20 DUP4 ADD MSTORE POP PUSH1 0x40 ADD MSTORE SWAP2 SWAP1 POP JUMP JUMPDEST PUSH4 0x4E487B71 PUSH1 0xE0 SHL PUSH1 0x0 MSTORE PUSH1 0x32 PUSH1 0x4 MSTORE PUSH1 0x24 PUSH1 0x0 REVERT JUMPDEST PUSH1 0x0 DUP1 DUP4 CALLDATALOAD PUSH1 0x1E NOT DUP5 CALLDATASIZE SUB ADD DUP2 SLT PUSH2 0x2CB7 JUMPI PUSH1 0x0 DUP1 REVERT JUMPDEST DUP4 ADD DUP1 CALLDATALOAD SWAP2 POP PUSH8 0xFFFFFFFFFFFFFFFF DUP3 GT ISZERO PUSH2 0x2CD2 JUMPI PUSH1 0x0 DUP1 REVERT JUMPDEST PUSH1 0x20 ADD SWAP2 POP CALLDATASIZE DUP2 SWAP1 SUB DUP3 SGT ISZERO PUSH2 0x29D3 JUMPI PUSH1 0x0 DUP1 REVERT JUMPDEST DUP5 DUP2 MSTORE PUSH1 0x60 PUSH1 0x20 DUP3 ADD MSTORE DUP3 PUSH1 0x60 DUP3 ADD MSTORE DUP3 DUP5 PUSH1 0x80 DUP4 ADD CALLDATACOPY PUSH1 0x0 PUSH1 0x80 DUP5 DUP4 ADD ADD MSTORE PUSH1 0x0 PUSH1 0x80 PUSH1 0x1F NOT PUSH1 0x1F DUP7 ADD AND DUP4 ADD ADD SWAP1 POP DUP3 PUSH1 0x40 DUP4 ADD MSTORE SWAP6 SWAP5 POP POP POP POP POP JUMP JUMPDEST PUSH1 0x1 PUSH1 0x1 PUSH1 0xA0 SHL SUB DUP6 DUP2 AND DUP3 MSTORE DUP5 AND PUSH1 0x20 DUP3 ADD MSTORE PUSH1 0x40 DUP2 ADD DUP4 SWAP1 MSTORE PUSH1 0x80 PUSH1 0x60 DUP3 ADD DUP2 SWAP1 MSTORE PUSH1 0x0 SWAP1 PUSH2 0x895 SWAP1 DUP4 ADD DUP5 PUSH2 0x2633 JUMP JUMPDEST PUSH1 0x0 PUSH1 0x20 DUP3 DUP5 SUB SLT ISZERO PUSH2 0x2D6C JUMPI PUSH1 0x0 DUP1 REVERT JUMPDEST DUP2 MLOAD PUSH2 0x2069 DUP2 PUSH2 0x25DC JUMP JUMPDEST PUSH1 0x0 DUP4 MLOAD PUSH2 0x2D89 DUP2 DUP5 PUSH1 0x20 DUP9 ADD PUSH2 0x260F JUMP JUMPDEST DUP4 MLOAD SWAP1 DUP4 ADD SWAP1 PUSH2 0x2D9D DUP2 DUP4 PUSH1 0x20 DUP9 ADD PUSH2 0x260F JUMP JUMPDEST ADD SWAP5 SWAP4 POP POP POP POP JUMP JUMPDEST PUSH4 0x4E487B71 PUSH1 0xE0 SHL PUSH1 0x0 MSTORE PUSH1 0x21 PUSH1 0x4 MSTORE PUSH1 0x24 PUSH1 0x0 REVERT INVALID SWAP16 0x2D CREATE INVALID 0xD2 0xC7 PUSH23 0x48DE5860A4CC508CD0818C85B8B8A1AB4CEEEF8D981C89 JUMP 0xA6 LOG2 PUSH5 0x6970667358 0x22 SLT KECCAK256 0xB0 0xAE DUP5 0x2D 0xAD SWAP14 GAS PREVRANDAO POP 0x28 SWAP8 0xC1 RETURN 0xB1 0xBF 0xA7 0xB0 DUP3 0xF8 CALL 0xD7 NUMBER PUSH26 0x73F83F49331D0B7B5364736F6C63430008140033000000000000 "},"methodIdentifiers":{"DEFAULT_ADMIN_ROLE()":"a217fddf","MINTER_ROLE()":"d5391393","MINT_PERMIT_TYPEHASH()":"8cfcae21","PAUSER_ROLE()":"e63ab1e9","REVOKER_ROLE()":"7c4acabf","approve(address,uint256)":"095ea7b3","badgeType(uint256)":"471f9a09","balanceOf(address)":"70a08231","batchMint(address[],bytes32[],bytes32[],string[])":"f9d98732","eip712Domain()":"84b0196e","eventId(uint256)":"433b64b1","getApproved(uint256)":"081812fc","getRoleAdmin(bytes32)":"248a9ca3","getTokenMetadata(uint256)":"60316801","grantRole(bytes32,address)":"2f2ff15d","hasRole(bytes32,address)":"91d14854","isApprovedForAll(address,address)":"e985e9c5","isRevoked(uint256)":"5ccc561e","issuedAt(uint256)":"9f37e2fd","mint(address,bytes32,bytes32,string)":"1f4198d2","mintWithPermit(address,bytes32,bytes32,string,uint256,bytes)":"00c5c0be","name()":"06fdde03","nonces(address)":"7ecebe00","ownerOf(uint256)":"6352211e","pause()":"8456cb59","paused()":"5c975abb","renounceRole(bytes32,address)":"36568abe","revocationReason(uint256)":"9da76969","revoke(uint256,string)":"eb929ad5","revokeRole(bytes32,address)":"d547741f","safeTransferFrom(address,address,uint256)":"42842e0e","safeTransferFrom(address,address,uint256,bytes)":"b88d4fde","setApprovalForAll(address,bool)":"a22cb465","setTransferLock(uint256,bool)":"20d4ab5a","supportsInterface(bytes4)":"01ffc9a7","symbol()":"95d89b41","tokenURI(uint256)":"c87b56dd","transferFrom(address,address,uint256)":"23b872dd","transferLock(uint256)":"109c1332","unpause()":"3f4ba83a"}}}}}