{"contracts/Collectible721.sol":{"Collectible721":{"abi":[{"inputs":[{"internalType":"string","name":"name","type":"string"},{"internalType":"string","name":"symbol","type":"string"},{"internalType":"address","name":"admin","type":"address"},{"internalType":"address","name":"minter","type":"address"}],"stateMutability":"nonpayable","type":"constructor"},{"inputs":[],"name":"AccessControlBadConfirmation","type":"error"},{"inputs":[{"internalType":"address","name":"account","type":"address"},{"internalType":"bytes32","name":"neededRole","type":"bytes32"}],"name":"AccessControlUnauthorizedAccount","type":"error"},{"inputs":[],"name":"ECDSAInvalidSignature","type":"error"},{"inputs":[{"internalType":"uint256","name":"length","type":"uint256"}],"name":"ECDSAInvalidSignatureLength","type":"error"},{"inputs":[{"internalType":"bytes32","name":"s","type":"bytes32"}],"name":"ECDSAInvalidSignatureS","type":"error"},{"inputs":[{"internalType":"address","name":"sender","type":"address"},{"internalType":"uint256","name":"tokenId","type":"uint256"},{"internalType":"address","name":"owner","type":"address"}],"name":"ERC721IncorrectOwner","type":"error"},{"inputs":[{"internalType":"address","name":"operator","type":"address"},{"internalType":"uint256","name":"tokenId","type":"uint256"}],"name":"ERC721InsufficientApproval","type":"error"},{"inputs":[{"internalType":"address","name":"approver","type":"address"}],"name":"ERC721InvalidApprover","type":"error"},{"inputs":[{"internalType":"address","name":"operator","type":"address"}],"name":"ERC721InvalidOperator","type":"error"},{"inputs":[{"internalType":"address","name":"owner","type":"address"}],"name":"ERC721InvalidOwner","type":"error"},{"inputs":[{"internalType":"address","name":"receiver","type":"address"}],"name":"ERC721InvalidReceiver","type":"error"},{"inputs":[{"internalType":"address","name":"sender","type":"address"}],"name":"ERC721InvalidSender","type":"error"},{"inputs":[{"internalType":"uint256","name":"tokenId","type":"uint256"}],"name":"ERC721NonexistentToken","type":"error"},{"inputs":[],"name":"EnforcedPause","type":"error"},{"inputs":[],"name":"ExpectedPause","type":"error"},{"inputs":[],"name":"InvalidShortString","type":"error"},{"inputs":[],"name":"ReentrancyGuardReentrantCall","type":"error"},{"inputs":[{"internalType":"string","name":"str","type":"string"}],"name":"StringTooLong","type":"error"},{"anonymous":false,"inputs":[{"indexed":true,"internalType":"address","name":"owner","type":"address"},{"indexed":true,"internalType":"address","name":"approved","type":"address"},{"indexed":true,"internalType":"uint256","name":"tokenId","type":"uint256"}],"name":"Approval","type":"event"},{"anonymous":false,"inputs":[{"indexed":true,"internalType":"address","name":"owner","type":"address"},{"indexed":true,"internalType":"address","name":"operator","type":"address"},{"indexed":false,"internalType":"bool","name":"approved","type":"bool"}],"name":"ApprovalForAll","type":"event"},{"anonymous":false,"inputs":[{"indexed":false,"internalType":"uint256","name":"_fromTokenId","type":"uint256"},{"indexed":false,"internalType":"uint256","name":"_toTokenId","type":"uint256"}],"name":"BatchMetadataUpdate","type":"event"},{"anonymous":false,"inputs":[{"indexed":true,"internalType":"uint256","name":"tokenId","type":"uint256"},{"indexed":true,"internalType":"address","name":"recipient","type":"address"},{"indexed":true,"internalType":"bytes32","name":"collectibleType","type":"bytes32"},{"indexed":false,"internalType":"string","name":"metadataURI","type":"string"},{"indexed":false,"internalType":"uint256","name":"series","type":"uint256"},{"indexed":false,"internalType":"uint256","name":"serialNumber","type":"uint256"},{"indexed":false,"internalType":"uint256","name":"timestamp","type":"uint256"}],"name":"CollectibleMinted","type":"event"},{"anonymous":false,"inputs":[],"name":"EIP712DomainChanged","type":"event"},{"anonymous":false,"inputs":[{"indexed":true,"internalType":"bytes32","name":"collectibleType","type":"bytes32"},{"indexed":false,"internalType":"uint256","name":"maxSupply","type":"uint256"}],"name":"MaxSupplySet","type":"event"},{"anonymous":false,"inputs":[{"indexed":false,"internalType":"uint256","name":"_tokenId","type":"uint256"}],"name":"MetadataUpdate","type":"event"},{"anonymous":false,"inputs":[{"indexed":false,"internalType":"address","name":"account","type":"address"}],"name":"Paused","type":"event"},{"anonymous":false,"inputs":[{"indexed":true,"internalType":"bytes32","name":"role","type":"bytes32"},{"indexed":true,"internalType":"bytes32","name":"previousAdminRole","type":"bytes32"},{"indexed":true,"internalType":"bytes32","name":"newAdminRole","type":"bytes32"}],"name":"RoleAdminChanged","type":"event"},{"anonymous":false,"inputs":[{"indexed":true,"internalType":"bytes32","name":"role","type":"bytes32"},{"indexed":true,"internalType":"address","name":"account","type":"address"},{"indexed":true,"internalType":"address","name":"sender","type":"address"}],"name":"RoleGranted","type":"event"},{"anonymous":false,"inputs":[{"indexed":true,"internalType":"bytes32","name":"role","type":"bytes32"},{"indexed":true,"internalType":"address","name":"account","type":"address"},{"indexed":true,"internalType":"address","name":"sender","type":"address"}],"name":"RoleRevoked","type":"event"},{"anonymous":false,"inputs":[{"indexed":true,"internalType":"address","name":"from","type":"address"},{"indexed":true,"internalType":"address","name":"to","type":"address"},{"indexed":true,"internalType":"uint256","name":"tokenId","type":"uint256"}],"name":"Transfer","type":"event"},{"anonymous":false,"inputs":[{"indexed":false,"internalType":"address","name":"account","type":"address"}],"name":"Unpaused","type":"event"},{"inputs":[],"name":"DEFAULT_ADMIN_ROLE","outputs":[{"internalType":"bytes32","name":"","type":"bytes32"}],"stateMutability":"view","type":"function"},{"inputs":[],"name":"MINTER_ROLE","outputs":[{"internalType":"bytes32","name":"","type":"bytes32"}],"stateMutability":"view","type":"function"},{"inputs":[],"name":"MINT_PERMIT_TYPEHASH","outputs":[{"internalType":"bytes32","name":"","type":"bytes32"}],"stateMutability":"view","type":"function"},{"inputs":[],"name":"PAUSER_ROLE","outputs":[{"internalType":"bytes32","name":"","type":"bytes32"}],"stateMutability":"view","type":"function"},{"inputs":[{"internalType":"address","name":"to","type":"address"},{"internalType":"uint256","name":"tokenId","type":"uint256"}],"name":"approve","outputs":[],"stateMutability":"nonpayable","type":"function"},{"inputs":[{"internalType":"address","name":"owner","type":"address"}],"name":"balanceOf","outputs":[{"internalType":"uint256","name":"","type":"uint256"}],"stateMutability":"view","type":"function"},{"inputs":[{"internalType":"address[]","name":"recipients","type":"address[]"},{"internalType":"bytes32[]","name":"collectibleTypes","type":"bytes32[]"},{"internalType":"string[]","name":"metadataURIs","type":"string[]"},{"internalType":"uint256","name":"_series","type":"uint256"}],"name":"batchMint","outputs":[],"stateMutability":"nonpayable","type":"function"},{"inputs":[{"internalType":"uint256","name":"","type":"uint256"}],"name":"collectibleType","outputs":[{"internalType":"bytes32","name":"","type":"bytes32"}],"stateMutability":"view","type":"function"},{"inputs":[{"internalType":"bytes32","name":"","type":"bytes32"}],"name":"currentSupply","outputs":[{"internalType":"uint256","name":"","type":"uint256"}],"stateMutability":"view","type":"function"},{"inputs":[],"name":"eip712Domain","outputs":[{"internalType":"bytes1","name":"fields","type":"bytes1"},{"internalType":"string","name":"name","type":"string"},{"internalType":"string","name":"version","type":"string"},{"internalType":"uint256","name":"chainId","type":"uint256"},{"internalType":"address","name":"verifyingContract","type":"address"},{"internalType":"bytes32","name":"salt","type":"bytes32"},{"internalType":"uint256[]","name":"extensions","type":"uint256[]"}],"stateMutability":"view","type":"function"},{"inputs":[{"internalType":"uint256","name":"tokenId","type":"uint256"}],"name":"getApproved","outputs":[{"internalType":"address","name":"","type":"address"}],"stateMutability":"view","type":"function"},{"inputs":[{"internalType":"bytes32","name":"role","type":"bytes32"}],"name":"getRoleAdmin","outputs":[{"internalType":"bytes32","name":"","type":"bytes32"}],"stateMutability":"view","type":"function"},{"inputs":[{"internalType":"uint256","name":"tokenId","type":"uint256"}],"name":"getTokenMetadata","outputs":[{"internalType":"bytes32","name":"_collectibleType","type":"bytes32"},{"internalType":"uint256","name":"_issuedAt","type":"uint256"},{"internalType":"uint256","name":"_series","type":"uint256"},{"internalType":"uint256","name":"_serialNumber","type":"uint256"},{"internalType":"uint256","name":"_maxSupply","type":"uint256"},{"internalType":"uint256","name":"_currentSupply","type":"uint256"}],"stateMutability":"view","type":"function"},{"inputs":[{"internalType":"bytes32","name":"role","type":"bytes32"},{"internalType":"address","name":"account","type":"address"}],"name":"grantRole","outputs":[],"stateMutability":"nonpayable","type":"function"},{"inputs":[{"internalType":"bytes32","name":"role","type":"bytes32"},{"internalType":"address","name":"account","type":"address"}],"name":"hasRole","outputs":[{"internalType":"bool","name":"","type":"bool"}],"stateMutability":"view","type":"function"},{"inputs":[{"internalType":"address","name":"owner","type":"address"},{"internalType":"address","name":"operator","type":"address"}],"name":"isApprovedForAll","outputs":[{"internalType":"bool","name":"","type":"bool"}],"stateMutability":"view","type":"function"},{"inputs":[{"internalType":"uint256","name":"","type":"uint256"}],"name":"issuedAt","outputs":[{"internalType":"uint256","name":"","type":"uint256"}],"stateMutability":"view","type":"function"},{"inputs":[{"internalType":"bytes32","name":"","type":"bytes32"}],"name":"maxSupply","outputs":[{"internalType":"uint256","name":"","type":"uint256"}],"stateMutability":"view","type":"function"},{"inputs":[{"internalType":"address","name":"to","type":"address"},{"internalType":"bytes32","name":"_collectibleType","type":"bytes32"},{"internalType":"string","name":"metadataURI","type":"string"},{"internalType":"uint256","name":"_series","type":"uint256"}],"name":"mint","outputs":[{"internalType":"uint256","name":"","type":"uint256"}],"stateMutability":"nonpayable","type":"function"},{"inputs":[{"internalType":"address","name":"to","type":"address"},{"internalType":"bytes32","name":"_collectibleType","type":"bytes32"},{"internalType":"string","name":"metadataURI","type":"string"},{"internalType":"uint256","name":"_series","type":"uint256"},{"internalType":"uint256","name":"deadline","type":"uint256"},{"internalType":"bytes","name":"signature","type":"bytes"}],"name":"mintWithPermit","outputs":[{"internalType":"uint256","name":"","type":"uint256"}],"stateMutability":"nonpayable","type":"function"},{"inputs":[],"name":"name","outputs":[{"internalType":"string","name":"","type":"string"}],"stateMutability":"view","type":"function"},{"inputs":[{"internalType":"address","name":"","type":"address"}],"name":"nonces","outputs":[{"internalType":"uint256","name":"","type":"uint256"}],"stateMutability":"view","type":"function"},{"inputs":[{"internalType":"uint256","name":"tokenId","type":"uint256"}],"name":"ownerOf","outputs":[{"internalType":"address","name":"","type":"address"}],"stateMutability":"view","type":"function"},{"inputs":[],"name":"pause","outputs":[],"stateMutability":"nonpayable","type":"function"},{"inputs":[],"name":"paused","outputs":[{"internalType":"bool","name":"","type":"bool"}],"stateMutability":"view","type":"function"},{"inputs":[{"internalType":"bytes32","name":"role","type":"bytes32"},{"internalType":"address","name":"callerConfirmation","type":"address"}],"name":"renounceRole","outputs":[],"stateMutability":"nonpayable","type":"function"},{"inputs":[{"internalType":"bytes32","name":"role","type":"bytes32"},{"internalType":"address","name":"account","type":"address"}],"name":"revokeRole","outputs":[],"stateMutability":"nonpayable","type":"function"},{"inputs":[{"internalType":"address","name":"from","type":"address"},{"internalType":"address","name":"to","type":"address"},{"internalType":"uint256","name":"tokenId","type":"uint256"}],"name":"safeTransferFrom","outputs":[],"stateMutability":"nonpayable","type":"function"},{"inputs":[{"internalType":"address","name":"from","type":"address"},{"internalType":"address","name":"to","type":"address"},{"internalType":"uint256","name":"tokenId","type":"uint256"},{"internalType":"bytes","name":"data","type":"bytes"}],"name":"safeTransferFrom","outputs":[],"stateMutability":"nonpayable","type":"function"},{"inputs":[{"internalType":"uint256","name":"","type":"uint256"}],"name":"serialNumber","outputs":[{"internalType":"uint256","name":"","type":"uint256"}],"stateMutability":"view","type":"function"},{"inputs":[{"internalType":"uint256","name":"","type":"uint256"}],"name":"series","outputs":[{"internalType":"uint256","name":"","type":"uint256"}],"stateMutability":"view","type":"function"},{"inputs":[{"internalType":"address","name":"operator","type":"address"},{"internalType":"bool","name":"approved","type":"bool"}],"name":"setApprovalForAll","outputs":[],"stateMutability":"nonpayable","type":"function"},{"inputs":[{"internalType":"bytes32","name":"_collectibleType","type":"bytes32"},{"internalType":"uint256","name":"_maxSupply","type":"uint256"}],"name":"setMaxSupply","outputs":[],"stateMutability":"nonpayable","type":"function"},{"inputs":[{"internalType":"bytes4","name":"interfaceId","type":"bytes4"}],"name":"supportsInterface","outputs":[{"internalType":"bool","name":"","type":"bool"}],"stateMutability":"view","type":"function"},{"inputs":[],"name":"symbol","outputs":[{"internalType":"string","name":"","type":"string"}],"stateMutability":"view","type":"function"},{"inputs":[{"internalType":"uint256","name":"tokenId","type":"uint256"}],"name":"tokenURI","outputs":[{"internalType":"string","name":"","type":"string"}],"stateMutability":"view","type":"function"},{"inputs":[{"internalType":"address","name":"from","type":"address"},{"internalType":"address","name":"to","type":"address"},{"internalType":"uint256","name":"tokenId","type":"uint256"}],"name":"transferFrom","outputs":[],"stateMutability":"nonpayable","type":"function"},{"inputs":[],"name":"unpause","outputs":[],"stateMutability":"nonpayable","type":"function"}],"evm":{"bytecode":{"linkReferences":{},"object":"6101606040523480156200001257600080fd5b50604051620031f1380380620031f18339810160408190526200003591620003be565b6040805180820190915260018152603160f81b60208201528490818560006200005f8382620004dc565b5060016200006e8282620004dc565b50506001600955506200008382600a6200019d565b610120526200009481600b6200019d565b61014052815160208084019190912060e052815190820120610100524660a0526200012260e05161010051604080517f8b73c3c69bb8fe3d512ecc4cf759cc79239f7b179b0ffacaa9a75d522b39400f60208201529081019290925260608201524660808201523060a082015260009060c00160405160208183030381529060405280519060200120905090565b60805250503060c05262000138600083620001d6565b50620001657f9f2df0fed2c77648de5860a4cc508cd0818c85b8b8a1ab4ceeef8d981c8956a682620001d6565b50620001927f65d7a28e3265b37a6474929f336521b332c1681b933f6cb9f3376673440d862a83620001d6565b505050505062000602565b6000602083511015620001bd57620001b58362000288565b9050620001d0565b81620001ca8482620004dc565b5060ff90505b92915050565b60008281526007602090815260408083206001600160a01b038516845290915281205460ff166200027f5760008381526007602090815260408083206001600160a01b03861684529091529020805460ff19166001179055620002363390565b6001600160a01b0316826001600160a01b0316847f2f8788117e7eff1d82e926ec794901d17c78024a50270940304540a733656f0d60405160405180910390a4506001620001d0565b506000620001d0565b600080829050601f81511115620002bf578260405163305a27a960e01b8152600401620002b69190620005a8565b60405180910390fd5b8051620002cc82620005dd565b179392505050565b634e487b7160e01b600052604160045260246000fd5b60005b8381101562000307578181015183820152602001620002ed565b50506000910152565b600082601f8301126200032257600080fd5b81516001600160401b03808211156200033f576200033f620002d4565b604051601f8301601f19908116603f011681019082821181831017156200036a576200036a620002d4565b816040528381528660208588010111156200038457600080fd5b62000397846020830160208901620002ea565b9695505050505050565b80516001600160a01b0381168114620003b957600080fd5b919050565b60008060008060808587031215620003d557600080fd5b84516001600160401b0380821115620003ed57600080fd5b620003fb8883890162000310565b955060208701519150808211156200041257600080fd5b50620004218782880162000310565b9350506200043260408601620003a1565b91506200044260608601620003a1565b905092959194509250565b600181811c908216806200046257607f821691505b6020821081036200048357634e487b7160e01b600052602260045260246000fd5b50919050565b601f821115620004d757600081815260208120601f850160051c81016020861015620004b25750805b601f850160051c820191505b81811015620004d357828155600101620004be565b5050505b505050565b81516001600160401b03811115620004f857620004f8620002d4565b62000510816200050984546200044d565b8462000489565b602080601f8311600181146200054857600084156200052f5750858301515b600019600386901b1c1916600185901b178555620004d3565b600085815260208120601f198616915b82811015620005795788860151825594840194600190910190840162000558565b5085821015620005985787850151600019600388901b60f8161c191681555b5050505050600190811b01905550565b6020815260008251806020840152620005c9816040850160208701620002ea565b601f01601f19169190910160400192915050565b80516020808301519190811015620004835760001960209190910360031b1b16919050565b60805160a05160c05160e051610100516101205161014051612b946200065d600039600061165f0152600061162d01526000611db401526000611d8c01526000611ce701526000611d1101526000611d3b0152612b946000f3fe608060405234801561001057600080fd5b50600436106102325760003560e01c806391d1485411610130578063c37a044c116100b8578063db7641041161007c578063db76410414610551578063dc22cb6a14610571578063e63ab1e914610591578063e8613de3146105b8578063e985e9c5146105cb57600080fd5b8063c37a044c146104e3578063c87b56dd14610503578063d539139314610516578063d547741f1461052b578063d88ef6b91461053e57600080fd5b8063a22cb465116100ff578063a22cb4651461046a578063b83007811461047d578063b85988f014610490578063b88d4fde146104b0578063befb69d0146104c357600080fd5b806391d148541461042757806395d89b411461043a5780639f37e2fd14610442578063a217fddf1461046257600080fd5b806342842e0e116101be57806370a082311161018257806370a08231146103aa5780637ecebe00146103bd5780638456cb59146103dd57806384b0196e146103e55780638cfcae211461040057600080fd5b806342842e0e1461032657806345b510b6146103395780635c975abb1461034c57806360316801146103575780636352211e1461039757600080fd5b806323b872dd1161020557806323b872dd146102b4578063248a9ca3146102c75780632f2ff15d146102f857806336568abe1461030b5780633f4ba83a1461031e57600080fd5b806301ffc9a71461023757806306fdde031461025f578063081812fc14610274578063095ea7b31461029f575b600080fd5b61024a6102453660046122da565b6105de565b60405190151581526020015b60405180910390f35b6102676105ef565b6040516102569190612347565b61028761028236600461235a565b610681565b6040516001600160a01b039091168152602001610256565b6102b26102ad36600461238f565b6106aa565b005b6102b26102c23660046123b9565b6106b9565b6102ea6102d536600461235a565b60009081526007602052604090206001015490565b604051908152602001610256565b6102b26103063660046123f5565b610749565b6102b26103193660046123f5565b61076e565b6102b26107a6565b6102b26103343660046123b9565b6107db565b6102ea6103473660046124c4565b6107f6565b60085460ff1661024a565b61036a61036536600461235a565b610992565b604080519687526020870195909552938501929092526060840152608083015260a082015260c001610256565b6102876103a536600461235a565b610a55565b6102ea6103b8366004612523565b610a60565b6102ea6103cb366004612523565b60136020526000908152604090205481565b6102b2610aa8565b6103ed610ada565b604051610256979695949392919061253e565b6102ea7fa4175c07f69012e2588e1369a48fa97095cc811a72e1a6712c43ec8a43cb3d1881565b61024a6104353660046123f5565b610b20565b610267610b4b565b6102ea61045036600461235a565b600e6020526000908152604090205481565b6102ea600081565b6102b26104783660046125d4565b610b5a565b6102b261048b36600461265c565b610b65565b6102ea61049e36600461235a565b600d6020526000908152604090205481565b6102b26104be3660046126ff565b610e0d565b6102ea6104d136600461235a565b60106020526000908152604090205481565b6102ea6104f136600461235a565b60126020526000908152604090205481565b61026761051136600461235a565b610e25565b6102ea600080516020612b3f83398151915281565b6102b26105393660046123f5565b610e30565b6102b261054c366004612767565b610e55565b6102ea61055f36600461235a565b60116020526000908152604090205481565b6102ea61057f36600461235a565b600f6020526000908152604090205481565b6102ea7f65d7a28e3265b37a6474929f336521b332c1681b933f6cb9f3376673440d862a81565b6102ea6105c6366004612789565b610f2f565b61024a6105d9366004612819565b611240565b60006105e98261126e565b92915050565b6060600080546105fe90612843565b80601f016020809104026020016040519081016040528092919081815260200182805461062a90612843565b80156106775780601f1061064c57610100808354040283529160200191610677565b820191906000526020600020905b81548152906001019060200180831161065a57829003601f168201915b5050505050905090565b600061068c82611293565b506000828152600460205260409020546001600160a01b03166105e9565b6106b58282336112cc565b5050565b6001600160a01b0382166106e857604051633250574960e11b8152600060048201526024015b60405180910390fd5b60006106f58383336112d9565b9050836001600160a01b0316816001600160a01b031614610743576040516364283d7b60e01b81526001600160a01b03808616600483015260248201849052821660448201526064016106df565b50505050565b600082815260076020526040902060010154610764816113d2565b61074383836113dc565b6001600160a01b03811633146107975760405163334bd91960e11b815260040160405180910390fd5b6107a18282611470565b505050565b7f65d7a28e3265b37a6474929f336521b332c1681b933f6cb9f3376673440d862a6107d0816113d2565b6107d86114dd565b50565b6107a183838360405180602001604052806000815250610e0d565b6000600080516020612b3f833981519152610810816113d2565b61081861152f565b610820611559565b6001600160a01b03861661086a5760405162461bcd60e51b8152602060048201526011602482015270125b9d985b1a59081c9958da5c1a595b9d607a1b60448201526064016106df565b60008581526011602052604090205480156108ac5760008681526012602052604090205481116108ac5760405162461bcd60e51b81526004016106df9061287d565b600c8054600091826108bd836128a9565b9091555060008881526012602052604081208054929350909190826108e1836128a9565b9190505590506108f1898361157f565b6108fb8288611599565b6000828152600d602090815260408083208b9055600e82528083204290819055600f83528184208a9055601090925291829020839055905189916001600160a01b038c169185917ff9d678de804214bba9506f99b65abeaf315f6d45442add5d95c49451654cd0ba91610973918d918d9189916128d0565b60405180910390a4509250506109896001600955565b50949350505050565b60008080808080806109b9886000908152600260205260409020546001600160a01b031690565b6001600160a01b031603610a065760405162461bcd60e51b8152602060048201526014602482015273151bdad95b88191bd95cc81b9bdd08195e1a5cdd60621b60448201526064016106df565b50505060009384525050600d6020908152604080842054600e835281852054600f8452828620546010855283872054838852601186528488205460129096529390962054919690959450919291565b60006105e982611293565b60006001600160a01b038216610a8c576040516322718ad960e21b8152600060048201526024016106df565b506001600160a01b031660009081526003602052604090205490565b7f65d7a28e3265b37a6474929f336521b332c1681b933f6cb9f3376673440d862a610ad2816113d2565b6107d86115e9565b600060608060008060006060610aee611626565b610af6611658565b60408051600080825260208201909252600f60f81b9b939a50919850469750309650945092509050565b60009182526007602090815260408084206001600160a01b0393909316845291905290205460ff1690565b6060600180546105fe90612843565b6106b5338383611685565b600080516020612b3f833981519152610b7d816113d2565b610b8561152f565b610b8d611559565b8685148015610b9b57508483145b610bdf5760405162461bcd60e51b8152602060048201526015602482015274082e4e4c2f240d8cadccee8d040dad2e6dac2e8c6d605b1b60448201526064016106df565b60005b87811015610df8576000878783818110610bfe57610bfe6128ff565b6020908102929092013560008181526011909352604090922054919250508015610c4f576000828152601260205260409020548111610c4f5760405162461bcd60e51b81526004016106df9061287d565b600c805460009182610c60836128a9565b909155506000848152601260205260408120805492935090919082610c84836128a9565b919050559050610cba8d8d87818110610c9f57610c9f6128ff565b9050602002016020810190610cb49190612523565b8361157f565b610d1c828a8a88818110610cd057610cd06128ff565b9050602002810190610ce29190612915565b8080601f01602080910402602001604051908101604052809392919081815260200183838082843760009201919091525061159992505050565b6000828152600d60209081526040808320879055600e8252808320429055600f82528083208a905560109091529020819055838d8d87818110610d6157610d616128ff565b9050602002016020810190610d769190612523565b6001600160a01b0316837ff9d678de804214bba9506f99b65abeaf315f6d45442add5d95c49451654cd0ba8c8c8a818110610db357610db36128ff565b9050602002810190610dc59190612915565b8c8742604051610dd995949392919061295c565b60405180910390a4505050508080610df0906128a9565b915050610be2565b50610e036001600955565b5050505050505050565b610e188484846106b9565b6107433385858585611724565b60606105e98261184f565b600082815260076020526040902060010154610e4b816113d2565b6107438383611470565b6000610e60816113d2565b811580610e7b57506000838152601260205260409020548210155b610edd5760405162461bcd60e51b815260206004820152602d60248201527f4d617820737570706c792063616e6e6f74206265206c657373207468616e206360448201526c757272656e7420737570706c7960981b60648201526084016106df565b600083815260116020526040908190208390555183907f86b12292e1344bb1f625c1e4d00f6ec6c3e2dac25c12b3c6b12fa87d86e6393f90610f229085815260200190565b60405180910390a2505050565b6000610f3961152f565b610f41611559565b82421115610f825760405162461bcd60e51b815260206004820152600e60248201526d14195c9b5a5d08195e1c1a5c995960921b60448201526064016106df565b6001600160a01b038716610fcc5760405162461bcd60e51b8152602060048201526011602482015270125b9d985b1a59081c9958da5c1a595b9d607a1b60448201526064016106df565b600086815260116020526040902054801561100e57600087815260126020526040902054811161100e5760405162461bcd60e51b81526004016106df9061287d565b85516020808801919091206001600160a01b038a16600090815260139092526040822080547fa4175c07f69012e2588e1369a48fa97095cc811a72e1a6712c43ec8a43cb3d18928c928c929086611064836128a9565b909155506040805160208101969096526001600160a01b03909416938501939093526060840191909152608083015260a082015260c0810186905260e00160405160208183030381529060405280519060200120905060006110c582611960565b905060006110d3828761198d565b90506110ed600080516020612b3f83398151915282610b20565b61112d5760405162461bcd60e51b8152602060048201526011602482015270496e76616c6964207369676e617475726560781b60448201526064016106df565b600c80546000918261113e836128a9565b9091555060008c8152601260205260408120805492935090919082611162836128a9565b9190505590506111728d8361157f565b61117c828c611599565b8b600d60008481526020019081526020016000208190555042600e60008481526020019081526020016000208190555089600f6000848152602001908152602001600020819055508060106000848152602001908152602001600020819055508b8d6001600160a01b0316837ff9d678de804214bba9506f99b65abeaf315f6d45442add5d95c49451654cd0ba8e8e864260405161121d94939291906128d0565b60405180910390a4509450505050506112366001600955565b9695505050505050565b6001600160a01b03918216600090815260056020908152604080832093909416825291909152205460ff1690565b60006001600160e01b03198216637965db0b60e01b14806105e957506105e9826119b7565b6000818152600260205260408120546001600160a01b0316806105e957604051637e27328960e01b8152600481018490526024016106df565b6107a183838360016119dc565b6000828152600260205260408120546001600160a01b039081169083161561130657611306818486611ae2565b6001600160a01b03811615611344576113236000856000806119dc565b6001600160a01b038116600090815260036020526040902080546000190190555b6001600160a01b03851615611373576001600160a01b0385166000908152600360205260409020805460010190555b60008481526002602052604080822080546001600160a01b0319166001600160a01b0389811691821790925591518793918516917fddf252ad1be2c89b69c2b068fc378daa952ba7f163c4a11628f55a4df523b3ef91a4949350505050565b6107d88133611b46565b60006113e88383610b20565b6114685760008381526007602090815260408083206001600160a01b03861684529091529020805460ff191660011790556114203390565b6001600160a01b0316826001600160a01b0316847f2f8788117e7eff1d82e926ec794901d17c78024a50270940304540a733656f0d60405160405180910390a45060016105e9565b5060006105e9565b600061147c8383610b20565b156114685760008381526007602090815260408083206001600160a01b0386168085529252808320805460ff1916905551339286917ff6391f5c32d9c69d2a47ea670b442974b53935d1edc7fd64eb21e047a839171b9190a45060016105e9565b6114e5611b7f565b6008805460ff191690557f5db9ee0a495bf2e6ff9c91a7834c1ba4fdd244a5e8aa4e537bd38aeae4b073aa335b6040516001600160a01b03909116815260200160405180910390a1565b60026009540361155257604051633ee5aeb560e01b815260040160405180910390fd5b6002600955565b60085460ff161561157d5760405163d93c066560e01b815260040160405180910390fd5b565b6106b5828260405180602001604052806000815250611ba2565b60008281526006602052604090206115b182826129e9565b506040518281527ff8e1a15aba9398e019f0b49df1a4fde98ee17ae345cb5f6b5e2c27f5033e8ce79060200160405180910390a15050565b6115f1611559565b6008805460ff191660011790557f62e78cea01bee320cd4e420270b5ea74000d11b0c9f74754ebdbfc544b05a2586115123390565b60606116537f0000000000000000000000000000000000000000000000000000000000000000600a611bba565b905090565b60606116537f0000000000000000000000000000000000000000000000000000000000000000600b611bba565b6001600160a01b0382166116b757604051630b61174360e31b81526001600160a01b03831660048201526024016106df565b6001600160a01b03838116600081815260056020908152604080832094871680845294825291829020805460ff191686151590811790915591519182527f17307eab39ab6107e8899845ad3d59bd9653f200f220920489ca2b5937696c31910160405180910390a3505050565b6001600160a01b0383163b1561184857604051630a85bd0160e11b81526001600160a01b0384169063150b7a0290611766908890889087908790600401612aa9565b6020604051808303816000875af19250505080156117a1575060408051601f3d908101601f1916820190925261179e91810190612adc565b60015b61180a573d8080156117cf576040519150601f19603f3d011682016040523d82523d6000602084013e6117d4565b606091505b50805160000361180257604051633250574960e11b81526001600160a01b03851660048201526024016106df565b805160208201fd5b6001600160e01b03198116630a85bd0160e11b1461184657604051633250574960e11b81526001600160a01b03851660048201526024016106df565b505b5050505050565b606061185a82611293565b506000828152600660205260408120805461187490612843565b80601f01602080910402602001604051908101604052809291908181526020018280546118a090612843565b80156118ed5780601f106118c2576101008083540402835291602001916118ed565b820191906000526020600020905b8154815290600101906020018083116118d057829003601f168201915b50505050509050600061190b60408051602081019091526000815290565b9050805160000361191d575092915050565b81511561194f578082604051602001611937929190612af9565b60405160208183030381529060405292505050919050565b61195884611c65565b949350505050565b60006105e961196d611cda565b8360405161190160f01b8152600281019290925260228201526042902090565b60008060008061199d8686611e05565b9250925092506119ad8282611e52565b5090949350505050565b60006001600160e01b03198216632483248360e11b14806105e957506105e982611f0b565b80806119f057506001600160a01b03821615155b15611ab2576000611a0084611293565b90506001600160a01b03831615801590611a2c5750826001600160a01b0316816001600160a01b031614155b8015611a3f5750611a3d8184611240565b155b15611a685760405163a9fbf51f60e01b81526001600160a01b03841660048201526024016106df565b8115611ab05783856001600160a01b0316826001600160a01b03167f8c5be1e5ebec7d5bd14f71427d1e84f3dd0314c0f7b2291e5b200ac8c7c3b92560405160405180910390a45b505b5050600090815260046020526040902080546001600160a01b0319166001600160a01b0392909216919091179055565b611aed838383611f5b565b6107a1576001600160a01b038316611b1b57604051637e27328960e01b8152600481018290526024016106df565b60405163177e802f60e01b81526001600160a01b0383166004820152602481018290526044016106df565b611b508282610b20565b6106b55760405163e2517d3f60e01b81526001600160a01b0382166004820152602481018390526044016106df565b60085460ff1661157d57604051638dfc202b60e01b815260040160405180910390fd5b611bac8383611fbe565b6107a1336000858585611724565b606060ff8314611bd457611bcd83612023565b90506105e9565b818054611be090612843565b80601f0160208091040260200160405190810160405280929190818152602001828054611c0c90612843565b8015611c595780601f10611c2e57610100808354040283529160200191611c59565b820191906000526020600020905b815481529060010190602001808311611c3c57829003601f168201915b505050505090506105e9565b6060611c7082611293565b506000611c8860408051602081019091526000815290565b90506000815111611ca85760405180602001604052806000815250611cd3565b80611cb284612062565b604051602001611cc3929190612af9565b6040516020818303038152906040525b9392505050565b6000306001600160a01b037f000000000000000000000000000000000000000000000000000000000000000016148015611d3357507f000000000000000000000000000000000000000000000000000000000000000046145b15611d5d57507f000000000000000000000000000000000000000000000000000000000000000090565b611653604080517f8b73c3c69bb8fe3d512ecc4cf759cc79239f7b179b0ffacaa9a75d522b39400f60208201527f0000000000000000000000000000000000000000000000000000000000000000918101919091527f000000000000000000000000000000000000000000000000000000000000000060608201524660808201523060a082015260009060c00160405160208183030381529060405280519060200120905090565b60008060008351604103611e3f5760208401516040850151606086015160001a611e31888285856120f5565b955095509550505050611e4b565b50508151600091506002905b9250925092565b6000826003811115611e6657611e66612b28565b03611e6f575050565b6001826003811115611e8357611e83612b28565b03611ea15760405163f645eedf60e01b815260040160405180910390fd5b6002826003811115611eb557611eb5612b28565b03611ed65760405163fce698f760e01b8152600481018290526024016106df565b6003826003811115611eea57611eea612b28565b036106b5576040516335e2f38360e21b8152600481018290526024016106df565b60006001600160e01b031982166380ac58cd60e01b1480611f3c57506001600160e01b03198216635b5e139f60e01b145b806105e957506301ffc9a760e01b6001600160e01b03198316146105e9565b60006001600160a01b038316158015906119585750826001600160a01b0316846001600160a01b03161480611f955750611f958484611240565b806119585750506000908152600460205260409020546001600160a01b03908116911614919050565b6001600160a01b038216611fe857604051633250574960e11b8152600060048201526024016106df565b6000611ff6838360006112d9565b90506001600160a01b038116156107a1576040516339e3563760e11b8152600060048201526024016106df565b60606000612030836121c4565b604080516020808252818301909252919250600091906020820181803683375050509182525060208101929092525090565b6060600061206f836121ec565b600101905060008167ffffffffffffffff81111561208f5761208f612421565b6040519080825280601f01601f1916602001820160405280156120b9576020820181803683370190505b5090508181016020015b600019016f181899199a1a9b1b9c1cb0b131b232b360811b600a86061a8153600a85049450846120c357509392505050565b600080807f7fffffffffffffffffffffffffffffff5d576e7357a4501ddfe92f46681b20a084111561213057506000915060039050826121ba565b604080516000808252602082018084528a905260ff891692820192909252606081018790526080810186905260019060a0016020604051602081039080840390855afa158015612184573d6000803e3d6000fd5b5050604051601f1901519150506001600160a01b0381166121b0575060009250600191508290506121ba565b9250600091508190505b9450945094915050565b600060ff8216601f8111156105e957604051632cd44ac360e21b815260040160405180910390fd5b60008072184f03e93ff9f4daa797ed6e38ed64bf6a1f0160401b831061222b5772184f03e93ff9f4daa797ed6e38ed64bf6a1f0160401b830492506040015b6d04ee2d6d415b85acef81000000008310612257576d04ee2d6d415b85acef8100000000830492506020015b662386f26fc10000831061227557662386f26fc10000830492506010015b6305f5e100831061228d576305f5e100830492506008015b61271083106122a157612710830492506004015b606483106122b3576064830492506002015b600a83106105e95760010192915050565b6001600160e01b0319811681146107d857600080fd5b6000602082840312156122ec57600080fd5b8135611cd3816122c4565b60005b838110156123125781810151838201526020016122fa565b50506000910152565b600081518084526123338160208601602086016122f7565b601f01601f19169290920160200192915050565b602081526000611cd3602083018461231b565b60006020828403121561236c57600080fd5b5035919050565b80356001600160a01b038116811461238a57600080fd5b919050565b600080604083850312156123a257600080fd5b6123ab83612373565b946020939093013593505050565b6000806000606084860312156123ce57600080fd5b6123d784612373565b92506123e560208501612373565b9150604084013590509250925092565b6000806040838503121561240857600080fd5b8235915061241860208401612373565b90509250929050565b634e487b7160e01b600052604160045260246000fd5b600082601f83011261244857600080fd5b813567ffffffffffffffff8082111561246357612463612421565b604051601f8301601f19908116603f0116810190828211818310171561248b5761248b612421565b816040528381528660208588010111156124a457600080fd5b836020870160208301376000602085830101528094505050505092915050565b600080600080608085870312156124da57600080fd5b6124e385612373565b935060208501359250604085013567ffffffffffffffff81111561250657600080fd5b61251287828801612437565b949793965093946060013593505050565b60006020828403121561253557600080fd5b611cd382612373565b60ff60f81b881681526000602060e08184015261255e60e084018a61231b565b8381036040850152612570818a61231b565b606085018990526001600160a01b038816608086015260a0850187905284810360c0860152855180825283870192509083019060005b818110156125c2578351835292840192918401916001016125a6565b50909c9b505050505050505050505050565b600080604083850312156125e757600080fd5b6125f083612373565b91506020830135801515811461260557600080fd5b809150509250929050565b60008083601f84011261262257600080fd5b50813567ffffffffffffffff81111561263a57600080fd5b6020830191508360208260051b850101111561265557600080fd5b9250929050565b60008060008060008060006080888a03121561267757600080fd5b873567ffffffffffffffff8082111561268f57600080fd5b61269b8b838c01612610565b909950975060208a01359150808211156126b457600080fd5b6126c08b838c01612610565b909750955060408a01359150808211156126d957600080fd5b506126e68a828b01612610565b989b979a50959894979596606090950135949350505050565b6000806000806080858703121561271557600080fd5b61271e85612373565b935061272c60208601612373565b925060408501359150606085013567ffffffffffffffff81111561274f57600080fd5b61275b87828801612437565b91505092959194509250565b6000806040838503121561277a57600080fd5b50508035926020909101359150565b60008060008060008060c087890312156127a257600080fd5b6127ab87612373565b955060208701359450604087013567ffffffffffffffff808211156127cf57600080fd5b6127db8a838b01612437565b9550606089013594506080890135935060a08901359150808211156127ff57600080fd5b5061280c89828a01612437565b9150509295509295509295565b6000806040838503121561282c57600080fd5b61283583612373565b915061241860208401612373565b600181811c9082168061285757607f821691505b60208210810361287757634e487b7160e01b600052602260045260246000fd5b50919050565b60208082526012908201527113585e081cdd5c1c1b1e481c995858da195960721b604082015260600190565b6000600182016128c957634e487b7160e01b600052601160045260246000fd5b5060010190565b6080815260006128e3608083018761231b565b6020830195909552506040810192909252606090910152919050565b634e487b7160e01b600052603260045260246000fd5b6000808335601e1984360301811261292c57600080fd5b83018035915067ffffffffffffffff82111561294757600080fd5b60200191503681900382131561265557600080fd5b60808152846080820152848660a0830137600060a08683010152600060a0601f19601f88011683010190508460208301528360408301528260608301529695505050505050565b601f8211156107a157600081815260208120601f850160051c810160208610156129ca5750805b601f850160051c820191505b81811015611846578281556001016129d6565b815167ffffffffffffffff811115612a0357612a03612421565b612a1781612a118454612843565b846129a3565b602080601f831160018114612a4c5760008415612a345750858301515b600019600386901b1c1916600185901b178555611846565b600085815260208120601f198616915b82811015612a7b57888601518255948401946001909101908401612a5c565b5085821015612a995787850151600019600388901b60f8161c191681555b5050505050600190811b01905550565b6001600160a01b03858116825284166020820152604081018390526080606082018190526000906112369083018461231b565b600060208284031215612aee57600080fd5b8151611cd3816122c4565b60008351612b0b8184602088016122f7565b835190830190612b1f8183602088016122f7565b01949350505050565b634e487b7160e01b600052602160045260246000fdfe9f2df0fed2c77648de5860a4cc508cd0818c85b8b8a1ab4ceeef8d981c8956a6a26469706673582212203fcccfe3d3a7e2c3bb2692d051b43dd0261f0f2a43b5106e88f2d5f8b4a86f8f64736f6c63430008140033","opcodes":"PUSH2 0x160 PUSH1 0x40 MSTORE CALLVALUE DUP1 ISZERO PUSH3 0x12 JUMPI PUSH1 0x0 DUP1 REVERT JUMPDEST POP PUSH1 0x40 MLOAD PUSH3 0x31F1 CODESIZE SUB DUP1 PUSH3 0x31F1 DUP4 CODECOPY DUP2 ADD PUSH1 0x40 DUP2 SWAP1 MSTORE PUSH3 0x35 SWAP2 PUSH3 0x3BE JUMP JUMPDEST PUSH1 0x40 DUP1 MLOAD DUP1 DUP3 ADD SWAP1 SWAP2 MSTORE PUSH1 0x1 DUP2 MSTORE PUSH1 0x31 PUSH1 0xF8 SHL PUSH1 0x20 DUP3 ADD MSTORE DUP5 SWAP1 DUP2 DUP6 PUSH1 0x0 PUSH3 0x5F DUP4 DUP3 PUSH3 0x4DC JUMP JUMPDEST POP PUSH1 0x1 PUSH3 0x6E DUP3 DUP3 PUSH3 0x4DC JUMP JUMPDEST POP POP PUSH1 0x1 PUSH1 0x9 SSTORE POP PUSH3 0x83 DUP3 PUSH1 0xA PUSH3 0x19D JUMP JUMPDEST PUSH2 0x120 MSTORE PUSH3 0x94 DUP2 PUSH1 0xB PUSH3 0x19D JUMP JUMPDEST PUSH2 0x140 MSTORE DUP2 MLOAD PUSH1 0x20 DUP1 DUP5 ADD SWAP2 SWAP1 SWAP2 KECCAK256 PUSH1 0xE0 MSTORE DUP2 MLOAD SWAP1 DUP3 ADD KECCAK256 PUSH2 0x100 MSTORE CHAINID PUSH1 0xA0 MSTORE PUSH3 0x122 PUSH1 0xE0 MLOAD PUSH2 0x100 MLOAD PUSH1 0x40 DUP1 MLOAD PUSH32 0x8B73C3C69BB8FE3D512ECC4CF759CC79239F7B179B0FFACAA9A75D522B39400F PUSH1 0x20 DUP3 ADD MSTORE SWAP1 DUP2 ADD SWAP3 SWAP1 SWAP3 MSTORE PUSH1 0x60 DUP3 ADD MSTORE CHAINID PUSH1 0x80 DUP3 ADD MSTORE ADDRESS PUSH1 0xA0 DUP3 ADD MSTORE PUSH1 0x0 SWAP1 PUSH1 0xC0 ADD PUSH1 0x40 MLOAD PUSH1 0x20 DUP2 DUP4 SUB SUB DUP2 MSTORE SWAP1 PUSH1 0x40 MSTORE DUP1 MLOAD SWAP1 PUSH1 0x20 ADD KECCAK256 SWAP1 POP SWAP1 JUMP JUMPDEST PUSH1 0x80 MSTORE POP POP ADDRESS PUSH1 0xC0 MSTORE PUSH3 0x138 PUSH1 0x0 DUP4 PUSH3 0x1D6 JUMP JUMPDEST POP PUSH3 0x165 PUSH32 0x9F2DF0FED2C77648DE5860A4CC508CD0818C85B8B8A1AB4CEEEF8D981C8956A6 DUP3 PUSH3 0x1D6 JUMP JUMPDEST POP PUSH3 0x192 PUSH32 0x65D7A28E3265B37A6474929F336521B332C1681B933F6CB9F3376673440D862A DUP4 PUSH3 0x1D6 JUMP JUMPDEST POP POP POP POP POP PUSH3 0x602 JUMP JUMPDEST PUSH1 0x0 PUSH1 0x20 DUP4 MLOAD LT ISZERO PUSH3 0x1BD JUMPI PUSH3 0x1B5 DUP4 PUSH3 0x288 JUMP JUMPDEST SWAP1 POP PUSH3 0x1D0 JUMP JUMPDEST DUP2 PUSH3 0x1CA DUP5 DUP3 PUSH3 0x4DC JUMP JUMPDEST POP PUSH1 0xFF SWAP1 POP JUMPDEST SWAP3 SWAP2 POP POP JUMP JUMPDEST PUSH1 0x0 DUP3 DUP2 MSTORE PUSH1 0x7 PUSH1 0x20 SWAP1 DUP2 MSTORE PUSH1 0x40 DUP1 DUP4 KECCAK256 PUSH1 0x1 PUSH1 0x1 PUSH1 0xA0 SHL SUB DUP6 AND DUP5 MSTORE SWAP1 SWAP2 MSTORE DUP2 KECCAK256 SLOAD PUSH1 0xFF AND PUSH3 0x27F JUMPI PUSH1 0x0 DUP4 DUP2 MSTORE PUSH1 0x7 PUSH1 0x20 SWAP1 DUP2 MSTORE PUSH1 0x40 DUP1 DUP4 KECCAK256 PUSH1 0x1 PUSH1 0x1 PUSH1 0xA0 SHL SUB DUP7 AND DUP5 MSTORE SWAP1 SWAP2 MSTORE SWAP1 KECCAK256 DUP1 SLOAD PUSH1 0xFF NOT AND PUSH1 0x1 OR SWAP1 SSTORE PUSH3 0x236 CALLER SWAP1 JUMP JUMPDEST PUSH1 0x1 PUSH1 0x1 PUSH1 0xA0 SHL SUB AND DUP3 PUSH1 0x1 PUSH1 0x1 PUSH1 0xA0 SHL SUB AND DUP5 PUSH32 0x2F8788117E7EFF1D82E926EC794901D17C78024A50270940304540A733656F0D PUSH1 0x40 MLOAD PUSH1 0x40 MLOAD DUP1 SWAP2 SUB SWAP1 LOG4 POP PUSH1 0x1 PUSH3 0x1D0 JUMP JUMPDEST POP PUSH1 0x0 PUSH3 0x1D0 JUMP JUMPDEST PUSH1 0x0 DUP1 DUP3 SWAP1 POP PUSH1 0x1F DUP2 MLOAD GT ISZERO PUSH3 0x2BF JUMPI DUP3 PUSH1 0x40 MLOAD PUSH4 0x305A27A9 PUSH1 0xE0 SHL DUP2 MSTORE PUSH1 0x4 ADD PUSH3 0x2B6 SWAP2 SWAP1 PUSH3 0x5A8 JUMP JUMPDEST PUSH1 0x40 MLOAD DUP1 SWAP2 SUB SWAP1 REVERT JUMPDEST DUP1 MLOAD PUSH3 0x2CC DUP3 PUSH3 0x5DD JUMP JUMPDEST OR SWAP4 SWAP3 POP POP POP JUMP JUMPDEST PUSH4 0x4E487B71 PUSH1 0xE0 SHL PUSH1 0x0 MSTORE PUSH1 0x41 PUSH1 0x4 MSTORE PUSH1 0x24 PUSH1 0x0 REVERT JUMPDEST PUSH1 0x0 JUMPDEST DUP4 DUP2 LT ISZERO PUSH3 0x307 JUMPI DUP2 DUP2 ADD MLOAD DUP4 DUP3 ADD MSTORE PUSH1 0x20 ADD PUSH3 0x2ED JUMP JUMPDEST POP POP PUSH1 0x0 SWAP2 ADD MSTORE JUMP JUMPDEST PUSH1 0x0 DUP3 PUSH1 0x1F DUP4 ADD SLT PUSH3 0x322 JUMPI PUSH1 0x0 DUP1 REVERT JUMPDEST DUP2 MLOAD PUSH1 0x1 PUSH1 0x1 PUSH1 0x40 SHL SUB DUP1 DUP3 GT ISZERO PUSH3 0x33F JUMPI PUSH3 0x33F PUSH3 0x2D4 JUMP JUMPDEST PUSH1 0x40 MLOAD PUSH1 0x1F DUP4 ADD PUSH1 0x1F NOT SWAP1 DUP2 AND PUSH1 0x3F ADD AND DUP2 ADD SWAP1 DUP3 DUP3 GT DUP2 DUP4 LT OR ISZERO PUSH3 0x36A JUMPI PUSH3 0x36A PUSH3 0x2D4 JUMP JUMPDEST DUP2 PUSH1 0x40 MSTORE DUP4 DUP2 MSTORE DUP7 PUSH1 0x20 DUP6 DUP9 ADD ADD GT ISZERO PUSH3 0x384 JUMPI PUSH1 0x0 DUP1 REVERT JUMPDEST PUSH3 0x397 DUP5 PUSH1 0x20 DUP4 ADD PUSH1 0x20 DUP10 ADD PUSH3 0x2EA JUMP JUMPDEST SWAP7 SWAP6 POP POP POP POP POP POP JUMP JUMPDEST DUP1 MLOAD PUSH1 0x1 PUSH1 0x1 PUSH1 0xA0 SHL SUB DUP2 AND DUP2 EQ PUSH3 0x3B9 JUMPI PUSH1 0x0 DUP1 REVERT JUMPDEST SWAP2 SWAP1 POP JUMP JUMPDEST PUSH1 0x0 DUP1 PUSH1 0x0 DUP1 PUSH1 0x80 DUP6 DUP8 SUB SLT ISZERO PUSH3 0x3D5 JUMPI PUSH1 0x0 DUP1 REVERT JUMPDEST DUP5 MLOAD PUSH1 0x1 PUSH1 0x1 PUSH1 0x40 SHL SUB DUP1 DUP3 GT ISZERO PUSH3 0x3ED JUMPI PUSH1 0x0 DUP1 REVERT JUMPDEST PUSH3 0x3FB DUP9 DUP4 DUP10 ADD PUSH3 0x310 JUMP JUMPDEST SWAP6 POP PUSH1 0x20 DUP8 ADD MLOAD SWAP2 POP DUP1 DUP3 GT ISZERO PUSH3 0x412 JUMPI PUSH1 0x0 DUP1 REVERT JUMPDEST POP PUSH3 0x421 DUP8 DUP3 DUP9 ADD PUSH3 0x310 JUMP JUMPDEST SWAP4 POP POP PUSH3 0x432 PUSH1 0x40 DUP7 ADD PUSH3 0x3A1 JUMP JUMPDEST SWAP2 POP PUSH3 0x442 PUSH1 0x60 DUP7 ADD PUSH3 0x3A1 JUMP JUMPDEST SWAP1 POP SWAP3 SWAP6 SWAP2 SWAP5 POP SWAP3 POP JUMP JUMPDEST PUSH1 0x1 DUP2 DUP2 SHR SWAP1 DUP3 AND DUP1 PUSH3 0x462 JUMPI PUSH1 0x7F DUP3 AND SWAP2 POP JUMPDEST PUSH1 0x20 DUP3 LT DUP2 SUB PUSH3 0x483 JUMPI PUSH4 0x4E487B71 PUSH1 0xE0 SHL PUSH1 0x0 MSTORE PUSH1 0x22 PUSH1 0x4 MSTORE PUSH1 0x24 PUSH1 0x0 REVERT JUMPDEST POP SWAP2 SWAP1 POP JUMP JUMPDEST PUSH1 0x1F DUP3 GT ISZERO PUSH3 0x4D7 JUMPI PUSH1 0x0 DUP2 DUP2 MSTORE PUSH1 0x20 DUP2 KECCAK256 PUSH1 0x1F DUP6 ADD PUSH1 0x5 SHR DUP2 ADD PUSH1 0x20 DUP7 LT ISZERO PUSH3 0x4B2 JUMPI POP DUP1 JUMPDEST PUSH1 0x1F DUP6 ADD PUSH1 0x5 SHR DUP3 ADD SWAP2 POP JUMPDEST DUP2 DUP2 LT ISZERO PUSH3 0x4D3 JUMPI DUP3 DUP2 SSTORE PUSH1 0x1 ADD PUSH3 0x4BE JUMP JUMPDEST POP POP POP JUMPDEST POP POP POP JUMP JUMPDEST DUP2 MLOAD PUSH1 0x1 PUSH1 0x1 PUSH1 0x40 SHL SUB DUP2 GT ISZERO PUSH3 0x4F8 JUMPI PUSH3 0x4F8 PUSH3 0x2D4 JUMP JUMPDEST PUSH3 0x510 DUP2 PUSH3 0x509 DUP5 SLOAD PUSH3 0x44D JUMP JUMPDEST DUP5 PUSH3 0x489 JUMP JUMPDEST PUSH1 0x20 DUP1 PUSH1 0x1F DUP4 GT PUSH1 0x1 DUP2 EQ PUSH3 0x548 JUMPI PUSH1 0x0 DUP5 ISZERO PUSH3 0x52F JUMPI POP DUP6 DUP4 ADD MLOAD JUMPDEST PUSH1 0x0 NOT PUSH1 0x3 DUP7 SWAP1 SHL SHR NOT AND PUSH1 0x1 DUP6 SWAP1 SHL OR DUP6 SSTORE PUSH3 0x4D3 JUMP JUMPDEST PUSH1 0x0 DUP6 DUP2 MSTORE PUSH1 0x20 DUP2 KECCAK256 PUSH1 0x1F NOT DUP7 AND SWAP2 JUMPDEST DUP3 DUP2 LT ISZERO PUSH3 0x579 JUMPI DUP9 DUP7 ADD MLOAD DUP3 SSTORE SWAP5 DUP5 ADD SWAP5 PUSH1 0x1 SWAP1 SWAP2 ADD SWAP1 DUP5 ADD PUSH3 0x558 JUMP JUMPDEST POP DUP6 DUP3 LT ISZERO PUSH3 0x598 JUMPI DUP8 DUP6 ADD MLOAD PUSH1 0x0 NOT PUSH1 0x3 DUP9 SWAP1 SHL PUSH1 0xF8 AND SHR NOT AND DUP2 SSTORE JUMPDEST POP POP POP POP POP PUSH1 0x1 SWAP1 DUP2 SHL ADD SWAP1 SSTORE POP JUMP JUMPDEST PUSH1 0x20 DUP2 MSTORE PUSH1 0x0 DUP3 MLOAD DUP1 PUSH1 0x20 DUP5 ADD MSTORE PUSH3 0x5C9 DUP2 PUSH1 0x40 DUP6 ADD PUSH1 0x20 DUP8 ADD PUSH3 0x2EA JUMP JUMPDEST PUSH1 0x1F ADD PUSH1 0x1F NOT AND SWAP2 SWAP1 SWAP2 ADD PUSH1 0x40 ADD SWAP3 SWAP2 POP POP JUMP JUMPDEST DUP1 MLOAD PUSH1 0x20 DUP1 DUP4 ADD MLOAD SWAP2 SWAP1 DUP2 LT ISZERO PUSH3 0x483 JUMPI PUSH1 0x0 NOT PUSH1 0x20 SWAP2 SWAP1 SWAP2 SUB PUSH1 0x3 SHL SHL AND SWAP2 SWAP1 POP JUMP JUMPDEST PUSH1 0x80 MLOAD PUSH1 0xA0 MLOAD PUSH1 0xC0 MLOAD PUSH1 0xE0 MLOAD PUSH2 0x100 MLOAD PUSH2 0x120 MLOAD PUSH2 0x140 MLOAD PUSH2 0x2B94 PUSH3 0x65D PUSH1 0x0 CODECOPY PUSH1 0x0 PUSH2 0x165F ADD MSTORE PUSH1 0x0 PUSH2 0x162D ADD MSTORE PUSH1 0x0 PUSH2 0x1DB4 ADD MSTORE PUSH1 0x0 PUSH2 0x1D8C ADD MSTORE PUSH1 0x0 PUSH2 0x1CE7 ADD MSTORE PUSH1 0x0 PUSH2 0x1D11 ADD MSTORE PUSH1 0x0 PUSH2 0x1D3B ADD MSTORE PUSH2 0x2B94 PUSH1 0x0 RETURN INVALID PUSH1 0x80 PUSH1 0x40 MSTORE CALLVALUE DUP1 ISZERO PUSH2 0x10 JUMPI PUSH1 0x0 DUP1 REVERT JUMPDEST POP PUSH1 0x4 CALLDATASIZE LT PUSH2 0x232 JUMPI PUSH1 0x0 CALLDATALOAD PUSH1 0xE0 SHR DUP1 PUSH4 0x91D14854 GT PUSH2 0x130 JUMPI DUP1 PUSH4 0xC37A044C GT PUSH2 0xB8 JUMPI DUP1 PUSH4 0xDB764104 GT PUSH2 0x7C JUMPI DUP1 PUSH4 0xDB764104 EQ PUSH2 0x551 JUMPI DUP1 PUSH4 0xDC22CB6A EQ PUSH2 0x571 JUMPI DUP1 PUSH4 0xE63AB1E9 EQ PUSH2 0x591 JUMPI DUP1 PUSH4 0xE8613DE3 EQ PUSH2 0x5B8 JUMPI DUP1 PUSH4 0xE985E9C5 EQ PUSH2 0x5CB JUMPI PUSH1 0x0 DUP1 REVERT JUMPDEST DUP1 PUSH4 0xC37A044C EQ PUSH2 0x4E3 JUMPI DUP1 PUSH4 0xC87B56DD EQ PUSH2 0x503 JUMPI DUP1 PUSH4 0xD5391393 EQ PUSH2 0x516 JUMPI DUP1 PUSH4 0xD547741F EQ PUSH2 0x52B JUMPI DUP1 PUSH4 0xD88EF6B9 EQ PUSH2 0x53E JUMPI PUSH1 0x0 DUP1 REVERT JUMPDEST DUP1 PUSH4 0xA22CB465 GT PUSH2 0xFF JUMPI DUP1 PUSH4 0xA22CB465 EQ PUSH2 0x46A JUMPI DUP1 PUSH4 0xB8300781 EQ PUSH2 0x47D JUMPI DUP1 PUSH4 0xB85988F0 EQ PUSH2 0x490 JUMPI DUP1 PUSH4 0xB88D4FDE EQ PUSH2 0x4B0 JUMPI DUP1 PUSH4 0xBEFB69D0 EQ PUSH2 0x4C3 JUMPI PUSH1 0x0 DUP1 REVERT JUMPDEST DUP1 PUSH4 0x91D14854 EQ PUSH2 0x427 JUMPI DUP1 PUSH4 0x95D89B41 EQ PUSH2 0x43A JUMPI DUP1 PUSH4 0x9F37E2FD EQ PUSH2 0x442 JUMPI DUP1 PUSH4 0xA217FDDF EQ PUSH2 0x462 JUMPI PUSH1 0x0 DUP1 REVERT JUMPDEST DUP1 PUSH4 0x42842E0E GT PUSH2 0x1BE JUMPI DUP1 PUSH4 0x70A08231 GT PUSH2 0x182 JUMPI DUP1 PUSH4 0x70A08231 EQ PUSH2 0x3AA JUMPI DUP1 PUSH4 0x7ECEBE00 EQ PUSH2 0x3BD JUMPI DUP1 PUSH4 0x8456CB59 EQ PUSH2 0x3DD JUMPI DUP1 PUSH4 0x84B0196E EQ PUSH2 0x3E5 JUMPI DUP1 PUSH4 0x8CFCAE21 EQ PUSH2 0x400 JUMPI PUSH1 0x0 DUP1 REVERT JUMPDEST DUP1 PUSH4 0x42842E0E EQ PUSH2 0x326 JUMPI DUP1 PUSH4 0x45B510B6 EQ PUSH2 0x339 JUMPI DUP1 PUSH4 0x5C975ABB EQ PUSH2 0x34C JUMPI DUP1 PUSH4 0x60316801 EQ PUSH2 0x357 JUMPI DUP1 PUSH4 0x6352211E EQ PUSH2 0x397 JUMPI PUSH1 0x0 DUP1 REVERT JUMPDEST DUP1 PUSH4 0x23B872DD GT PUSH2 0x205 JUMPI DUP1 PUSH4 0x23B872DD EQ PUSH2 0x2B4 JUMPI DUP1 PUSH4 0x248A9CA3 EQ PUSH2 0x2C7 JUMPI DUP1 PUSH4 0x2F2FF15D EQ PUSH2 0x2F8 JUMPI DUP1 PUSH4 0x36568ABE EQ PUSH2 0x30B JUMPI DUP1 PUSH4 0x3F4BA83A EQ PUSH2 0x31E JUMPI PUSH1 0x0 DUP1 REVERT JUMPDEST DUP1 PUSH4 0x1FFC9A7 EQ PUSH2 0x237 JUMPI DUP1 PUSH4 0x6FDDE03 EQ PUSH2 0x25F JUMPI DUP1 PUSH4 0x81812FC EQ PUSH2 0x274 JUMPI DUP1 PUSH4 0x95EA7B3 EQ PUSH2 0x29F JUMPI JUMPDEST PUSH1 0x0 DUP1 REVERT JUMPDEST PUSH2 0x24A PUSH2 0x245 CALLDATASIZE PUSH1 0x4 PUSH2 0x22DA JUMP JUMPDEST PUSH2 0x5DE JUMP JUMPDEST PUSH1 0x40 MLOAD SWAP1 ISZERO ISZERO DUP2 MSTORE PUSH1 0x20 ADD JUMPDEST PUSH1 0x40 MLOAD DUP1 SWAP2 SUB SWAP1 RETURN JUMPDEST PUSH2 0x267 PUSH2 0x5EF JUMP JUMPDEST PUSH1 0x40 MLOAD PUSH2 0x256 SWAP2 SWAP1 PUSH2 0x2347 JUMP JUMPDEST PUSH2 0x287 PUSH2 0x282 CALLDATASIZE PUSH1 0x4 PUSH2 0x235A JUMP JUMPDEST PUSH2 0x681 JUMP JUMPDEST PUSH1 0x40 MLOAD PUSH1 0x1 PUSH1 0x1 PUSH1 0xA0 SHL SUB SWAP1 SWAP2 AND DUP2 MSTORE PUSH1 0x20 ADD PUSH2 0x256 JUMP JUMPDEST PUSH2 0x2B2 PUSH2 0x2AD CALLDATASIZE PUSH1 0x4 PUSH2 0x238F JUMP JUMPDEST PUSH2 0x6AA JUMP JUMPDEST STOP JUMPDEST PUSH2 0x2B2 PUSH2 0x2C2 CALLDATASIZE PUSH1 0x4 PUSH2 0x23B9 JUMP JUMPDEST PUSH2 0x6B9 JUMP JUMPDEST PUSH2 0x2EA PUSH2 0x2D5 CALLDATASIZE PUSH1 0x4 PUSH2 0x235A JUMP JUMPDEST PUSH1 0x0 SWAP1 DUP2 MSTORE PUSH1 0x7 PUSH1 0x20 MSTORE PUSH1 0x40 SWAP1 KECCAK256 PUSH1 0x1 ADD SLOAD SWAP1 JUMP JUMPDEST PUSH1 0x40 MLOAD SWAP1 DUP2 MSTORE PUSH1 0x20 ADD PUSH2 0x256 JUMP JUMPDEST PUSH2 0x2B2 PUSH2 0x306 CALLDATASIZE PUSH1 0x4 PUSH2 0x23F5 JUMP JUMPDEST PUSH2 0x749 JUMP JUMPDEST PUSH2 0x2B2 PUSH2 0x319 CALLDATASIZE PUSH1 0x4 PUSH2 0x23F5 JUMP JUMPDEST PUSH2 0x76E JUMP JUMPDEST PUSH2 0x2B2 PUSH2 0x7A6 JUMP JUMPDEST PUSH2 0x2B2 PUSH2 0x334 CALLDATASIZE PUSH1 0x4 PUSH2 0x23B9 JUMP JUMPDEST PUSH2 0x7DB JUMP JUMPDEST PUSH2 0x2EA PUSH2 0x347 CALLDATASIZE PUSH1 0x4 PUSH2 0x24C4 JUMP JUMPDEST PUSH2 0x7F6 JUMP JUMPDEST PUSH1 0x8 SLOAD PUSH1 0xFF AND PUSH2 0x24A JUMP JUMPDEST PUSH2 0x36A PUSH2 0x365 CALLDATASIZE PUSH1 0x4 PUSH2 0x235A JUMP JUMPDEST PUSH2 0x992 JUMP JUMPDEST PUSH1 0x40 DUP1 MLOAD SWAP7 DUP8 MSTORE PUSH1 0x20 DUP8 ADD SWAP6 SWAP1 SWAP6 MSTORE SWAP4 DUP6 ADD SWAP3 SWAP1 SWAP3 MSTORE PUSH1 0x60 DUP5 ADD MSTORE PUSH1 0x80 DUP4 ADD MSTORE PUSH1 0xA0 DUP3 ADD MSTORE PUSH1 0xC0 ADD PUSH2 0x256 JUMP JUMPDEST PUSH2 0x287 PUSH2 0x3A5 CALLDATASIZE PUSH1 0x4 PUSH2 0x235A JUMP JUMPDEST PUSH2 0xA55 JUMP JUMPDEST PUSH2 0x2EA PUSH2 0x3B8 CALLDATASIZE PUSH1 0x4 PUSH2 0x2523 JUMP JUMPDEST PUSH2 0xA60 JUMP JUMPDEST PUSH2 0x2EA PUSH2 0x3CB CALLDATASIZE PUSH1 0x4 PUSH2 0x2523 JUMP JUMPDEST PUSH1 0x13 PUSH1 0x20 MSTORE PUSH1 0x0 SWAP1 DUP2 MSTORE PUSH1 0x40 SWAP1 KECCAK256 SLOAD DUP2 JUMP JUMPDEST PUSH2 0x2B2 PUSH2 0xAA8 JUMP JUMPDEST PUSH2 0x3ED PUSH2 0xADA JUMP JUMPDEST PUSH1 0x40 MLOAD PUSH2 0x256 SWAP8 SWAP7 SWAP6 SWAP5 SWAP4 SWAP3 SWAP2 SWAP1 PUSH2 0x253E JUMP JUMPDEST PUSH2 0x2EA PUSH32 0xA4175C07F69012E2588E1369A48FA97095CC811A72E1A6712C43EC8A43CB3D18 DUP2 JUMP JUMPDEST PUSH2 0x24A PUSH2 0x435 CALLDATASIZE PUSH1 0x4 PUSH2 0x23F5 JUMP JUMPDEST PUSH2 0xB20 JUMP JUMPDEST PUSH2 0x267 PUSH2 0xB4B JUMP JUMPDEST PUSH2 0x2EA PUSH2 0x450 CALLDATASIZE PUSH1 0x4 PUSH2 0x235A JUMP JUMPDEST PUSH1 0xE PUSH1 0x20 MSTORE PUSH1 0x0 SWAP1 DUP2 MSTORE PUSH1 0x40 SWAP1 KECCAK256 SLOAD DUP2 JUMP JUMPDEST PUSH2 0x2EA PUSH1 0x0 DUP2 JUMP JUMPDEST PUSH2 0x2B2 PUSH2 0x478 CALLDATASIZE PUSH1 0x4 PUSH2 0x25D4 JUMP JUMPDEST PUSH2 0xB5A JUMP JUMPDEST PUSH2 0x2B2 PUSH2 0x48B CALLDATASIZE PUSH1 0x4 PUSH2 0x265C JUMP JUMPDEST PUSH2 0xB65 JUMP JUMPDEST PUSH2 0x2EA PUSH2 0x49E CALLDATASIZE PUSH1 0x4 PUSH2 0x235A JUMP JUMPDEST PUSH1 0xD PUSH1 0x20 MSTORE PUSH1 0x0 SWAP1 DUP2 MSTORE PUSH1 0x40 SWAP1 KECCAK256 SLOAD DUP2 JUMP JUMPDEST PUSH2 0x2B2 PUSH2 0x4BE CALLDATASIZE PUSH1 0x4 PUSH2 0x26FF JUMP JUMPDEST PUSH2 0xE0D JUMP JUMPDEST PUSH2 0x2EA PUSH2 0x4D1 CALLDATASIZE PUSH1 0x4 PUSH2 0x235A JUMP JUMPDEST PUSH1 0x10 PUSH1 0x20 MSTORE PUSH1 0x0 SWAP1 DUP2 MSTORE PUSH1 0x40 SWAP1 KECCAK256 SLOAD DUP2 JUMP JUMPDEST PUSH2 0x2EA PUSH2 0x4F1 CALLDATASIZE PUSH1 0x4 PUSH2 0x235A JUMP JUMPDEST PUSH1 0x12 PUSH1 0x20 MSTORE PUSH1 0x0 SWAP1 DUP2 MSTORE PUSH1 0x40 SWAP1 KECCAK256 SLOAD DUP2 JUMP JUMPDEST PUSH2 0x267 PUSH2 0x511 CALLDATASIZE PUSH1 0x4 PUSH2 0x235A JUMP JUMPDEST PUSH2 0xE25 JUMP JUMPDEST PUSH2 0x2EA PUSH1 0x0 DUP1 MLOAD PUSH1 0x20 PUSH2 0x2B3F DUP4 CODECOPY DUP2 MLOAD SWAP2 MSTORE DUP2 JUMP JUMPDEST PUSH2 0x2B2 PUSH2 0x539 CALLDATASIZE PUSH1 0x4 PUSH2 0x23F5 JUMP JUMPDEST PUSH2 0xE30 JUMP JUMPDEST PUSH2 0x2B2 PUSH2 0x54C CALLDATASIZE PUSH1 0x4 PUSH2 0x2767 JUMP JUMPDEST PUSH2 0xE55 JUMP JUMPDEST PUSH2 0x2EA PUSH2 0x55F CALLDATASIZE PUSH1 0x4 PUSH2 0x235A JUMP JUMPDEST PUSH1 0x11 PUSH1 0x20 MSTORE PUSH1 0x0 SWAP1 DUP2 MSTORE PUSH1 0x40 SWAP1 KECCAK256 SLOAD DUP2 JUMP JUMPDEST PUSH2 0x2EA PUSH2 0x57F CALLDATASIZE PUSH1 0x4 PUSH2 0x235A JUMP JUMPDEST PUSH1 0xF PUSH1 0x20 MSTORE PUSH1 0x0 SWAP1 DUP2 MSTORE PUSH1 0x40 SWAP1 KECCAK256 SLOAD DUP2 JUMP JUMPDEST PUSH2 0x2EA PUSH32 0x65D7A28E3265B37A6474929F336521B332C1681B933F6CB9F3376673440D862A DUP2 JUMP JUMPDEST PUSH2 0x2EA PUSH2 0x5C6 CALLDATASIZE PUSH1 0x4 PUSH2 0x2789 JUMP JUMPDEST PUSH2 0xF2F JUMP JUMPDEST PUSH2 0x24A PUSH2 0x5D9 CALLDATASIZE PUSH1 0x4 PUSH2 0x2819 JUMP JUMPDEST PUSH2 0x1240 JUMP JUMPDEST PUSH1 0x0 PUSH2 0x5E9 DUP3 PUSH2 0x126E JUMP JUMPDEST SWAP3 SWAP2 POP POP JUMP JUMPDEST PUSH1 0x60 PUSH1 0x0 DUP1 SLOAD PUSH2 0x5FE SWAP1 PUSH2 0x2843 JUMP JUMPDEST DUP1 PUSH1 0x1F ADD PUSH1 0x20 DUP1 SWAP2 DIV MUL PUSH1 0x20 ADD PUSH1 0x40 MLOAD SWAP1 DUP2 ADD PUSH1 0x40 MSTORE DUP1 SWAP3 SWAP2 SWAP1 DUP2 DUP2 MSTORE PUSH1 0x20 ADD DUP3 DUP1 SLOAD PUSH2 0x62A SWAP1 PUSH2 0x2843 JUMP JUMPDEST DUP1 ISZERO PUSH2 0x677 JUMPI DUP1 PUSH1 0x1F LT PUSH2 0x64C JUMPI PUSH2 0x100 DUP1 DUP4 SLOAD DIV MUL DUP4 MSTORE SWAP2 PUSH1 0x20 ADD SWAP2 PUSH2 0x677 JUMP JUMPDEST DUP3 ADD SWAP2 SWAP1 PUSH1 0x0 MSTORE PUSH1 0x20 PUSH1 0x0 KECCAK256 SWAP1 JUMPDEST DUP2 SLOAD DUP2 MSTORE SWAP1 PUSH1 0x1 ADD SWAP1 PUSH1 0x20 ADD DUP1 DUP4 GT PUSH2 0x65A JUMPI DUP3 SWAP1 SUB PUSH1 0x1F AND DUP3 ADD SWAP2 JUMPDEST POP POP POP POP POP SWAP1 POP SWAP1 JUMP JUMPDEST PUSH1 0x0 PUSH2 0x68C DUP3 PUSH2 0x1293 JUMP JUMPDEST POP PUSH1 0x0 DUP3 DUP2 MSTORE PUSH1 0x4 PUSH1 0x20 MSTORE PUSH1 0x40 SWAP1 KECCAK256 SLOAD PUSH1 0x1 PUSH1 0x1 PUSH1 0xA0 SHL SUB AND PUSH2 0x5E9 JUMP JUMPDEST PUSH2 0x6B5 DUP3 DUP3 CALLER PUSH2 0x12CC JUMP JUMPDEST POP POP JUMP JUMPDEST PUSH1 0x1 PUSH1 0x1 PUSH1 0xA0 SHL SUB DUP3 AND PUSH2 0x6E8 JUMPI PUSH1 0x40 MLOAD PUSH4 0x32505749 PUSH1 0xE1 SHL DUP2 MSTORE PUSH1 0x0 PUSH1 0x4 DUP3 ADD MSTORE PUSH1 0x24 ADD JUMPDEST PUSH1 0x40 MLOAD DUP1 SWAP2 SUB SWAP1 REVERT JUMPDEST PUSH1 0x0 PUSH2 0x6F5 DUP4 DUP4 CALLER PUSH2 0x12D9 JUMP JUMPDEST SWAP1 POP DUP4 PUSH1 0x1 PUSH1 0x1 PUSH1 0xA0 SHL SUB AND DUP2 PUSH1 0x1 PUSH1 0x1 PUSH1 0xA0 SHL SUB AND EQ PUSH2 0x743 JUMPI PUSH1 0x40 MLOAD PUSH4 0x64283D7B PUSH1 0xE0 SHL DUP2 MSTORE PUSH1 0x1 PUSH1 0x1 PUSH1 0xA0 SHL SUB DUP1 DUP7 AND PUSH1 0x4 DUP4 ADD MSTORE PUSH1 0x24 DUP3 ADD DUP5 SWAP1 MSTORE DUP3 AND PUSH1 0x44 DUP3 ADD MSTORE PUSH1 0x64 ADD PUSH2 0x6DF JUMP JUMPDEST POP POP POP POP JUMP JUMPDEST PUSH1 0x0 DUP3 DUP2 MSTORE PUSH1 0x7 PUSH1 0x20 MSTORE PUSH1 0x40 SWAP1 KECCAK256 PUSH1 0x1 ADD SLOAD PUSH2 0x764 DUP2 PUSH2 0x13D2 JUMP JUMPDEST PUSH2 0x743 DUP4 DUP4 PUSH2 0x13DC JUMP JUMPDEST PUSH1 0x1 PUSH1 0x1 PUSH1 0xA0 SHL SUB DUP2 AND CALLER EQ PUSH2 0x797 JUMPI PUSH1 0x40 MLOAD PUSH4 0x334BD919 PUSH1 0xE1 SHL DUP2 MSTORE PUSH1 0x4 ADD PUSH1 0x40 MLOAD DUP1 SWAP2 SUB SWAP1 REVERT JUMPDEST PUSH2 0x7A1 DUP3 DUP3 PUSH2 0x1470 JUMP JUMPDEST POP POP POP JUMP JUMPDEST PUSH32 0x65D7A28E3265B37A6474929F336521B332C1681B933F6CB9F3376673440D862A PUSH2 0x7D0 DUP2 PUSH2 0x13D2 JUMP JUMPDEST PUSH2 0x7D8 PUSH2 0x14DD JUMP JUMPDEST POP JUMP JUMPDEST PUSH2 0x7A1 DUP4 DUP4 DUP4 PUSH1 0x40 MLOAD DUP1 PUSH1 0x20 ADD PUSH1 0x40 MSTORE DUP1 PUSH1 0x0 DUP2 MSTORE POP PUSH2 0xE0D JUMP JUMPDEST PUSH1 0x0 PUSH1 0x0 DUP1 MLOAD PUSH1 0x20 PUSH2 0x2B3F DUP4 CODECOPY DUP2 MLOAD SWAP2 MSTORE PUSH2 0x810 DUP2 PUSH2 0x13D2 JUMP JUMPDEST PUSH2 0x818 PUSH2 0x152F JUMP JUMPDEST PUSH2 0x820 PUSH2 0x1559 JUMP JUMPDEST PUSH1 0x1 PUSH1 0x1 PUSH1 0xA0 SHL SUB DUP7 AND PUSH2 0x86A JUMPI PUSH1 0x40 MLOAD PUSH3 0x461BCD PUSH1 0xE5 SHL DUP2 MSTORE PUSH1 0x20 PUSH1 0x4 DUP3 ADD MSTORE PUSH1 0x11 PUSH1 0x24 DUP3 ADD MSTORE PUSH17 0x125B9D985B1A59081C9958DA5C1A595B9D PUSH1 0x7A SHL PUSH1 0x44 DUP3 ADD MSTORE PUSH1 0x64 ADD PUSH2 0x6DF JUMP JUMPDEST PUSH1 0x0 DUP6 DUP2 MSTORE PUSH1 0x11 PUSH1 0x20 MSTORE PUSH1 0x40 SWAP1 KECCAK256 SLOAD DUP1 ISZERO PUSH2 0x8AC JUMPI PUSH1 0x0 DUP7 DUP2 MSTORE PUSH1 0x12 PUSH1 0x20 MSTORE PUSH1 0x40 SWAP1 KECCAK256 SLOAD DUP2 GT PUSH2 0x8AC JUMPI PUSH1 0x40 MLOAD PUSH3 0x461BCD PUSH1 0xE5 SHL DUP2 MSTORE PUSH1 0x4 ADD PUSH2 0x6DF SWAP1 PUSH2 0x287D JUMP JUMPDEST PUSH1 0xC DUP1 SLOAD PUSH1 0x0 SWAP2 DUP3 PUSH2 0x8BD DUP4 PUSH2 0x28A9 JUMP JUMPDEST SWAP1 SWAP2 SSTORE POP PUSH1 0x0 DUP9 DUP2 MSTORE PUSH1 0x12 PUSH1 0x20 MSTORE PUSH1 0x40 DUP2 KECCAK256 DUP1 SLOAD SWAP3 SWAP4 POP SWAP1 SWAP2 SWAP1 DUP3 PUSH2 0x8E1 DUP4 PUSH2 0x28A9 JUMP JUMPDEST SWAP2 SWAP1 POP SSTORE SWAP1 POP PUSH2 0x8F1 DUP10 DUP4 PUSH2 0x157F JUMP JUMPDEST PUSH2 0x8FB DUP3 DUP9 PUSH2 0x1599 JUMP JUMPDEST PUSH1 0x0 DUP3 DUP2 MSTORE PUSH1 0xD PUSH1 0x20 SWAP1 DUP2 MSTORE PUSH1 0x40 DUP1 DUP4 KECCAK256 DUP12 SWAP1 SSTORE PUSH1 0xE DUP3 MSTORE DUP1 DUP4 KECCAK256 TIMESTAMP SWAP1 DUP2 SWAP1 SSTORE PUSH1 0xF DUP4 MSTORE DUP2 DUP5 KECCAK256 DUP11 SWAP1 SSTORE PUSH1 0x10 SWAP1 SWAP3 MSTORE SWAP2 DUP3 SWAP1 KECCAK256 DUP4 SWAP1 SSTORE SWAP1 MLOAD DUP10 SWAP2 PUSH1 0x1 PUSH1 0x1 PUSH1 0xA0 SHL SUB DUP13 AND SWAP2 DUP6 SWAP2 PUSH32 0xF9D678DE804214BBA9506F99B65ABEAF315F6D45442ADD5D95C49451654CD0BA SWAP2 PUSH2 0x973 SWAP2 DUP14 SWAP2 DUP14 SWAP2 DUP10 SWAP2 PUSH2 0x28D0 JUMP JUMPDEST PUSH1 0x40 MLOAD DUP1 SWAP2 SUB SWAP1 LOG4 POP SWAP3 POP POP PUSH2 0x989 PUSH1 0x1 PUSH1 0x9 SSTORE JUMP JUMPDEST POP SWAP5 SWAP4 POP POP POP POP JUMP JUMPDEST PUSH1 0x0 DUP1 DUP1 DUP1 DUP1 DUP1 DUP1 PUSH2 0x9B9 DUP9 PUSH1 0x0 SWAP1 DUP2 MSTORE PUSH1 0x2 PUSH1 0x20 MSTORE PUSH1 0x40 SWAP1 KECCAK256 SLOAD PUSH1 0x1 PUSH1 0x1 PUSH1 0xA0 SHL SUB AND SWAP1 JUMP JUMPDEST PUSH1 0x1 PUSH1 0x1 PUSH1 0xA0 SHL SUB AND SUB PUSH2 0xA06 JUMPI PUSH1 0x40 MLOAD PUSH3 0x461BCD PUSH1 0xE5 SHL DUP2 MSTORE PUSH1 0x20 PUSH1 0x4 DUP3 ADD MSTORE PUSH1 0x14 PUSH1 0x24 DUP3 ADD MSTORE PUSH20 0x151BDAD95B88191BD95CC81B9BDD08195E1A5CDD PUSH1 0x62 SHL PUSH1 0x44 DUP3 ADD MSTORE PUSH1 0x64 ADD PUSH2 0x6DF JUMP JUMPDEST POP POP POP PUSH1 0x0 SWAP4 DUP5 MSTORE POP POP PUSH1 0xD PUSH1 0x20 SWAP1 DUP2 MSTORE PUSH1 0x40 DUP1 DUP5 KECCAK256 SLOAD PUSH1 0xE DUP4 MSTORE DUP2 DUP6 KECCAK256 SLOAD PUSH1 0xF DUP5 MSTORE DUP3 DUP7 KECCAK256 SLOAD PUSH1 0x10 DUP6 MSTORE DUP4 DUP8 KECCAK256 SLOAD DUP4 DUP9 MSTORE PUSH1 0x11 DUP7 MSTORE DUP5 DUP9 KECCAK256 SLOAD PUSH1 0x12 SWAP1 SWAP7 MSTORE SWAP4 SWAP1 SWAP7 KECCAK256 SLOAD SWAP2 SWAP7 SWAP1 SWAP6 SWAP5 POP SWAP2 SWAP3 SWAP2 JUMP JUMPDEST PUSH1 0x0 PUSH2 0x5E9 DUP3 PUSH2 0x1293 JUMP JUMPDEST PUSH1 0x0 PUSH1 0x1 PUSH1 0x1 PUSH1 0xA0 SHL SUB DUP3 AND PUSH2 0xA8C JUMPI PUSH1 0x40 MLOAD PUSH4 0x22718AD9 PUSH1 0xE2 SHL DUP2 MSTORE PUSH1 0x0 PUSH1 0x4 DUP3 ADD MSTORE PUSH1 0x24 ADD PUSH2 0x6DF JUMP JUMPDEST POP PUSH1 0x1 PUSH1 0x1 PUSH1 0xA0 SHL SUB AND PUSH1 0x0 SWAP1 DUP2 MSTORE PUSH1 0x3 PUSH1 0x20 MSTORE PUSH1 0x40 SWAP1 KECCAK256 SLOAD SWAP1 JUMP JUMPDEST PUSH32 0x65D7A28E3265B37A6474929F336521B332C1681B933F6CB9F3376673440D862A PUSH2 0xAD2 DUP2 PUSH2 0x13D2 JUMP JUMPDEST PUSH2 0x7D8 PUSH2 0x15E9 JUMP JUMPDEST PUSH1 0x0 PUSH1 0x60 DUP1 PUSH1 0x0 DUP1 PUSH1 0x0 PUSH1 0x60 PUSH2 0xAEE PUSH2 0x1626 JUMP JUMPDEST PUSH2 0xAF6 PUSH2 0x1658 JUMP JUMPDEST PUSH1 0x40 DUP1 MLOAD PUSH1 0x0 DUP1 DUP3 MSTORE PUSH1 0x20 DUP3 ADD SWAP1 SWAP3 MSTORE PUSH1 0xF PUSH1 0xF8 SHL SWAP12 SWAP4 SWAP11 POP SWAP2 SWAP9 POP CHAINID SWAP8 POP ADDRESS SWAP7 POP SWAP5 POP SWAP3 POP SWAP1 POP JUMP JUMPDEST PUSH1 0x0 SWAP2 DUP3 MSTORE PUSH1 0x7 PUSH1 0x20 SWAP1 DUP2 MSTORE PUSH1 0x40 DUP1 DUP5 KECCAK256 PUSH1 0x1 PUSH1 0x1 PUSH1 0xA0 SHL SUB SWAP4 SWAP1 SWAP4 AND DUP5 MSTORE SWAP2 SWAP1 MSTORE SWAP1 KECCAK256 SLOAD PUSH1 0xFF AND SWAP1 JUMP JUMPDEST PUSH1 0x60 PUSH1 0x1 DUP1 SLOAD PUSH2 0x5FE SWAP1 PUSH2 0x2843 JUMP JUMPDEST PUSH2 0x6B5 CALLER DUP4 DUP4 PUSH2 0x1685 JUMP JUMPDEST PUSH1 0x0 DUP1 MLOAD PUSH1 0x20 PUSH2 0x2B3F DUP4 CODECOPY DUP2 MLOAD SWAP2 MSTORE PUSH2 0xB7D DUP2 PUSH2 0x13D2 JUMP JUMPDEST PUSH2 0xB85 PUSH2 0x152F JUMP JUMPDEST PUSH2 0xB8D PUSH2 0x1559 JUMP JUMPDEST DUP7 DUP6 EQ DUP1 ISZERO PUSH2 0xB9B JUMPI POP DUP5 DUP4 EQ JUMPDEST PUSH2 0xBDF JUMPI PUSH1 0x40 MLOAD PUSH3 0x461BCD PUSH1 0xE5 SHL DUP2 MSTORE PUSH1 0x20 PUSH1 0x4 DUP3 ADD MSTORE PUSH1 0x15 PUSH1 0x24 DUP3 ADD MSTORE PUSH21 0x82E4E4C2F240D8CADCCEE8D040DAD2E6DAC2E8C6D PUSH1 0x5B SHL PUSH1 0x44 DUP3 ADD MSTORE PUSH1 0x64 ADD PUSH2 0x6DF JUMP JUMPDEST PUSH1 0x0 JUMPDEST DUP8 DUP2 LT ISZERO PUSH2 0xDF8 JUMPI PUSH1 0x0 DUP8 DUP8 DUP4 DUP2 DUP2 LT PUSH2 0xBFE JUMPI PUSH2 0xBFE PUSH2 0x28FF JUMP JUMPDEST PUSH1 0x20 SWAP1 DUP2 MUL SWAP3 SWAP1 SWAP3 ADD CALLDATALOAD PUSH1 0x0 DUP2 DUP2 MSTORE PUSH1 0x11 SWAP1 SWAP4 MSTORE PUSH1 0x40 SWAP1 SWAP3 KECCAK256 SLOAD SWAP2 SWAP3 POP POP DUP1 ISZERO PUSH2 0xC4F JUMPI PUSH1 0x0 DUP3 DUP2 MSTORE PUSH1 0x12 PUSH1 0x20 MSTORE PUSH1 0x40 SWAP1 KECCAK256 SLOAD DUP2 GT PUSH2 0xC4F JUMPI PUSH1 0x40 MLOAD PUSH3 0x461BCD PUSH1 0xE5 SHL DUP2 MSTORE PUSH1 0x4 ADD PUSH2 0x6DF SWAP1 PUSH2 0x287D JUMP JUMPDEST PUSH1 0xC DUP1 SLOAD PUSH1 0x0 SWAP2 DUP3 PUSH2 0xC60 DUP4 PUSH2 0x28A9 JUMP JUMPDEST SWAP1 SWAP2 SSTORE POP PUSH1 0x0 DUP5 DUP2 MSTORE PUSH1 0x12 PUSH1 0x20 MSTORE PUSH1 0x40 DUP2 KECCAK256 DUP1 SLOAD SWAP3 SWAP4 POP SWAP1 SWAP2 SWAP1 DUP3 PUSH2 0xC84 DUP4 PUSH2 0x28A9 JUMP JUMPDEST SWAP2 SWAP1 POP SSTORE SWAP1 POP PUSH2 0xCBA DUP14 DUP14 DUP8 DUP2 DUP2 LT PUSH2 0xC9F JUMPI PUSH2 0xC9F PUSH2 0x28FF JUMP JUMPDEST SWAP1 POP PUSH1 0x20 MUL ADD PUSH1 0x20 DUP2 ADD SWAP1 PUSH2 0xCB4 SWAP2 SWAP1 PUSH2 0x2523 JUMP JUMPDEST DUP4 PUSH2 0x157F JUMP JUMPDEST PUSH2 0xD1C DUP3 DUP11 DUP11 DUP9 DUP2 DUP2 LT PUSH2 0xCD0 JUMPI PUSH2 0xCD0 PUSH2 0x28FF JUMP JUMPDEST SWAP1 POP PUSH1 0x20 MUL DUP2 ADD SWAP1 PUSH2 0xCE2 SWAP2 SWAP1 PUSH2 0x2915 JUMP JUMPDEST DUP1 DUP1 PUSH1 0x1F ADD PUSH1 0x20 DUP1 SWAP2 DIV MUL PUSH1 0x20 ADD PUSH1 0x40 MLOAD SWAP1 DUP2 ADD PUSH1 0x40 MSTORE DUP1 SWAP4 SWAP3 SWAP2 SWAP1 DUP2 DUP2 MSTORE PUSH1 0x20 ADD DUP4 DUP4 DUP1 DUP3 DUP5 CALLDATACOPY PUSH1 0x0 SWAP3 ADD SWAP2 SWAP1 SWAP2 MSTORE POP PUSH2 0x1599 SWAP3 POP POP POP JUMP JUMPDEST PUSH1 0x0 DUP3 DUP2 MSTORE PUSH1 0xD PUSH1 0x20 SWAP1 DUP2 MSTORE PUSH1 0x40 DUP1 DUP4 KECCAK256 DUP8 SWAP1 SSTORE PUSH1 0xE DUP3 MSTORE DUP1 DUP4 KECCAK256 TIMESTAMP SWAP1 SSTORE PUSH1 0xF DUP3 MSTORE DUP1 DUP4 KECCAK256 DUP11 SWAP1 SSTORE PUSH1 0x10 SWAP1 SWAP2 MSTORE SWAP1 KECCAK256 DUP2 SWAP1 SSTORE DUP4 DUP14 DUP14 DUP8 DUP2 DUP2 LT PUSH2 0xD61 JUMPI PUSH2 0xD61 PUSH2 0x28FF JUMP JUMPDEST SWAP1 POP PUSH1 0x20 MUL ADD PUSH1 0x20 DUP2 ADD SWAP1 PUSH2 0xD76 SWAP2 SWAP1 PUSH2 0x2523 JUMP JUMPDEST PUSH1 0x1 PUSH1 0x1 PUSH1 0xA0 SHL SUB AND DUP4 PUSH32 0xF9D678DE804214BBA9506F99B65ABEAF315F6D45442ADD5D95C49451654CD0BA DUP13 DUP13 DUP11 DUP2 DUP2 LT PUSH2 0xDB3 JUMPI PUSH2 0xDB3 PUSH2 0x28FF JUMP JUMPDEST SWAP1 POP PUSH1 0x20 MUL DUP2 ADD SWAP1 PUSH2 0xDC5 SWAP2 SWAP1 PUSH2 0x2915 JUMP JUMPDEST DUP13 DUP8 TIMESTAMP PUSH1 0x40 MLOAD PUSH2 0xDD9 SWAP6 SWAP5 SWAP4 SWAP3 SWAP2 SWAP1 PUSH2 0x295C JUMP JUMPDEST PUSH1 0x40 MLOAD DUP1 SWAP2 SUB SWAP1 LOG4 POP POP POP POP DUP1 DUP1 PUSH2 0xDF0 SWAP1 PUSH2 0x28A9 JUMP JUMPDEST SWAP2 POP POP PUSH2 0xBE2 JUMP JUMPDEST POP PUSH2 0xE03 PUSH1 0x1 PUSH1 0x9 SSTORE JUMP JUMPDEST POP POP POP POP POP POP POP POP JUMP JUMPDEST PUSH2 0xE18 DUP5 DUP5 DUP5 PUSH2 0x6B9 JUMP JUMPDEST PUSH2 0x743 CALLER DUP6 DUP6 DUP6 DUP6 PUSH2 0x1724 JUMP JUMPDEST PUSH1 0x60 PUSH2 0x5E9 DUP3 PUSH2 0x184F JUMP JUMPDEST PUSH1 0x0 DUP3 DUP2 MSTORE PUSH1 0x7 PUSH1 0x20 MSTORE PUSH1 0x40 SWAP1 KECCAK256 PUSH1 0x1 ADD SLOAD PUSH2 0xE4B DUP2 PUSH2 0x13D2 JUMP JUMPDEST PUSH2 0x743 DUP4 DUP4 PUSH2 0x1470 JUMP JUMPDEST PUSH1 0x0 PUSH2 0xE60 DUP2 PUSH2 0x13D2 JUMP JUMPDEST DUP2 ISZERO DUP1 PUSH2 0xE7B JUMPI POP PUSH1 0x0 DUP4 DUP2 MSTORE PUSH1 0x12 PUSH1 0x20 MSTORE PUSH1 0x40 SWAP1 KECCAK256 SLOAD DUP3 LT ISZERO JUMPDEST PUSH2 0xEDD JUMPI PUSH1 0x40 MLOAD PUSH3 0x461BCD PUSH1 0xE5 SHL DUP2 MSTORE PUSH1 0x20 PUSH1 0x4 DUP3 ADD MSTORE PUSH1 0x2D PUSH1 0x24 DUP3 ADD MSTORE PUSH32 0x4D617820737570706C792063616E6E6F74206265206C657373207468616E2063 PUSH1 0x44 DUP3 ADD MSTORE PUSH13 0x757272656E7420737570706C79 PUSH1 0x98 SHL PUSH1 0x64 DUP3 ADD MSTORE PUSH1 0x84 ADD PUSH2 0x6DF JUMP JUMPDEST PUSH1 0x0 DUP4 DUP2 MSTORE PUSH1 0x11 PUSH1 0x20 MSTORE PUSH1 0x40 SWAP1 DUP2 SWAP1 KECCAK256 DUP4 SWAP1 SSTORE MLOAD DUP4 SWAP1 PUSH32 0x86B12292E1344BB1F625C1E4D00F6EC6C3E2DAC25C12B3C6B12FA87D86E6393F SWAP1 PUSH2 0xF22 SWAP1 DUP6 DUP2 MSTORE PUSH1 0x20 ADD SWAP1 JUMP JUMPDEST PUSH1 0x40 MLOAD DUP1 SWAP2 SUB SWAP1 LOG2 POP POP POP JUMP JUMPDEST PUSH1 0x0 PUSH2 0xF39 PUSH2 0x152F JUMP JUMPDEST PUSH2 0xF41 PUSH2 0x1559 JUMP JUMPDEST DUP3 TIMESTAMP GT ISZERO PUSH2 0xF82 JUMPI PUSH1 0x40 MLOAD PUSH3 0x461BCD PUSH1 0xE5 SHL DUP2 MSTORE PUSH1 0x20 PUSH1 0x4 DUP3 ADD MSTORE PUSH1 0xE PUSH1 0x24 DUP3 ADD MSTORE PUSH14 0x14195C9B5A5D08195E1C1A5C9959 PUSH1 0x92 SHL PUSH1 0x44 DUP3 ADD MSTORE PUSH1 0x64 ADD PUSH2 0x6DF JUMP JUMPDEST PUSH1 0x1 PUSH1 0x1 PUSH1 0xA0 SHL SUB DUP8 AND PUSH2 0xFCC JUMPI PUSH1 0x40 MLOAD PUSH3 0x461BCD PUSH1 0xE5 SHL DUP2 MSTORE PUSH1 0x20 PUSH1 0x4 DUP3 ADD MSTORE PUSH1 0x11 PUSH1 0x24 DUP3 ADD MSTORE PUSH17 0x125B9D985B1A59081C9958DA5C1A595B9D PUSH1 0x7A SHL PUSH1 0x44 DUP3 ADD MSTORE PUSH1 0x64 ADD PUSH2 0x6DF JUMP JUMPDEST PUSH1 0x0 DUP7 DUP2 MSTORE PUSH1 0x11 PUSH1 0x20 MSTORE PUSH1 0x40 SWAP1 KECCAK256 SLOAD DUP1 ISZERO PUSH2 0x100E JUMPI PUSH1 0x0 DUP8 DUP2 MSTORE PUSH1 0x12 PUSH1 0x20 MSTORE PUSH1 0x40 SWAP1 KECCAK256 SLOAD DUP2 GT PUSH2 0x100E JUMPI PUSH1 0x40 MLOAD PUSH3 0x461BCD PUSH1 0xE5 SHL DUP2 MSTORE PUSH1 0x4 ADD PUSH2 0x6DF SWAP1 PUSH2 0x287D JUMP JUMPDEST DUP6 MLOAD PUSH1 0x20 DUP1 DUP9 ADD SWAP2 SWAP1 SWAP2 KECCAK256 PUSH1 0x1 PUSH1 0x1 PUSH1 0xA0 SHL SUB DUP11 AND PUSH1 0x0 SWAP1 DUP2 MSTORE PUSH1 0x13 SWAP1 SWAP3 MSTORE PUSH1 0x40 DUP3 KECCAK256 DUP1 SLOAD PUSH32 0xA4175C07F69012E2588E1369A48FA97095CC811A72E1A6712C43EC8A43CB3D18 SWAP3 DUP13 SWAP3 DUP13 SWAP3 SWAP1 DUP7 PUSH2 0x1064 DUP4 PUSH2 0x28A9 JUMP JUMPDEST SWAP1 SWAP2 SSTORE POP PUSH1 0x40 DUP1 MLOAD PUSH1 0x20 DUP2 ADD SWAP7 SWAP1 SWAP7 MSTORE PUSH1 0x1 PUSH1 0x1 PUSH1 0xA0 SHL SUB SWAP1 SWAP5 AND SWAP4 DUP6 ADD SWAP4 SWAP1 SWAP4 MSTORE PUSH1 0x60 DUP5 ADD SWAP2 SWAP1 SWAP2 MSTORE PUSH1 0x80 DUP4 ADD MSTORE PUSH1 0xA0 DUP3 ADD MSTORE PUSH1 0xC0 DUP2 ADD DUP7 SWAP1 MSTORE PUSH1 0xE0 ADD PUSH1 0x40 MLOAD PUSH1 0x20 DUP2 DUP4 SUB SUB DUP2 MSTORE SWAP1 PUSH1 0x40 MSTORE DUP1 MLOAD SWAP1 PUSH1 0x20 ADD KECCAK256 SWAP1 POP PUSH1 0x0 PUSH2 0x10C5 DUP3 PUSH2 0x1960 JUMP JUMPDEST SWAP1 POP PUSH1 0x0 PUSH2 0x10D3 DUP3 DUP8 PUSH2 0x198D JUMP JUMPDEST SWAP1 POP PUSH2 0x10ED PUSH1 0x0 DUP1 MLOAD PUSH1 0x20 PUSH2 0x2B3F DUP4 CODECOPY DUP2 MLOAD SWAP2 MSTORE DUP3 PUSH2 0xB20 JUMP JUMPDEST PUSH2 0x112D JUMPI PUSH1 0x40 MLOAD PUSH3 0x461BCD PUSH1 0xE5 SHL DUP2 MSTORE PUSH1 0x20 PUSH1 0x4 DUP3 ADD MSTORE PUSH1 0x11 PUSH1 0x24 DUP3 ADD MSTORE PUSH17 0x496E76616C6964207369676E6174757265 PUSH1 0x78 SHL PUSH1 0x44 DUP3 ADD MSTORE PUSH1 0x64 ADD PUSH2 0x6DF JUMP JUMPDEST PUSH1 0xC DUP1 SLOAD PUSH1 0x0 SWAP2 DUP3 PUSH2 0x113E DUP4 PUSH2 0x28A9 JUMP JUMPDEST SWAP1 SWAP2 SSTORE POP PUSH1 0x0 DUP13 DUP2 MSTORE PUSH1 0x12 PUSH1 0x20 MSTORE PUSH1 0x40 DUP2 KECCAK256 DUP1 SLOAD SWAP3 SWAP4 POP SWAP1 SWAP2 SWAP1 DUP3 PUSH2 0x1162 DUP4 PUSH2 0x28A9 JUMP JUMPDEST SWAP2 SWAP1 POP SSTORE SWAP1 POP PUSH2 0x1172 DUP14 DUP4 PUSH2 0x157F JUMP JUMPDEST PUSH2 0x117C DUP3 DUP13 PUSH2 0x1599 JUMP JUMPDEST DUP12 PUSH1 0xD PUSH1 0x0 DUP5 DUP2 MSTORE PUSH1 0x20 ADD SWAP1 DUP2 MSTORE PUSH1 0x20 ADD PUSH1 0x0 KECCAK256 DUP2 SWAP1 SSTORE POP TIMESTAMP PUSH1 0xE PUSH1 0x0 DUP5 DUP2 MSTORE PUSH1 0x20 ADD SWAP1 DUP2 MSTORE PUSH1 0x20 ADD PUSH1 0x0 KECCAK256 DUP2 SWAP1 SSTORE POP DUP10 PUSH1 0xF PUSH1 0x0 DUP5 DUP2 MSTORE PUSH1 0x20 ADD SWAP1 DUP2 MSTORE PUSH1 0x20 ADD PUSH1 0x0 KECCAK256 DUP2 SWAP1 SSTORE POP DUP1 PUSH1 0x10 PUSH1 0x0 DUP5 DUP2 MSTORE PUSH1 0x20 ADD SWAP1 DUP2 MSTORE PUSH1 0x20 ADD PUSH1 0x0 KECCAK256 DUP2 SWAP1 SSTORE POP DUP12 DUP14 PUSH1 0x1 PUSH1 0x1 PUSH1 0xA0 SHL SUB AND DUP4 PUSH32 0xF9D678DE804214BBA9506F99B65ABEAF315F6D45442ADD5D95C49451654CD0BA DUP15 DUP15 DUP7 TIMESTAMP PUSH1 0x40 MLOAD PUSH2 0x121D SWAP5 SWAP4 SWAP3 SWAP2 SWAP1 PUSH2 0x28D0 JUMP JUMPDEST PUSH1 0x40 MLOAD DUP1 SWAP2 SUB SWAP1 LOG4 POP SWAP5 POP POP POP POP POP PUSH2 0x1236 PUSH1 0x1 PUSH1 0x9 SSTORE JUMP JUMPDEST SWAP7 SWAP6 POP POP POP POP POP POP JUMP JUMPDEST PUSH1 0x1 PUSH1 0x1 PUSH1 0xA0 SHL SUB SWAP2 DUP3 AND PUSH1 0x0 SWAP1 DUP2 MSTORE PUSH1 0x5 PUSH1 0x20 SWAP1 DUP2 MSTORE PUSH1 0x40 DUP1 DUP4 KECCAK256 SWAP4 SWAP1 SWAP5 AND DUP3 MSTORE SWAP2 SWAP1 SWAP2 MSTORE KECCAK256 SLOAD PUSH1 0xFF AND SWAP1 JUMP JUMPDEST PUSH1 0x0 PUSH1 0x1 PUSH1 0x1 PUSH1 0xE0 SHL SUB NOT DUP3 AND PUSH4 0x7965DB0B PUSH1 0xE0 SHL EQ DUP1 PUSH2 0x5E9 JUMPI POP PUSH2 0x5E9 DUP3 PUSH2 0x19B7 JUMP JUMPDEST PUSH1 0x0 DUP2 DUP2 MSTORE PUSH1 0x2 PUSH1 0x20 MSTORE PUSH1 0x40 DUP2 KECCAK256 SLOAD PUSH1 0x1 PUSH1 0x1 PUSH1 0xA0 SHL SUB AND DUP1 PUSH2 0x5E9 JUMPI PUSH1 0x40 MLOAD PUSH4 0x7E273289 PUSH1 0xE0 SHL DUP2 MSTORE PUSH1 0x4 DUP2 ADD DUP5 SWAP1 MSTORE PUSH1 0x24 ADD PUSH2 0x6DF JUMP JUMPDEST PUSH2 0x7A1 DUP4 DUP4 DUP4 PUSH1 0x1 PUSH2 0x19DC JUMP JUMPDEST PUSH1 0x0 DUP3 DUP2 MSTORE PUSH1 0x2 PUSH1 0x20 MSTORE PUSH1 0x40 DUP2 KECCAK256 SLOAD PUSH1 0x1 PUSH1 0x1 PUSH1 0xA0 SHL SUB SWAP1 DUP2 AND SWAP1 DUP4 AND ISZERO PUSH2 0x1306 JUMPI PUSH2 0x1306 DUP2 DUP5 DUP7 PUSH2 0x1AE2 JUMP JUMPDEST PUSH1 0x1 PUSH1 0x1 PUSH1 0xA0 SHL SUB DUP2 AND ISZERO PUSH2 0x1344 JUMPI PUSH2 0x1323 PUSH1 0x0 DUP6 PUSH1 0x0 DUP1 PUSH2 0x19DC JUMP JUMPDEST PUSH1 0x1 PUSH1 0x1 PUSH1 0xA0 SHL SUB DUP2 AND PUSH1 0x0 SWAP1 DUP2 MSTORE PUSH1 0x3 PUSH1 0x20 MSTORE PUSH1 0x40 SWAP1 KECCAK256 DUP1 SLOAD PUSH1 0x0 NOT ADD SWAP1 SSTORE JUMPDEST PUSH1 0x1 PUSH1 0x1 PUSH1 0xA0 SHL SUB DUP6 AND ISZERO PUSH2 0x1373 JUMPI PUSH1 0x1 PUSH1 0x1 PUSH1 0xA0 SHL SUB DUP6 AND PUSH1 0x0 SWAP1 DUP2 MSTORE PUSH1 0x3 PUSH1 0x20 MSTORE PUSH1 0x40 SWAP1 KECCAK256 DUP1 SLOAD PUSH1 0x1 ADD SWAP1 SSTORE JUMPDEST PUSH1 0x0 DUP5 DUP2 MSTORE PUSH1 0x2 PUSH1 0x20 MSTORE PUSH1 0x40 DUP1 DUP3 KECCAK256 DUP1 SLOAD PUSH1 0x1 PUSH1 0x1 PUSH1 0xA0 SHL SUB NOT AND PUSH1 0x1 PUSH1 0x1 PUSH1 0xA0 SHL SUB DUP10 DUP2 AND SWAP2 DUP3 OR SWAP1 SWAP3 SSTORE SWAP2 MLOAD DUP8 SWAP4 SWAP2 DUP6 AND SWAP2 PUSH32 0xDDF252AD1BE2C89B69C2B068FC378DAA952BA7F163C4A11628F55A4DF523B3EF SWAP2 LOG4 SWAP5 SWAP4 POP POP POP POP JUMP JUMPDEST PUSH2 0x7D8 DUP2 CALLER PUSH2 0x1B46 JUMP JUMPDEST PUSH1 0x0 PUSH2 0x13E8 DUP4 DUP4 PUSH2 0xB20 JUMP JUMPDEST PUSH2 0x1468 JUMPI PUSH1 0x0 DUP4 DUP2 MSTORE PUSH1 0x7 PUSH1 0x20 SWAP1 DUP2 MSTORE PUSH1 0x40 DUP1 DUP4 KECCAK256 PUSH1 0x1 PUSH1 0x1 PUSH1 0xA0 SHL SUB DUP7 AND DUP5 MSTORE SWAP1 SWAP2 MSTORE SWAP1 KECCAK256 DUP1 SLOAD PUSH1 0xFF NOT AND PUSH1 0x1 OR SWAP1 SSTORE PUSH2 0x1420 CALLER SWAP1 JUMP JUMPDEST PUSH1 0x1 PUSH1 0x1 PUSH1 0xA0 SHL SUB AND DUP3 PUSH1 0x1 PUSH1 0x1 PUSH1 0xA0 SHL SUB AND DUP5 PUSH32 0x2F8788117E7EFF1D82E926EC794901D17C78024A50270940304540A733656F0D PUSH1 0x40 MLOAD PUSH1 0x40 MLOAD DUP1 SWAP2 SUB SWAP1 LOG4 POP PUSH1 0x1 PUSH2 0x5E9 JUMP JUMPDEST POP PUSH1 0x0 PUSH2 0x5E9 JUMP JUMPDEST PUSH1 0x0 PUSH2 0x147C DUP4 DUP4 PUSH2 0xB20 JUMP JUMPDEST ISZERO PUSH2 0x1468 JUMPI PUSH1 0x0 DUP4 DUP2 MSTORE PUSH1 0x7 PUSH1 0x20 SWAP1 DUP2 MSTORE PUSH1 0x40 DUP1 DUP4 KECCAK256 PUSH1 0x1 PUSH1 0x1 PUSH1 0xA0 SHL SUB DUP7 AND DUP1 DUP6 MSTORE SWAP3 MSTORE DUP1 DUP4 KECCAK256 DUP1 SLOAD PUSH1 0xFF NOT AND SWAP1 SSTORE MLOAD CALLER SWAP3 DUP7 SWAP2 PUSH32 0xF6391F5C32D9C69D2A47EA670B442974B53935D1EDC7FD64EB21E047A839171B SWAP2 SWAP1 LOG4 POP PUSH1 0x1 PUSH2 0x5E9 JUMP JUMPDEST PUSH2 0x14E5 PUSH2 0x1B7F JUMP JUMPDEST PUSH1 0x8 DUP1 SLOAD PUSH1 0xFF NOT AND SWAP1 SSTORE PUSH32 0x5DB9EE0A495BF2E6FF9C91A7834C1BA4FDD244A5E8AA4E537BD38AEAE4B073AA CALLER JUMPDEST PUSH1 0x40 MLOAD PUSH1 0x1 PUSH1 0x1 PUSH1 0xA0 SHL SUB SWAP1 SWAP2 AND DUP2 MSTORE PUSH1 0x20 ADD PUSH1 0x40 MLOAD DUP1 SWAP2 SUB SWAP1 LOG1 JUMP JUMPDEST PUSH1 0x2 PUSH1 0x9 SLOAD SUB PUSH2 0x1552 JUMPI PUSH1 0x40 MLOAD PUSH4 0x3EE5AEB5 PUSH1 0xE0 SHL DUP2 MSTORE PUSH1 0x4 ADD PUSH1 0x40 MLOAD DUP1 SWAP2 SUB SWAP1 REVERT JUMPDEST PUSH1 0x2 PUSH1 0x9 SSTORE JUMP JUMPDEST PUSH1 0x8 SLOAD PUSH1 0xFF AND ISZERO PUSH2 0x157D JUMPI PUSH1 0x40 MLOAD PUSH4 0xD93C0665 PUSH1 0xE0 SHL DUP2 MSTORE PUSH1 0x4 ADD PUSH1 0x40 MLOAD DUP1 SWAP2 SUB SWAP1 REVERT JUMPDEST JUMP JUMPDEST PUSH2 0x6B5 DUP3 DUP3 PUSH1 0x40 MLOAD DUP1 PUSH1 0x20 ADD PUSH1 0x40 MSTORE DUP1 PUSH1 0x0 DUP2 MSTORE POP PUSH2 0x1BA2 JUMP JUMPDEST PUSH1 0x0 DUP3 DUP2 MSTORE PUSH1 0x6 PUSH1 0x20 MSTORE PUSH1 0x40 SWAP1 KECCAK256 PUSH2 0x15B1 DUP3 DUP3 PUSH2 0x29E9 JUMP JUMPDEST POP PUSH1 0x40 MLOAD DUP3 DUP2 MSTORE PUSH32 0xF8E1A15ABA9398E019F0B49DF1A4FDE98EE17AE345CB5F6B5E2C27F5033E8CE7 SWAP1 PUSH1 0x20 ADD PUSH1 0x40 MLOAD DUP1 SWAP2 SUB SWAP1 LOG1 POP POP JUMP JUMPDEST PUSH2 0x15F1 PUSH2 0x1559 JUMP JUMPDEST PUSH1 0x8 DUP1 SLOAD PUSH1 0xFF NOT AND PUSH1 0x1 OR SWAP1 SSTORE PUSH32 0x62E78CEA01BEE320CD4E420270B5EA74000D11B0C9F74754EBDBFC544B05A258 PUSH2 0x1512 CALLER SWAP1 JUMP JUMPDEST PUSH1 0x60 PUSH2 0x1653 PUSH32 0x0 PUSH1 0xA PUSH2 0x1BBA JUMP JUMPDEST SWAP1 POP SWAP1 JUMP JUMPDEST PUSH1 0x60 PUSH2 0x1653 PUSH32 0x0 PUSH1 0xB PUSH2 0x1BBA JUMP JUMPDEST PUSH1 0x1 PUSH1 0x1 PUSH1 0xA0 SHL SUB DUP3 AND PUSH2 0x16B7 JUMPI PUSH1 0x40 MLOAD PUSH4 0xB611743 PUSH1 0xE3 SHL DUP2 MSTORE PUSH1 0x1 PUSH1 0x1 PUSH1 0xA0 SHL SUB DUP4 AND PUSH1 0x4 DUP3 ADD MSTORE PUSH1 0x24 ADD PUSH2 0x6DF JUMP JUMPDEST PUSH1 0x1 PUSH1 0x1 PUSH1 0xA0 SHL SUB DUP4 DUP2 AND PUSH1 0x0 DUP2 DUP2 MSTORE PUSH1 0x5 PUSH1 0x20 SWAP1 DUP2 MSTORE PUSH1 0x40 DUP1 DUP4 KECCAK256 SWAP5 DUP8 AND DUP1 DUP5 MSTORE SWAP5 DUP3 MSTORE SWAP2 DUP3 SWAP1 KECCAK256 DUP1 SLOAD PUSH1 0xFF NOT AND DUP7 ISZERO ISZERO SWAP1 DUP2 OR SWAP1 SWAP2 SSTORE SWAP2 MLOAD SWAP2 DUP3 MSTORE PUSH32 0x17307EAB39AB6107E8899845AD3D59BD9653F200F220920489CA2B5937696C31 SWAP2 ADD PUSH1 0x40 MLOAD DUP1 SWAP2 SUB SWAP1 LOG3 POP POP POP JUMP JUMPDEST PUSH1 0x1 PUSH1 0x1 PUSH1 0xA0 SHL SUB DUP4 AND EXTCODESIZE ISZERO PUSH2 0x1848 JUMPI PUSH1 0x40 MLOAD PUSH4 0xA85BD01 PUSH1 0xE1 SHL DUP2 MSTORE PUSH1 0x1 PUSH1 0x1 PUSH1 0xA0 SHL SUB DUP5 AND SWAP1 PUSH4 0x150B7A02 SWAP1 PUSH2 0x1766 SWAP1 DUP9 SWAP1 DUP9 SWAP1 DUP8 SWAP1 DUP8 SWAP1 PUSH1 0x4 ADD PUSH2 0x2AA9 JUMP JUMPDEST PUSH1 0x20 PUSH1 0x40 MLOAD DUP1 DUP4 SUB DUP2 PUSH1 0x0 DUP8 GAS CALL SWAP3 POP POP POP DUP1 ISZERO PUSH2 0x17A1 JUMPI POP PUSH1 0x40 DUP1 MLOAD PUSH1 0x1F RETURNDATASIZE SWAP1 DUP2 ADD PUSH1 0x1F NOT AND DUP3 ADD SWAP1 SWAP3 MSTORE PUSH2 0x179E SWAP2 DUP2 ADD SWAP1 PUSH2 0x2ADC JUMP JUMPDEST PUSH1 0x1 JUMPDEST PUSH2 0x180A JUMPI RETURNDATASIZE DUP1 DUP1 ISZERO PUSH2 0x17CF JUMPI PUSH1 0x40 MLOAD SWAP2 POP PUSH1 0x1F NOT PUSH1 0x3F RETURNDATASIZE ADD AND DUP3 ADD PUSH1 0x40 MSTORE RETURNDATASIZE DUP3 MSTORE RETURNDATASIZE PUSH1 0x0 PUSH1 0x20 DUP5 ADD RETURNDATACOPY PUSH2 0x17D4 JUMP JUMPDEST PUSH1 0x60 SWAP2 POP JUMPDEST POP DUP1 MLOAD PUSH1 0x0 SUB PUSH2 0x1802 JUMPI PUSH1 0x40 MLOAD PUSH4 0x32505749 PUSH1 0xE1 SHL DUP2 MSTORE PUSH1 0x1 PUSH1 0x1 PUSH1 0xA0 SHL SUB DUP6 AND PUSH1 0x4 DUP3 ADD MSTORE PUSH1 0x24 ADD PUSH2 0x6DF JUMP JUMPDEST DUP1 MLOAD PUSH1 0x20 DUP3 ADD REVERT JUMPDEST PUSH1 0x1 PUSH1 0x1 PUSH1 0xE0 SHL SUB NOT DUP2 AND PUSH4 0xA85BD01 PUSH1 0xE1 SHL EQ PUSH2 0x1846 JUMPI PUSH1 0x40 MLOAD PUSH4 0x32505749 PUSH1 0xE1 SHL DUP2 MSTORE PUSH1 0x1 PUSH1 0x1 PUSH1 0xA0 SHL SUB DUP6 AND PUSH1 0x4 DUP3 ADD MSTORE PUSH1 0x24 ADD PUSH2 0x6DF JUMP JUMPDEST POP JUMPDEST POP POP POP POP POP JUMP JUMPDEST PUSH1 0x60 PUSH2 0x185A DUP3 PUSH2 0x1293 JUMP JUMPDEST POP PUSH1 0x0 DUP3 DUP2 MSTORE PUSH1 0x6 PUSH1 0x20 MSTORE PUSH1 0x40 DUP2 KECCAK256 DUP1 SLOAD PUSH2 0x1874 SWAP1 PUSH2 0x2843 JUMP JUMPDEST DUP1 PUSH1 0x1F ADD PUSH1 0x20 DUP1 SWAP2 DIV MUL PUSH1 0x20 ADD PUSH1 0x40 MLOAD SWAP1 DUP2 ADD PUSH1 0x40 MSTORE DUP1 SWAP3 SWAP2 SWAP1 DUP2 DUP2 MSTORE PUSH1 0x20 ADD DUP3 DUP1 SLOAD PUSH2 0x18A0 SWAP1 PUSH2 0x2843 JUMP JUMPDEST DUP1 ISZERO PUSH2 0x18ED JUMPI DUP1 PUSH1 0x1F LT PUSH2 0x18C2 JUMPI PUSH2 0x100 DUP1 DUP4 SLOAD DIV MUL DUP4 MSTORE SWAP2 PUSH1 0x20 ADD SWAP2 PUSH2 0x18ED JUMP JUMPDEST DUP3 ADD SWAP2 SWAP1 PUSH1 0x0 MSTORE PUSH1 0x20 PUSH1 0x0 KECCAK256 SWAP1 JUMPDEST DUP2 SLOAD DUP2 MSTORE SWAP1 PUSH1 0x1 ADD SWAP1 PUSH1 0x20 ADD DUP1 DUP4 GT PUSH2 0x18D0 JUMPI DUP3 SWAP1 SUB PUSH1 0x1F AND DUP3 ADD SWAP2 JUMPDEST POP POP POP POP POP SWAP1 POP PUSH1 0x0 PUSH2 0x190B PUSH1 0x40 DUP1 MLOAD PUSH1 0x20 DUP2 ADD SWAP1 SWAP2 MSTORE PUSH1 0x0 DUP2 MSTORE SWAP1 JUMP JUMPDEST SWAP1 POP DUP1 MLOAD PUSH1 0x0 SUB PUSH2 0x191D JUMPI POP SWAP3 SWAP2 POP POP JUMP JUMPDEST DUP2 MLOAD ISZERO PUSH2 0x194F JUMPI DUP1 DUP3 PUSH1 0x40 MLOAD PUSH1 0x20 ADD PUSH2 0x1937 SWAP3 SWAP2 SWAP1 PUSH2 0x2AF9 JUMP JUMPDEST PUSH1 0x40 MLOAD PUSH1 0x20 DUP2 DUP4 SUB SUB DUP2 MSTORE SWAP1 PUSH1 0x40 MSTORE SWAP3 POP POP POP SWAP2 SWAP1 POP JUMP JUMPDEST PUSH2 0x1958 DUP5 PUSH2 0x1C65 JUMP JUMPDEST SWAP5 SWAP4 POP POP POP POP JUMP JUMPDEST PUSH1 0x0 PUSH2 0x5E9 PUSH2 0x196D PUSH2 0x1CDA JUMP JUMPDEST DUP4 PUSH1 0x40 MLOAD PUSH2 0x1901 PUSH1 0xF0 SHL DUP2 MSTORE PUSH1 0x2 DUP2 ADD SWAP3 SWAP1 SWAP3 MSTORE PUSH1 0x22 DUP3 ADD MSTORE PUSH1 0x42 SWAP1 KECCAK256 SWAP1 JUMP JUMPDEST PUSH1 0x0 DUP1 PUSH1 0x0 DUP1 PUSH2 0x199D DUP7 DUP7 PUSH2 0x1E05 JUMP JUMPDEST SWAP3 POP SWAP3 POP SWAP3 POP PUSH2 0x19AD DUP3 DUP3 PUSH2 0x1E52 JUMP JUMPDEST POP SWAP1 SWAP5 SWAP4 POP POP POP POP JUMP JUMPDEST PUSH1 0x0 PUSH1 0x1 PUSH1 0x1 PUSH1 0xE0 SHL SUB NOT DUP3 AND PUSH4 0x24832483 PUSH1 0xE1 SHL EQ DUP1 PUSH2 0x5E9 JUMPI POP PUSH2 0x5E9 DUP3 PUSH2 0x1F0B JUMP JUMPDEST DUP1 DUP1 PUSH2 0x19F0 JUMPI POP PUSH1 0x1 PUSH1 0x1 PUSH1 0xA0 SHL SUB DUP3 AND ISZERO ISZERO JUMPDEST ISZERO PUSH2 0x1AB2 JUMPI PUSH1 0x0 PUSH2 0x1A00 DUP5 PUSH2 0x1293 JUMP JUMPDEST SWAP1 POP PUSH1 0x1 PUSH1 0x1 PUSH1 0xA0 SHL SUB DUP4 AND ISZERO DUP1 ISZERO SWAP1 PUSH2 0x1A2C JUMPI POP DUP3 PUSH1 0x1 PUSH1 0x1 PUSH1 0xA0 SHL SUB AND DUP2 PUSH1 0x1 PUSH1 0x1 PUSH1 0xA0 SHL SUB AND EQ ISZERO JUMPDEST DUP1 ISZERO PUSH2 0x1A3F JUMPI POP PUSH2 0x1A3D DUP2 DUP5 PUSH2 0x1240 JUMP JUMPDEST ISZERO JUMPDEST ISZERO PUSH2 0x1A68 JUMPI PUSH1 0x40 MLOAD PUSH4 0xA9FBF51F PUSH1 0xE0 SHL DUP2 MSTORE PUSH1 0x1 PUSH1 0x1 PUSH1 0xA0 SHL SUB DUP5 AND PUSH1 0x4 DUP3 ADD MSTORE PUSH1 0x24 ADD PUSH2 0x6DF JUMP JUMPDEST DUP2 ISZERO PUSH2 0x1AB0 JUMPI DUP4 DUP6 PUSH1 0x1 PUSH1 0x1 PUSH1 0xA0 SHL SUB AND DUP3 PUSH1 0x1 PUSH1 0x1 PUSH1 0xA0 SHL SUB AND PUSH32 0x8C5BE1E5EBEC7D5BD14F71427D1E84F3DD0314C0F7B2291E5B200AC8C7C3B925 PUSH1 0x40 MLOAD PUSH1 0x40 MLOAD DUP1 SWAP2 SUB SWAP1 LOG4 JUMPDEST POP JUMPDEST POP POP PUSH1 0x0 SWAP1 DUP2 MSTORE PUSH1 0x4 PUSH1 0x20 MSTORE PUSH1 0x40 SWAP1 KECCAK256 DUP1 SLOAD PUSH1 0x1 PUSH1 0x1 PUSH1 0xA0 SHL SUB NOT AND PUSH1 0x1 PUSH1 0x1 PUSH1 0xA0 SHL SUB SWAP3 SWAP1 SWAP3 AND SWAP2 SWAP1 SWAP2 OR SWAP1 SSTORE JUMP JUMPDEST PUSH2 0x1AED DUP4 DUP4 DUP4 PUSH2 0x1F5B JUMP JUMPDEST PUSH2 0x7A1 JUMPI PUSH1 0x1 PUSH1 0x1 PUSH1 0xA0 SHL SUB DUP4 AND PUSH2 0x1B1B JUMPI PUSH1 0x40 MLOAD PUSH4 0x7E273289 PUSH1 0xE0 SHL DUP2 MSTORE PUSH1 0x4 DUP2 ADD DUP3 SWAP1 MSTORE PUSH1 0x24 ADD PUSH2 0x6DF JUMP JUMPDEST PUSH1 0x40 MLOAD PUSH4 0x177E802F PUSH1 0xE0 SHL DUP2 MSTORE PUSH1 0x1 PUSH1 0x1 PUSH1 0xA0 SHL SUB DUP4 AND PUSH1 0x4 DUP3 ADD MSTORE PUSH1 0x24 DUP2 ADD DUP3 SWAP1 MSTORE PUSH1 0x44 ADD PUSH2 0x6DF JUMP JUMPDEST PUSH2 0x1B50 DUP3 DUP3 PUSH2 0xB20 JUMP JUMPDEST PUSH2 0x6B5 JUMPI PUSH1 0x40 MLOAD PUSH4 0xE2517D3F PUSH1 0xE0 SHL DUP2 MSTORE PUSH1 0x1 PUSH1 0x1 PUSH1 0xA0 SHL SUB DUP3 AND PUSH1 0x4 DUP3 ADD MSTORE PUSH1 0x24 DUP2 ADD DUP4 SWAP1 MSTORE PUSH1 0x44 ADD PUSH2 0x6DF JUMP JUMPDEST PUSH1 0x8 SLOAD PUSH1 0xFF AND PUSH2 0x157D JUMPI PUSH1 0x40 MLOAD PUSH4 0x8DFC202B PUSH1 0xE0 SHL DUP2 MSTORE PUSH1 0x4 ADD PUSH1 0x40 MLOAD DUP1 SWAP2 SUB SWAP1 REVERT JUMPDEST PUSH2 0x1BAC DUP4 DUP4 PUSH2 0x1FBE JUMP JUMPDEST PUSH2 0x7A1 CALLER PUSH1 0x0 DUP6 DUP6 DUP6 PUSH2 0x1724 JUMP JUMPDEST PUSH1 0x60 PUSH1 0xFF DUP4 EQ PUSH2 0x1BD4 JUMPI PUSH2 0x1BCD DUP4 PUSH2 0x2023 JUMP JUMPDEST SWAP1 POP PUSH2 0x5E9 JUMP JUMPDEST DUP2 DUP1 SLOAD PUSH2 0x1BE0 SWAP1 PUSH2 0x2843 JUMP JUMPDEST DUP1 PUSH1 0x1F ADD PUSH1 0x20 DUP1 SWAP2 DIV MUL PUSH1 0x20 ADD PUSH1 0x40 MLOAD SWAP1 DUP2 ADD PUSH1 0x40 MSTORE DUP1 SWAP3 SWAP2 SWAP1 DUP2 DUP2 MSTORE PUSH1 0x20 ADD DUP3 DUP1 SLOAD PUSH2 0x1C0C SWAP1 PUSH2 0x2843 JUMP JUMPDEST DUP1 ISZERO PUSH2 0x1C59 JUMPI DUP1 PUSH1 0x1F LT PUSH2 0x1C2E JUMPI PUSH2 0x100 DUP1 DUP4 SLOAD DIV MUL DUP4 MSTORE SWAP2 PUSH1 0x20 ADD SWAP2 PUSH2 0x1C59 JUMP JUMPDEST DUP3 ADD SWAP2 SWAP1 PUSH1 0x0 MSTORE PUSH1 0x20 PUSH1 0x0 KECCAK256 SWAP1 JUMPDEST DUP2 SLOAD DUP2 MSTORE SWAP1 PUSH1 0x1 ADD SWAP1 PUSH1 0x20 ADD DUP1 DUP4 GT PUSH2 0x1C3C JUMPI DUP3 SWAP1 SUB PUSH1 0x1F AND DUP3 ADD SWAP2 JUMPDEST POP POP POP POP POP SWAP1 POP PUSH2 0x5E9 JUMP JUMPDEST PUSH1 0x60 PUSH2 0x1C70 DUP3 PUSH2 0x1293 JUMP JUMPDEST POP PUSH1 0x0 PUSH2 0x1C88 PUSH1 0x40 DUP1 MLOAD PUSH1 0x20 DUP2 ADD SWAP1 SWAP2 MSTORE PUSH1 0x0 DUP2 MSTORE SWAP1 JUMP JUMPDEST SWAP1 POP PUSH1 0x0 DUP2 MLOAD GT PUSH2 0x1CA8 JUMPI PUSH1 0x40 MLOAD DUP1 PUSH1 0x20 ADD PUSH1 0x40 MSTORE DUP1 PUSH1 0x0 DUP2 MSTORE POP PUSH2 0x1CD3 JUMP JUMPDEST DUP1 PUSH2 0x1CB2 DUP5 PUSH2 0x2062 JUMP JUMPDEST PUSH1 0x40 MLOAD PUSH1 0x20 ADD PUSH2 0x1CC3 SWAP3 SWAP2 SWAP1 PUSH2 0x2AF9 JUMP JUMPDEST PUSH1 0x40 MLOAD PUSH1 0x20 DUP2 DUP4 SUB SUB DUP2 MSTORE SWAP1 PUSH1 0x40 MSTORE JUMPDEST SWAP4 SWAP3 POP POP POP JUMP JUMPDEST PUSH1 0x0 ADDRESS PUSH1 0x1 PUSH1 0x1 PUSH1 0xA0 SHL SUB PUSH32 0x0 AND EQ DUP1 ISZERO PUSH2 0x1D33 JUMPI POP PUSH32 0x0 CHAINID EQ JUMPDEST ISZERO PUSH2 0x1D5D JUMPI POP PUSH32 0x0 SWAP1 JUMP JUMPDEST PUSH2 0x1653 PUSH1 0x40 DUP1 MLOAD PUSH32 0x8B73C3C69BB8FE3D512ECC4CF759CC79239F7B179B0FFACAA9A75D522B39400F PUSH1 0x20 DUP3 ADD MSTORE PUSH32 0x0 SWAP2 DUP2 ADD SWAP2 SWAP1 SWAP2 MSTORE PUSH32 0x0 PUSH1 0x60 DUP3 ADD MSTORE CHAINID PUSH1 0x80 DUP3 ADD MSTORE ADDRESS PUSH1 0xA0 DUP3 ADD MSTORE PUSH1 0x0 SWAP1 PUSH1 0xC0 ADD PUSH1 0x40 MLOAD PUSH1 0x20 DUP2 DUP4 SUB SUB DUP2 MSTORE SWAP1 PUSH1 0x40 MSTORE DUP1 MLOAD SWAP1 PUSH1 0x20 ADD KECCAK256 SWAP1 POP SWAP1 JUMP JUMPDEST PUSH1 0x0 DUP1 PUSH1 0x0 DUP4 MLOAD PUSH1 0x41 SUB PUSH2 0x1E3F JUMPI PUSH1 0x20 DUP5 ADD MLOAD PUSH1 0x40 DUP6 ADD MLOAD PUSH1 0x60 DUP7 ADD MLOAD PUSH1 0x0 BYTE PUSH2 0x1E31 DUP9 DUP3 DUP6 DUP6 PUSH2 0x20F5 JUMP JUMPDEST SWAP6 POP SWAP6 POP SWAP6 POP POP POP POP PUSH2 0x1E4B JUMP JUMPDEST POP POP DUP2 MLOAD PUSH1 0x0 SWAP2 POP PUSH1 0x2 SWAP1 JUMPDEST SWAP3 POP SWAP3 POP SWAP3 JUMP JUMPDEST PUSH1 0x0 DUP3 PUSH1 0x3 DUP2 GT ISZERO PUSH2 0x1E66 JUMPI PUSH2 0x1E66 PUSH2 0x2B28 JUMP JUMPDEST SUB PUSH2 0x1E6F JUMPI POP POP JUMP JUMPDEST PUSH1 0x1 DUP3 PUSH1 0x3 DUP2 GT ISZERO PUSH2 0x1E83 JUMPI PUSH2 0x1E83 PUSH2 0x2B28 JUMP JUMPDEST SUB PUSH2 0x1EA1 JUMPI PUSH1 0x40 MLOAD PUSH4 0xF645EEDF PUSH1 0xE0 SHL DUP2 MSTORE PUSH1 0x4 ADD PUSH1 0x40 MLOAD DUP1 SWAP2 SUB SWAP1 REVERT JUMPDEST PUSH1 0x2 DUP3 PUSH1 0x3 DUP2 GT ISZERO PUSH2 0x1EB5 JUMPI PUSH2 0x1EB5 PUSH2 0x2B28 JUMP JUMPDEST SUB PUSH2 0x1ED6 JUMPI PUSH1 0x40 MLOAD PUSH4 0xFCE698F7 PUSH1 0xE0 SHL DUP2 MSTORE PUSH1 0x4 DUP2 ADD DUP3 SWAP1 MSTORE PUSH1 0x24 ADD PUSH2 0x6DF JUMP JUMPDEST PUSH1 0x3 DUP3 PUSH1 0x3 DUP2 GT ISZERO PUSH2 0x1EEA JUMPI PUSH2 0x1EEA PUSH2 0x2B28 JUMP JUMPDEST SUB PUSH2 0x6B5 JUMPI PUSH1 0x40 MLOAD PUSH4 0x35E2F383 PUSH1 0xE2 SHL DUP2 MSTORE PUSH1 0x4 DUP2 ADD DUP3 SWAP1 MSTORE PUSH1 0x24 ADD PUSH2 0x6DF JUMP JUMPDEST PUSH1 0x0 PUSH1 0x1 PUSH1 0x1 PUSH1 0xE0 SHL SUB NOT DUP3 AND PUSH4 0x80AC58CD PUSH1 0xE0 SHL EQ DUP1 PUSH2 0x1F3C JUMPI POP PUSH1 0x1 PUSH1 0x1 PUSH1 0xE0 SHL SUB NOT DUP3 AND PUSH4 0x5B5E139F PUSH1 0xE0 SHL EQ JUMPDEST DUP1 PUSH2 0x5E9 JUMPI POP PUSH4 0x1FFC9A7 PUSH1 0xE0 SHL PUSH1 0x1 PUSH1 0x1 PUSH1 0xE0 SHL SUB NOT DUP4 AND EQ PUSH2 0x5E9 JUMP JUMPDEST PUSH1 0x0 PUSH1 0x1 PUSH1 0x1 PUSH1 0xA0 SHL SUB DUP4 AND ISZERO DUP1 ISZERO SWAP1 PUSH2 0x1958 JUMPI POP DUP3 PUSH1 0x1 PUSH1 0x1 PUSH1 0xA0 SHL SUB AND DUP5 PUSH1 0x1 PUSH1 0x1 PUSH1 0xA0 SHL SUB AND EQ DUP1 PUSH2 0x1F95 JUMPI POP PUSH2 0x1F95 DUP5 DUP5 PUSH2 0x1240 JUMP JUMPDEST DUP1 PUSH2 0x1958 JUMPI POP POP PUSH1 0x0 SWAP1 DUP2 MSTORE PUSH1 0x4 PUSH1 0x20 MSTORE PUSH1 0x40 SWAP1 KECCAK256 SLOAD PUSH1 0x1 PUSH1 0x1 PUSH1 0xA0 SHL SUB SWAP1 DUP2 AND SWAP2 AND EQ SWAP2 SWAP1 POP JUMP JUMPDEST PUSH1 0x1 PUSH1 0x1 PUSH1 0xA0 SHL SUB DUP3 AND PUSH2 0x1FE8 JUMPI PUSH1 0x40 MLOAD PUSH4 0x32505749 PUSH1 0xE1 SHL DUP2 MSTORE PUSH1 0x0 PUSH1 0x4 DUP3 ADD MSTORE PUSH1 0x24 ADD PUSH2 0x6DF JUMP JUMPDEST PUSH1 0x0 PUSH2 0x1FF6 DUP4 DUP4 PUSH1 0x0 PUSH2 0x12D9 JUMP JUMPDEST SWAP1 POP PUSH1 0x1 PUSH1 0x1 PUSH1 0xA0 SHL SUB DUP2 AND ISZERO PUSH2 0x7A1 JUMPI PUSH1 0x40 MLOAD PUSH4 0x39E35637 PUSH1 0xE1 SHL DUP2 MSTORE PUSH1 0x0 PUSH1 0x4 DUP3 ADD MSTORE PUSH1 0x24 ADD PUSH2 0x6DF JUMP JUMPDEST PUSH1 0x60 PUSH1 0x0 PUSH2 0x2030 DUP4 PUSH2 0x21C4 JUMP JUMPDEST PUSH1 0x40 DUP1 MLOAD PUSH1 0x20 DUP1 DUP3 MSTORE DUP2 DUP4 ADD SWAP1 SWAP3 MSTORE SWAP2 SWAP3 POP PUSH1 0x0 SWAP2 SWAP1 PUSH1 0x20 DUP3 ADD DUP2 DUP1 CALLDATASIZE DUP4 CALLDATACOPY POP POP POP SWAP2 DUP3 MSTORE POP PUSH1 0x20 DUP2 ADD SWAP3 SWAP1 SWAP3 MSTORE POP SWAP1 JUMP JUMPDEST PUSH1 0x60 PUSH1 0x0 PUSH2 0x206F DUP4 PUSH2 0x21EC JUMP JUMPDEST PUSH1 0x1 ADD SWAP1 POP PUSH1 0x0 DUP2 PUSH8 0xFFFFFFFFFFFFFFFF DUP2 GT ISZERO PUSH2 0x208F JUMPI PUSH2 0x208F PUSH2 0x2421 JUMP JUMPDEST PUSH1 0x40 MLOAD SWAP1 DUP1 DUP3 MSTORE DUP1 PUSH1 0x1F ADD PUSH1 0x1F NOT AND PUSH1 0x20 ADD DUP3 ADD PUSH1 0x40 MSTORE DUP1 ISZERO PUSH2 0x20B9 JUMPI PUSH1 0x20 DUP3 ADD DUP2 DUP1 CALLDATASIZE DUP4 CALLDATACOPY ADD SWAP1 POP JUMPDEST POP SWAP1 POP DUP2 DUP2 ADD PUSH1 0x20 ADD JUMPDEST PUSH1 0x0 NOT ADD PUSH16 0x181899199A1A9B1B9C1CB0B131B232B3 PUSH1 0x81 SHL PUSH1 0xA DUP7 MOD BYTE DUP2 MSTORE8 PUSH1 0xA DUP6 DIV SWAP5 POP DUP5 PUSH2 0x20C3 JUMPI POP SWAP4 SWAP3 POP POP POP JUMP JUMPDEST PUSH1 0x0 DUP1 DUP1 PUSH32 0x7FFFFFFFFFFFFFFFFFFFFFFFFFFFFFFF5D576E7357A4501DDFE92F46681B20A0 DUP5 GT ISZERO PUSH2 0x2130 JUMPI POP PUSH1 0x0 SWAP2 POP PUSH1 0x3 SWAP1 POP DUP3 PUSH2 0x21BA JUMP JUMPDEST PUSH1 0x40 DUP1 MLOAD PUSH1 0x0 DUP1 DUP3 MSTORE PUSH1 0x20 DUP3 ADD DUP1 DUP5 MSTORE DUP11 SWAP1 MSTORE PUSH1 0xFF DUP10 AND SWAP3 DUP3 ADD SWAP3 SWAP1 SWAP3 MSTORE PUSH1 0x60 DUP2 ADD DUP8 SWAP1 MSTORE PUSH1 0x80 DUP2 ADD DUP7 SWAP1 MSTORE PUSH1 0x1 SWAP1 PUSH1 0xA0 ADD PUSH1 0x20 PUSH1 0x40 MLOAD PUSH1 0x20 DUP2 SUB SWAP1 DUP1 DUP5 SUB SWAP1 DUP6 GAS STATICCALL ISZERO DUP1 ISZERO PUSH2 0x2184 JUMPI RETURNDATASIZE PUSH1 0x0 DUP1 RETURNDATACOPY RETURNDATASIZE PUSH1 0x0 REVERT JUMPDEST POP POP PUSH1 0x40 MLOAD PUSH1 0x1F NOT ADD MLOAD SWAP2 POP POP PUSH1 0x1 PUSH1 0x1 PUSH1 0xA0 SHL SUB DUP2 AND PUSH2 0x21B0 JUMPI POP PUSH1 0x0 SWAP3 POP PUSH1 0x1 SWAP2 POP DUP3 SWAP1 POP PUSH2 0x21BA JUMP JUMPDEST SWAP3 POP PUSH1 0x0 SWAP2 POP DUP2 SWAP1 POP JUMPDEST SWAP5 POP SWAP5 POP SWAP5 SWAP2 POP POP JUMP JUMPDEST PUSH1 0x0 PUSH1 0xFF DUP3 AND PUSH1 0x1F DUP2 GT ISZERO PUSH2 0x5E9 JUMPI PUSH1 0x40 MLOAD PUSH4 0x2CD44AC3 PUSH1 0xE2 SHL DUP2 MSTORE PUSH1 0x4 ADD PUSH1 0x40 MLOAD DUP1 SWAP2 SUB SWAP1 REVERT JUMPDEST PUSH1 0x0 DUP1 PUSH19 0x184F03E93FF9F4DAA797ED6E38ED64BF6A1F01 PUSH1 0x40 SHL DUP4 LT PUSH2 0x222B JUMPI PUSH19 0x184F03E93FF9F4DAA797ED6E38ED64BF6A1F01 PUSH1 0x40 SHL DUP4 DIV SWAP3 POP PUSH1 0x40 ADD JUMPDEST PUSH14 0x4EE2D6D415B85ACEF8100000000 DUP4 LT PUSH2 0x2257 JUMPI PUSH14 0x4EE2D6D415B85ACEF8100000000 DUP4 DIV SWAP3 POP PUSH1 0x20 ADD JUMPDEST PUSH7 0x2386F26FC10000 DUP4 LT PUSH2 0x2275 JUMPI PUSH7 0x2386F26FC10000 DUP4 DIV SWAP3 POP PUSH1 0x10 ADD JUMPDEST PUSH4 0x5F5E100 DUP4 LT PUSH2 0x228D JUMPI PUSH4 0x5F5E100 DUP4 DIV SWAP3 POP PUSH1 0x8 ADD JUMPDEST PUSH2 0x2710 DUP4 LT PUSH2 0x22A1 JUMPI PUSH2 0x2710 DUP4 DIV SWAP3 POP PUSH1 0x4 ADD JUMPDEST PUSH1 0x64 DUP4 LT PUSH2 0x22B3 JUMPI PUSH1 0x64 DUP4 DIV SWAP3 POP PUSH1 0x2 ADD JUMPDEST PUSH1 0xA DUP4 LT PUSH2 0x5E9 JUMPI PUSH1 0x1 ADD SWAP3 SWAP2 POP POP JUMP JUMPDEST PUSH1 0x1 PUSH1 0x1 PUSH1 0xE0 SHL SUB NOT DUP2 AND DUP2 EQ PUSH2 0x7D8 JUMPI PUSH1 0x0 DUP1 REVERT JUMPDEST PUSH1 0x0 PUSH1 0x20 DUP3 DUP5 SUB SLT ISZERO PUSH2 0x22EC JUMPI PUSH1 0x0 DUP1 REVERT JUMPDEST DUP2 CALLDATALOAD PUSH2 0x1CD3 DUP2 PUSH2 0x22C4 JUMP JUMPDEST PUSH1 0x0 JUMPDEST DUP4 DUP2 LT ISZERO PUSH2 0x2312 JUMPI DUP2 DUP2 ADD MLOAD DUP4 DUP3 ADD MSTORE PUSH1 0x20 ADD PUSH2 0x22FA JUMP JUMPDEST POP POP PUSH1 0x0 SWAP2 ADD MSTORE JUMP JUMPDEST PUSH1 0x0 DUP2 MLOAD DUP1 DUP5 MSTORE PUSH2 0x2333 DUP2 PUSH1 0x20 DUP7 ADD PUSH1 0x20 DUP7 ADD PUSH2 0x22F7 JUMP JUMPDEST PUSH1 0x1F ADD PUSH1 0x1F NOT AND SWAP3 SWAP1 SWAP3 ADD PUSH1 0x20 ADD SWAP3 SWAP2 POP POP JUMP JUMPDEST PUSH1 0x20 DUP2 MSTORE PUSH1 0x0 PUSH2 0x1CD3 PUSH1 0x20 DUP4 ADD DUP5 PUSH2 0x231B JUMP JUMPDEST PUSH1 0x0 PUSH1 0x20 DUP3 DUP5 SUB SLT ISZERO PUSH2 0x236C JUMPI PUSH1 0x0 DUP1 REVERT JUMPDEST POP CALLDATALOAD SWAP2 SWAP1 POP JUMP JUMPDEST DUP1 CALLDATALOAD PUSH1 0x1 PUSH1 0x1 PUSH1 0xA0 SHL SUB DUP2 AND DUP2 EQ PUSH2 0x238A JUMPI PUSH1 0x0 DUP1 REVERT JUMPDEST SWAP2 SWAP1 POP JUMP JUMPDEST PUSH1 0x0 DUP1 PUSH1 0x40 DUP4 DUP6 SUB SLT ISZERO PUSH2 0x23A2 JUMPI PUSH1 0x0 DUP1 REVERT JUMPDEST PUSH2 0x23AB DUP4 PUSH2 0x2373 JUMP JUMPDEST SWAP5 PUSH1 0x20 SWAP4 SWAP1 SWAP4 ADD CALLDATALOAD SWAP4 POP POP POP JUMP JUMPDEST PUSH1 0x0 DUP1 PUSH1 0x0 PUSH1 0x60 DUP5 DUP7 SUB SLT ISZERO PUSH2 0x23CE JUMPI PUSH1 0x0 DUP1 REVERT JUMPDEST PUSH2 0x23D7 DUP5 PUSH2 0x2373 JUMP JUMPDEST SWAP3 POP PUSH2 0x23E5 PUSH1 0x20 DUP6 ADD PUSH2 0x2373 JUMP JUMPDEST SWAP2 POP PUSH1 0x40 DUP5 ADD CALLDATALOAD SWAP1 POP SWAP3 POP SWAP3 POP SWAP3 JUMP JUMPDEST PUSH1 0x0 DUP1 PUSH1 0x40 DUP4 DUP6 SUB SLT ISZERO PUSH2 0x2408 JUMPI PUSH1 0x0 DUP1 REVERT JUMPDEST DUP3 CALLDATALOAD SWAP2 POP PUSH2 0x2418 PUSH1 0x20 DUP5 ADD PUSH2 0x2373 JUMP JUMPDEST SWAP1 POP SWAP3 POP SWAP3 SWAP1 POP JUMP JUMPDEST PUSH4 0x4E487B71 PUSH1 0xE0 SHL PUSH1 0x0 MSTORE PUSH1 0x41 PUSH1 0x4 MSTORE PUSH1 0x24 PUSH1 0x0 REVERT JUMPDEST PUSH1 0x0 DUP3 PUSH1 0x1F DUP4 ADD SLT PUSH2 0x2448 JUMPI PUSH1 0x0 DUP1 REVERT JUMPDEST DUP2 CALLDATALOAD PUSH8 0xFFFFFFFFFFFFFFFF DUP1 DUP3 GT ISZERO PUSH2 0x2463 JUMPI PUSH2 0x2463 PUSH2 0x2421 JUMP JUMPDEST PUSH1 0x40 MLOAD PUSH1 0x1F DUP4 ADD PUSH1 0x1F NOT SWAP1 DUP2 AND PUSH1 0x3F ADD AND DUP2 ADD SWAP1 DUP3 DUP3 GT DUP2 DUP4 LT OR ISZERO PUSH2 0x248B JUMPI PUSH2 0x248B PUSH2 0x2421 JUMP JUMPDEST DUP2 PUSH1 0x40 MSTORE DUP4 DUP2 MSTORE DUP7 PUSH1 0x20 DUP6 DUP9 ADD ADD GT ISZERO PUSH2 0x24A4 JUMPI PUSH1 0x0 DUP1 REVERT JUMPDEST DUP4 PUSH1 0x20 DUP8 ADD PUSH1 0x20 DUP4 ADD CALLDATACOPY PUSH1 0x0 PUSH1 0x20 DUP6 DUP4 ADD ADD MSTORE DUP1 SWAP5 POP POP POP POP POP SWAP3 SWAP2 POP POP JUMP JUMPDEST PUSH1 0x0 DUP1 PUSH1 0x0 DUP1 PUSH1 0x80 DUP6 DUP8 SUB SLT ISZERO PUSH2 0x24DA JUMPI PUSH1 0x0 DUP1 REVERT JUMPDEST PUSH2 0x24E3 DUP6 PUSH2 0x2373 JUMP JUMPDEST SWAP4 POP PUSH1 0x20 DUP6 ADD CALLDATALOAD SWAP3 POP PUSH1 0x40 DUP6 ADD CALLDATALOAD PUSH8 0xFFFFFFFFFFFFFFFF DUP2 GT ISZERO PUSH2 0x2506 JUMPI PUSH1 0x0 DUP1 REVERT JUMPDEST PUSH2 0x2512 DUP8 DUP3 DUP9 ADD PUSH2 0x2437 JUMP JUMPDEST SWAP5 SWAP8 SWAP4 SWAP7 POP SWAP4 SWAP5 PUSH1 0x60 ADD CALLDATALOAD SWAP4 POP POP POP JUMP JUMPDEST PUSH1 0x0 PUSH1 0x20 DUP3 DUP5 SUB SLT ISZERO PUSH2 0x2535 JUMPI PUSH1 0x0 DUP1 REVERT JUMPDEST PUSH2 0x1CD3 DUP3 PUSH2 0x2373 JUMP JUMPDEST PUSH1 0xFF PUSH1 0xF8 SHL DUP9 AND DUP2 MSTORE PUSH1 0x0 PUSH1 0x20 PUSH1 0xE0 DUP2 DUP5 ADD MSTORE PUSH2 0x255E PUSH1 0xE0 DUP5 ADD DUP11 PUSH2 0x231B JUMP JUMPDEST DUP4 DUP2 SUB PUSH1 0x40 DUP6 ADD MSTORE PUSH2 0x2570 DUP2 DUP11 PUSH2 0x231B JUMP JUMPDEST PUSH1 0x60 DUP6 ADD DUP10 SWAP1 MSTORE PUSH1 0x1 PUSH1 0x1 PUSH1 0xA0 SHL SUB DUP9 AND PUSH1 0x80 DUP7 ADD MSTORE PUSH1 0xA0 DUP6 ADD DUP8 SWAP1 MSTORE DUP5 DUP2 SUB PUSH1 0xC0 DUP7 ADD MSTORE DUP6 MLOAD DUP1 DUP3 MSTORE DUP4 DUP8 ADD SWAP3 POP SWAP1 DUP4 ADD SWAP1 PUSH1 0x0 JUMPDEST DUP2 DUP2 LT ISZERO PUSH2 0x25C2 JUMPI DUP4 MLOAD DUP4 MSTORE SWAP3 DUP5 ADD SWAP3 SWAP2 DUP5 ADD SWAP2 PUSH1 0x1 ADD PUSH2 0x25A6 JUMP JUMPDEST POP SWAP1 SWAP13 SWAP12 POP POP POP POP POP POP POP POP POP POP POP POP JUMP JUMPDEST PUSH1 0x0 DUP1 PUSH1 0x40 DUP4 DUP6 SUB SLT ISZERO PUSH2 0x25E7 JUMPI PUSH1 0x0 DUP1 REVERT JUMPDEST PUSH2 0x25F0 DUP4 PUSH2 0x2373 JUMP JUMPDEST SWAP2 POP PUSH1 0x20 DUP4 ADD CALLDATALOAD DUP1 ISZERO ISZERO DUP2 EQ PUSH2 0x2605 JUMPI PUSH1 0x0 DUP1 REVERT JUMPDEST DUP1 SWAP2 POP POP SWAP3 POP SWAP3 SWAP1 POP JUMP JUMPDEST PUSH1 0x0 DUP1 DUP4 PUSH1 0x1F DUP5 ADD SLT PUSH2 0x2622 JUMPI PUSH1 0x0 DUP1 REVERT JUMPDEST POP DUP2 CALLDATALOAD PUSH8 0xFFFFFFFFFFFFFFFF DUP2 GT ISZERO PUSH2 0x263A JUMPI PUSH1 0x0 DUP1 REVERT JUMPDEST PUSH1 0x20 DUP4 ADD SWAP2 POP DUP4 PUSH1 0x20 DUP3 PUSH1 0x5 SHL DUP6 ADD ADD GT ISZERO PUSH2 0x2655 JUMPI PUSH1 0x0 DUP1 REVERT JUMPDEST SWAP3 POP SWAP3 SWAP1 POP JUMP JUMPDEST PUSH1 0x0 DUP1 PUSH1 0x0 DUP1 PUSH1 0x0 DUP1 PUSH1 0x0 PUSH1 0x80 DUP9 DUP11 SUB SLT ISZERO PUSH2 0x2677 JUMPI PUSH1 0x0 DUP1 REVERT JUMPDEST DUP8 CALLDATALOAD PUSH8 0xFFFFFFFFFFFFFFFF DUP1 DUP3 GT ISZERO PUSH2 0x268F JUMPI PUSH1 0x0 DUP1 REVERT JUMPDEST PUSH2 0x269B DUP12 DUP4 DUP13 ADD PUSH2 0x2610 JUMP JUMPDEST SWAP1 SWAP10 POP SWAP8 POP PUSH1 0x20 DUP11 ADD CALLDATALOAD SWAP2 POP DUP1 DUP3 GT ISZERO PUSH2 0x26B4 JUMPI PUSH1 0x0 DUP1 REVERT JUMPDEST PUSH2 0x26C0 DUP12 DUP4 DUP13 ADD PUSH2 0x2610 JUMP JUMPDEST SWAP1 SWAP8 POP SWAP6 POP PUSH1 0x40 DUP11 ADD CALLDATALOAD SWAP2 POP DUP1 DUP3 GT ISZERO PUSH2 0x26D9 JUMPI PUSH1 0x0 DUP1 REVERT JUMPDEST POP PUSH2 0x26E6 DUP11 DUP3 DUP12 ADD PUSH2 0x2610 JUMP JUMPDEST SWAP9 SWAP12 SWAP8 SWAP11 POP SWAP6 SWAP9 SWAP5 SWAP8 SWAP6 SWAP7 PUSH1 0x60 SWAP1 SWAP6 ADD CALLDATALOAD SWAP5 SWAP4 POP POP POP POP JUMP JUMPDEST PUSH1 0x0 DUP1 PUSH1 0x0 DUP1 PUSH1 0x80 DUP6 DUP8 SUB SLT ISZERO PUSH2 0x2715 JUMPI PUSH1 0x0 DUP1 REVERT JUMPDEST PUSH2 0x271E DUP6 PUSH2 0x2373 JUMP JUMPDEST SWAP4 POP PUSH2 0x272C PUSH1 0x20 DUP7 ADD PUSH2 0x2373 JUMP JUMPDEST SWAP3 POP PUSH1 0x40 DUP6 ADD CALLDATALOAD SWAP2 POP PUSH1 0x60 DUP6 ADD CALLDATALOAD PUSH8 0xFFFFFFFFFFFFFFFF DUP2 GT ISZERO PUSH2 0x274F JUMPI PUSH1 0x0 DUP1 REVERT JUMPDEST PUSH2 0x275B DUP8 DUP3 DUP9 ADD PUSH2 0x2437 JUMP JUMPDEST SWAP2 POP POP SWAP3 SWAP6 SWAP2 SWAP5 POP SWAP3 POP JUMP JUMPDEST PUSH1 0x0 DUP1 PUSH1 0x40 DUP4 DUP6 SUB SLT ISZERO PUSH2 0x277A JUMPI PUSH1 0x0 DUP1 REVERT JUMPDEST POP POP DUP1 CALLDATALOAD SWAP3 PUSH1 0x20 SWAP1 SWAP2 ADD CALLDATALOAD SWAP2 POP JUMP JUMPDEST PUSH1 0x0 DUP1 PUSH1 0x0 DUP1 PUSH1 0x0 DUP1 PUSH1 0xC0 DUP8 DUP10 SUB SLT ISZERO PUSH2 0x27A2 JUMPI PUSH1 0x0 DUP1 REVERT JUMPDEST PUSH2 0x27AB DUP8 PUSH2 0x2373 JUMP JUMPDEST SWAP6 POP PUSH1 0x20 DUP8 ADD CALLDATALOAD SWAP5 POP PUSH1 0x40 DUP8 ADD CALLDATALOAD PUSH8 0xFFFFFFFFFFFFFFFF DUP1 DUP3 GT ISZERO PUSH2 0x27CF JUMPI PUSH1 0x0 DUP1 REVERT JUMPDEST PUSH2 0x27DB DUP11 DUP4 DUP12 ADD PUSH2 0x2437 JUMP JUMPDEST SWAP6 POP PUSH1 0x60 DUP10 ADD CALLDATALOAD SWAP5 POP PUSH1 0x80 DUP10 ADD CALLDATALOAD SWAP4 POP PUSH1 0xA0 DUP10 ADD CALLDATALOAD SWAP2 POP DUP1 DUP3 GT ISZERO PUSH2 0x27FF JUMPI PUSH1 0x0 DUP1 REVERT JUMPDEST POP PUSH2 0x280C DUP10 DUP3 DUP11 ADD PUSH2 0x2437 JUMP JUMPDEST SWAP2 POP POP SWAP3 SWAP6 POP SWAP3 SWAP6 POP SWAP3 SWAP6 JUMP JUMPDEST PUSH1 0x0 DUP1 PUSH1 0x40 DUP4 DUP6 SUB SLT ISZERO PUSH2 0x282C JUMPI PUSH1 0x0 DUP1 REVERT JUMPDEST PUSH2 0x2835 DUP4 PUSH2 0x2373 JUMP JUMPDEST SWAP2 POP PUSH2 0x2418 PUSH1 0x20 DUP5 ADD PUSH2 0x2373 JUMP JUMPDEST PUSH1 0x1 DUP2 DUP2 SHR SWAP1 DUP3 AND DUP1 PUSH2 0x2857 JUMPI PUSH1 0x7F DUP3 AND SWAP2 POP JUMPDEST PUSH1 0x20 DUP3 LT DUP2 SUB PUSH2 0x2877 JUMPI PUSH4 0x4E487B71 PUSH1 0xE0 SHL PUSH1 0x0 MSTORE PUSH1 0x22 PUSH1 0x4 MSTORE PUSH1 0x24 PUSH1 0x0 REVERT JUMPDEST POP SWAP2 SWAP1 POP JUMP JUMPDEST PUSH1 0x20 DUP1 DUP3 MSTORE PUSH1 0x12 SWAP1 DUP3 ADD MSTORE PUSH18 0x13585E081CDD5C1C1B1E481C995858DA1959 PUSH1 0x72 SHL PUSH1 0x40 DUP3 ADD MSTORE PUSH1 0x60 ADD SWAP1 JUMP JUMPDEST PUSH1 0x0 PUSH1 0x1 DUP3 ADD PUSH2 0x28C9 JUMPI PUSH4 0x4E487B71 PUSH1 0xE0 SHL PUSH1 0x0 MSTORE PUSH1 0x11 PUSH1 0x4 MSTORE PUSH1 0x24 PUSH1 0x0 REVERT JUMPDEST POP PUSH1 0x1 ADD SWAP1 JUMP JUMPDEST PUSH1 0x80 DUP2 MSTORE PUSH1 0x0 PUSH2 0x28E3 PUSH1 0x80 DUP4 ADD DUP8 PUSH2 0x231B JUMP JUMPDEST PUSH1 0x20 DUP4 ADD SWAP6 SWAP1 SWAP6 MSTORE POP PUSH1 0x40 DUP2 ADD SWAP3 SWAP1 SWAP3 MSTORE PUSH1 0x60 SWAP1 SWAP2 ADD MSTORE SWAP2 SWAP1 POP JUMP JUMPDEST PUSH4 0x4E487B71 PUSH1 0xE0 SHL PUSH1 0x0 MSTORE PUSH1 0x32 PUSH1 0x4 MSTORE PUSH1 0x24 PUSH1 0x0 REVERT JUMPDEST PUSH1 0x0 DUP1 DUP4 CALLDATALOAD PUSH1 0x1E NOT DUP5 CALLDATASIZE SUB ADD DUP2 SLT PUSH2 0x292C JUMPI PUSH1 0x0 DUP1 REVERT JUMPDEST DUP4 ADD DUP1 CALLDATALOAD SWAP2 POP PUSH8 0xFFFFFFFFFFFFFFFF DUP3 GT ISZERO PUSH2 0x2947 JUMPI PUSH1 0x0 DUP1 REVERT JUMPDEST PUSH1 0x20 ADD SWAP2 POP CALLDATASIZE DUP2 SWAP1 SUB DUP3 SGT ISZERO PUSH2 0x2655 JUMPI PUSH1 0x0 DUP1 REVERT JUMPDEST PUSH1 0x80 DUP2 MSTORE DUP5 PUSH1 0x80 DUP3 ADD MSTORE DUP5 DUP7 PUSH1 0xA0 DUP4 ADD CALLDATACOPY PUSH1 0x0 PUSH1 0xA0 DUP7 DUP4 ADD ADD MSTORE PUSH1 0x0 PUSH1 0xA0 PUSH1 0x1F NOT PUSH1 0x1F DUP9 ADD AND DUP4 ADD ADD SWAP1 POP DUP5 PUSH1 0x20 DUP4 ADD MSTORE DUP4 PUSH1 0x40 DUP4 ADD MSTORE DUP3 PUSH1 0x60 DUP4 ADD MSTORE SWAP7 SWAP6 POP POP POP POP POP POP JUMP JUMPDEST PUSH1 0x1F DUP3 GT ISZERO PUSH2 0x7A1 JUMPI PUSH1 0x0 DUP2 DUP2 MSTORE PUSH1 0x20 DUP2 KECCAK256 PUSH1 0x1F DUP6 ADD PUSH1 0x5 SHR DUP2 ADD PUSH1 0x20 DUP7 LT ISZERO PUSH2 0x29CA JUMPI POP DUP1 JUMPDEST PUSH1 0x1F DUP6 ADD PUSH1 0x5 SHR DUP3 ADD SWAP2 POP JUMPDEST DUP2 DUP2 LT ISZERO PUSH2 0x1846 JUMPI DUP3 DUP2 SSTORE PUSH1 0x1 ADD PUSH2 0x29D6 JUMP JUMPDEST DUP2 MLOAD PUSH8 0xFFFFFFFFFFFFFFFF DUP2 GT ISZERO PUSH2 0x2A03 JUMPI PUSH2 0x2A03 PUSH2 0x2421 JUMP JUMPDEST PUSH2 0x2A17 DUP2 PUSH2 0x2A11 DUP5 SLOAD PUSH2 0x2843 JUMP JUMPDEST DUP5 PUSH2 0x29A3 JUMP JUMPDEST PUSH1 0x20 DUP1 PUSH1 0x1F DUP4 GT PUSH1 0x1 DUP2 EQ PUSH2 0x2A4C JUMPI PUSH1 0x0 DUP5 ISZERO PUSH2 0x2A34 JUMPI POP DUP6 DUP4 ADD MLOAD JUMPDEST PUSH1 0x0 NOT PUSH1 0x3 DUP7 SWAP1 SHL SHR NOT AND PUSH1 0x1 DUP6 SWAP1 SHL OR DUP6 SSTORE PUSH2 0x1846 JUMP JUMPDEST PUSH1 0x0 DUP6 DUP2 MSTORE PUSH1 0x20 DUP2 KECCAK256 PUSH1 0x1F NOT DUP7 AND SWAP2 JUMPDEST DUP3 DUP2 LT ISZERO PUSH2 0x2A7B JUMPI DUP9 DUP7 ADD MLOAD DUP3 SSTORE SWAP5 DUP5 ADD SWAP5 PUSH1 0x1 SWAP1 SWAP2 ADD SWAP1 DUP5 ADD PUSH2 0x2A5C JUMP JUMPDEST POP DUP6 DUP3 LT ISZERO PUSH2 0x2A99 JUMPI DUP8 DUP6 ADD MLOAD PUSH1 0x0 NOT PUSH1 0x3 DUP9 SWAP1 SHL PUSH1 0xF8 AND SHR NOT AND DUP2 SSTORE JUMPDEST POP POP POP POP POP PUSH1 0x1 SWAP1 DUP2 SHL ADD SWAP1 SSTORE POP JUMP JUMPDEST PUSH1 0x1 PUSH1 0x1 PUSH1 0xA0 SHL SUB DUP6 DUP2 AND DUP3 MSTORE DUP5 AND PUSH1 0x20 DUP3 ADD MSTORE PUSH1 0x40 DUP2 ADD DUP4 SWAP1 MSTORE PUSH1 0x80 PUSH1 0x60 DUP3 ADD DUP2 SWAP1 MSTORE PUSH1 0x0 SWAP1 PUSH2 0x1236 SWAP1 DUP4 ADD DUP5 PUSH2 0x231B JUMP JUMPDEST PUSH1 0x0 PUSH1 0x20 DUP3 DUP5 SUB SLT ISZERO PUSH2 0x2AEE JUMPI PUSH1 0x0 DUP1 REVERT JUMPDEST DUP2 MLOAD PUSH2 0x1CD3 DUP2 PUSH2 0x22C4 JUMP JUMPDEST PUSH1 0x0 DUP4 MLOAD PUSH2 0x2B0B DUP2 DUP5 PUSH1 0x20 DUP9 ADD PUSH2 0x22F7 JUMP JUMPDEST DUP4 MLOAD SWAP1 DUP4 ADD SWAP1 PUSH2 0x2B1F DUP2 DUP4 PUSH1 0x20 DUP9 ADD PUSH2 0x22F7 JUMP JUMPDEST ADD SWAP5 SWAP4 POP POP POP POP JUMP JUMPDEST PUSH4 0x4E487B71 PUSH1 0xE0 SHL PUSH1 0x0 MSTORE PUSH1 0x21 PUSH1 0x4 MSTORE PUSH1 0x24 PUSH1 0x0 REVERT INVALID SWAP16 0x2D CREATE INVALID 0xD2 0xC7 PUSH23 0x48DE5860A4CC508CD0818C85B8B8A1AB4CEEEF8D981C89 JUMP 0xA6 LOG2 PUSH5 0x6970667358 0x22 SLT KECCAK256 EXTCODEHASH 0xCC 0xCF 0xE3 0xD3 0xA7 0xE2 0xC3 0xBB 0x26 SWAP3 0xD0 MLOAD 0xB4 RETURNDATASIZE 0xD0 0x26 0x1F 0xF 0x2A NUMBER 0xB5 LT PUSH15 0x88F2D5F8B4A86F8F64736F6C634300 ADDMOD EQ STOP CALLER "},"methodIdentifiers":{"DEFAULT_ADMIN_ROLE()":"a217fddf","MINTER_ROLE()":"d5391393","MINT_PERMIT_TYPEHASH()":"8cfcae21","PAUSER_ROLE()":"e63ab1e9","approve(address,uint256)":"095ea7b3","balanceOf(address)":"70a08231","batchMint(address[],bytes32[],string[],uint256)":"b8300781","collectibleType(uint256)":"b85988f0","currentSupply(bytes32)":"c37a044c","eip712Domain()":"84b0196e","getApproved(uint256)":"081812fc","getRoleAdmin(bytes32)":"248a9ca3","getTokenMetadata(uint256)":"60316801","grantRole(bytes32,address)":"2f2ff15d","hasRole(bytes32,address)":"91d14854","isApprovedForAll(address,address)":"e985e9c5","issuedAt(uint256)":"9f37e2fd","maxSupply(bytes32)":"db764104","mint(address,bytes32,string,uint256)":"45b510b6","mintWithPermit(address,bytes32,string,uint256,uint256,bytes)":"e8613de3","name()":"06fdde03","nonces(address)":"7ecebe00","ownerOf(uint256)":"6352211e","pause()":"8456cb59","paused()":"5c975abb","renounceRole(bytes32,address)":"36568abe","revokeRole(bytes32,address)":"d547741f","safeTransferFrom(address,address,uint256)":"42842e0e","safeTransferFrom(address,address,uint256,bytes)":"b88d4fde","serialNumber(uint256)":"befb69d0","series(uint256)":"dc22cb6a","setApprovalForAll(address,bool)":"a22cb465","setMaxSupply(bytes32,uint256)":"d88ef6b9","supportsInterface(bytes4)":"01ffc9a7","symbol()":"95d89b41","tokenURI(uint256)":"c87b56dd","transferFrom(address,address,uint256)":"23b872dd","unpause()":"3f4ba83a"}}}}}