{
  "_format": "hh-sol-artifact-1",
  "contractName": "SDCToken",
  "sourceName": "contracts/SDCToken.sol",
  "abi": [
    {
      "inputs": [
        {
          "internalType": "address",
          "name": "admin",
          "type": "address"
        },
        {
          "internalType": "address",
          "name": "minter",
          "type": "address"
        },
        {
          "internalType": "uint256",
          "name": "initialSupply",
          "type": "uint256"
        },
        {
          "internalType": "uint256",
          "name": "_maxSupply",
          "type": "uint256"
        }
      ],
      "stateMutability": "nonpayable",
      "type": "constructor"
    },
    {
      "inputs": [],
      "name": "AccessControlBadConfirmation",
      "type": "error"
    },
    {
      "inputs": [
        {
          "internalType": "address",
          "name": "account",
          "type": "address"
        },
        {
          "internalType": "bytes32",
          "name": "neededRole",
          "type": "bytes32"
        }
      ],
      "name": "AccessControlUnauthorizedAccount",
      "type": "error"
    },
    {
      "inputs": [],
      "name": "ECDSAInvalidSignature",
      "type": "error"
    },
    {
      "inputs": [
        {
          "internalType": "uint256",
          "name": "length",
          "type": "uint256"
        }
      ],
      "name": "ECDSAInvalidSignatureLength",
      "type": "error"
    },
    {
      "inputs": [
        {
          "internalType": "bytes32",
          "name": "s",
          "type": "bytes32"
        }
      ],
      "name": "ECDSAInvalidSignatureS",
      "type": "error"
    },
    {
      "inputs": [
        {
          "internalType": "address",
          "name": "spender",
          "type": "address"
        },
        {
          "internalType": "uint256",
          "name": "allowance",
          "type": "uint256"
        },
        {
          "internalType": "uint256",
          "name": "needed",
          "type": "uint256"
        }
      ],
      "name": "ERC20InsufficientAllowance",
      "type": "error"
    },
    {
      "inputs": [
        {
          "internalType": "address",
          "name": "sender",
          "type": "address"
        },
        {
          "internalType": "uint256",
          "name": "balance",
          "type": "uint256"
        },
        {
          "internalType": "uint256",
          "name": "needed",
          "type": "uint256"
        }
      ],
      "name": "ERC20InsufficientBalance",
      "type": "error"
    },
    {
      "inputs": [
        {
          "internalType": "address",
          "name": "approver",
          "type": "address"
        }
      ],
      "name": "ERC20InvalidApprover",
      "type": "error"
    },
    {
      "inputs": [
        {
          "internalType": "address",
          "name": "receiver",
          "type": "address"
        }
      ],
      "name": "ERC20InvalidReceiver",
      "type": "error"
    },
    {
      "inputs": [
        {
          "internalType": "address",
          "name": "sender",
          "type": "address"
        }
      ],
      "name": "ERC20InvalidSender",
      "type": "error"
    },
    {
      "inputs": [
        {
          "internalType": "address",
          "name": "spender",
          "type": "address"
        }
      ],
      "name": "ERC20InvalidSpender",
      "type": "error"
    },
    {
      "inputs": [
        {
          "internalType": "uint256",
          "name": "deadline",
          "type": "uint256"
        }
      ],
      "name": "ERC2612ExpiredSignature",
      "type": "error"
    },
    {
      "inputs": [
        {
          "internalType": "address",
          "name": "signer",
          "type": "address"
        },
        {
          "internalType": "address",
          "name": "owner",
          "type": "address"
        }
      ],
      "name": "ERC2612InvalidSigner",
      "type": "error"
    },
    {
      "inputs": [],
      "name": "EnforcedPause",
      "type": "error"
    },
    {
      "inputs": [],
      "name": "ExpectedPause",
      "type": "error"
    },
    {
      "inputs": [
        {
          "internalType": "address",
          "name": "account",
          "type": "address"
        },
        {
          "internalType": "uint256",
          "name": "currentNonce",
          "type": "uint256"
        }
      ],
      "name": "InvalidAccountNonce",
      "type": "error"
    },
    {
      "inputs": [],
      "name": "InvalidShortString",
      "type": "error"
    },
    {
      "inputs": [],
      "name": "ReentrancyGuardReentrantCall",
      "type": "error"
    },
    {
      "inputs": [
        {
          "internalType": "string",
          "name": "str",
          "type": "string"
        }
      ],
      "name": "StringTooLong",
      "type": "error"
    },
    {
      "anonymous": false,
      "inputs": [
        {
          "indexed": true,
          "internalType": "address",
          "name": "owner",
          "type": "address"
        },
        {
          "indexed": true,
          "internalType": "address",
          "name": "spender",
          "type": "address"
        },
        {
          "indexed": false,
          "internalType": "uint256",
          "name": "value",
          "type": "uint256"
        }
      ],
      "name": "Approval",
      "type": "event"
    },
    {
      "anonymous": false,
      "inputs": [],
      "name": "EIP712DomainChanged",
      "type": "event"
    },
    {
      "anonymous": false,
      "inputs": [
        {
          "indexed": false,
          "internalType": "uint256",
          "name": "oldMaxSupply",
          "type": "uint256"
        },
        {
          "indexed": false,
          "internalType": "uint256",
          "name": "newMaxSupply",
          "type": "uint256"
        }
      ],
      "name": "MaxSupplyUpdated",
      "type": "event"
    },
    {
      "anonymous": false,
      "inputs": [
        {
          "indexed": false,
          "internalType": "address",
          "name": "account",
          "type": "address"
        }
      ],
      "name": "Paused",
      "type": "event"
    },
    {
      "anonymous": false,
      "inputs": [
        {
          "indexed": true,
          "internalType": "address",
          "name": "recipient",
          "type": "address"
        },
        {
          "indexed": false,
          "internalType": "uint256",
          "name": "amount",
          "type": "uint256"
        },
        {
          "indexed": false,
          "internalType": "string",
          "name": "rewardType",
          "type": "string"
        },
        {
          "indexed": true,
          "internalType": "bytes32",
          "name": "referenceId",
          "type": "bytes32"
        },
        {
          "indexed": false,
          "internalType": "uint256",
          "name": "timestamp",
          "type": "uint256"
        }
      ],
      "name": "RewardDistributed",
      "type": "event"
    },
    {
      "anonymous": false,
      "inputs": [
        {
          "indexed": true,
          "internalType": "bytes32",
          "name": "role",
          "type": "bytes32"
        },
        {
          "indexed": true,
          "internalType": "bytes32",
          "name": "previousAdminRole",
          "type": "bytes32"
        },
        {
          "indexed": true,
          "internalType": "bytes32",
          "name": "newAdminRole",
          "type": "bytes32"
        }
      ],
      "name": "RoleAdminChanged",
      "type": "event"
    },
    {
      "anonymous": false,
      "inputs": [
        {
          "indexed": true,
          "internalType": "bytes32",
          "name": "role",
          "type": "bytes32"
        },
        {
          "indexed": true,
          "internalType": "address",
          "name": "account",
          "type": "address"
        },
        {
          "indexed": true,
          "internalType": "address",
          "name": "sender",
          "type": "address"
        }
      ],
      "name": "RoleGranted",
      "type": "event"
    },
    {
      "anonymous": false,
      "inputs": [
        {
          "indexed": true,
          "internalType": "bytes32",
          "name": "role",
          "type": "bytes32"
        },
        {
          "indexed": true,
          "internalType": "address",
          "name": "account",
          "type": "address"
        },
        {
          "indexed": true,
          "internalType": "address",
          "name": "sender",
          "type": "address"
        }
      ],
      "name": "RoleRevoked",
      "type": "event"
    },
    {
      "anonymous": false,
      "inputs": [
        {
          "indexed": true,
          "internalType": "address",
          "name": "from",
          "type": "address"
        },
        {
          "indexed": false,
          "internalType": "uint256",
          "name": "amount",
          "type": "uint256"
        },
        {
          "indexed": false,
          "internalType": "uint256",
          "name": "timestamp",
          "type": "uint256"
        }
      ],
      "name": "TokensBurned",
      "type": "event"
    },
    {
      "anonymous": false,
      "inputs": [
        {
          "indexed": true,
          "internalType": "address",
          "name": "to",
          "type": "address"
        },
        {
          "indexed": false,
          "internalType": "uint256",
          "name": "amount",
          "type": "uint256"
        },
        {
          "indexed": false,
          "internalType": "string",
          "name": "reason",
          "type": "string"
        },
        {
          "indexed": false,
          "internalType": "uint256",
          "name": "timestamp",
          "type": "uint256"
        }
      ],
      "name": "TokensMinted",
      "type": "event"
    },
    {
      "anonymous": false,
      "inputs": [
        {
          "indexed": true,
          "internalType": "address",
          "name": "from",
          "type": "address"
        },
        {
          "indexed": true,
          "internalType": "address",
          "name": "to",
          "type": "address"
        },
        {
          "indexed": false,
          "internalType": "uint256",
          "name": "value",
          "type": "uint256"
        }
      ],
      "name": "Transfer",
      "type": "event"
    },
    {
      "anonymous": false,
      "inputs": [
        {
          "indexed": false,
          "internalType": "address",
          "name": "account",
          "type": "address"
        }
      ],
      "name": "Unpaused",
      "type": "event"
    },
    {
      "inputs": [],
      "name": "ATTENDANCE_REWARD",
      "outputs": [
        {
          "internalType": "uint256",
          "name": "",
          "type": "uint256"
        }
      ],
      "stateMutability": "view",
      "type": "function"
    },
    {
      "inputs": [],
      "name": "BADGE_EARNED_REWARD",
      "outputs": [
        {
          "internalType": "uint256",
          "name": "",
          "type": "uint256"
        }
      ],
      "stateMutability": "view",
      "type": "function"
    },
    {
      "inputs": [],
      "name": "DEFAULT_ADMIN_ROLE",
      "outputs": [
        {
          "internalType": "bytes32",
          "name": "",
          "type": "bytes32"
        }
      ],
      "stateMutability": "view",
      "type": "function"
    },
    {
      "inputs": [],
      "name": "DOMAIN_SEPARATOR",
      "outputs": [
        {
          "internalType": "bytes32",
          "name": "",
          "type": "bytes32"
        }
      ],
      "stateMutability": "view",
      "type": "function"
    },
    {
      "inputs": [],
      "name": "MINTER_ROLE",
      "outputs": [
        {
          "internalType": "bytes32",
          "name": "",
          "type": "bytes32"
        }
      ],
      "stateMutability": "view",
      "type": "function"
    },
    {
      "inputs": [],
      "name": "PAUSER_ROLE",
      "outputs": [
        {
          "internalType": "bytes32",
          "name": "",
          "type": "bytes32"
        }
      ],
      "stateMutability": "view",
      "type": "function"
    },
    {
      "inputs": [],
      "name": "REFERRAL_REWARD",
      "outputs": [
        {
          "internalType": "uint256",
          "name": "",
          "type": "uint256"
        }
      ],
      "stateMutability": "view",
      "type": "function"
    },
    {
      "inputs": [],
      "name": "RSVP_REWARD",
      "outputs": [
        {
          "internalType": "uint256",
          "name": "",
          "type": "uint256"
        }
      ],
      "stateMutability": "view",
      "type": "function"
    },
    {
      "inputs": [
        {
          "internalType": "address",
          "name": "owner",
          "type": "address"
        },
        {
          "internalType": "address",
          "name": "spender",
          "type": "address"
        }
      ],
      "name": "allowance",
      "outputs": [
        {
          "internalType": "uint256",
          "name": "",
          "type": "uint256"
        }
      ],
      "stateMutability": "view",
      "type": "function"
    },
    {
      "inputs": [
        {
          "internalType": "address",
          "name": "spender",
          "type": "address"
        },
        {
          "internalType": "uint256",
          "name": "value",
          "type": "uint256"
        }
      ],
      "name": "approve",
      "outputs": [
        {
          "internalType": "bool",
          "name": "",
          "type": "bool"
        }
      ],
      "stateMutability": "nonpayable",
      "type": "function"
    },
    {
      "inputs": [
        {
          "internalType": "address",
          "name": "account",
          "type": "address"
        }
      ],
      "name": "balanceOf",
      "outputs": [
        {
          "internalType": "uint256",
          "name": "",
          "type": "uint256"
        }
      ],
      "stateMutability": "view",
      "type": "function"
    },
    {
      "inputs": [
        {
          "internalType": "address[]",
          "name": "recipients",
          "type": "address[]"
        },
        {
          "internalType": "uint256[]",
          "name": "amounts",
          "type": "uint256[]"
        },
        {
          "internalType": "string",
          "name": "rewardType",
          "type": "string"
        },
        {
          "internalType": "bytes32",
          "name": "referenceId",
          "type": "bytes32"
        }
      ],
      "name": "batchDistributeReward",
      "outputs": [],
      "stateMutability": "nonpayable",
      "type": "function"
    },
    {
      "inputs": [
        {
          "internalType": "uint256",
          "name": "amount",
          "type": "uint256"
        }
      ],
      "name": "burn",
      "outputs": [],
      "stateMutability": "nonpayable",
      "type": "function"
    },
    {
      "inputs": [
        {
          "internalType": "address",
          "name": "account",
          "type": "address"
        },
        {
          "internalType": "uint256",
          "name": "amount",
          "type": "uint256"
        }
      ],
      "name": "burnFrom",
      "outputs": [],
      "stateMutability": "nonpayable",
      "type": "function"
    },
    {
      "inputs": [],
      "name": "decimals",
      "outputs": [
        {
          "internalType": "uint8",
          "name": "",
          "type": "uint8"
        }
      ],
      "stateMutability": "pure",
      "type": "function"
    },
    {
      "inputs": [
        {
          "internalType": "address",
          "name": "recipient",
          "type": "address"
        },
        {
          "internalType": "uint256",
          "name": "amount",
          "type": "uint256"
        },
        {
          "internalType": "string",
          "name": "rewardType",
          "type": "string"
        },
        {
          "internalType": "bytes32",
          "name": "referenceId",
          "type": "bytes32"
        }
      ],
      "name": "distributeReward",
      "outputs": [],
      "stateMutability": "nonpayable",
      "type": "function"
    },
    {
      "inputs": [],
      "name": "eip712Domain",
      "outputs": [
        {
          "internalType": "bytes1",
          "name": "fields",
          "type": "bytes1"
        },
        {
          "internalType": "string",
          "name": "name",
          "type": "string"
        },
        {
          "internalType": "string",
          "name": "version",
          "type": "string"
        },
        {
          "internalType": "uint256",
          "name": "chainId",
          "type": "uint256"
        },
        {
          "internalType": "address",
          "name": "verifyingContract",
          "type": "address"
        },
        {
          "internalType": "bytes32",
          "name": "salt",
          "type": "bytes32"
        },
        {
          "internalType": "uint256[]",
          "name": "extensions",
          "type": "uint256[]"
        }
      ],
      "stateMutability": "view",
      "type": "function"
    },
    {
      "inputs": [
        {
          "internalType": "bytes32",
          "name": "role",
          "type": "bytes32"
        }
      ],
      "name": "getRoleAdmin",
      "outputs": [
        {
          "internalType": "bytes32",
          "name": "",
          "type": "bytes32"
        }
      ],
      "stateMutability": "view",
      "type": "function"
    },
    {
      "inputs": [],
      "name": "getSupplyStats",
      "outputs": [
        {
          "internalType": "uint256",
          "name": "current",
          "type": "uint256"
        },
        {
          "internalType": "uint256",
          "name": "minted",
          "type": "uint256"
        },
        {
          "internalType": "uint256",
          "name": "burned",
          "type": "uint256"
        },
        {
          "internalType": "uint256",
          "name": "max",
          "type": "uint256"
        }
      ],
      "stateMutability": "view",
      "type": "function"
    },
    {
      "inputs": [
        {
          "internalType": "address",
          "name": "user",
          "type": "address"
        }
      ],
      "name": "getUserStats",
      "outputs": [
        {
          "internalType": "uint256",
          "name": "balance",
          "type": "uint256"
        },
        {
          "internalType": "uint256",
          "name": "rewards",
          "type": "uint256"
        },
        {
          "internalType": "uint256",
          "name": "count",
          "type": "uint256"
        }
      ],
      "stateMutability": "view",
      "type": "function"
    },
    {
      "inputs": [
        {
          "internalType": "bytes32",
          "name": "role",
          "type": "bytes32"
        },
        {
          "internalType": "address",
          "name": "account",
          "type": "address"
        }
      ],
      "name": "grantRole",
      "outputs": [],
      "stateMutability": "nonpayable",
      "type": "function"
    },
    {
      "inputs": [
        {
          "internalType": "bytes32",
          "name": "role",
          "type": "bytes32"
        },
        {
          "internalType": "address",
          "name": "account",
          "type": "address"
        }
      ],
      "name": "hasRole",
      "outputs": [
        {
          "internalType": "bool",
          "name": "",
          "type": "bool"
        }
      ],
      "stateMutability": "view",
      "type": "function"
    },
    {
      "inputs": [],
      "name": "maxSupply",
      "outputs": [
        {
          "internalType": "uint256",
          "name": "",
          "type": "uint256"
        }
      ],
      "stateMutability": "view",
      "type": "function"
    },
    {
      "inputs": [
        {
          "internalType": "address",
          "name": "to",
          "type": "address"
        },
        {
          "internalType": "uint256",
          "name": "amount",
          "type": "uint256"
        },
        {
          "internalType": "string",
          "name": "reason",
          "type": "string"
        }
      ],
      "name": "mint",
      "outputs": [],
      "stateMutability": "nonpayable",
      "type": "function"
    },
    {
      "inputs": [],
      "name": "name",
      "outputs": [
        {
          "internalType": "string",
          "name": "",
          "type": "string"
        }
      ],
      "stateMutability": "view",
      "type": "function"
    },
    {
      "inputs": [
        {
          "internalType": "address",
          "name": "owner",
          "type": "address"
        }
      ],
      "name": "nonces",
      "outputs": [
        {
          "internalType": "uint256",
          "name": "",
          "type": "uint256"
        }
      ],
      "stateMutability": "view",
      "type": "function"
    },
    {
      "inputs": [],
      "name": "pause",
      "outputs": [],
      "stateMutability": "nonpayable",
      "type": "function"
    },
    {
      "inputs": [],
      "name": "paused",
      "outputs": [
        {
          "internalType": "bool",
          "name": "",
          "type": "bool"
        }
      ],
      "stateMutability": "view",
      "type": "function"
    },
    {
      "inputs": [
        {
          "internalType": "address",
          "name": "owner",
          "type": "address"
        },
        {
          "internalType": "address",
          "name": "spender",
          "type": "address"
        },
        {
          "internalType": "uint256",
          "name": "value",
          "type": "uint256"
        },
        {
          "internalType": "uint256",
          "name": "deadline",
          "type": "uint256"
        },
        {
          "internalType": "uint8",
          "name": "v",
          "type": "uint8"
        },
        {
          "internalType": "bytes32",
          "name": "r",
          "type": "bytes32"
        },
        {
          "internalType": "bytes32",
          "name": "s",
          "type": "bytes32"
        }
      ],
      "name": "permit",
      "outputs": [],
      "stateMutability": "nonpayable",
      "type": "function"
    },
    {
      "inputs": [],
      "name": "remainingMintable",
      "outputs": [
        {
          "internalType": "uint256",
          "name": "",
          "type": "uint256"
        }
      ],
      "stateMutability": "view",
      "type": "function"
    },
    {
      "inputs": [
        {
          "internalType": "bytes32",
          "name": "role",
          "type": "bytes32"
        },
        {
          "internalType": "address",
          "name": "callerConfirmation",
          "type": "address"
        }
      ],
      "name": "renounceRole",
      "outputs": [],
      "stateMutability": "nonpayable",
      "type": "function"
    },
    {
      "inputs": [
        {
          "internalType": "bytes32",
          "name": "role",
          "type": "bytes32"
        },
        {
          "internalType": "address",
          "name": "account",
          "type": "address"
        }
      ],
      "name": "revokeRole",
      "outputs": [],
      "stateMutability": "nonpayable",
      "type": "function"
    },
    {
      "inputs": [
        {
          "internalType": "address",
          "name": "",
          "type": "address"
        }
      ],
      "name": "rewardCount",
      "outputs": [
        {
          "internalType": "uint256",
          "name": "",
          "type": "uint256"
        }
      ],
      "stateMutability": "view",
      "type": "function"
    },
    {
      "inputs": [
        {
          "internalType": "uint256",
          "name": "newMaxSupply",
          "type": "uint256"
        }
      ],
      "name": "setMaxSupply",
      "outputs": [],
      "stateMutability": "nonpayable",
      "type": "function"
    },
    {
      "inputs": [
        {
          "internalType": "bytes4",
          "name": "interfaceId",
          "type": "bytes4"
        }
      ],
      "name": "supportsInterface",
      "outputs": [
        {
          "internalType": "bool",
          "name": "",
          "type": "bool"
        }
      ],
      "stateMutability": "view",
      "type": "function"
    },
    {
      "inputs": [],
      "name": "symbol",
      "outputs": [
        {
          "internalType": "string",
          "name": "",
          "type": "string"
        }
      ],
      "stateMutability": "view",
      "type": "function"
    },
    {
      "inputs": [],
      "name": "totalBurned",
      "outputs": [
        {
          "internalType": "uint256",
          "name": "",
          "type": "uint256"
        }
      ],
      "stateMutability": "view",
      "type": "function"
    },
    {
      "inputs": [],
      "name": "totalMinted",
      "outputs": [
        {
          "internalType": "uint256",
          "name": "",
          "type": "uint256"
        }
      ],
      "stateMutability": "view",
      "type": "function"
    },
    {
      "inputs": [
        {
          "internalType": "address",
          "name": "",
          "type": "address"
        }
      ],
      "name": "totalRewardsEarned",
      "outputs": [
        {
          "internalType": "uint256",
          "name": "",
          "type": "uint256"
        }
      ],
      "stateMutability": "view",
      "type": "function"
    },
    {
      "inputs": [],
      "name": "totalSupply",
      "outputs": [
        {
          "internalType": "uint256",
          "name": "",
          "type": "uint256"
        }
      ],
      "stateMutability": "view",
      "type": "function"
    },
    {
      "inputs": [
        {
          "internalType": "address",
          "name": "to",
          "type": "address"
        },
        {
          "internalType": "uint256",
          "name": "value",
          "type": "uint256"
        }
      ],
      "name": "transfer",
      "outputs": [
        {
          "internalType": "bool",
          "name": "",
          "type": "bool"
        }
      ],
      "stateMutability": "nonpayable",
      "type": "function"
    },
    {
      "inputs": [
        {
          "internalType": "address",
          "name": "from",
          "type": "address"
        },
        {
          "internalType": "address",
          "name": "to",
          "type": "address"
        },
        {
          "internalType": "uint256",
          "name": "value",
          "type": "uint256"
        }
      ],
      "name": "transferFrom",
      "outputs": [
        {
          "internalType": "bool",
          "name": "",
          "type": "bool"
        }
      ],
      "stateMutability": "nonpayable",
      "type": "function"
    },
    {
      "inputs": [],
      "name": "unpause",
      "outputs": [],
      "stateMutability": "nonpayable",
      "type": "function"
    }
  ],
  "bytecode": "0x6101606040523480156200001257600080fd5b5060405162002f7938038062002f798339810160408190526200003591620006d5565b6040518060400160405280601181526020017029bab72232bb34b629bcb7319021b7b4b760791b81525080604051806040016040528060018152602001603160f81b8152506040518060400160405280601181526020017029bab72232bb34b629bcb7319021b7b4b760791b8152506040518060400160405280600381526020016253444360e81b8152508160039081620000d19190620007c1565b506004620000e08282620007c1565b50620000f291508390506005620003d6565b6101205262000103816006620003d6565b61014052815160208084019190912060e052815190820120610100524660a0526200019160e05161010051604080517f8b73c3c69bb8fe3d512ecc4cf759cc79239f7b179b0ffacaa9a75d522b39400f60208201529081019290925260608201524660808201523060a082015260009060c00160405160208183030381529060405280519060200120905090565b60805250503060c052506001600a556001600160a01b038416620001fc5760405162461bcd60e51b815260206004820152601560248201527f496e76616c69642061646d696e2061646472657373000000000000000000000060448201526064015b60405180910390fd5b620002096000856200040f565b506200022560008051602062002f59833981519152856200040f565b50620002527f65d7a28e3265b37a6474929f336521b332c1681b933f6cb9f3376673440d862a856200040f565b506001600160a01b038316158015906200027e5750836001600160a01b0316836001600160a01b031614155b15620002a1576200029f60008051602062002f59833981519152846200040f565b505b620002af6012600a620009a0565b620002bb9082620009b8565b600d558115620003cc576000620002d56012600a620009a0565b620002e19084620009b8565b9050600d5460001480620002f75750600d548111155b6200034f5760405162461bcd60e51b815260206004820152602160248201527f496e697469616c20737570706c792065786365656473206d617820737570706c6044820152607960f81b6064820152608401620001f3565b6200035b8582620004c1565b600b81905560408051828152606060208201819052600e908201526d496e697469616c20737570706c7960901b6080820152428183015290516001600160a01b038716917f04133ee4cb027e1c5fce5e3481289278a93bd16a65a3b65b428a6d239e706bfb919081900360a00190a2505b5050505062000a5d565b6000602083511015620003f657620003ee83620004ff565b905062000409565b81620004038482620007c1565b5060ff90505b92915050565b60008281526008602090815260408083206001600160a01b038516845290915281205460ff16620004b85760008381526008602090815260408083206001600160a01b03861684529091529020805460ff191660011790556200046f3390565b6001600160a01b0316826001600160a01b0316847f2f8788117e7eff1d82e926ec794901d17c78024a50270940304540a733656f0d60405160405180910390a450600162000409565b50600062000409565b6001600160a01b038216620004ed5760405163ec442f0560e01b815260006004820152602401620001f3565b620004fb6000838362000542565b5050565b600080829050601f815111156200052d578260405163305a27a960e01b8152600401620001f39190620009d2565b80516200053a8262000a22565b179392505050565b6200054c6200055e565b6200055983838362000585565b505050565b60095460ff1615620005835760405163d93c066560e01b815260040160405180910390fd5b565b6001600160a01b038316620005b4578060026000828254620005a8919062000a47565b90915550620006289050565b6001600160a01b03831660009081526020819052604090205481811015620006095760405163391434e360e21b81526001600160a01b03851660048201526024810182905260448101839052606401620001f3565b6001600160a01b03841660009081526020819052604090209082900390555b6001600160a01b038216620006465760028054829003905562000665565b6001600160a01b03821660009081526020819052604090208054820190555b816001600160a01b0316836001600160a01b03167fddf252ad1be2c89b69c2b068fc378daa952ba7f163c4a11628f55a4df523b3ef83604051620006ab91815260200190565b60405180910390a3505050565b80516001600160a01b0381168114620006d057600080fd5b919050565b60008060008060808587031215620006ec57600080fd5b620006f785620006b8565b93506200070760208601620006b8565b6040860151606090960151949790965092505050565b634e487b7160e01b600052604160045260246000fd5b600181811c908216806200074857607f821691505b6020821081036200076957634e487b7160e01b600052602260045260246000fd5b50919050565b601f8211156200055957600081815260208120601f850160051c81016020861015620007985750805b601f850160051c820191505b81811015620007b957828155600101620007a4565b505050505050565b81516001600160401b03811115620007dd57620007dd6200071d565b620007f581620007ee845462000733565b846200076f565b602080601f8311600181146200082d5760008415620008145750858301515b600019600386901b1c1916600185901b178555620007b9565b600085815260208120601f198616915b828110156200085e578886015182559484019460019091019084016200083d565b50858210156200087d5787850151600019600388901b60f8161c191681555b5050505050600190811b01905550565b634e487b7160e01b600052601160045260246000fd5b600181815b80851115620008e4578160001904821115620008c857620008c86200088d565b80851615620008d657918102915b93841c9390800290620008a8565b509250929050565b600082620008fd5750600162000409565b816200090c5750600062000409565b8160018114620009255760028114620009305762000950565b600191505062000409565b60ff8411156200094457620009446200088d565b50506001821b62000409565b5060208310610133831016604e8410600b841016171562000975575081810a62000409565b620009818383620008a3565b80600019048211156200099857620009986200088d565b029392505050565b6000620009b160ff841683620008ec565b9392505050565b80820281158282048414176200040957620004096200088d565b600060208083528351808285015260005b8181101562000a0157858101830151858201604001528201620009e3565b506000604082860101526040601f19601f8301168501019250505092915050565b80516020808301519190811015620007695760001960209190910360031b1b16919050565b808201808211156200040957620004096200088d565b60805160a05160c05160e0516101005161012051610140516124a162000ab860003960006117620152600061173501526000611538015260006115100152600061146b01526000611495015260006114bf01526124a16000f3fe608060405234801561001057600080fd5b50600436106102695760003560e01c80637ecebe0011610151578063d3fc9864116100c3578063d89135cd11610087578063d89135cd1461052f578063dac6693f14610538578063dd62ed3e1461054b578063e4f24cb014610584578063e63ab1e9146105a4578063f76e95e5146105cb57600080fd5b8063d3fc9864146104d8578063d505accf146104eb578063d5391393146104fe578063d547741f14610513578063d5abeb011461052657600080fd5b806391d148541161011557806391d148541461047957806395d89b411461048c578063a217fddf14610494578063a2309ff81461049c578063a9059cbb146104a5578063b5af960d146104b857600080fd5b80637ecebe00146104335780638456cb591461044657806384a3a0f31461044e57806384b0196e146104565780638da1ca5a1461047157600080fd5b80633644e515116101ea5780635581fe6b116101ae5780635581fe6b146103be5780635c975abb146103c65780636f8b44b0146103d157806370a08231146103e457806379cc67901461040d5780637c5eea711461042057600080fd5b80633644e5151461035a57806336568abe146103625780633f4ba83a1461037557806342966c681461037d5780634e43603a1461039057600080fd5b8063248a9ca311610231578063248a9ca3146102e35780632f2ff15d14610306578063313ce5671461031b57806333c8f3511461032a57806335e78d751461033257600080fd5b806301ffc9a71461026e57806306fdde0314610296578063095ea7b3146102ab57806318160ddd146102be57806323b872dd146102d0575b600080fd5b61028161027c366004611d21565b6105d3565b60405190151581526020015b60405180910390f35b61029e61060a565b60405161028d9190611d98565b6102816102b9366004611dc7565b61069c565b6002545b60405190815260200161028d565b6102816102de366004611df1565b6106b4565b6102c26102f1366004611e2d565b60009081526008602052604090206001015490565b610319610314366004611e46565b6106d8565b005b6040516012815260200161028d565b6102c2610703565b61033a61071d565b60408051948552602085019390935291830152606082015260800161028d565b6102c2610743565b610319610370366004611e46565b610752565b61031961078a565b61031961038b366004611e2d565b6107bf565b6103a361039e366004611e72565b61081c565b6040805193845260208401929092529082015260600161028d565b6102c2610872565b60095460ff16610281565b6103196103df366004611e2d565b610889565b6102c26103f2366004611e72565b6001600160a01b031660009081526020819052604090205490565b61031961041b366004611dc7565b610960565b61031961042e366004611f1b565b6109c8565b6102c2610441366004611e72565b610da0565b610319610dbe565b6102c2610df0565b61045e610e07565b60405161028d9796959493929190611fbe565b6102c2610e4d565b610281610487366004611e46565b610e64565b61029e610e8f565b6102c2600081565b6102c2600b5481565b6102816104b3366004611dc7565b610e9e565b6102c26104c6366004611e72565b600f6020526000908152604090205481565b6103196104e6366004612054565b610eac565b6103196104f93660046120ae565b610fcf565b6102c260008051602061244c83398151915281565b610319610521366004611e46565b611109565b6102c2600d5481565b6102c2600c5481565b610319610546366004612121565b61112e565b6102c2610559366004612183565b6001600160a01b03918216600090815260016020908152604080832093909416825291909152205490565b6102c2610592366004611e72565b600e6020526000908152604090205481565b6102c27f65d7a28e3265b37a6474929f336521b332c1681b933f6cb9f3376673440d862a81565b6102c26112a7565b60006001600160e01b03198216637965db0b60e01b148061060457506301ffc9a760e01b6001600160e01b03198316145b92915050565b606060038054610619906121ad565b80601f0160208091040260200160405190810160405280929190818152602001828054610645906121ad565b80156106925780601f1061066757610100808354040283529160200191610692565b820191906000526020600020905b81548152906001019060200180831161067557829003601f168201915b5050505050905090565b6000336106aa8185856112db565b5060019392505050565b6000336106c28582856112e8565b6106cd858585611361565b506001949350505050565b6000828152600860205260409020600101546106f3816113c0565b6106fd83836113ca565b50505050565b61070f6012600a6122e1565b61071a90600f6122f0565b81565b60008060008061072c60025490565b600b54600c54600d54935093509350935090919293565b600061074d61145e565b905090565b6001600160a01b038116331461077b5760405163334bd91960e11b815260040160405180910390fd5b6107858282611589565b505050565b7f65d7a28e3265b37a6474929f336521b332c1681b933f6cb9f3376673440d862a6107b4816113c0565b6107bc6115f6565b50565b6107c881611648565b80600c60008282546107da9190612307565b90915550506040805182815242602082015233917fccbea4088a3b7ae9ca2d15fab9a9742a4075b4d7247768a1eecea917565aba00910160405180910390a250565b6000806000610840846001600160a01b031660009081526020819052604090205490565b6001600160a01b03949094166000908152600e6020908152604080832054600f90925290912054949590949350915050565b61087e6012600a6122e1565b61071a9060146122f0565b6000610894816113c0565b60006108a26012600a6122e1565b6108ac90846122f0565b90508015806108bd5750600b548110155b61091d5760405162461bcd60e51b815260206004820152602660248201527f4e6577206d617820737570706c79206d757374206265203e3d20746f74616c206044820152651b5a5b9d195960d21b60648201526084015b60405180910390fd5b600d5460408051918252602082018390527f44ecfc706d63e347851cfd40acfa6cf2e3a41faa3e8b460210c03938e84a91ad910160405180910390a1600d555050565b61096a8282611652565b80600c600082825461097c9190612307565b9091555050604080518281524260208201526001600160a01b038416917fccbea4088a3b7ae9ca2d15fab9a9742a4075b4d7247768a1eecea917565aba00910160405180910390a25050565b60008051602061244c8339815191526109e0816113c0565b6109e861166b565b6109f0611691565b868514610a385760405162461bcd60e51b8152602060048201526016602482015275082e4e4c2f2e640d8cadccee8d040dad2e6dac2e8c6d60531b6044820152606401610914565b86610a745760405162461bcd60e51b815260206004820152600c60248201526b456d7074792061727261797360a01b6044820152606401610914565b6064871115610ab75760405162461bcd60e51b815260206004820152600f60248201526e426174636820746f6f206c6172676560881b6044820152606401610914565b6000805b86811015610afb57878782818110610ad557610ad561231a565b9050602002013582610ae79190612307565b915080610af381612330565b915050610abb565b50600d541580610b1a5750600d5481600b54610b179190612307565b11155b610b365760405162461bcd60e51b815260040161091490612349565b60005b88811015610d785760008a8a83818110610b5557610b5561231a565b9050602002016020810190610b6a9190611e72565b6001600160a01b031603610b905760405162461bcd60e51b815260040161091490612380565b6000888883818110610ba457610ba461231a565b9050602002013511610bc85760405162461bcd60e51b8152600401610914906123ab565b610c108a8a83818110610bdd57610bdd61231a565b9050602002016020810190610bf29190611e72565b898984818110610c0457610c0461231a565b905060200201356116bb565b878782818110610c2257610c2261231a565b90506020020135600e60008c8c85818110610c3f57610c3f61231a565b9050602002016020810190610c549190611e72565b6001600160a01b03166001600160a01b031681526020019081526020016000206000828254610c839190612307565b90915550600f905060008b8b84818110610c9f57610c9f61231a565b9050602002016020810190610cb49190611e72565b6001600160a01b0316815260208101919091526040016000908120805491610cdb83612330565b9190505550838a8a83818110610cf357610cf361231a565b9050602002016020810190610d089190611e72565b6001600160a01b03167ff817288dd2299a901646fc9903c503db1a907d5027d53bd11c13754f140ad5058a8a85818110610d4457610d4461231a565b90506020020135898942604051610d5e94939291906123e2565b60405180910390a380610d7081612330565b915050610b39565b5080600b6000828254610d8b9190612307565b90915550506001600a55505050505050505050565b6001600160a01b038116600090815260076020526040812054610604565b7f65d7a28e3265b37a6474929f336521b332c1681b933f6cb9f3376673440d862a610de8816113c0565b6107bc6116f1565b610dfc6012600a6122e1565b61071a9060056122f0565b600060608060008060006060610e1b61172e565b610e2361175b565b60408051600080825260208201909252600f60f81b9b939a50919850469750309650945092509050565b610e596012600a6122e1565b61071a90600a6122f0565b60009182526008602090815260408084206001600160a01b0393909316845291905290205460ff1690565b606060048054610619906121ad565b6000336106aa818585611361565b60008051602061244c833981519152610ec4816113c0565b610ecc61166b565b610ed4611691565b6001600160a01b038516610efa5760405162461bcd60e51b815260040161091490612380565b60008411610f1a5760405162461bcd60e51b8152600401610914906123ab565b600d541580610f385750600d5484600b54610f359190612307565b11155b610f545760405162461bcd60e51b815260040161091490612349565b610f5e85856116bb565b83600b6000828254610f709190612307565b92505081905550846001600160a01b03167f04133ee4cb027e1c5fce5e3481289278a93bd16a65a3b65b428a6d239e706bfb85858542604051610fb694939291906123e2565b60405180910390a2610fc86001600a55565b5050505050565b83421115610ff35760405163313c898160e11b815260048101859052602401610914565b60007f6e71edae12b1b97f4d1f60370fef10105fa2faae0126114a169c64845d6126c98888886110408c6001600160a01b0316600090815260076020526040902080546001810190915590565b6040805160208101969096526001600160a01b0394851690860152929091166060840152608083015260a082015260c0810186905260e001604051602081830303815290604052805190602001209050600061109b82611788565b905060006110ab828787876117b5565b9050896001600160a01b0316816001600160a01b0316146110f2576040516325c0072360e11b81526001600160a01b0380831660048301528b166024820152604401610914565b6110fd8a8a8a6112db565b50505050505050505050565b600082815260086020526040902060010154611124816113c0565b6106fd8383611589565b60008051602061244c833981519152611146816113c0565b61114e61166b565b611156611691565b6001600160a01b03861661117c5760405162461bcd60e51b815260040161091490612380565b6000851161119c5760405162461bcd60e51b8152600401610914906123ab565b600d5415806111ba5750600d5485600b546111b79190612307565b11155b6111d65760405162461bcd60e51b815260040161091490612349565b6111e086866116bb565b84600b60008282546111f29190612307565b90915550506001600160a01b0386166000908152600e60205260408120805487929061121f908490612307565b90915550506001600160a01b0386166000908152600f6020526040812080549161124883612330565b919050555081866001600160a01b03167ff817288dd2299a901646fc9903c503db1a907d5027d53bd11c13754f140ad5058787874260405161128d94939291906123e2565b60405180910390a361129f6001600a55565b505050505050565b6000600d546000036112ba575060001990565b600b54600d54116112cb5750600090565b600b54600d5461074d9190612422565b61078583838360016117e3565b6001600160a01b038381166000908152600160209081526040808320938616835292905220546000198110156106fd578181101561135257604051637dc7a0d960e11b81526001600160a01b03841660048201526024810182905260448101839052606401610914565b6106fd848484840360006117e3565b6001600160a01b03831661138b57604051634b637e8f60e11b815260006004820152602401610914565b6001600160a01b0382166113b55760405163ec442f0560e01b815260006004820152602401610914565b6107858383836118b8565b6107bc81336118cb565b60006113d68383610e64565b6114565760008381526008602090815260408083206001600160a01b03861684529091529020805460ff1916600117905561140e3390565b6001600160a01b0316826001600160a01b0316847f2f8788117e7eff1d82e926ec794901d17c78024a50270940304540a733656f0d60405160405180910390a4506001610604565b506000610604565b6000306001600160a01b037f0000000000000000000000000000000000000000000000000000000000000000161480156114b757507f000000000000000000000000000000000000000000000000000000000000000046145b156114e157507f000000000000000000000000000000000000000000000000000000000000000090565b61074d604080517f8b73c3c69bb8fe3d512ecc4cf759cc79239f7b179b0ffacaa9a75d522b39400f60208201527f0000000000000000000000000000000000000000000000000000000000000000918101919091527f000000000000000000000000000000000000000000000000000000000000000060608201524660808201523060a082015260009060c00160405160208183030381529060405280519060200120905090565b60006115958383610e64565b156114565760008381526008602090815260408083206001600160a01b0386168085529252808320805460ff1916905551339286917ff6391f5c32d9c69d2a47ea670b442974b53935d1edc7fd64eb21e047a839171b9190a4506001610604565b6115fe611904565b6009805460ff191690557f5db9ee0a495bf2e6ff9c91a7834c1ba4fdd244a5e8aa4e537bd38aeae4b073aa335b6040516001600160a01b03909116815260200160405180910390a1565b6107bc3382611927565b61165d8233836112e8565b6116678282611927565b5050565b60095460ff161561168f5760405163d93c066560e01b815260040160405180910390fd5b565b6002600a54036116b457604051633ee5aeb560e01b815260040160405180910390fd5b6002600a55565b6001600160a01b0382166116e55760405163ec442f0560e01b815260006004820152602401610914565b611667600083836118b8565b6116f961166b565b6009805460ff191660011790557f62e78cea01bee320cd4e420270b5ea74000d11b0c9f74754ebdbfc544b05a25861162b3390565b606061074d7f0000000000000000000000000000000000000000000000000000000000000000600561195d565b606061074d7f0000000000000000000000000000000000000000000000000000000000000000600661195d565b600061060461179561145e565b8360405161190160f01b8152600281019290925260228201526042902090565b6000806000806117c788888888611a08565b9250925092506117d78282611ad7565b50909695505050505050565b6001600160a01b03841661180d5760405163e602df0560e01b815260006004820152602401610914565b6001600160a01b03831661183757604051634a1406b160e11b815260006004820152602401610914565b6001600160a01b03808516600090815260016020908152604080832093871683529290522082905580156106fd57826001600160a01b0316846001600160a01b03167f8c5be1e5ebec7d5bd14f71427d1e84f3dd0314c0f7b2291e5b200ac8c7c3b925846040516118aa91815260200190565b60405180910390a350505050565b6118c061166b565b610785838383611b90565b6118d58282610e64565b6116675760405163e2517d3f60e01b81526001600160a01b038216600482015260248101839052604401610914565b60095460ff1661168f57604051638dfc202b60e01b815260040160405180910390fd5b6001600160a01b03821661195157604051634b637e8f60e11b815260006004820152602401610914565b611667826000836118b8565b606060ff83146119775761197083611cba565b9050610604565b818054611983906121ad565b80601f01602080910402602001604051908101604052809291908181526020018280546119af906121ad565b80156119fc5780601f106119d1576101008083540402835291602001916119fc565b820191906000526020600020905b8154815290600101906020018083116119df57829003601f168201915b50505050509050610604565b600080807f7fffffffffffffffffffffffffffffff5d576e7357a4501ddfe92f46681b20a0841115611a435750600091506003905082611acd565b604080516000808252602082018084528a905260ff891692820192909252606081018790526080810186905260019060a0016020604051602081039080840390855afa158015611a97573d6000803e3d6000fd5b5050604051601f1901519150506001600160a01b038116611ac357506000925060019150829050611acd565b9250600091508190505b9450945094915050565b6000826003811115611aeb57611aeb612435565b03611af4575050565b6001826003811115611b0857611b08612435565b03611b265760405163f645eedf60e01b815260040160405180910390fd5b6002826003811115611b3a57611b3a612435565b03611b5b5760405163fce698f760e01b815260048101829052602401610914565b6003826003811115611b6f57611b6f612435565b03611667576040516335e2f38360e21b815260048101829052602401610914565b6001600160a01b038316611bbb578060026000828254611bb09190612307565b90915550611c2d9050565b6001600160a01b03831660009081526020819052604090205481811015611c0e5760405163391434e360e21b81526001600160a01b03851660048201526024810182905260448101839052606401610914565b6001600160a01b03841660009081526020819052604090209082900390555b6001600160a01b038216611c4957600280548290039055611c68565b6001600160a01b03821660009081526020819052604090208054820190555b816001600160a01b0316836001600160a01b03167fddf252ad1be2c89b69c2b068fc378daa952ba7f163c4a11628f55a4df523b3ef83604051611cad91815260200190565b60405180910390a3505050565b60606000611cc783611cf9565b604080516020808252818301909252919250600091906020820181803683375050509182525060208101929092525090565b600060ff8216601f81111561060457604051632cd44ac360e21b815260040160405180910390fd5b600060208284031215611d3357600080fd5b81356001600160e01b031981168114611d4b57600080fd5b9392505050565b6000815180845260005b81811015611d7857602081850181015186830182015201611d5c565b506000602082860101526020601f19601f83011685010191505092915050565b602081526000611d4b6020830184611d52565b80356001600160a01b0381168114611dc257600080fd5b919050565b60008060408385031215611dda57600080fd5b611de383611dab565b946020939093013593505050565b600080600060608486031215611e0657600080fd5b611e0f84611dab565b9250611e1d60208501611dab565b9150604084013590509250925092565b600060208284031215611e3f57600080fd5b5035919050565b60008060408385031215611e5957600080fd5b82359150611e6960208401611dab565b90509250929050565b600060208284031215611e8457600080fd5b611d4b82611dab565b60008083601f840112611e9f57600080fd5b50813567ffffffffffffffff811115611eb757600080fd5b6020830191508360208260051b8501011115611ed257600080fd5b9250929050565b60008083601f840112611eeb57600080fd5b50813567ffffffffffffffff811115611f0357600080fd5b602083019150836020828501011115611ed257600080fd5b60008060008060008060006080888a031215611f3657600080fd5b873567ffffffffffffffff80821115611f4e57600080fd5b611f5a8b838c01611e8d565b909950975060208a0135915080821115611f7357600080fd5b611f7f8b838c01611e8d565b909750955060408a0135915080821115611f9857600080fd5b50611fa58a828b01611ed9565b989b979a50959894979596606090950135949350505050565b60ff60f81b881681526000602060e081840152611fde60e084018a611d52565b8381036040850152611ff0818a611d52565b606085018990526001600160a01b038816608086015260a0850187905284810360c0860152855180825283870192509083019060005b8181101561204257835183529284019291840191600101612026565b50909c9b505050505050505050505050565b6000806000806060858703121561206a57600080fd5b61207385611dab565b935060208501359250604085013567ffffffffffffffff81111561209657600080fd5b6120a287828801611ed9565b95989497509550505050565b600080600080600080600060e0888a0312156120c957600080fd5b6120d288611dab565b96506120e060208901611dab565b95506040880135945060608801359350608088013560ff8116811461210457600080fd5b9699959850939692959460a0840135945060c09093013592915050565b60008060008060006080868803121561213957600080fd5b61214286611dab565b945060208601359350604086013567ffffffffffffffff81111561216557600080fd5b61217188828901611ed9565b96999598509660600135949350505050565b6000806040838503121561219657600080fd5b61219f83611dab565b9150611e6960208401611dab565b600181811c908216806121c157607f821691505b6020821081036121e157634e487b7160e01b600052602260045260246000fd5b50919050565b634e487b7160e01b600052601160045260246000fd5b600181815b8085111561223857816000190482111561221e5761221e6121e7565b8085161561222b57918102915b93841c9390800290612202565b509250929050565b60008261224f57506001610604565b8161225c57506000610604565b8160018114612272576002811461227c57612298565b6001915050610604565b60ff84111561228d5761228d6121e7565b50506001821b610604565b5060208310610133831016604e8410600b84101617156122bb575081810a610604565b6122c583836121fd565b80600019048211156122d9576122d96121e7565b029392505050565b6000611d4b60ff841683612240565b8082028115828204841417610604576106046121e7565b80820180821115610604576106046121e7565b634e487b7160e01b600052603260045260246000fd5b600060018201612342576123426121e7565b5060010190565b60208082526017908201527f576f756c6420657863656564206d617820737570706c79000000000000000000604082015260600190565b602080825260119082015270125b9d985b1a59081c9958da5c1a595b9d607a1b604082015260600190565b60208082526017908201527f416d6f756e74206d75737420626520706f736974697665000000000000000000604082015260600190565b848152606060208201528260608201528284608083013760006080848301015260006080601f19601f860116830101905082604083015295945050505050565b81810381811115610604576106046121e7565b634e487b7160e01b600052602160045260246000fdfe9f2df0fed2c77648de5860a4cc508cd0818c85b8b8a1ab4ceeef8d981c8956a6a26469706673582212200c17832938c3f4967b6ce5fc6501c953f871dc45744aa1aa649c6e7ce2a1346264736f6c634300081400339f2df0fed2c77648de5860a4cc508cd0818c85b8b8a1ab4ceeef8d981c8956a6",
  "linkReferences": {},
  "deployedLinkReferences": {}
}