{
  "_format": "hh-sol-artifact-1",
  "contractName": "AchievementSBT",
  "sourceName": "contracts/AchievementSBT.sol",
  "abi": [
    {
      "inputs": [
        {
          "internalType": "string",
          "name": "name",
          "type": "string"
        },
        {
          "internalType": "string",
          "name": "symbol",
          "type": "string"
        },
        {
          "internalType": "address",
          "name": "admin",
          "type": "address"
        },
        {
          "internalType": "address",
          "name": "minter",
          "type": "address"
        }
      ],
      "stateMutability": "nonpayable",
      "type": "constructor"
    },
    {
      "inputs": [],
      "name": "AccessControlBadConfirmation",
      "type": "error"
    },
    {
      "inputs": [
        {
          "internalType": "address",
          "name": "account",
          "type": "address"
        },
        {
          "internalType": "bytes32",
          "name": "neededRole",
          "type": "bytes32"
        }
      ],
      "name": "AccessControlUnauthorizedAccount",
      "type": "error"
    },
    {
      "inputs": [],
      "name": "ECDSAInvalidSignature",
      "type": "error"
    },
    {
      "inputs": [
        {
          "internalType": "uint256",
          "name": "length",
          "type": "uint256"
        }
      ],
      "name": "ECDSAInvalidSignatureLength",
      "type": "error"
    },
    {
      "inputs": [
        {
          "internalType": "bytes32",
          "name": "s",
          "type": "bytes32"
        }
      ],
      "name": "ECDSAInvalidSignatureS",
      "type": "error"
    },
    {
      "inputs": [
        {
          "internalType": "address",
          "name": "sender",
          "type": "address"
        },
        {
          "internalType": "uint256",
          "name": "tokenId",
          "type": "uint256"
        },
        {
          "internalType": "address",
          "name": "owner",
          "type": "address"
        }
      ],
      "name": "ERC721IncorrectOwner",
      "type": "error"
    },
    {
      "inputs": [
        {
          "internalType": "address",
          "name": "operator",
          "type": "address"
        },
        {
          "internalType": "uint256",
          "name": "tokenId",
          "type": "uint256"
        }
      ],
      "name": "ERC721InsufficientApproval",
      "type": "error"
    },
    {
      "inputs": [
        {
          "internalType": "address",
          "name": "approver",
          "type": "address"
        }
      ],
      "name": "ERC721InvalidApprover",
      "type": "error"
    },
    {
      "inputs": [
        {
          "internalType": "address",
          "name": "operator",
          "type": "address"
        }
      ],
      "name": "ERC721InvalidOperator",
      "type": "error"
    },
    {
      "inputs": [
        {
          "internalType": "address",
          "name": "owner",
          "type": "address"
        }
      ],
      "name": "ERC721InvalidOwner",
      "type": "error"
    },
    {
      "inputs": [
        {
          "internalType": "address",
          "name": "receiver",
          "type": "address"
        }
      ],
      "name": "ERC721InvalidReceiver",
      "type": "error"
    },
    {
      "inputs": [
        {
          "internalType": "address",
          "name": "sender",
          "type": "address"
        }
      ],
      "name": "ERC721InvalidSender",
      "type": "error"
    },
    {
      "inputs": [
        {
          "internalType": "uint256",
          "name": "tokenId",
          "type": "uint256"
        }
      ],
      "name": "ERC721NonexistentToken",
      "type": "error"
    },
    {
      "inputs": [],
      "name": "EnforcedPause",
      "type": "error"
    },
    {
      "inputs": [],
      "name": "ExpectedPause",
      "type": "error"
    },
    {
      "inputs": [],
      "name": "InvalidShortString",
      "type": "error"
    },
    {
      "inputs": [],
      "name": "ReentrancyGuardReentrantCall",
      "type": "error"
    },
    {
      "inputs": [
        {
          "internalType": "string",
          "name": "str",
          "type": "string"
        }
      ],
      "name": "StringTooLong",
      "type": "error"
    },
    {
      "anonymous": false,
      "inputs": [
        {
          "indexed": true,
          "internalType": "uint256",
          "name": "tokenId",
          "type": "uint256"
        },
        {
          "indexed": true,
          "internalType": "address",
          "name": "recipient",
          "type": "address"
        },
        {
          "indexed": true,
          "internalType": "bytes32",
          "name": "eventId",
          "type": "bytes32"
        },
        {
          "indexed": false,
          "internalType": "bytes32",
          "name": "badgeType",
          "type": "bytes32"
        },
        {
          "indexed": false,
          "internalType": "string",
          "name": "metadataURI",
          "type": "string"
        },
        {
          "indexed": false,
          "internalType": "uint256",
          "name": "timestamp",
          "type": "uint256"
        }
      ],
      "name": "AchievementMinted",
      "type": "event"
    },
    {
      "anonymous": false,
      "inputs": [
        {
          "indexed": true,
          "internalType": "uint256",
          "name": "tokenId",
          "type": "uint256"
        },
        {
          "indexed": false,
          "internalType": "string",
          "name": "reason",
          "type": "string"
        },
        {
          "indexed": false,
          "internalType": "address",
          "name": "revokedBy",
          "type": "address"
        },
        {
          "indexed": false,
          "internalType": "uint256",
          "name": "timestamp",
          "type": "uint256"
        }
      ],
      "name": "AchievementRevoked",
      "type": "event"
    },
    {
      "anonymous": false,
      "inputs": [
        {
          "indexed": true,
          "internalType": "address",
          "name": "owner",
          "type": "address"
        },
        {
          "indexed": true,
          "internalType": "address",
          "name": "approved",
          "type": "address"
        },
        {
          "indexed": true,
          "internalType": "uint256",
          "name": "tokenId",
          "type": "uint256"
        }
      ],
      "name": "Approval",
      "type": "event"
    },
    {
      "anonymous": false,
      "inputs": [
        {
          "indexed": true,
          "internalType": "address",
          "name": "owner",
          "type": "address"
        },
        {
          "indexed": true,
          "internalType": "address",
          "name": "operator",
          "type": "address"
        },
        {
          "indexed": false,
          "internalType": "bool",
          "name": "approved",
          "type": "bool"
        }
      ],
      "name": "ApprovalForAll",
      "type": "event"
    },
    {
      "anonymous": false,
      "inputs": [
        {
          "indexed": false,
          "internalType": "uint256",
          "name": "_fromTokenId",
          "type": "uint256"
        },
        {
          "indexed": false,
          "internalType": "uint256",
          "name": "_toTokenId",
          "type": "uint256"
        }
      ],
      "name": "BatchMetadataUpdate",
      "type": "event"
    },
    {
      "anonymous": false,
      "inputs": [],
      "name": "EIP712DomainChanged",
      "type": "event"
    },
    {
      "anonymous": false,
      "inputs": [
        {
          "indexed": false,
          "internalType": "uint256",
          "name": "_tokenId",
          "type": "uint256"
        }
      ],
      "name": "MetadataUpdate",
      "type": "event"
    },
    {
      "anonymous": false,
      "inputs": [
        {
          "indexed": false,
          "internalType": "address",
          "name": "account",
          "type": "address"
        }
      ],
      "name": "Paused",
      "type": "event"
    },
    {
      "anonymous": false,
      "inputs": [
        {
          "indexed": true,
          "internalType": "bytes32",
          "name": "role",
          "type": "bytes32"
        },
        {
          "indexed": true,
          "internalType": "bytes32",
          "name": "previousAdminRole",
          "type": "bytes32"
        },
        {
          "indexed": true,
          "internalType": "bytes32",
          "name": "newAdminRole",
          "type": "bytes32"
        }
      ],
      "name": "RoleAdminChanged",
      "type": "event"
    },
    {
      "anonymous": false,
      "inputs": [
        {
          "indexed": true,
          "internalType": "bytes32",
          "name": "role",
          "type": "bytes32"
        },
        {
          "indexed": true,
          "internalType": "address",
          "name": "account",
          "type": "address"
        },
        {
          "indexed": true,
          "internalType": "address",
          "name": "sender",
          "type": "address"
        }
      ],
      "name": "RoleGranted",
      "type": "event"
    },
    {
      "anonymous": false,
      "inputs": [
        {
          "indexed": true,
          "internalType": "bytes32",
          "name": "role",
          "type": "bytes32"
        },
        {
          "indexed": true,
          "internalType": "address",
          "name": "account",
          "type": "address"
        },
        {
          "indexed": true,
          "internalType": "address",
          "name": "sender",
          "type": "address"
        }
      ],
      "name": "RoleRevoked",
      "type": "event"
    },
    {
      "anonymous": false,
      "inputs": [
        {
          "indexed": true,
          "internalType": "address",
          "name": "from",
          "type": "address"
        },
        {
          "indexed": true,
          "internalType": "address",
          "name": "to",
          "type": "address"
        },
        {
          "indexed": true,
          "internalType": "uint256",
          "name": "tokenId",
          "type": "uint256"
        }
      ],
      "name": "Transfer",
      "type": "event"
    },
    {
      "anonymous": false,
      "inputs": [
        {
          "indexed": true,
          "internalType": "uint256",
          "name": "tokenId",
          "type": "uint256"
        },
        {
          "indexed": false,
          "internalType": "bool",
          "name": "locked",
          "type": "bool"
        }
      ],
      "name": "TransferLockSet",
      "type": "event"
    },
    {
      "anonymous": false,
      "inputs": [
        {
          "indexed": false,
          "internalType": "address",
          "name": "account",
          "type": "address"
        }
      ],
      "name": "Unpaused",
      "type": "event"
    },
    {
      "inputs": [],
      "name": "DEFAULT_ADMIN_ROLE",
      "outputs": [
        {
          "internalType": "bytes32",
          "name": "",
          "type": "bytes32"
        }
      ],
      "stateMutability": "view",
      "type": "function"
    },
    {
      "inputs": [],
      "name": "MINTER_ROLE",
      "outputs": [
        {
          "internalType": "bytes32",
          "name": "",
          "type": "bytes32"
        }
      ],
      "stateMutability": "view",
      "type": "function"
    },
    {
      "inputs": [],
      "name": "MINT_PERMIT_TYPEHASH",
      "outputs": [
        {
          "internalType": "bytes32",
          "name": "",
          "type": "bytes32"
        }
      ],
      "stateMutability": "view",
      "type": "function"
    },
    {
      "inputs": [],
      "name": "PAUSER_ROLE",
      "outputs": [
        {
          "internalType": "bytes32",
          "name": "",
          "type": "bytes32"
        }
      ],
      "stateMutability": "view",
      "type": "function"
    },
    {
      "inputs": [],
      "name": "REVOKER_ROLE",
      "outputs": [
        {
          "internalType": "bytes32",
          "name": "",
          "type": "bytes32"
        }
      ],
      "stateMutability": "view",
      "type": "function"
    },
    {
      "inputs": [
        {
          "internalType": "address",
          "name": "to",
          "type": "address"
        },
        {
          "internalType": "uint256",
          "name": "tokenId",
          "type": "uint256"
        }
      ],
      "name": "approve",
      "outputs": [],
      "stateMutability": "nonpayable",
      "type": "function"
    },
    {
      "inputs": [
        {
          "internalType": "uint256",
          "name": "",
          "type": "uint256"
        }
      ],
      "name": "badgeType",
      "outputs": [
        {
          "internalType": "bytes32",
          "name": "",
          "type": "bytes32"
        }
      ],
      "stateMutability": "view",
      "type": "function"
    },
    {
      "inputs": [
        {
          "internalType": "address",
          "name": "owner",
          "type": "address"
        }
      ],
      "name": "balanceOf",
      "outputs": [
        {
          "internalType": "uint256",
          "name": "",
          "type": "uint256"
        }
      ],
      "stateMutability": "view",
      "type": "function"
    },
    {
      "inputs": [
        {
          "internalType": "address[]",
          "name": "recipients",
          "type": "address[]"
        },
        {
          "internalType": "bytes32[]",
          "name": "eventIds",
          "type": "bytes32[]"
        },
        {
          "internalType": "bytes32[]",
          "name": "badgeTypes",
          "type": "bytes32[]"
        },
        {
          "internalType": "string[]",
          "name": "metadataURIs",
          "type": "string[]"
        }
      ],
      "name": "batchMint",
      "outputs": [],
      "stateMutability": "nonpayable",
      "type": "function"
    },
    {
      "inputs": [],
      "name": "eip712Domain",
      "outputs": [
        {
          "internalType": "bytes1",
          "name": "fields",
          "type": "bytes1"
        },
        {
          "internalType": "string",
          "name": "name",
          "type": "string"
        },
        {
          "internalType": "string",
          "name": "version",
          "type": "string"
        },
        {
          "internalType": "uint256",
          "name": "chainId",
          "type": "uint256"
        },
        {
          "internalType": "address",
          "name": "verifyingContract",
          "type": "address"
        },
        {
          "internalType": "bytes32",
          "name": "salt",
          "type": "bytes32"
        },
        {
          "internalType": "uint256[]",
          "name": "extensions",
          "type": "uint256[]"
        }
      ],
      "stateMutability": "view",
      "type": "function"
    },
    {
      "inputs": [
        {
          "internalType": "uint256",
          "name": "",
          "type": "uint256"
        }
      ],
      "name": "eventId",
      "outputs": [
        {
          "internalType": "bytes32",
          "name": "",
          "type": "bytes32"
        }
      ],
      "stateMutability": "view",
      "type": "function"
    },
    {
      "inputs": [
        {
          "internalType": "uint256",
          "name": "tokenId",
          "type": "uint256"
        }
      ],
      "name": "getApproved",
      "outputs": [
        {
          "internalType": "address",
          "name": "",
          "type": "address"
        }
      ],
      "stateMutability": "view",
      "type": "function"
    },
    {
      "inputs": [
        {
          "internalType": "bytes32",
          "name": "role",
          "type": "bytes32"
        }
      ],
      "name": "getRoleAdmin",
      "outputs": [
        {
          "internalType": "bytes32",
          "name": "",
          "type": "bytes32"
        }
      ],
      "stateMutability": "view",
      "type": "function"
    },
    {
      "inputs": [
        {
          "internalType": "uint256",
          "name": "tokenId",
          "type": "uint256"
        }
      ],
      "name": "getTokenMetadata",
      "outputs": [
        {
          "internalType": "bytes32",
          "name": "_eventId",
          "type": "bytes32"
        },
        {
          "internalType": "bytes32",
          "name": "_badgeType",
          "type": "bytes32"
        },
        {
          "internalType": "uint256",
          "name": "_issuedAt",
          "type": "uint256"
        },
        {
          "internalType": "bool",
          "name": "_transferLock",
          "type": "bool"
        },
        {
          "internalType": "bool",
          "name": "_isRevoked",
          "type": "bool"
        },
        {
          "internalType": "string",
          "name": "_revocationReason",
          "type": "string"
        }
      ],
      "stateMutability": "view",
      "type": "function"
    },
    {
      "inputs": [
        {
          "internalType": "bytes32",
          "name": "role",
          "type": "bytes32"
        },
        {
          "internalType": "address",
          "name": "account",
          "type": "address"
        }
      ],
      "name": "grantRole",
      "outputs": [],
      "stateMutability": "nonpayable",
      "type": "function"
    },
    {
      "inputs": [
        {
          "internalType": "bytes32",
          "name": "role",
          "type": "bytes32"
        },
        {
          "internalType": "address",
          "name": "account",
          "type": "address"
        }
      ],
      "name": "hasRole",
      "outputs": [
        {
          "internalType": "bool",
          "name": "",
          "type": "bool"
        }
      ],
      "stateMutability": "view",
      "type": "function"
    },
    {
      "inputs": [
        {
          "internalType": "address",
          "name": "owner",
          "type": "address"
        },
        {
          "internalType": "address",
          "name": "operator",
          "type": "address"
        }
      ],
      "name": "isApprovedForAll",
      "outputs": [
        {
          "internalType": "bool",
          "name": "",
          "type": "bool"
        }
      ],
      "stateMutability": "view",
      "type": "function"
    },
    {
      "inputs": [
        {
          "internalType": "uint256",
          "name": "",
          "type": "uint256"
        }
      ],
      "name": "isRevoked",
      "outputs": [
        {
          "internalType": "bool",
          "name": "",
          "type": "bool"
        }
      ],
      "stateMutability": "view",
      "type": "function"
    },
    {
      "inputs": [
        {
          "internalType": "uint256",
          "name": "",
          "type": "uint256"
        }
      ],
      "name": "issuedAt",
      "outputs": [
        {
          "internalType": "uint256",
          "name": "",
          "type": "uint256"
        }
      ],
      "stateMutability": "view",
      "type": "function"
    },
    {
      "inputs": [
        {
          "internalType": "address",
          "name": "to",
          "type": "address"
        },
        {
          "internalType": "bytes32",
          "name": "_eventId",
          "type": "bytes32"
        },
        {
          "internalType": "bytes32",
          "name": "_badgeType",
          "type": "bytes32"
        },
        {
          "internalType": "string",
          "name": "metadataURI",
          "type": "string"
        }
      ],
      "name": "mint",
      "outputs": [
        {
          "internalType": "uint256",
          "name": "",
          "type": "uint256"
        }
      ],
      "stateMutability": "nonpayable",
      "type": "function"
    },
    {
      "inputs": [
        {
          "internalType": "address",
          "name": "to",
          "type": "address"
        },
        {
          "internalType": "bytes32",
          "name": "_eventId",
          "type": "bytes32"
        },
        {
          "internalType": "bytes32",
          "name": "_badgeType",
          "type": "bytes32"
        },
        {
          "internalType": "string",
          "name": "metadataURI",
          "type": "string"
        },
        {
          "internalType": "uint256",
          "name": "deadline",
          "type": "uint256"
        },
        {
          "internalType": "bytes",
          "name": "signature",
          "type": "bytes"
        }
      ],
      "name": "mintWithPermit",
      "outputs": [
        {
          "internalType": "uint256",
          "name": "",
          "type": "uint256"
        }
      ],
      "stateMutability": "nonpayable",
      "type": "function"
    },
    {
      "inputs": [],
      "name": "name",
      "outputs": [
        {
          "internalType": "string",
          "name": "",
          "type": "string"
        }
      ],
      "stateMutability": "view",
      "type": "function"
    },
    {
      "inputs": [
        {
          "internalType": "address",
          "name": "",
          "type": "address"
        }
      ],
      "name": "nonces",
      "outputs": [
        {
          "internalType": "uint256",
          "name": "",
          "type": "uint256"
        }
      ],
      "stateMutability": "view",
      "type": "function"
    },
    {
      "inputs": [
        {
          "internalType": "uint256",
          "name": "tokenId",
          "type": "uint256"
        }
      ],
      "name": "ownerOf",
      "outputs": [
        {
          "internalType": "address",
          "name": "",
          "type": "address"
        }
      ],
      "stateMutability": "view",
      "type": "function"
    },
    {
      "inputs": [],
      "name": "pause",
      "outputs": [],
      "stateMutability": "nonpayable",
      "type": "function"
    },
    {
      "inputs": [],
      "name": "paused",
      "outputs": [
        {
          "internalType": "bool",
          "name": "",
          "type": "bool"
        }
      ],
      "stateMutability": "view",
      "type": "function"
    },
    {
      "inputs": [
        {
          "internalType": "bytes32",
          "name": "role",
          "type": "bytes32"
        },
        {
          "internalType": "address",
          "name": "callerConfirmation",
          "type": "address"
        }
      ],
      "name": "renounceRole",
      "outputs": [],
      "stateMutability": "nonpayable",
      "type": "function"
    },
    {
      "inputs": [
        {
          "internalType": "uint256",
          "name": "",
          "type": "uint256"
        }
      ],
      "name": "revocationReason",
      "outputs": [
        {
          "internalType": "string",
          "name": "",
          "type": "string"
        }
      ],
      "stateMutability": "view",
      "type": "function"
    },
    {
      "inputs": [
        {
          "internalType": "uint256",
          "name": "tokenId",
          "type": "uint256"
        },
        {
          "internalType": "string",
          "name": "reason",
          "type": "string"
        }
      ],
      "name": "revoke",
      "outputs": [],
      "stateMutability": "nonpayable",
      "type": "function"
    },
    {
      "inputs": [
        {
          "internalType": "bytes32",
          "name": "role",
          "type": "bytes32"
        },
        {
          "internalType": "address",
          "name": "account",
          "type": "address"
        }
      ],
      "name": "revokeRole",
      "outputs": [],
      "stateMutability": "nonpayable",
      "type": "function"
    },
    {
      "inputs": [
        {
          "internalType": "address",
          "name": "from",
          "type": "address"
        },
        {
          "internalType": "address",
          "name": "to",
          "type": "address"
        },
        {
          "internalType": "uint256",
          "name": "tokenId",
          "type": "uint256"
        }
      ],
      "name": "safeTransferFrom",
      "outputs": [],
      "stateMutability": "nonpayable",
      "type": "function"
    },
    {
      "inputs": [
        {
          "internalType": "address",
          "name": "from",
          "type": "address"
        },
        {
          "internalType": "address",
          "name": "to",
          "type": "address"
        },
        {
          "internalType": "uint256",
          "name": "tokenId",
          "type": "uint256"
        },
        {
          "internalType": "bytes",
          "name": "data",
          "type": "bytes"
        }
      ],
      "name": "safeTransferFrom",
      "outputs": [],
      "stateMutability": "nonpayable",
      "type": "function"
    },
    {
      "inputs": [
        {
          "internalType": "address",
          "name": "operator",
          "type": "address"
        },
        {
          "internalType": "bool",
          "name": "approved",
          "type": "bool"
        }
      ],
      "name": "setApprovalForAll",
      "outputs": [],
      "stateMutability": "nonpayable",
      "type": "function"
    },
    {
      "inputs": [
        {
          "internalType": "uint256",
          "name": "tokenId",
          "type": "uint256"
        },
        {
          "internalType": "bool",
          "name": "locked",
          "type": "bool"
        }
      ],
      "name": "setTransferLock",
      "outputs": [],
      "stateMutability": "nonpayable",
      "type": "function"
    },
    {
      "inputs": [
        {
          "internalType": "bytes4",
          "name": "interfaceId",
          "type": "bytes4"
        }
      ],
      "name": "supportsInterface",
      "outputs": [
        {
          "internalType": "bool",
          "name": "",
          "type": "bool"
        }
      ],
      "stateMutability": "view",
      "type": "function"
    },
    {
      "inputs": [],
      "name": "symbol",
      "outputs": [
        {
          "internalType": "string",
          "name": "",
          "type": "string"
        }
      ],
      "stateMutability": "view",
      "type": "function"
    },
    {
      "inputs": [
        {
          "internalType": "uint256",
          "name": "tokenId",
          "type": "uint256"
        }
      ],
      "name": "tokenURI",
      "outputs": [
        {
          "internalType": "string",
          "name": "",
          "type": "string"
        }
      ],
      "stateMutability": "view",
      "type": "function"
    },
    {
      "inputs": [
        {
          "internalType": "address",
          "name": "from",
          "type": "address"
        },
        {
          "internalType": "address",
          "name": "to",
          "type": "address"
        },
        {
          "internalType": "uint256",
          "name": "tokenId",
          "type": "uint256"
        }
      ],
      "name": "transferFrom",
      "outputs": [],
      "stateMutability": "nonpayable",
      "type": "function"
    },
    {
      "inputs": [
        {
          "internalType": "uint256",
          "name": "",
          "type": "uint256"
        }
      ],
      "name": "transferLock",
      "outputs": [
        {
          "internalType": "bool",
          "name": "",
          "type": "bool"
        }
      ],
      "stateMutability": "view",
      "type": "function"
    },
    {
      "inputs": [],
      "name": "unpause",
      "outputs": [],
      "stateMutability": "nonpayable",
      "type": "function"
    }
  ],
  "bytecode": "0x6101606040523480156200001257600080fd5b506040516200349c3803806200349c8339810160408190526200003591620003eb565b6040805180820190915260018152603160f81b60208201528490818560006200005f838262000509565b5060016200006e828262000509565b50506001600955506200008382600a620001ca565b610120526200009481600b620001ca565b61014052815160208084019190912060e052815190820120610100524660a0526200012260e05161010051604080517f8b73c3c69bb8fe3d512ecc4cf759cc79239f7b179b0ffacaa9a75d522b39400f60208201529081019290925260608201524660808201523060a082015260009060c00160405160208183030381529060405280519060200120905090565b60805250503060c0526200013860008362000203565b50620001657f9f2df0fed2c77648de5860a4cc508cd0818c85b8b8a1ab4ceeef8d981c8956a68262000203565b50620001927f65d7a28e3265b37a6474929f336521b332c1681b933f6cb9f3376673440d862a8362000203565b50620001bf7fce3f34913921da558f105cefb578d87278debbbd073a8d552b5de0d168deee308362000203565b50505050506200062f565b6000602083511015620001ea57620001e283620002b5565b9050620001fd565b81620001f7848262000509565b5060ff90505b92915050565b60008281526007602090815260408083206001600160a01b038516845290915281205460ff16620002ac5760008381526007602090815260408083206001600160a01b03861684529091529020805460ff19166001179055620002633390565b6001600160a01b0316826001600160a01b0316847f2f8788117e7eff1d82e926ec794901d17c78024a50270940304540a733656f0d60405160405180910390a4506001620001fd565b506000620001fd565b600080829050601f81511115620002ec578260405163305a27a960e01b8152600401620002e39190620005d5565b60405180910390fd5b8051620002f9826200060a565b179392505050565b634e487b7160e01b600052604160045260246000fd5b60005b83811015620003345781810151838201526020016200031a565b50506000910152565b600082601f8301126200034f57600080fd5b81516001600160401b03808211156200036c576200036c62000301565b604051601f8301601f19908116603f0116810190828211818310171562000397576200039762000301565b81604052838152866020858801011115620003b157600080fd5b620003c484602083016020890162000317565b9695505050505050565b80516001600160a01b0381168114620003e657600080fd5b919050565b600080600080608085870312156200040257600080fd5b84516001600160401b03808211156200041a57600080fd5b62000428888389016200033d565b955060208701519150808211156200043f57600080fd5b506200044e878288016200033d565b9350506200045f60408601620003ce565b91506200046f60608601620003ce565b905092959194509250565b600181811c908216806200048f57607f821691505b602082108103620004b057634e487b7160e01b600052602260045260246000fd5b50919050565b601f8211156200050457600081815260208120601f850160051c81016020861015620004df5750805b601f850160051c820191505b818110156200050057828155600101620004eb565b5050505b505050565b81516001600160401b0381111562000525576200052562000301565b6200053d816200053684546200047a565b84620004b6565b602080601f8311600181146200057557600084156200055c5750858301515b600019600386901b1c1916600185901b17855562000500565b600085815260208120601f198616915b82811015620005a65788860151825594840194600190910190840162000585565b5085821015620005c55787850151600019600388901b60f8161c191681555b5050505050600190811b01905550565b6020815260008251806020840152620005f681604085016020870162000317565b601f01601f19169190910160400192915050565b80516020808301519190811015620004b05760001960209190910360031b1b16919050565b60805160a05160c05160e051610100516101205161014051612e126200068a60003960006117860152600061175401526000611b6101526000611b3901526000611a9401526000611abe01526000611ae80152612e126000f3fe608060405234801561001057600080fd5b50600436106102475760003560e01c806370a082311161013b578063a217fddf116100b8578063d547741f1161007c578063d547741f14610598578063e63ab1e9146105ab578063e985e9c5146105d2578063eb929ad5146105e5578063f9d98732146105f857600080fd5b8063a217fddf14610542578063a22cb4651461054a578063b88d4fde1461055d578063c87b56dd14610570578063d53913931461058357600080fd5b80638cfcae21116100ff5780638cfcae21146104cd57806391d14854146104f457806395d89b41146105075780639da769691461050f5780639f37e2fd1461052257600080fd5b806370a08231146104505780637c4acabf146104635780637ecebe001461048a5780638456cb59146104aa57806384b0196e146104b257600080fd5b80632f2ff15d116101c9578063471f9a091161018d578063471f9a09146103ca5780635c975abb146103ea5780635ccc561e146103f557806360316801146104185780636352211e1461043d57600080fd5b80632f2ff15d1461036957806336568abe1461037c5780633f4ba83a1461038f57806342842e0e14610397578063433b64b1146103aa57600080fd5b8063109c133211610210578063109c1332146102ea5780631f4198d21461030d57806320d4ab5a1461032057806323b872dd14610333578063248a9ca31461034657600080fd5b8062c5c0be1461024c57806301ffc9a71461027257806306fdde0314610295578063081812fc146102aa578063095ea7b3146102d5575b600080fd5b61025f61025a36600461254c565b61060b565b6040519081526020015b60405180910390f35b6102856102803660046125f2565b61089f565b6040519015158152602001610269565b61029d6108b0565b604051610269919061265f565b6102bd6102b8366004612672565b610942565b6040516001600160a01b039091168152602001610269565b6102e86102e336600461268b565b61096b565b005b6102856102f8366004612672565b600d6020526000908152604090205460ff1681565b61025f61031b3660046126b5565b61097a565b6102e861032e366004612726565b610ab5565b6102e8610341366004612752565b610b4d565b61025f610354366004612672565b60009081526007602052604090206001015490565b6102e861037736600461278e565b610bd8565b6102e861038a36600461278e565b610bfd565b6102e8610c35565b6102e86103a5366004612752565b610c6a565b61025f6103b8366004612672565b60106020526000908152604090205481565b61025f6103d8366004612672565b60116020526000908152604090205481565b60085460ff16610285565b610285610403366004612672565b600e6020526000908152604090205460ff1681565b61042b610426366004612672565b610c85565b604051610269969594939291906127b1565b6102bd61044b366004612672565b610dbf565b61025f61045e3660046127f2565b610dca565b61025f7fce3f34913921da558f105cefb578d87278debbbd073a8d552b5de0d168deee3081565b61025f6104983660046127f2565b60136020526000908152604090205481565b6102e8610e12565b6104ba610e44565b604051610269979695949392919061280d565b61025f7f832ed6b8a95b3e4b5964afcfe14a8cfe113c6c57b8f1b6ae54629a54f1e1405e81565b61028561050236600461278e565b610e8a565b61029d610eb5565b61029d61051d366004612672565b610ec4565b61025f610530366004612672565b60126020526000908152604090205481565b61025f600081565b6102e86105583660046128a3565b610f5e565b6102e861056b3660046128cd565b610f69565b61029d61057e366004612672565b610f81565b61025f600080516020612dbd83398151915281565b6102e86105a636600461278e565b610f8c565b61025f7f65d7a28e3265b37a6474929f336521b332c1681b933f6cb9f3376673440d862a81565b6102856105e036600461291d565b610fb1565b6102e86105f3366004612947565b610fdf565b6102e86106063660046129da565b6110f0565b6000610615611390565b61061d6113ba565b824211156106635760405162461bcd60e51b815260206004820152600e60248201526d14195c9b5a5d08195e1c1a5c995960921b60448201526064015b60405180910390fd5b6001600160a01b0387166106ad5760405162461bcd60e51b8152602060048201526011602482015270125b9d985b1a59081c9958da5c1a595b9d607a1b604482015260640161065a565b83516020808601919091206001600160a01b038916600090815260139092526040822080547f832ed6b8a95b3e4b5964afcfe14a8cfe113c6c57b8f1b6ae54629a54f1e1405e928b928b928b92918761070583612a9e565b909155506040805160208101979097526001600160a01b03909516948601949094526060850192909252608084015260a083015260c082015260e0810185905261010001604051602081830303815290604052805190602001209050600061076c826113e0565b9050600061077a828661140d565b9050610794600080516020612dbd83398151915282610e8a565b6107d45760405162461bcd60e51b8152602060048201526011602482015270496e76616c6964207369676e617475726560781b604482015260640161065a565b600c8054600091826107e583612a9e565b9190505590506107f58b82611437565b6107ff8189611451565b60008181526010602090815260408083208d9055601182528083208c9055601282528083204290819055600d90925291829020805460ff1916600117905590518b916001600160a01b038e169184917f9b0ef120b6fa26c3ab0eb36ed50abe87249253f57eab819c23138cd905259c2d9161087e918f918f9190612ac5565b60405180910390a493505050506108956001600955565b9695505050505050565b60006108aa826114a1565b92915050565b6060600080546108bf90612aee565b80601f01602080910402602001604051908101604052809291908181526020018280546108eb90612aee565b80156109385780601f1061090d57610100808354040283529160200191610938565b820191906000526020600020905b81548152906001019060200180831161091b57829003601f168201915b5050505050905090565b600061094d826114c6565b506000828152600460205260409020546001600160a01b03166108aa565b6109768282336114ff565b5050565b6000600080516020612dbd8339815191526109948161150c565b61099c611390565b6109a46113ba565b6001600160a01b0386166109ee5760405162461bcd60e51b8152602060048201526011602482015270125b9d985b1a59081c9958da5c1a595b9d607a1b604482015260640161065a565b600c8054600091826109ff83612a9e565b919050559050610a0f8782611437565b610a198185611451565b600081815260106020908152604080832089905560118252808320889055601282528083204290819055600d90925291829020805460ff19166001179055905187916001600160a01b038a169184917f9b0ef120b6fa26c3ab0eb36ed50abe87249253f57eab819c23138cd905259c2d91610a98918b918b9190612ac5565b60405180910390a49150610aac6001600955565b50949350505050565b6000610ac08161150c565b6000838152600260205260409020546001600160a01b0316610af45760405162461bcd60e51b815260040161065a90612b28565b6000838152600d6020908152604091829020805460ff1916851515908117909155915191825284917fe15c838be9b51164b98296aa772f0eeb923d5d565147205a923a2697522a8c9691015b60405180910390a2505050565b6001600160a01b038216610b7757604051633250574960e11b81526000600482015260240161065a565b6000610b84838333611516565b9050836001600160a01b0316816001600160a01b031614610bd2576040516364283d7b60e01b81526001600160a01b038086166004830152602482018490528216604482015260640161065a565b50505050565b600082815260076020526040902060010154610bf38161150c565b610bd283836115bd565b6001600160a01b0381163314610c265760405163334bd91960e11b815260040160405180910390fd5b610c308282611651565b505050565b7f65d7a28e3265b37a6474929f336521b332c1681b933f6cb9f3376673440d862a610c5f8161150c565b610c676116be565b50565b610c3083838360405180602001604052806000815250610f69565b600080808080606081610cad886000908152600260205260409020546001600160a01b031690565b6001600160a01b031603610cd35760405162461bcd60e51b815260040161065a90612b28565b60008781526010602090815260408083205460118352818420546012845282852054600d855283862054600e865284872054600f90965293909520805492959194919360ff908116939216918190610d2a90612aee565b80601f0160208091040260200160405190810160405280929190818152602001828054610d5690612aee565b8015610da35780601f10610d7857610100808354040283529160200191610da3565b820191906000526020600020905b815481529060010190602001808311610d8657829003601f168201915b5050505050905095509550955095509550955091939550919395565b60006108aa826114c6565b60006001600160a01b038216610df6576040516322718ad960e21b81526000600482015260240161065a565b506001600160a01b031660009081526003602052604090205490565b7f65d7a28e3265b37a6474929f336521b332c1681b933f6cb9f3376673440d862a610e3c8161150c565b610c67611710565b600060608060008060006060610e5861174d565b610e6061177f565b60408051600080825260208201909252600f60f81b9b939a50919850469750309650945092509050565b60009182526007602090815260408084206001600160a01b0393909316845291905290205460ff1690565b6060600180546108bf90612aee565b600f6020526000908152604090208054610edd90612aee565b80601f0160208091040260200160405190810160405280929190818152602001828054610f0990612aee565b8015610f565780601f10610f2b57610100808354040283529160200191610f56565b820191906000526020600020905b815481529060010190602001808311610f3957829003601f168201915b505050505081565b6109763383836117ac565b610f74848484610b4d565b610bd2338585858561184b565b60606108aa82611976565b600082815260076020526040902060010154610fa78161150c565b610bd28383611651565b6001600160a01b03918216600090815260056020908152604080832093909416825291909152205460ff1690565b7fce3f34913921da558f105cefb578d87278debbbd073a8d552b5de0d168deee306110098161150c565b6000838152600260205260409020546001600160a01b031661103d5760405162461bcd60e51b815260040161065a90612b28565b6000838152600e602052604090205460ff161561108e5760405162461bcd60e51b815260206004820152600f60248201526e105b1c9958591e481c995d9bdad959608a1b604482015260640161065a565b6000838152600e60209081526040808320805460ff19166001179055600f90915290206110bb8382612b9c565b50827f8d534bd9c2c60f1201e9f0ccec5fcda358f4d63537ac9f80c54728bee7f38de2833342604051610b4093929190612c5c565b600080516020612dbd8339815191526111088161150c565b611110611390565b6111186113ba565b878614801561112657508584145b801561113157508382145b6111755760405162461bcd60e51b8152602060048201526015602482015274082e4e4c2f240d8cadccee8d040dad2e6dac2e8c6d605b1b604482015260640161065a565b60005b8881101561137a57600c80546000918261119183612a9e565b9190505590506111c78b8b848181106111ac576111ac612c8a565b90506020020160208101906111c191906127f2565b82611437565b611229818686858181106111dd576111dd612c8a565b90506020028101906111ef9190612ca0565b8080601f01602080910402602001604051908101604052809392919081815260200183838082843760009201919091525061145192505050565b88888381811061123b5761123b612c8a565b90506020020135601060008381526020019081526020016000208190555086868381811061126b5761126b612c8a565b6000848152601160209081526040808320938202959095013590925560128252838120429055600d90915291909120805460ff19166001179055508888838181106112b8576112b8612c8a565b905060200201358b8b848181106112d1576112d1612c8a565b90506020020160208101906112e691906127f2565b6001600160a01b0316827f9b0ef120b6fa26c3ab0eb36ed50abe87249253f57eab819c23138cd905259c2d8a8a8781811061132357611323612c8a565b9050602002013589898881811061133c5761133c612c8a565b905060200281019061134e9190612ca0565b4260405161135f9493929190612ce7565b60405180910390a4508061137281612a9e565b915050611178565b506113856001600955565b505050505050505050565b6002600954036113b357604051633ee5aeb560e01b815260040160405180910390fd5b6002600955565b60085460ff16156113de5760405163d93c066560e01b815260040160405180910390fd5b565b60006108aa6113ed611a87565b8360405161190160f01b8152600281019290925260228201526042902090565b60008060008061141d8686611bb2565b92509250925061142d8282611bff565b5090949350505050565b610976828260405180602001604052806000815250611cb8565b60008281526006602052604090206114698282612b9c565b506040518281527ff8e1a15aba9398e019f0b49df1a4fde98ee17ae345cb5f6b5e2c27f5033e8ce79060200160405180910390a15050565b60006001600160e01b03198216637965db0b60e01b14806108aa57506108aa82611cd0565b6000818152600260205260408120546001600160a01b0316806108aa57604051637e27328960e01b81526004810184905260240161065a565b610c308383836001611cf5565b610c678133611dfb565b6000828152600260205260408120546001600160a01b0316801580159061154557506001600160a01b03851615155b156115a9576000848152600d602052604090205460ff16156115a95760405162461bcd60e51b815260206004820152601960248201527f546f6b656e206973206e6f6e2d7472616e7366657261626c6500000000000000604482015260640161065a565b6115b4858585611e34565b95945050505050565b60006115c98383610e8a565b6116495760008381526007602090815260408083206001600160a01b03861684529091529020805460ff191660011790556116013390565b6001600160a01b0316826001600160a01b0316847f2f8788117e7eff1d82e926ec794901d17c78024a50270940304540a733656f0d60405160405180910390a45060016108aa565b5060006108aa565b600061165d8383610e8a565b156116495760008381526007602090815260408083206001600160a01b0386168085529252808320805460ff1916905551339286917ff6391f5c32d9c69d2a47ea670b442974b53935d1edc7fd64eb21e047a839171b9190a45060016108aa565b6116c6611f2d565b6008805460ff191690557f5db9ee0a495bf2e6ff9c91a7834c1ba4fdd244a5e8aa4e537bd38aeae4b073aa335b6040516001600160a01b03909116815260200160405180910390a1565b6117186113ba565b6008805460ff191660011790557f62e78cea01bee320cd4e420270b5ea74000d11b0c9f74754ebdbfc544b05a2586116f33390565b606061177a7f0000000000000000000000000000000000000000000000000000000000000000600a611f50565b905090565b606061177a7f0000000000000000000000000000000000000000000000000000000000000000600b611f50565b6001600160a01b0382166117de57604051630b61174360e31b81526001600160a01b038316600482015260240161065a565b6001600160a01b03838116600081815260056020908152604080832094871680845294825291829020805460ff191686151590811790915591519182527f17307eab39ab6107e8899845ad3d59bd9653f200f220920489ca2b5937696c31910160405180910390a3505050565b6001600160a01b0383163b1561196f57604051630a85bd0160e11b81526001600160a01b0384169063150b7a029061188d908890889087908790600401612d27565b6020604051808303816000875af19250505080156118c8575060408051601f3d908101601f191682019092526118c591810190612d5a565b60015b611931573d8080156118f6576040519150601f19603f3d011682016040523d82523d6000602084013e6118fb565b606091505b50805160000361192957604051633250574960e11b81526001600160a01b038516600482015260240161065a565b805160208201fd5b6001600160e01b03198116630a85bd0160e11b1461196d57604051633250574960e11b81526001600160a01b038516600482015260240161065a565b505b5050505050565b6060611981826114c6565b506000828152600660205260408120805461199b90612aee565b80601f01602080910402602001604051908101604052809291908181526020018280546119c790612aee565b8015611a145780601f106119e957610100808354040283529160200191611a14565b820191906000526020600020905b8154815290600101906020018083116119f757829003601f168201915b505050505090506000611a3260408051602081019091526000815290565b90508051600003611a44575092915050565b815115611a76578082604051602001611a5e929190612d77565b60405160208183030381529060405292505050919050565b611a7f84611ffb565b949350505050565b6000306001600160a01b037f000000000000000000000000000000000000000000000000000000000000000016148015611ae057507f000000000000000000000000000000000000000000000000000000000000000046145b15611b0a57507f000000000000000000000000000000000000000000000000000000000000000090565b61177a604080517f8b73c3c69bb8fe3d512ecc4cf759cc79239f7b179b0ffacaa9a75d522b39400f60208201527f0000000000000000000000000000000000000000000000000000000000000000918101919091527f000000000000000000000000000000000000000000000000000000000000000060608201524660808201523060a082015260009060c00160405160208183030381529060405280519060200120905090565b60008060008351604103611bec5760208401516040850151606086015160001a611bde88828585612070565b955095509550505050611bf8565b50508151600091506002905b9250925092565b6000826003811115611c1357611c13612da6565b03611c1c575050565b6001826003811115611c3057611c30612da6565b03611c4e5760405163f645eedf60e01b815260040160405180910390fd5b6002826003811115611c6257611c62612da6565b03611c835760405163fce698f760e01b81526004810182905260240161065a565b6003826003811115611c9757611c97612da6565b03610976576040516335e2f38360e21b81526004810182905260240161065a565b611cc2838361213f565b610c3033600085858561184b565b60006001600160e01b03198216632483248360e11b14806108aa57506108aa826121a4565b8080611d0957506001600160a01b03821615155b15611dcb576000611d19846114c6565b90506001600160a01b03831615801590611d455750826001600160a01b0316816001600160a01b031614155b8015611d585750611d568184610fb1565b155b15611d815760405163a9fbf51f60e01b81526001600160a01b038416600482015260240161065a565b8115611dc95783856001600160a01b0316826001600160a01b03167f8c5be1e5ebec7d5bd14f71427d1e84f3dd0314c0f7b2291e5b200ac8c7c3b92560405160405180910390a45b505b5050600090815260046020526040902080546001600160a01b0319166001600160a01b0392909216919091179055565b611e058282610e8a565b6109765760405163e2517d3f60e01b81526001600160a01b03821660048201526024810183905260440161065a565b6000828152600260205260408120546001600160a01b0390811690831615611e6157611e618184866121f4565b6001600160a01b03811615611e9f57611e7e600085600080611cf5565b6001600160a01b038116600090815260036020526040902080546000190190555b6001600160a01b03851615611ece576001600160a01b0385166000908152600360205260409020805460010190555b60008481526002602052604080822080546001600160a01b0319166001600160a01b0389811691821790925591518793918516917fddf252ad1be2c89b69c2b068fc378daa952ba7f163c4a11628f55a4df523b3ef91a4949350505050565b60085460ff166113de57604051638dfc202b60e01b815260040160405180910390fd5b606060ff8314611f6a57611f6383612258565b90506108aa565b818054611f7690612aee565b80601f0160208091040260200160405190810160405280929190818152602001828054611fa290612aee565b8015611fef5780601f10611fc457610100808354040283529160200191611fef565b820191906000526020600020905b815481529060010190602001808311611fd257829003601f168201915b505050505090506108aa565b6060612006826114c6565b50600061201e60408051602081019091526000815290565b9050600081511161203e5760405180602001604052806000815250612069565b8061204884612297565b604051602001612059929190612d77565b6040516020818303038152906040525b9392505050565b600080807f7fffffffffffffffffffffffffffffff5d576e7357a4501ddfe92f46681b20a08411156120ab5750600091506003905082612135565b604080516000808252602082018084528a905260ff891692820192909252606081018790526080810186905260019060a0016020604051602081039080840390855afa1580156120ff573d6000803e3d6000fd5b5050604051601f1901519150506001600160a01b03811661212b57506000925060019150829050612135565b9250600091508190505b9450945094915050565b6001600160a01b03821661216957604051633250574960e11b81526000600482015260240161065a565b600061217783836000611516565b90506001600160a01b03811615610c30576040516339e3563760e11b81526000600482015260240161065a565b60006001600160e01b031982166380ac58cd60e01b14806121d557506001600160e01b03198216635b5e139f60e01b145b806108aa57506301ffc9a760e01b6001600160e01b03198316146108aa565b6121ff83838361232a565b610c30576001600160a01b03831661222d57604051637e27328960e01b81526004810182905260240161065a565b60405163177e802f60e01b81526001600160a01b03831660048201526024810182905260440161065a565b606060006122658361238d565b604080516020808252818301909252919250600091906020820181803683375050509182525060208101929092525090565b606060006122a4836123b5565b600101905060008167ffffffffffffffff8111156122c4576122c46124a9565b6040519080825280601f01601f1916602001820160405280156122ee576020820181803683370190505b5090508181016020015b600019016f181899199a1a9b1b9c1cb0b131b232b360811b600a86061a8153600a85049450846122f857509392505050565b60006001600160a01b03831615801590611a7f5750826001600160a01b0316846001600160a01b0316148061236457506123648484610fb1565b80611a7f5750506000908152600460205260409020546001600160a01b03908116911614919050565b600060ff8216601f8111156108aa57604051632cd44ac360e21b815260040160405180910390fd5b60008072184f03e93ff9f4daa797ed6e38ed64bf6a1f0160401b83106123f45772184f03e93ff9f4daa797ed6e38ed64bf6a1f0160401b830492506040015b6d04ee2d6d415b85acef81000000008310612420576d04ee2d6d415b85acef8100000000830492506020015b662386f26fc10000831061243e57662386f26fc10000830492506010015b6305f5e1008310612456576305f5e100830492506008015b612710831061246a57612710830492506004015b6064831061247c576064830492506002015b600a83106108aa5760010192915050565b80356001600160a01b03811681146124a457600080fd5b919050565b634e487b7160e01b600052604160045260246000fd5b600082601f8301126124d057600080fd5b813567ffffffffffffffff808211156124eb576124eb6124a9565b604051601f8301601f19908116603f01168101908282118183101715612513576125136124a9565b8160405283815286602085880101111561252c57600080fd5b836020870160208301376000602085830101528094505050505092915050565b60008060008060008060c0878903121561256557600080fd5b61256e8761248d565b95506020870135945060408701359350606087013567ffffffffffffffff8082111561259957600080fd5b6125a58a838b016124bf565b94506080890135935060a08901359150808211156125c257600080fd5b506125cf89828a016124bf565b9150509295509295509295565b6001600160e01b031981168114610c6757600080fd5b60006020828403121561260457600080fd5b8135612069816125dc565b60005b8381101561262a578181015183820152602001612612565b50506000910152565b6000815180845261264b81602086016020860161260f565b601f01601f19169290920160200192915050565b6020815260006120696020830184612633565b60006020828403121561268457600080fd5b5035919050565b6000806040838503121561269e57600080fd5b6126a78361248d565b946020939093013593505050565b600080600080608085870312156126cb57600080fd5b6126d48561248d565b93506020850135925060408501359150606085013567ffffffffffffffff8111156126fe57600080fd5b61270a878288016124bf565b91505092959194509250565b803580151581146124a457600080fd5b6000806040838503121561273957600080fd5b8235915061274960208401612716565b90509250929050565b60008060006060848603121561276757600080fd5b6127708461248d565b925061277e6020850161248d565b9150604084013590509250925092565b600080604083850312156127a157600080fd5b823591506127496020840161248d565b8681528560208201528460408201528315156060820152821515608082015260c060a082015260006127e660c0830184612633565b98975050505050505050565b60006020828403121561280457600080fd5b6120698261248d565b60ff60f81b881681526000602060e08184015261282d60e084018a612633565b838103604085015261283f818a612633565b606085018990526001600160a01b038816608086015260a0850187905284810360c0860152855180825283870192509083019060005b8181101561289157835183529284019291840191600101612875565b50909c9b505050505050505050505050565b600080604083850312156128b657600080fd5b6128bf8361248d565b915061274960208401612716565b600080600080608085870312156128e357600080fd5b6128ec8561248d565b93506128fa6020860161248d565b925060408501359150606085013567ffffffffffffffff8111156126fe57600080fd5b6000806040838503121561293057600080fd5b6129398361248d565b91506127496020840161248d565b6000806040838503121561295a57600080fd5b82359150602083013567ffffffffffffffff81111561297857600080fd5b612984858286016124bf565b9150509250929050565b60008083601f8401126129a057600080fd5b50813567ffffffffffffffff8111156129b857600080fd5b6020830191508360208260051b85010111156129d357600080fd5b9250929050565b6000806000806000806000806080898b0312156129f657600080fd5b883567ffffffffffffffff80821115612a0e57600080fd5b612a1a8c838d0161298e565b909a50985060208b0135915080821115612a3357600080fd5b612a3f8c838d0161298e565b909850965060408b0135915080821115612a5857600080fd5b612a648c838d0161298e565b909650945060608b0135915080821115612a7d57600080fd5b50612a8a8b828c0161298e565b999c989b5096995094979396929594505050565b600060018201612abe57634e487b7160e01b600052601160045260246000fd5b5060010190565b838152606060208201526000612ade6060830185612633565b9050826040830152949350505050565b600181811c90821680612b0257607f821691505b602082108103612b2257634e487b7160e01b600052602260045260246000fd5b50919050565b602080825260149082015273151bdad95b88191bd95cc81b9bdd08195e1a5cdd60621b604082015260600190565b601f821115610c3057600081815260208120601f850160051c81016020861015612b7d5750805b601f850160051c820191505b8181101561196d57828155600101612b89565b815167ffffffffffffffff811115612bb657612bb66124a9565b612bca81612bc48454612aee565b84612b56565b602080601f831160018114612bff5760008415612be75750858301515b600019600386901b1c1916600185901b17855561196d565b600085815260208120601f198616915b82811015612c2e57888601518255948401946001909101908401612c0f565b5085821015612c4c5787850151600019600388901b60f8161c191681555b5050505050600190811b01905550565b606081526000612c6f6060830186612633565b6001600160a01b039490941660208301525060400152919050565b634e487b7160e01b600052603260045260246000fd5b6000808335601e19843603018112612cb757600080fd5b83018035915067ffffffffffffffff821115612cd257600080fd5b6020019150368190038213156129d357600080fd5b848152606060208201528260608201528284608083013760006080848301015260006080601f19601f860116830101905082604083015295945050505050565b6001600160a01b038581168252841660208201526040810183905260806060820181905260009061089590830184612633565b600060208284031215612d6c57600080fd5b8151612069816125dc565b60008351612d8981846020880161260f565b835190830190612d9d81836020880161260f565b01949350505050565b634e487b7160e01b600052602160045260246000fdfe9f2df0fed2c77648de5860a4cc508cd0818c85b8b8a1ab4ceeef8d981c8956a6a2646970667358221220b0ae842dad9d5a44502897c1f3b1bfa7b082f8f1d7437973f83f49331d0b7b5364736f6c63430008140033",
  "linkReferences": {},
  "deployedLinkReferences": {}
}